{
	"main.sol": {
		"TaxableToken": {
			"abi": [
				{
					"inputs": [
						{
							"internalType": "string",
							"name": "name",
							"type": "string"
						},
						{
							"internalType": "string",
							"name": "symbol",
							"type": "string"
						},
						{
							"internalType": "address",
							"name": "_treasury",
							"type": "address"
						},
						{
							"internalType": "uint256",
							"name": "_taxFee",
							"type": "uint256"
						},
						{
							"internalType": "address",
							"name": "initialOwner",
							"type": "address"
						}
					],
					"stateMutability": "nonpayable",
					"type": "constructor"
				},
				{
					"inputs": [
						{
							"internalType": "address",
							"name": "spender",
							"type": "address"
						},
						{
							"internalType": "uint256",
							"name": "allowance",
							"type": "uint256"
						},
						{
							"internalType": "uint256",
							"name": "needed",
							"type": "uint256"
						}
					],
					"name": "ERC20InsufficientAllowance",
					"type": "error"
				},
				{
					"inputs": [
						{
							"internalType": "address",
							"name": "sender",
							"type": "address"
						},
						{
							"internalType": "uint256",
							"name": "balance",
							"type": "uint256"
						},
						{
							"internalType": "uint256",
							"name": "needed",
							"type": "uint256"
						}
					],
					"name": "ERC20InsufficientBalance",
					"type": "error"
				},
				{
					"inputs": [
						{
							"internalType": "address",
							"name": "approver",
							"type": "address"
						}
					],
					"name": "ERC20InvalidApprover",
					"type": "error"
				},
				{
					"inputs": [
						{
							"internalType": "address",
							"name": "receiver",
							"type": "address"
						}
					],
					"name": "ERC20InvalidReceiver",
					"type": "error"
				},
				{
					"inputs": [
						{
							"internalType": "address",
							"name": "sender",
							"type": "address"
						}
					],
					"name": "ERC20InvalidSender",
					"type": "error"
				},
				{
					"inputs": [
						{
							"internalType": "address",
							"name": "spender",
							"type": "address"
						}
					],
					"name": "ERC20InvalidSpender",
					"type": "error"
				},
				{
					"inputs": [],
					"name": "InvalidTaxFee",
					"type": "error"
				},
				{
					"inputs": [],
					"name": "InvalidTreasuryAddress",
					"type": "error"
				},
				{
					"inputs": [
						{
							"internalType": "address",
							"name": "owner",
							"type": "address"
						}
					],
					"name": "OwnableInvalidOwner",
					"type": "error"
				},
				{
					"inputs": [
						{
							"internalType": "address",
							"name": "account",
							"type": "address"
						}
					],
					"name": "OwnableUnauthorizedAccount",
					"type": "error"
				},
				{
					"inputs": [],
					"name": "TransferFailed",
					"type": "error"
				},
				{
					"anonymous": false,
					"inputs": [
						{
							"indexed": true,
							"internalType": "address",
							"name": "owner",
							"type": "address"
						},
						{
							"indexed": true,
							"internalType": "address",
							"name": "spender",
							"type": "address"
						},
						{
							"indexed": false,
							"internalType": "uint256",
							"name": "value",
							"type": "uint256"
						}
					],
					"name": "Approval",
					"type": "event"
				},
				{
					"anonymous": false,
					"inputs": [
						{
							"indexed": true,
							"internalType": "address",
							"name": "account",
							"type": "address"
						},
						{
							"indexed": false,
							"internalType": "bool",
							"name": "isExempt",
							"type": "bool"
						}
					],
					"name": "FeeExemptionSet",
					"type": "event"
				},
				{
					"anonymous": false,
					"inputs": [
						{
							"indexed": true,
							"internalType": "address",
							"name": "previousOwner",
							"type": "address"
						},
						{
							"indexed": true,
							"internalType": "address",
							"name": "newOwner",
							"type": "address"
						}
					],
					"name": "OwnershipTransferred",
					"type": "event"
				},
				{
					"anonymous": false,
					"inputs": [
						{
							"indexed": false,
							"internalType": "address",
							"name": "account",
							"type": "address"
						}
					],
					"name": "Paused",
					"type": "event"
				},
				{
					"anonymous": false,
					"inputs": [
						{
							"indexed": true,
							"internalType": "address",
							"name": "from",
							"type": "address"
						},
						{
							"indexed": true,
							"internalType": "address",
							"name": "to",
							"type": "address"
						},
						{
							"indexed": false,
							"internalType": "uint256",
							"name": "taxAmount",
							"type": "uint256"
						},
						{
							"indexed": false,
							"internalType": "uint256",
							"name": "netAmount",
							"type": "uint256"
						}
					],
					"name": "TaxCollected",
					"type": "event"
				},
				{
					"anonymous": false,
					"inputs": [
						{
							"indexed": false,
							"internalType": "uint256",
							"name": "oldFee",
							"type": "uint256"
						},
						{
							"indexed": false,
							"internalType": "uint256",
							"name": "newFee",
							"type": "uint256"
						}
					],
					"name": "TaxFeeUpdated",
					"type": "event"
				},
				{
					"anonymous": false,
					"inputs": [
						{
							"indexed": true,
							"internalType": "address",
							"name": "from",
							"type": "address"
						},
						{
							"indexed": true,
							"internalType": "address",
							"name": "to",
							"type": "address"
						},
						{
							"indexed": false,
							"internalType": "uint256",
							"name": "value",
							"type": "uint256"
						}
					],
					"name": "Transfer",
					"type": "event"
				},
				{
					"anonymous": false,
					"inputs": [
						{
							"indexed": true,
							"internalType": "address",
							"name": "oldTreasury",
							"type": "address"
						},
						{
							"indexed": true,
							"internalType": "address",
							"name": "newTreasury",
							"type": "address"
						}
					],
					"name": "TreasuryUpdated",
					"type": "event"
				},
				{
					"anonymous": false,
					"inputs": [
						{
							"indexed": false,
							"internalType": "address",
							"name": "account",
							"type": "address"
						}
					],
					"name": "Unpaused",
					"type": "event"
				},
				{
					"inputs": [
						{
							"internalType": "address",
							"name": "owner",
							"type": "address"
						},
						{
							"internalType": "address",
							"name": "spender",
							"type": "address"
						}
					],
					"name": "allowance",
					"outputs": [
						{
							"internalType": "uint256",
							"name": "",
							"type": "uint256"
						}
					],
					"stateMutability": "view",
					"type": "function"
				},
				{
					"inputs": [
						{
							"internalType": "address",
							"name": "spender",
							"type": "address"
						},
						{
							"internalType": "uint256",
							"name": "value",
							"type": "uint256"
						}
					],
					"name": "approve",
					"outputs": [
						{
							"internalType": "bool",
							"name": "",
							"type": "bool"
						}
					],
					"stateMutability": "nonpayable",
					"type": "function"
				},
				{
					"inputs": [
						{
							"internalType": "address",
							"name": "account",
							"type": "address"
						}
					],
					"name": "balanceOf",
					"outputs": [
						{
							"internalType": "uint256",
							"name": "",
							"type": "uint256"
						}
					],
					"stateMutability": "view",
					"type": "function"
				},
				{
					"inputs": [
						{
							"internalType": "uint256",
							"name": "amount",
							"type": "uint256"
						}
					],
					"name": "calculateTax",
					"outputs": [
						{
							"internalType": "uint256",
							"name": "taxAmount",
							"type": "uint256"
						},
						{
							"internalType": "uint256",
							"name": "netAmount",
							"type": "uint256"
						}
					],
					"stateMutability": "view",
					"type": "function"
				},
				{
					"inputs": [],
					"name": "decimals",
					"outputs": [
						{
							"internalType": "uint8",
							"name": "",
							"type": "uint8"
						}
					],
					"stateMutability": "view",
					"type": "function"
				},
				{
					"inputs": [
						{
							"internalType": "address",
							"name": "account",
							"type": "address"
						}
					],
					"name": "isAddressExempt",
					"outputs": [
						{
							"internalType": "bool",
							"name": "",
							"type": "bool"
						}
					],
					"stateMutability": "view",
					"type": "function"
				},
				{
					"inputs": [
						{
							"internalType": "address",
							"name": "",
							"type": "address"
						}
					],
					"name": "isFeeExempt",
					"outputs": [
						{
							"internalType": "bool",
							"name": "",
							"type": "bool"
						}
					],
					"stateMutability": "view",
					"type": "function"
				},
				{
					"inputs": [],
					"name": "name",
					"outputs": [
						{
							"internalType": "string",
							"name": "",
							"type": "string"
						}
					],
					"stateMutability": "view",
					"type": "function"
				},
				{
					"inputs": [],
					"name": "owner",
					"outputs": [
						{
							"internalType": "address",
							"name": "",
							"type": "address"
						}
					],
					"stateMutability": "view",
					"type": "function"
				},
				{
					"inputs": [],
					"name": "pause",
					"outputs": [],
					"stateMutability": "nonpayable",
					"type": "function"
				},
				{
					"inputs": [],
					"name": "paused",
					"outputs": [
						{
							"internalType": "bool",
							"name": "",
							"type": "bool"
						}
					],
					"stateMutability": "view",
					"type": "function"
				},
				{
					"inputs": [],
					"name": "renounceOwnership",
					"outputs": [],
					"stateMutability": "nonpayable",
					"type": "function"
				},
				{
					"inputs": [
						{
							"internalType": "address",
							"name": "account",
							"type": "address"
						},
						{
							"internalType": "bool",
							"name": "exempt",
							"type": "bool"
						}
					],
					"name": "setFeeExempt",
					"outputs": [],
					"stateMutability": "nonpayable",
					"type": "function"
				},
				{
					"inputs": [
						{
							"internalType": "uint256",
							"name": "_newTaxFee",
							"type": "uint256"
						}
					],
					"name": "setTaxFee",
					"outputs": [],
					"stateMutability": "nonpayable",
					"type": "function"
				},
				{
					"inputs": [
						{
							"internalType": "address",
							"name": "_newTreasury",
							"type": "address"
						}
					],
					"name": "setTreasury",
					"outputs": [],
					"stateMutability": "nonpayable",
					"type": "function"
				},
				{
					"inputs": [],
					"name": "symbol",
					"outputs": [
						{
							"internalType": "string",
							"name": "",
							"type": "string"
						}
					],
					"stateMutability": "view",
					"type": "function"
				},
				{
					"inputs": [],
					"name": "taxFee",
					"outputs": [
						{
							"internalType": "uint256",
							"name": "",
							"type": "uint256"
						}
					],
					"stateMutability": "view",
					"type": "function"
				},
				{
					"inputs": [],
					"name": "totalSupply",
					"outputs": [
						{
							"internalType": "uint256",
							"name": "",
							"type": "uint256"
						}
					],
					"stateMutability": "view",
					"type": "function"
				},
				{
					"inputs": [
						{
							"internalType": "address",
							"name": "to",
							"type": "address"
						},
						{
							"internalType": "uint256",
							"name": "value",
							"type": "uint256"
						}
					],
					"name": "transfer",
					"outputs": [
						{
							"internalType": "bool",
							"name": "",
							"type": "bool"
						}
					],
					"stateMutability": "nonpayable",
					"type": "function"
				},
				{
					"inputs": [
						{
							"internalType": "address",
							"name": "from",
							"type": "address"
						},
						{
							"internalType": "address",
							"name": "to",
							"type": "address"
						},
						{
							"internalType": "uint256",
							"name": "value",
							"type": "uint256"
						}
					],
					"name": "transferFrom",
					"outputs": [
						{
							"internalType": "bool",
							"name": "",
							"type": "bool"
						}
					],
					"stateMutability": "nonpayable",
					"type": "function"
				},
				{
					"inputs": [
						{
							"internalType": "address",
							"name": "newOwner",
							"type": "address"
						}
					],
					"name": "transferOwnership",
					"outputs": [],
					"stateMutability": "nonpayable",
					"type": "function"
				},
				{
					"inputs": [],
					"name": "treasury",
					"outputs": [
						{
							"internalType": "address",
							"name": "",
							"type": "address"
						}
					],
					"stateMutability": "view",
					"type": "function"
				},
				{
					"inputs": [],
					"name": "unpause",
					"outputs": [],
					"stateMutability": "nonpayable",
					"type": "function"
				}
			],
			"devdoc": {
				"details": "ERC20 token con sistema de impuestos en transferencias",
				"errors": {
					"ERC20InsufficientAllowance(address,uint256,uint256)": [
						{
							"details": "Indicates a failure with the `spender`’s `allowance`. Used in transfers.",
							"params": {
								"allowance": "Amount of tokens a `spender` is allowed to operate with.",
								"needed": "Minimum amount required to perform a transfer.",
								"spender": "Address that may be allowed to operate on tokens without being their owner."
							}
						}
					],
					"ERC20InsufficientBalance(address,uint256,uint256)": [
						{
							"details": "Indicates an error related to the current `balance` of a `sender`. Used in transfers.",
							"params": {
								"balance": "Current balance for the interacting account.",
								"needed": "Minimum amount required to perform a transfer.",
								"sender": "Address whose tokens are being transferred."
							}
						}
					],
					"ERC20InvalidApprover(address)": [
						{
							"details": "Indicates a failure with the `approver` of a token to be approved. Used in approvals.",
							"params": {
								"approver": "Address initiating an approval operation."
							}
						}
					],
					"ERC20InvalidReceiver(address)": [
						{
							"details": "Indicates a failure with the token `receiver`. Used in transfers.",
							"params": {
								"receiver": "Address to which tokens are being transferred."
							}
						}
					],
					"ERC20InvalidSender(address)": [
						{
							"details": "Indicates a failure with the token `sender`. Used in transfers.",
							"params": {
								"sender": "Address whose tokens are being transferred."
							}
						}
					],
					"ERC20InvalidSpender(address)": [
						{
							"details": "Indicates a failure with the `spender` to be approved. Used in approvals.",
							"params": {
								"spender": "Address that may be allowed to operate on tokens without being their owner."
							}
						}
					],
					"OwnableInvalidOwner(address)": [
						{
							"details": "The owner is not a valid owner account. (eg. `address(0)`)"
						}
					],
					"OwnableUnauthorizedAccount(address)": [
						{
							"details": "The caller account is not authorized to perform an operation."
						}
					]
				},
				"events": {
					"Approval(address,address,uint256)": {
						"details": "Emitted when the allowance of a `spender` for an `owner` is set by a call to {approve}. `value` is the new allowance."
					},
					"Paused(address)": {
						"details": "Emitted when the pause is triggered by `account`."
					},
					"Transfer(address,address,uint256)": {
						"details": "Emitted when `value` tokens are moved from one account (`from`) to another (`to`). Note that `value` may be zero."
					},
					"Unpaused(address)": {
						"details": "Emitted when the pause is lifted by `account`."
					}
				},
				"kind": "dev",
				"methods": {
					"allowance(address,address)": {
						"details": "Returns the remaining number of tokens that `spender` will be allowed to spend on behalf of `owner` through {transferFrom}. This is zero by default. This value changes when {approve} or {transferFrom} are called."
					},
					"approve(address,uint256)": {
						"details": "See {IERC20-approve}. NOTE: If `value` is the maximum `uint256`, the allowance is not updated on `transferFrom`. This is semantically equivalent to an infinite approval. Requirements: - `spender` cannot be the zero address."
					},
					"balanceOf(address)": {
						"details": "Returns the value of tokens owned by `account`."
					},
					"calculateTax(uint256)": {
						"details": "Calcula el impuesto y monto neto para una transferencia"
					},
					"constructor": {
						"details": "Constructor del contrato",
						"params": {
							"_taxFee": "Porcentaje de impuesto (0-100)",
							"_treasury": "Dirección de la tesorería",
							"initialOwner": "Dirección del propietario inicial",
							"name": "Nombre del token",
							"symbol": "Símbolo del token"
						}
					},
					"decimals()": {
						"details": "Returns the number of decimals used to get its user representation. For example, if `decimals` equals `2`, a balance of `505` tokens should be displayed to a user as `5.05` (`505 / 10 ** 2`). Tokens usually opt for a value of 18, imitating the relationship between Ether and Wei. This is the default value returned by this function, unless it's overridden. NOTE: This information is only used for _display_ purposes: it in no way affects any of the arithmetic of the contract, including {IERC20-balanceOf} and {IERC20-transfer}."
					},
					"isAddressExempt(address)": {
						"details": "Función de utilidad para verificar si una dirección está exenta"
					},
					"name()": {
						"details": "Returns the name of the token."
					},
					"owner()": {
						"details": "Returns the address of the current owner."
					},
					"pause()": {
						"details": "Pausa todas las transferencias"
					},
					"paused()": {
						"details": "Returns true if the contract is paused, and false otherwise."
					},
					"renounceOwnership()": {
						"details": "Leaves the contract without owner. It will not be possible to call `onlyOwner` functions. Can only be called by the current owner. NOTE: Renouncing ownership will leave the contract without an owner, thereby disabling any functionality that is only available to the owner."
					},
					"setFeeExempt(address,bool)": {
						"details": "Establece la exención de impuestos para una dirección",
						"params": {
							"account": "Dirección a modificar",
							"exempt": "true para exentar, false para aplicar impuestos"
						}
					},
					"setTaxFee(uint256)": {
						"details": "Actualiza el porcentaje de impuesto",
						"params": {
							"_newTaxFee": "Nuevo porcentaje (0-100)"
						}
					},
					"setTreasury(address)": {
						"details": "Actualiza la dirección de la tesorería",
						"params": {
							"_newTreasury": "Nueva dirección de tesorería"
						}
					},
					"symbol()": {
						"details": "Returns the symbol of the token, usually a shorter version of the name."
					},
					"totalSupply()": {
						"details": "Returns the value of tokens in existence."
					},
					"transfer(address,uint256)": {
						"details": "See {IERC20-transfer}. Requirements: - `to` cannot be the zero address. - the caller must have a balance of at least `value`."
					},
					"transferFrom(address,address,uint256)": {
						"details": "See {IERC20-transferFrom}. Skips emitting an {Approval} event indicating an allowance update. This is not required by the ERC. See {xref-ERC20-_approve-address-address-uint256-bool-}[_approve]. NOTE: Does not update the allowance if the current allowance is the maximum `uint256`. Requirements: - `from` and `to` cannot be the zero address. - `from` must have a balance of at least `value`. - the caller must have allowance for ``from``'s tokens of at least `value`."
					},
					"transferOwnership(address)": {
						"details": "Transfers ownership of the contract to a new account (`newOwner`). Can only be called by the current owner."
					},
					"unpause()": {
						"details": "Reanuda las transferencias"
					}
				},
				"title": "TaxableToken",
				"version": 1
			},
			"evm": {
				"assembly": "    /* \"main.sol\":328:5415  contract TaxableToken is ERC20, Ownable, Pausable {... */\n  mstore(0x40, 0x80)\n    /* \"main.sol\":1396:2184  constructor(... */\n  callvalue\n  dup1\n  iszero\n  tag_1\n  jumpi\n  0x00\n  dup1\n  revert\ntag_1:\n  pop\n  mload(0x40)\n  sub(codesize, bytecodeSize)\n  dup1\n  bytecodeSize\n  dup4\n  codecopy\n  dup2\n  dup2\n  add\n  0x40\n  mstore\n  dup2\n  add\n  swap1\n  tag_2\n  swap2\n  swap1\n  tag_3\n  jump\t// in\ntag_2:\n    /* \"main.sol\":1588:1600  initialOwner */\n  dup1\n    /* \"main.sol\":1566:1570  name */\n  dup6\n    /* \"main.sol\":1572:1578  symbol */\n  dup6\n    /* \"@openzeppelin/contracts/token/ERC20/ERC20.sol\":1656:1661  name_ */\n  dup2\n    /* \"@openzeppelin/contracts/token/ERC20/ERC20.sol\":1648:1653  _name */\n  0x03\n    /* \"@openzeppelin/contracts/token/ERC20/ERC20.sol\":1648:1661  _name = name_ */\n  swap1\n  dup2\n  tag_9\n  swap2\n  swap1\n  tag_10\n  jump\t// in\ntag_9:\n  pop\n    /* \"@openzeppelin/contracts/token/ERC20/ERC20.sol\":1681:1688  symbol_ */\n  dup1\n    /* \"@openzeppelin/contracts/token/ERC20/ERC20.sol\":1671:1678  _symbol */\n  0x04\n    /* \"@openzeppelin/contracts/token/ERC20/ERC20.sol\":1671:1688  _symbol = symbol_ */\n  swap1\n  dup2\n  tag_11\n  swap2\n  swap1\n  tag_10\n  jump\t// in\ntag_11:\n  pop\n    /* \"@openzeppelin/contracts/token/ERC20/ERC20.sol\":1582:1695  constructor(string memory name_, string memory symbol_) {... */\n  pop\n  pop\n    /* \"@openzeppelin/contracts/access/Ownable.sol\":1297:1298  0 */\n  0x00\n    /* \"@openzeppelin/contracts/access/Ownable.sol\":1273:1299  initialOwner == address(0) */\n  0xffffffffffffffffffffffffffffffffffffffff\n  and\n    /* \"@openzeppelin/contracts/access/Ownable.sol\":1273:1285  initialOwner */\n  dup2\n    /* \"@openzeppelin/contracts/access/Ownable.sol\":1273:1299  initialOwner == address(0) */\n  0xffffffffffffffffffffffffffffffffffffffff\n  and\n  sub\n    /* \"@openzeppelin/contracts/access/Ownable.sol\":1269:1364  if (initialOwner == address(0)) {... */\n  tag_13\n  jumpi\n    /* \"@openzeppelin/contracts/access/Ownable.sol\":1350:1351  0 */\n  0x00\n    /* \"@openzeppelin/contracts/access/Ownable.sol\":1322:1353  OwnableInvalidOwner(address(0)) */\n  mload(0x40)\n  0x1e4fbdf700000000000000000000000000000000000000000000000000000000\n  dup2\n  mstore\n  0x04\n  add\n  tag_14\n  swap2\n  swap1\n  tag_15\n  jump\t// in\ntag_14:\n  mload(0x40)\n  dup1\n  swap2\n  sub\n  swap1\n  revert\n    /* \"@openzeppelin/contracts/access/Ownable.sol\":1269:1364  if (initialOwner == address(0)) {... */\ntag_13:\n    /* \"@openzeppelin/contracts/access/Ownable.sol\":1373:1405  _transferOwnership(initialOwner) */\n  tag_16\n    /* \"@openzeppelin/contracts/access/Ownable.sol\":1392:1404  initialOwner */\n  dup2\n    /* \"@openzeppelin/contracts/access/Ownable.sol\":1373:1391  _transferOwnership */\n  shl(0x20, tag_17)\n    /* \"@openzeppelin/contracts/access/Ownable.sol\":1373:1405  _transferOwnership(initialOwner) */\n  0x20\n  shr\n  jump\t// in\ntag_16:\n    /* \"@openzeppelin/contracts/access/Ownable.sol\":1225:1412  constructor(address initialOwner) {... */\n  pop\n    /* \"@openzeppelin/contracts/security/Pausable.sol\":1006:1011  false */\n  0x00\n    /* \"@openzeppelin/contracts/security/Pausable.sol\":996:1003  _paused */\n  0x05\n  0x14\n    /* \"@openzeppelin/contracts/security/Pausable.sol\":996:1011  _paused = false */\n  0x0100\n  exp\n  dup2\n  sload\n  dup2\n  0xff\n  mul\n  not\n  and\n  swap1\n  dup4\n  iszero\n  iszero\n  mul\n  or\n  swap1\n  sstore\n  pop\n    /* \"main.sol\":1638:1639  0 */\n  0x00\n    /* \"main.sol\":1617:1640  _treasury == address(0) */\n  0xffffffffffffffffffffffffffffffffffffffff\n  and\n    /* \"main.sol\":1617:1626  _treasury */\n  dup4\n    /* \"main.sol\":1617:1640  _treasury == address(0) */\n  0xffffffffffffffffffffffffffffffffffffffff\n  and\n  sub\n    /* \"main.sol\":1613:1700  if (_treasury == address(0)) {... */\n  tag_20\n  jumpi\n    /* \"main.sol\":1664:1688  InvalidTreasuryAddress() */\n  mload(0x40)\n  0xcfe2ea6300000000000000000000000000000000000000000000000000000000\n  dup2\n  mstore\n  0x04\n  add\n  mload(0x40)\n  dup1\n  swap2\n  sub\n  swap1\n  revert\n    /* \"main.sol\":1613:1700  if (_treasury == address(0)) {... */\ntag_20:\n    /* \"main.sol\":1724:1727  100 */\n  0x64\n    /* \"main.sol\":1714:1721  _taxFee */\n  dup3\n    /* \"main.sol\":1714:1727  _taxFee > 100 */\n  gt\n    /* \"main.sol\":1710:1778  if (_taxFee > 100) {... */\n  iszero\n  tag_21\n  jumpi\n    /* \"main.sol\":1751:1766  InvalidTaxFee() */\n  mload(0x40)\n  0x5ba09ae000000000000000000000000000000000000000000000000000000000\n  dup2\n  mstore\n  0x04\n  add\n  mload(0x40)\n  dup1\n  swap2\n  sub\n  swap1\n  revert\n    /* \"main.sol\":1710:1778  if (_taxFee > 100) {... */\ntag_21:\n    /* \"main.sol\":1809:1818  _treasury */\n  dup3\n    /* \"main.sol\":1798:1806  treasury */\n  0x06\n  0x00\n    /* \"main.sol\":1798:1818  treasury = _treasury */\n  0x0100\n  exp\n  dup2\n  sload\n  dup2\n  0xffffffffffffffffffffffffffffffffffffffff\n  mul\n  not\n  and\n  swap1\n  dup4\n  0xffffffffffffffffffffffffffffffffffffffff\n  and\n  mul\n  or\n  swap1\n  sstore\n  pop\n    /* \"main.sol\":1838:1845  _taxFee */\n  dup2\n    /* \"main.sol\":1829:1835  taxFee */\n  0x07\n    /* \"main.sol\":1829:1845  taxFee = _taxFee */\n  dup2\n  swap1\n  sstore\n  pop\n    /* \"main.sol\":1958:1962  true */\n  0x01\n    /* \"main.sol\":1930:1941  isFeeExempt */\n  0x08\n    /* \"main.sol\":1930:1955  isFeeExempt[initialOwner] */\n  0x00\n    /* \"main.sol\":1942:1954  initialOwner */\n  dup4\n    /* \"main.sol\":1930:1955  isFeeExempt[initialOwner] */\n  0xffffffffffffffffffffffffffffffffffffffff\n  and\n  0xffffffffffffffffffffffffffffffffffffffff\n  and\n  dup2\n  mstore\n  0x20\n  add\n  swap1\n  dup2\n  mstore\n  0x20\n  add\n  0x00\n  keccak256\n  0x00\n    /* \"main.sol\":1930:1962  isFeeExempt[initialOwner] = true */\n  0x0100\n  exp\n  dup2\n  sload\n  dup2\n  0xff\n  mul\n  not\n  and\n  swap1\n  dup4\n  iszero\n  iszero\n  mul\n  or\n  swap1\n  sstore\n  pop\n    /* \"main.sol\":1998:2002  true */\n  0x01\n    /* \"main.sol\":1973:1984  isFeeExempt */\n  0x08\n    /* \"main.sol\":1973:1995  isFeeExempt[_treasury] */\n  0x00\n    /* \"main.sol\":1985:1994  _treasury */\n  dup6\n    /* \"main.sol\":1973:1995  isFeeExempt[_treasury] */\n  0xffffffffffffffffffffffffffffffffffffffff\n  and\n  0xffffffffffffffffffffffffffffffffffffffff\n  and\n  dup2\n  mstore\n  0x20\n  add\n  swap1\n  dup2\n  mstore\n  0x20\n  add\n  0x00\n  keccak256\n  0x00\n    /* \"main.sol\":1973:2002  isFeeExempt[_treasury] = true */\n  0x0100\n  exp\n  dup2\n  sload\n  dup2\n  0xff\n  mul\n  not\n  and\n  swap1\n  dup4\n  iszero\n  iszero\n  mul\n  or\n  swap1\n  sstore\n  pop\n    /* \"main.sol\":2042:2046  true */\n  0x01\n    /* \"main.sol\":2013:2024  isFeeExempt */\n  0x08\n    /* \"main.sol\":2013:2039  isFeeExempt[address(this)] */\n  0x00\n    /* \"main.sol\":2033:2037  this */\n  address\n    /* \"main.sol\":2013:2039  isFeeExempt[address(this)] */\n  0xffffffffffffffffffffffffffffffffffffffff\n  and\n  0xffffffffffffffffffffffffffffffffffffffff\n  and\n  dup2\n  mstore\n  0x20\n  add\n  swap1\n  dup2\n  mstore\n  0x20\n  add\n  0x00\n  keccak256\n  0x00\n    /* \"main.sol\":2013:2046  isFeeExempt[address(this)] = true */\n  0x0100\n  exp\n  dup2\n  sload\n  dup2\n  0xff\n  mul\n  not\n  and\n  swap1\n  dup4\n  iszero\n  iszero\n  mul\n  or\n  swap1\n  sstore\n  pop\n    /* \"main.sol\":2129:2176  _mint(initialOwner, 1_000_000 * 10**decimals()) */\n  tag_22\n    /* \"main.sol\":2135:2147  initialOwner */\n  dup2\n    /* \"main.sol\":2165:2175  decimals() */\n  tag_23\n    /* \"main.sol\":2165:2173  decimals */\n  shl(0x20, tag_24)\n    /* \"main.sol\":2165:2175  decimals() */\n  0x20\n  shr\n  jump\t// in\ntag_23:\n    /* \"main.sol\":2161:2163  10 */\n  0x0a\n    /* \"main.sol\":2161:2175  10**decimals() */\n  tag_25\n  swap2\n  swap1\n  tag_26\n  jump\t// in\ntag_25:\n    /* \"main.sol\":2149:2158  1_000_000 */\n  0x0f4240\n    /* \"main.sol\":2149:2175  1_000_000 * 10**decimals() */\n  tag_27\n  swap2\n  swap1\n  tag_28\n  jump\t// in\ntag_27:\n    /* \"main.sol\":2129:2134  _mint */\n  shl(0x20, tag_29)\n    /* \"main.sol\":2129:2176  _mint(initialOwner, 1_000_000 * 10**decimals()) */\n  0x20\n  shr\n  jump\t// in\ntag_22:\n    /* \"main.sol\":1396:2184  constructor(... */\n  pop\n  pop\n  pop\n  pop\n  pop\n    /* \"main.sol\":328:5415  contract TaxableToken is ERC20, Ownable, Pausable {... */\n  jump(tag_30)\n    /* \"@openzeppelin/contracts/access/Ownable.sol\":2912:3099  function _transferOwnership(address newOwner) internal virtual {... */\ntag_17:\n    /* \"@openzeppelin/contracts/access/Ownable.sol\":2985:3001  address oldOwner */\n  0x00\n    /* \"@openzeppelin/contracts/access/Ownable.sol\":3004:3010  _owner */\n  0x05\n  0x00\n  swap1\n  sload\n  swap1\n  0x0100\n  exp\n  swap1\n  div\n  0xffffffffffffffffffffffffffffffffffffffff\n  and\n    /* \"@openzeppelin/contracts/access/Ownable.sol\":2985:3010  address oldOwner = _owner */\n  swap1\n  pop\n    /* \"@openzeppelin/contracts/access/Ownable.sol\":3029:3037  newOwner */\n  dup2\n    /* \"@openzeppelin/contracts/access/Ownable.sol\":3020:3026  _owner */\n  0x05\n  0x00\n    /* \"@openzeppelin/contracts/access/Ownable.sol\":3020:3037  _owner = newOwner */\n  0x0100\n  exp\n  dup2\n  sload\n  dup2\n  0xffffffffffffffffffffffffffffffffffffffff\n  mul\n  not\n  and\n  swap1\n  dup4\n  0xffffffffffffffffffffffffffffffffffffffff\n  and\n  mul\n  or\n  swap1\n  sstore\n  pop\n    /* \"@openzeppelin/contracts/access/Ownable.sol\":3083:3091  newOwner */\n  dup2\n    /* \"@openzeppelin/contracts/access/Ownable.sol\":3052:3092  OwnershipTransferred(oldOwner, newOwner) */\n  0xffffffffffffffffffffffffffffffffffffffff\n  and\n    /* \"@openzeppelin/contracts/access/Ownable.sol\":3073:3081  oldOwner */\n  dup2\n    /* \"@openzeppelin/contracts/access/Ownable.sol\":3052:3092  OwnershipTransferred(oldOwner, newOwner) */\n  0xffffffffffffffffffffffffffffffffffffffff\n  and\n  0x8be0079c531659141344cd1fd0a4f28419497f9722a3daafe3b4186f6b6457e0\n  mload(0x40)\n  mload(0x40)\n  dup1\n  swap2\n  sub\n  swap1\n  log3\n    /* \"@openzeppelin/contracts/access/Ownable.sol\":2975:3099  {... */\n  pop\n    /* \"@openzeppelin/contracts/access/Ownable.sol\":2912:3099  function _transferOwnership(address newOwner) internal virtual {... */\n  pop\n  jump\t// out\n    /* \"@openzeppelin/contracts/token/ERC20/ERC20.sol\":2688:2770  function decimals() public view virtual returns (uint8) {... */\ntag_24:\n    /* \"@openzeppelin/contracts/token/ERC20/ERC20.sol\":2737:2742  uint8 */\n  0x00\n    /* \"@openzeppelin/contracts/token/ERC20/ERC20.sol\":2761:2763  18 */\n  0x12\n    /* \"@openzeppelin/contracts/token/ERC20/ERC20.sol\":2754:2763  return 18 */\n  swap1\n  pop\n    /* \"@openzeppelin/contracts/token/ERC20/ERC20.sol\":2688:2770  function decimals() public view virtual returns (uint8) {... */\n  swap1\n  jump\t// out\n    /* \"@openzeppelin/contracts/token/ERC20/ERC20.sol\":7362:7570  function _mint(address account, uint256 value) internal {... */\ntag_29:\n    /* \"@openzeppelin/contracts/token/ERC20/ERC20.sol\":7451:7452  0 */\n  0x00\n    /* \"@openzeppelin/contracts/token/ERC20/ERC20.sol\":7432:7453  account == address(0) */\n  0xffffffffffffffffffffffffffffffffffffffff\n  and\n    /* \"@openzeppelin/contracts/token/ERC20/ERC20.sol\":7432:7439  account */\n  dup3\n    /* \"@openzeppelin/contracts/token/ERC20/ERC20.sol\":7432:7453  account == address(0) */\n  0xffffffffffffffffffffffffffffffffffffffff\n  and\n  sub\n    /* \"@openzeppelin/contracts/token/ERC20/ERC20.sol\":7428:7519  if (account == address(0)) {... */\n  tag_34\n  jumpi\n    /* \"@openzeppelin/contracts/token/ERC20/ERC20.sol\":7505:7506  0 */\n  0x00\n    /* \"@openzeppelin/contracts/token/ERC20/ERC20.sol\":7476:7508  ERC20InvalidReceiver(address(0)) */\n  mload(0x40)\n  0xec442f0500000000000000000000000000000000000000000000000000000000\n  dup2\n  mstore\n  0x04\n  add\n  tag_35\n  swap2\n  swap1\n  tag_15\n  jump\t// in\ntag_35:\n  mload(0x40)\n  dup1\n  swap2\n  sub\n  swap1\n  revert\n    /* \"@openzeppelin/contracts/token/ERC20/ERC20.sol\":7428:7519  if (account == address(0)) {... */\ntag_34:\n    /* \"@openzeppelin/contracts/token/ERC20/ERC20.sol\":7528:7563  _update(address(0), account, value) */\n  tag_36\n    /* \"@openzeppelin/contracts/token/ERC20/ERC20.sol\":7544:7545  0 */\n  0x00\n    /* \"@openzeppelin/contracts/token/ERC20/ERC20.sol\":7548:7555  account */\n  dup4\n    /* \"@openzeppelin/contracts/token/ERC20/ERC20.sol\":7557:7562  value */\n  dup4\n    /* \"@openzeppelin/contracts/token/ERC20/ERC20.sol\":7528:7535  _update */\n  shl(0x20, tag_37)\n    /* \"@openzeppelin/contracts/token/ERC20/ERC20.sol\":7528:7563  _update(address(0), account, value) */\n  0x20\n  shr\n  jump\t// in\ntag_36:\n    /* \"@openzeppelin/contracts/token/ERC20/ERC20.sol\":7362:7570  function _mint(address account, uint256 value) internal {... */\n  pop\n  pop\n  jump\t// out\n    /* \"main.sol\":3935:4852  function _update(... */\ntag_37:\n    /* \"@openzeppelin/contracts/security/Pausable.sol\":1239:1258  _requireNotPaused() */\n  tag_39\n    /* \"@openzeppelin/contracts/security/Pausable.sol\":1239:1256  _requireNotPaused */\n  shl(0x20, tag_40)\n    /* \"@openzeppelin/contracts/security/Pausable.sol\":1239:1258  _requireNotPaused() */\n  0x20\n  shr\n  jump\t// in\ntag_39:\n    /* \"main.sol\":4182:4183  0 */\n  0x00\n    /* \"main.sol\":4166:4184  from == address(0) */\n  0xffffffffffffffffffffffffffffffffffffffff\n  and\n    /* \"main.sol\":4166:4170  from */\n  dup4\n    /* \"main.sol\":4166:4184  from == address(0) */\n  0xffffffffffffffffffffffffffffffffffffffff\n  and\n  eq\n    /* \"main.sol\":4166:4204  from == address(0) || to == address(0) */\n  dup1\n  tag_42\n  jumpi\n  pop\n    /* \"main.sol\":4202:4203  0 */\n  0x00\n    /* \"main.sol\":4188:4204  to == address(0) */\n  0xffffffffffffffffffffffffffffffffffffffff\n  and\n    /* \"main.sol\":4188:4190  to */\n  dup3\n    /* \"main.sol\":4188:4204  to == address(0) */\n  0xffffffffffffffffffffffffffffffffffffffff\n  and\n  eq\n    /* \"main.sol\":4166:4204  from == address(0) || to == address(0) */\ntag_42:\n    /* \"main.sol\":4166:4239  from == address(0) || to == address(0) || ... */\n  dup1\n  tag_43\n  jumpi\n  pop\n    /* \"main.sol\":4222:4233  isFeeExempt */\n  0x08\n    /* \"main.sol\":4222:4239  isFeeExempt[from] */\n  0x00\n    /* \"main.sol\":4234:4238  from */\n  dup5\n    /* \"main.sol\":4222:4239  isFeeExempt[from] */\n  0xffffffffffffffffffffffffffffffffffffffff\n  and\n  0xffffffffffffffffffffffffffffffffffffffff\n  and\n  dup2\n  mstore\n  0x20\n  add\n  swap1\n  dup2\n  mstore\n  0x20\n  add\n  0x00\n  keccak256\n  0x00\n  swap1\n  sload\n  swap1\n  0x0100\n  exp\n  swap1\n  div\n  0xff\n  and\n    /* \"main.sol\":4166:4239  from == address(0) || to == address(0) || ... */\ntag_43:\n    /* \"main.sol\":4166:4258  from == address(0) || to == address(0) || ... */\n  dup1\n  tag_44\n  jumpi\n  pop\n    /* \"main.sol\":4243:4254  isFeeExempt */\n  0x08\n    /* \"main.sol\":4243:4258  isFeeExempt[to] */\n  0x00\n    /* \"main.sol\":4255:4257  to */\n  dup4\n    /* \"main.sol\":4243:4258  isFeeExempt[to] */\n  0xffffffffffffffffffffffffffffffffffffffff\n  and\n  0xffffffffffffffffffffffffffffffffffffffff\n  and\n  dup2\n  mstore\n  0x20\n  add\n  swap1\n  dup2\n  mstore\n  0x20\n  add\n  0x00\n  keccak256\n  0x00\n  swap1\n  sload\n  swap1\n  0x0100\n  exp\n  swap1\n  div\n  0xff\n  and\n    /* \"main.sol\":4166:4258  from == address(0) || to == address(0) || ... */\ntag_44:\n    /* \"main.sol\":4166:4287  from == address(0) || to == address(0) || ... */\n  dup1\n  tag_45\n  jumpi\n  pop\n    /* \"main.sol\":4286:4287  0 */\n  0x00\n    /* \"main.sol\":4276:4282  taxFee */\n  sload(0x07)\n    /* \"main.sol\":4276:4287  taxFee == 0 */\n  eq\n    /* \"main.sol\":4166:4287  from == address(0) || to == address(0) || ... */\ntag_45:\n    /* \"main.sol\":4162:4368  if (from == address(0) || to == address(0) || ... */\n  iszero\n  tag_46\n  jumpi\n    /* \"main.sol\":4304:4335  super._update(from, to, amount) */\n  tag_47\n    /* \"main.sol\":4318:4322  from */\n  dup4\n    /* \"main.sol\":4324:4326  to */\n  dup4\n    /* \"main.sol\":4328:4334  amount */\n  dup4\n    /* \"main.sol\":4304:4317  super._update */\n  shl(0x20, tag_48)\n    /* \"main.sol\":4304:4335  super._update(from, to, amount) */\n  0x20\n  shr\n  jump\t// in\ntag_47:\n    /* \"main.sol\":4350:4357  return; */\n  jump(tag_41)\n    /* \"main.sol\":4162:4368  if (from == address(0) || to == address(0) || ... */\ntag_46:\n    /* \"main.sol\":4421:4438  uint256 taxAmount */\n  0x00\n    /* \"main.sol\":4461:4464  100 */\n  0x64\n    /* \"main.sol\":4451:4457  taxFee */\n  sload(0x07)\n    /* \"main.sol\":4442:4448  amount */\n  dup4\n    /* \"main.sol\":4442:4457  amount * taxFee */\n  tag_49\n  swap2\n  swap1\n  tag_28\n  jump\t// in\ntag_49:\n    /* \"main.sol\":4441:4464  (amount * taxFee) / 100 */\n  tag_50\n  swap2\n  swap1\n  tag_51\n  jump\t// in\ntag_50:\n    /* \"main.sol\":4421:4464  uint256 taxAmount = (amount * taxFee) / 100 */\n  swap1\n  pop\n    /* \"main.sol\":4475:4492  uint256 netAmount */\n  0x00\n    /* \"main.sol\":4504:4513  taxAmount */\n  dup2\n    /* \"main.sol\":4495:4501  amount */\n  dup4\n    /* \"main.sol\":4495:4513  amount - taxAmount */\n  tag_52\n  swap2\n  swap1\n  tag_53\n  jump\t// in\ntag_52:\n    /* \"main.sol\":4475:4513  uint256 netAmount = amount - taxAmount */\n  swap1\n  pop\n    /* \"main.sol\":4601:4602  0 */\n  0x00\n    /* \"main.sol\":4589:4598  taxAmount */\n  dup3\n    /* \"main.sol\":4589:4602  taxAmount > 0 */\n  gt\n    /* \"main.sol\":4585:4671  if (taxAmount > 0) {... */\n  iszero\n  tag_54\n  jumpi\n    /* \"main.sol\":4619:4659  super._update(from, treasury, taxAmount) */\n  tag_55\n    /* \"main.sol\":4633:4637  from */\n  dup6\n    /* \"main.sol\":4639:4647  treasury */\n  0x06\n  0x00\n  swap1\n  sload\n  swap1\n  0x0100\n  exp\n  swap1\n  div\n  0xffffffffffffffffffffffffffffffffffffffff\n  and\n    /* \"main.sol\":4649:4658  taxAmount */\n  dup5\n    /* \"main.sol\":4619:4632  super._update */\n  shl(0x20, tag_48)\n    /* \"main.sol\":4619:4659  super._update(from, treasury, taxAmount) */\n  0x20\n  shr\n  jump\t// in\ntag_55:\n    /* \"main.sol\":4585:4671  if (taxAmount > 0) {... */\ntag_54:\n    /* \"main.sol\":4740:4774  super._update(from, to, netAmount) */\n  tag_56\n    /* \"main.sol\":4754:4758  from */\n  dup6\n    /* \"main.sol\":4760:4762  to */\n  dup6\n    /* \"main.sol\":4764:4773  netAmount */\n  dup4\n    /* \"main.sol\":4740:4753  super._update */\n  shl(0x20, tag_48)\n    /* \"main.sol\":4740:4774  super._update(from, to, netAmount) */\n  0x20\n  shr\n  jump\t// in\ntag_56:\n    /* \"main.sol\":4819:4821  to */\n  dup4\n    /* \"main.sol\":4800:4844  TaxCollected(from, to, taxAmount, netAmount) */\n  0xffffffffffffffffffffffffffffffffffffffff\n  and\n    /* \"main.sol\":4813:4817  from */\n  dup6\n    /* \"main.sol\":4800:4844  TaxCollected(from, to, taxAmount, netAmount) */\n  0xffffffffffffffffffffffffffffffffffffffff\n  and\n  0xddb30886d90db45adc1b2edcbabe12227896c25143cd155d3bf62ec8eff67856\n    /* \"main.sol\":4823:4832  taxAmount */\n  dup5\n    /* \"main.sol\":4834:4843  netAmount */\n  dup5\n    /* \"main.sol\":4800:4844  TaxCollected(from, to, taxAmount, netAmount) */\n  mload(0x40)\n  tag_57\n  swap3\n  swap2\n  swap1\n  tag_58\n  jump\t// in\ntag_57:\n  mload(0x40)\n  dup1\n  swap2\n  sub\n  swap1\n  log3\n    /* \"main.sol\":4068:4852  {... */\n  pop\n  pop\n    /* \"@openzeppelin/contracts/security/Pausable.sol\":1268:1269  _ */\ntag_41:\n    /* \"main.sol\":3935:4852  function _update(... */\n  pop\n  pop\n  pop\n  jump\t// out\n    /* \"@openzeppelin/contracts/security/Pausable.sol\":1767:1873  function _requireNotPaused() internal view virtual {... */\ntag_40:\n    /* \"@openzeppelin/contracts/security/Pausable.sol\":1837:1845  paused() */\n  tag_60\n    /* \"@openzeppelin/contracts/security/Pausable.sol\":1837:1843  paused */\n  shl(0x20, tag_61)\n    /* \"@openzeppelin/contracts/security/Pausable.sol\":1837:1845  paused() */\n  0x20\n  shr\n  jump\t// in\ntag_60:\n    /* \"@openzeppelin/contracts/security/Pausable.sol\":1836:1845  !paused() */\n  iszero\n    /* \"@openzeppelin/contracts/security/Pausable.sol\":1828:1866  require(!paused(), \"Pausable: paused\") */\n  tag_62\n  jumpi\n  mload(0x40)\n  0x08c379a000000000000000000000000000000000000000000000000000000000\n  dup2\n  mstore\n  0x04\n  add\n  tag_63\n  swap1\n  tag_64\n  jump\t// in\ntag_63:\n  mload(0x40)\n  dup1\n  swap2\n  sub\n  swap1\n  revert\ntag_62:\n    /* \"@openzeppelin/contracts/security/Pausable.sol\":1767:1873  function _requireNotPaused() internal view virtual {... */\n  jump\t// out\n    /* \"@openzeppelin/contracts/token/ERC20/ERC20.sol\":5912:7019  function _update(address from, address to, uint256 value) internal virtual {... */\ntag_48:\n    /* \"@openzeppelin/contracts/token/ERC20/ERC20.sol\":6017:6018  0 */\n  0x00\n    /* \"@openzeppelin/contracts/token/ERC20/ERC20.sol\":6001:6019  from == address(0) */\n  0xffffffffffffffffffffffffffffffffffffffff\n  and\n    /* \"@openzeppelin/contracts/token/ERC20/ERC20.sol\":6001:6005  from */\n  dup4\n    /* \"@openzeppelin/contracts/token/ERC20/ERC20.sol\":6001:6019  from == address(0) */\n  0xffffffffffffffffffffffffffffffffffffffff\n  and\n  sub\n    /* \"@openzeppelin/contracts/token/ERC20/ERC20.sol\":5997:6537  if (from == address(0)) {... */\n  tag_66\n  jumpi\n    /* \"@openzeppelin/contracts/token/ERC20/ERC20.sol\":6153:6158  value */\n  dup1\n    /* \"@openzeppelin/contracts/token/ERC20/ERC20.sol\":6137:6149  _totalSupply */\n  0x02\n  0x00\n    /* \"@openzeppelin/contracts/token/ERC20/ERC20.sol\":6137:6158  _totalSupply += value */\n  dup3\n  dup3\n  sload\n  tag_67\n  swap2\n  swap1\n  tag_68\n  jump\t// in\ntag_67:\n  swap3\n  pop\n  pop\n  dup2\n  swap1\n  sstore\n  pop\n    /* \"@openzeppelin/contracts/token/ERC20/ERC20.sol\":5997:6537  if (from == address(0)) {... */\n  jump(tag_69)\ntag_66:\n    /* \"@openzeppelin/contracts/token/ERC20/ERC20.sol\":6189:6208  uint256 fromBalance */\n  0x00\n    /* \"@openzeppelin/contracts/token/ERC20/ERC20.sol\":6211:6220  _balances */\n  dup1\n    /* \"@openzeppelin/contracts/token/ERC20/ERC20.sol\":6211:6226  _balances[from] */\n  0x00\n    /* \"@openzeppelin/contracts/token/ERC20/ERC20.sol\":6221:6225  from */\n  dup6\n    /* \"@openzeppelin/contracts/token/ERC20/ERC20.sol\":6211:6226  _balances[from] */\n  0xffffffffffffffffffffffffffffffffffffffff\n  and\n  0xffffffffffffffffffffffffffffffffffffffff\n  and\n  dup2\n  mstore\n  0x20\n  add\n  swap1\n  dup2\n  mstore\n  0x20\n  add\n  0x00\n  keccak256\n  sload\n    /* \"@openzeppelin/contracts/token/ERC20/ERC20.sol\":6189:6226  uint256 fromBalance = _balances[from] */\n  swap1\n  pop\n    /* \"@openzeppelin/contracts/token/ERC20/ERC20.sol\":6258:6263  value */\n  dup2\n    /* \"@openzeppelin/contracts/token/ERC20/ERC20.sol\":6244:6255  fromBalance */\n  dup2\n    /* \"@openzeppelin/contracts/token/ERC20/ERC20.sol\":6244:6263  fromBalance < value */\n  lt\n    /* \"@openzeppelin/contracts/token/ERC20/ERC20.sol\":6240:6355  if (fromBalance < value) {... */\n  iszero\n  tag_70\n  jumpi\n    /* \"@openzeppelin/contracts/token/ERC20/ERC20.sol\":6315:6319  from */\n  dup4\n    /* \"@openzeppelin/contracts/token/ERC20/ERC20.sol\":6321:6332  fromBalance */\n  dup2\n    /* \"@openzeppelin/contracts/token/ERC20/ERC20.sol\":6334:6339  value */\n  dup4\n    /* \"@openzeppelin/contracts/token/ERC20/ERC20.sol\":6290:6340  ERC20InsufficientBalance(from, fromBalance, value) */\n  mload(0x40)\n  0xe450d38c00000000000000000000000000000000000000000000000000000000\n  dup2\n  mstore\n  0x04\n  add\n  tag_71\n  swap4\n  swap3\n  swap2\n  swap1\n  tag_72\n  jump\t// in\ntag_71:\n  mload(0x40)\n  dup1\n  swap2\n  sub\n  swap1\n  revert\n    /* \"@openzeppelin/contracts/token/ERC20/ERC20.sol\":6240:6355  if (fromBalance < value) {... */\ntag_70:\n    /* \"@openzeppelin/contracts/token/ERC20/ERC20.sol\":6507:6512  value */\n  dup2\n    /* \"@openzeppelin/contracts/token/ERC20/ERC20.sol\":6493:6504  fromBalance */\n  dup2\n    /* \"@openzeppelin/contracts/token/ERC20/ERC20.sol\":6493:6512  fromBalance - value */\n  sub\n    /* \"@openzeppelin/contracts/token/ERC20/ERC20.sol\":6475:6484  _balances */\n  0x00\n    /* \"@openzeppelin/contracts/token/ERC20/ERC20.sol\":6475:6490  _balances[from] */\n  dup1\n    /* \"@openzeppelin/contracts/token/ERC20/ERC20.sol\":6485:6489  from */\n  dup7\n    /* \"@openzeppelin/contracts/token/ERC20/ERC20.sol\":6475:6490  _balances[from] */\n  0xffffffffffffffffffffffffffffffffffffffff\n  and\n  0xffffffffffffffffffffffffffffffffffffffff\n  and\n  dup2\n  mstore\n  0x20\n  add\n  swap1\n  dup2\n  mstore\n  0x20\n  add\n  0x00\n  keccak256\n    /* \"@openzeppelin/contracts/token/ERC20/ERC20.sol\":6475:6512  _balances[from] = fromBalance - value */\n  dup2\n  swap1\n  sstore\n  pop\n    /* \"@openzeppelin/contracts/token/ERC20/ERC20.sol\":6175:6537  {... */\n  pop\n    /* \"@openzeppelin/contracts/token/ERC20/ERC20.sol\":5997:6537  if (from == address(0)) {... */\ntag_69:\n    /* \"@openzeppelin/contracts/token/ERC20/ERC20.sol\":6565:6566  0 */\n  0x00\n    /* \"@openzeppelin/contracts/token/ERC20/ERC20.sol\":6551:6567  to == address(0) */\n  0xffffffffffffffffffffffffffffffffffffffff\n  and\n    /* \"@openzeppelin/contracts/token/ERC20/ERC20.sol\":6551:6553  to */\n  dup3\n    /* \"@openzeppelin/contracts/token/ERC20/ERC20.sol\":6551:6567  to == address(0) */\n  0xffffffffffffffffffffffffffffffffffffffff\n  and\n  sub\n    /* \"@openzeppelin/contracts/token/ERC20/ERC20.sol\":6547:6972  if (to == address(0)) {... */\n  tag_73\n  jumpi\n    /* \"@openzeppelin/contracts/token/ERC20/ERC20.sol\":6730:6735  value */\n  dup1\n    /* \"@openzeppelin/contracts/token/ERC20/ERC20.sol\":6714:6726  _totalSupply */\n  0x02\n  0x00\n    /* \"@openzeppelin/contracts/token/ERC20/ERC20.sol\":6714:6735  _totalSupply -= value */\n  dup3\n  dup3\n  sload\n  sub\n  swap3\n  pop\n  pop\n  dup2\n  swap1\n  sstore\n  pop\n    /* \"@openzeppelin/contracts/token/ERC20/ERC20.sol\":6547:6972  if (to == address(0)) {... */\n  jump(tag_74)\ntag_73:\n    /* \"@openzeppelin/contracts/token/ERC20/ERC20.sol\":6942:6947  value */\n  dup1\n    /* \"@openzeppelin/contracts/token/ERC20/ERC20.sol\":6925:6934  _balances */\n  0x00\n    /* \"@openzeppelin/contracts/token/ERC20/ERC20.sol\":6925:6938  _balances[to] */\n  dup1\n    /* \"@openzeppelin/contracts/token/ERC20/ERC20.sol\":6935:6937  to */\n  dup5\n    /* \"@openzeppelin/contracts/token/ERC20/ERC20.sol\":6925:6938  _balances[to] */\n  0xffffffffffffffffffffffffffffffffffffffff\n  and\n  0xffffffffffffffffffffffffffffffffffffffff\n  and\n  dup2\n  mstore\n  0x20\n  add\n  swap1\n  dup2\n  mstore\n  0x20\n  add\n  0x00\n  keccak256\n  0x00\n    /* \"@openzeppelin/contracts/token/ERC20/ERC20.sol\":6925:6947  _balances[to] += value */\n  dup3\n  dup3\n  sload\n  add\n  swap3\n  pop\n  pop\n  dup2\n  swap1\n  sstore\n  pop\n    /* \"@openzeppelin/contracts/token/ERC20/ERC20.sol\":6547:6972  if (to == address(0)) {... */\ntag_74:\n    /* \"@openzeppelin/contracts/token/ERC20/ERC20.sol\":7002:7004  to */\n  dup2\n    /* \"@openzeppelin/contracts/token/ERC20/ERC20.sol\":6987:7012  Transfer(from, to, value) */\n  0xffffffffffffffffffffffffffffffffffffffff\n  and\n    /* \"@openzeppelin/contracts/token/ERC20/ERC20.sol\":6996:7000  from */\n  dup4\n    /* \"@openzeppelin/contracts/token/ERC20/ERC20.sol\":6987:7012  Transfer(from, to, value) */\n  0xffffffffffffffffffffffffffffffffffffffff\n  and\n  0xddf252ad1be2c89b69c2b068fc378daa952ba7f163c4a11628f55a4df523b3ef\n    /* \"@openzeppelin/contracts/token/ERC20/ERC20.sol\":7006:7011  value */\n  dup4\n    /* \"@openzeppelin/contracts/token/ERC20/ERC20.sol\":6987:7012  Transfer(from, to, value) */\n  mload(0x40)\n  tag_75\n  swap2\n  swap1\n  tag_76\n  jump\t// in\ntag_75:\n  mload(0x40)\n  dup1\n  swap2\n  sub\n  swap1\n  log3\n    /* \"@openzeppelin/contracts/token/ERC20/ERC20.sol\":5912:7019  function _update(address from, address to, uint256 value) internal virtual {... */\n  pop\n  pop\n  pop\n  jump\t// out\n    /* \"@openzeppelin/contracts/security/Pausable.sol\":1615:1699  function paused() public view virtual returns (bool) {... */\ntag_61:\n    /* \"@openzeppelin/contracts/security/Pausable.sol\":1662:1666  bool */\n  0x00\n    /* \"@openzeppelin/contracts/security/Pausable.sol\":1685:1692  _paused */\n  0x05\n  0x14\n  swap1\n  sload\n  swap1\n  0x0100\n  exp\n  swap1\n  div\n  0xff\n  and\n    /* \"@openzeppelin/contracts/security/Pausable.sol\":1678:1692  return _paused */\n  swap1\n  pop\n    /* \"@openzeppelin/contracts/security/Pausable.sol\":1615:1699  function paused() public view virtual returns (bool) {... */\n  swap1\n  jump\t// out\n    /* \"#utility.yul\":7:82   */\ntag_78:\n    /* \"#utility.yul\":40:46   */\n  0x00\n    /* \"#utility.yul\":73:75   */\n  0x40\n    /* \"#utility.yul\":67:76   */\n  mload\n    /* \"#utility.yul\":57:76   */\n  swap1\n  pop\n    /* \"#utility.yul\":7:82   */\n  swap1\n  jump\t// out\n    /* \"#utility.yul\":88:205   */\ntag_79:\n    /* \"#utility.yul\":197:198   */\n  0x00\n    /* \"#utility.yul\":194:195   */\n  dup1\n    /* \"#utility.yul\":187:199   */\n  revert\n    /* \"#utility.yul\":211:328   */\ntag_80:\n    /* \"#utility.yul\":320:321   */\n  0x00\n    /* \"#utility.yul\":317:318   */\n  dup1\n    /* \"#utility.yul\":310:322   */\n  revert\n    /* \"#utility.yul\":334:451   */\ntag_81:\n    /* \"#utility.yul\":443:444   */\n  0x00\n    /* \"#utility.yul\":440:441   */\n  dup1\n    /* \"#utility.yul\":433:445   */\n  revert\n    /* \"#utility.yul\":457:574   */\ntag_82:\n    /* \"#utility.yul\":566:567   */\n  0x00\n    /* \"#utility.yul\":563:564   */\n  dup1\n    /* \"#utility.yul\":556:568   */\n  revert\n    /* \"#utility.yul\":580:682   */\ntag_83:\n    /* \"#utility.yul\":621:627   */\n  0x00\n    /* \"#utility.yul\":672:674   */\n  0x1f\n    /* \"#utility.yul\":668:675   */\n  not\n    /* \"#utility.yul\":663:665   */\n  0x1f\n    /* \"#utility.yul\":656:661   */\n  dup4\n    /* \"#utility.yul\":652:666   */\n  add\n    /* \"#utility.yul\":648:676   */\n  and\n    /* \"#utility.yul\":638:676   */\n  swap1\n  pop\n    /* \"#utility.yul\":580:682   */\n  swap2\n  swap1\n  pop\n  jump\t// out\n    /* \"#utility.yul\":688:868   */\ntag_84:\n    /* \"#utility.yul\":736:813   */\n  0x4e487b7100000000000000000000000000000000000000000000000000000000\n    /* \"#utility.yul\":733:734   */\n  0x00\n    /* \"#utility.yul\":726:814   */\n  mstore\n    /* \"#utility.yul\":833:837   */\n  0x41\n    /* \"#utility.yul\":830:831   */\n  0x04\n    /* \"#utility.yul\":823:838   */\n  mstore\n    /* \"#utility.yul\":857:861   */\n  0x24\n    /* \"#utility.yul\":854:855   */\n  0x00\n    /* \"#utility.yul\":847:862   */\n  revert\n    /* \"#utility.yul\":874:1155   */\ntag_85:\n    /* \"#utility.yul\":957:984   */\n  tag_136\n    /* \"#utility.yul\":979:983   */\n  dup3\n    /* \"#utility.yul\":957:984   */\n  tag_83\n  jump\t// in\ntag_136:\n    /* \"#utility.yul\":949:955   */\n  dup2\n    /* \"#utility.yul\":945:985   */\n  add\n    /* \"#utility.yul\":1087:1093   */\n  dup2\n    /* \"#utility.yul\":1075:1085   */\n  dup2\n    /* \"#utility.yul\":1072:1094   */\n  lt\n    /* \"#utility.yul\":1051:1069   */\n  0xffffffffffffffff\n    /* \"#utility.yul\":1039:1049   */\n  dup3\n    /* \"#utility.yul\":1036:1070   */\n  gt\n    /* \"#utility.yul\":1033:1095   */\n  or\n    /* \"#utility.yul\":1030:1118   */\n  iszero\n  tag_137\n  jumpi\n    /* \"#utility.yul\":1098:1116   */\n  tag_138\n  tag_84\n  jump\t// in\ntag_138:\n    /* \"#utility.yul\":1030:1118   */\ntag_137:\n    /* \"#utility.yul\":1138:1148   */\n  dup1\n    /* \"#utility.yul\":1134:1136   */\n  0x40\n    /* \"#utility.yul\":1127:1149   */\n  mstore\n    /* \"#utility.yul\":917:1155   */\n  pop\n    /* \"#utility.yul\":874:1155   */\n  pop\n  pop\n  jump\t// out\n    /* \"#utility.yul\":1161:1290   */\ntag_86:\n    /* \"#utility.yul\":1195:1201   */\n  0x00\n    /* \"#utility.yul\":1222:1242   */\n  tag_140\n  tag_78\n  jump\t// in\ntag_140:\n    /* \"#utility.yul\":1212:1242   */\n  swap1\n  pop\n    /* \"#utility.yul\":1251:1284   */\n  tag_141\n    /* \"#utility.yul\":1279:1283   */\n  dup3\n    /* \"#utility.yul\":1271:1277   */\n  dup3\n    /* \"#utility.yul\":1251:1284   */\n  tag_85\n  jump\t// in\ntag_141:\n    /* \"#utility.yul\":1161:1290   */\n  swap2\n  swap1\n  pop\n  jump\t// out\n    /* \"#utility.yul\":1296:1604   */\ntag_87:\n    /* \"#utility.yul\":1358:1362   */\n  0x00\n    /* \"#utility.yul\":1448:1466   */\n  0xffffffffffffffff\n    /* \"#utility.yul\":1440:1446   */\n  dup3\n    /* \"#utility.yul\":1437:1467   */\n  gt\n    /* \"#utility.yul\":1434:1490   */\n  iszero\n  tag_143\n  jumpi\n    /* \"#utility.yul\":1470:1488   */\n  tag_144\n  tag_84\n  jump\t// in\ntag_144:\n    /* \"#utility.yul\":1434:1490   */\ntag_143:\n    /* \"#utility.yul\":1508:1537   */\n  tag_145\n    /* \"#utility.yul\":1530:1536   */\n  dup3\n    /* \"#utility.yul\":1508:1537   */\n  tag_83\n  jump\t// in\ntag_145:\n    /* \"#utility.yul\":1500:1537   */\n  swap1\n  pop\n    /* \"#utility.yul\":1592:1596   */\n  0x20\n    /* \"#utility.yul\":1586:1590   */\n  dup2\n    /* \"#utility.yul\":1582:1597   */\n  add\n    /* \"#utility.yul\":1574:1597   */\n  swap1\n  pop\n    /* \"#utility.yul\":1296:1604   */\n  swap2\n  swap1\n  pop\n  jump\t// out\n    /* \"#utility.yul\":1610:1856   */\ntag_88:\n    /* \"#utility.yul\":1691:1692   */\n  0x00\n    /* \"#utility.yul\":1701:1814   */\ntag_147:\n    /* \"#utility.yul\":1715:1721   */\n  dup4\n    /* \"#utility.yul\":1712:1713   */\n  dup2\n    /* \"#utility.yul\":1709:1722   */\n  lt\n    /* \"#utility.yul\":1701:1814   */\n  iszero\n  tag_149\n  jumpi\n    /* \"#utility.yul\":1800:1801   */\n  dup1\n    /* \"#utility.yul\":1795:1798   */\n  dup3\n    /* \"#utility.yul\":1791:1802   */\n  add\n    /* \"#utility.yul\":1785:1803   */\n  mload\n    /* \"#utility.yul\":1781:1782   */\n  dup2\n    /* \"#utility.yul\":1776:1779   */\n  dup5\n    /* \"#utility.yul\":1772:1783   */\n  add\n    /* \"#utility.yul\":1765:1804   */\n  mstore\n    /* \"#utility.yul\":1737:1739   */\n  0x20\n    /* \"#utility.yul\":1734:1735   */\n  dup2\n    /* \"#utility.yul\":1730:1740   */\n  add\n    /* \"#utility.yul\":1725:1740   */\n  swap1\n  pop\n    /* \"#utility.yul\":1701:1814   */\n  jump(tag_147)\ntag_149:\n    /* \"#utility.yul\":1848:1849   */\n  0x00\n    /* \"#utility.yul\":1839:1845   */\n  dup5\n    /* \"#utility.yul\":1834:1837   */\n  dup5\n    /* \"#utility.yul\":1830:1846   */\n  add\n    /* \"#utility.yul\":1823:1850   */\n  mstore\n    /* \"#utility.yul\":1672:1856   */\n  pop\n    /* \"#utility.yul\":1610:1856   */\n  pop\n  pop\n  pop\n  jump\t// out\n    /* \"#utility.yul\":1862:2296   */\ntag_89:\n    /* \"#utility.yul\":1951:1956   */\n  0x00\n    /* \"#utility.yul\":1976:2042   */\n  tag_151\n    /* \"#utility.yul\":1992:2041   */\n  tag_152\n    /* \"#utility.yul\":2034:2040   */\n  dup5\n    /* \"#utility.yul\":1992:2041   */\n  tag_87\n  jump\t// in\ntag_152:\n    /* \"#utility.yul\":1976:2042   */\n  tag_86\n  jump\t// in\ntag_151:\n    /* \"#utility.yul\":1967:2042   */\n  swap1\n  pop\n    /* \"#utility.yul\":2065:2071   */\n  dup3\n    /* \"#utility.yul\":2058:2063   */\n  dup2\n    /* \"#utility.yul\":2051:2072   */\n  mstore\n    /* \"#utility.yul\":2103:2107   */\n  0x20\n    /* \"#utility.yul\":2096:2101   */\n  dup2\n    /* \"#utility.yul\":2092:2108   */\n  add\n    /* \"#utility.yul\":2141:2144   */\n  dup5\n    /* \"#utility.yul\":2132:2138   */\n  dup5\n    /* \"#utility.yul\":2127:2130   */\n  dup5\n    /* \"#utility.yul\":2123:2139   */\n  add\n    /* \"#utility.yul\":2120:2145   */\n  gt\n    /* \"#utility.yul\":2117:2229   */\n  iszero\n  tag_153\n  jumpi\n    /* \"#utility.yul\":2148:2227   */\n  tag_154\n  tag_82\n  jump\t// in\ntag_154:\n    /* \"#utility.yul\":2117:2229   */\ntag_153:\n    /* \"#utility.yul\":2238:2290   */\n  tag_155\n    /* \"#utility.yul\":2283:2289   */\n  dup5\n    /* \"#utility.yul\":2278:2281   */\n  dup3\n    /* \"#utility.yul\":2273:2276   */\n  dup6\n    /* \"#utility.yul\":2238:2290   */\n  tag_88\n  jump\t// in\ntag_155:\n    /* \"#utility.yul\":1957:2296   */\n  pop\n    /* \"#utility.yul\":1862:2296   */\n  swap4\n  swap3\n  pop\n  pop\n  pop\n  jump\t// out\n    /* \"#utility.yul\":2316:2671   */\ntag_90:\n    /* \"#utility.yul\":2383:2388   */\n  0x00\n    /* \"#utility.yul\":2432:2435   */\n  dup3\n    /* \"#utility.yul\":2425:2429   */\n  0x1f\n    /* \"#utility.yul\":2417:2423   */\n  dup4\n    /* \"#utility.yul\":2413:2430   */\n  add\n    /* \"#utility.yul\":2409:2436   */\n  slt\n    /* \"#utility.yul\":2399:2521   */\n  tag_157\n  jumpi\n    /* \"#utility.yul\":2440:2519   */\n  tag_158\n  tag_81\n  jump\t// in\ntag_158:\n    /* \"#utility.yul\":2399:2521   */\ntag_157:\n    /* \"#utility.yul\":2550:2556   */\n  dup2\n    /* \"#utility.yul\":2544:2557   */\n  mload\n    /* \"#utility.yul\":2575:2665   */\n  tag_159\n    /* \"#utility.yul\":2661:2664   */\n  dup5\n    /* \"#utility.yul\":2653:2659   */\n  dup3\n    /* \"#utility.yul\":2646:2650   */\n  0x20\n    /* \"#utility.yul\":2638:2644   */\n  dup7\n    /* \"#utility.yul\":2634:2651   */\n  add\n    /* \"#utility.yul\":2575:2665   */\n  tag_89\n  jump\t// in\ntag_159:\n    /* \"#utility.yul\":2566:2665   */\n  swap2\n  pop\n    /* \"#utility.yul\":2389:2671   */\n  pop\n    /* \"#utility.yul\":2316:2671   */\n  swap3\n  swap2\n  pop\n  pop\n  jump\t// out\n    /* \"#utility.yul\":2677:2803   */\ntag_91:\n    /* \"#utility.yul\":2714:2721   */\n  0x00\n    /* \"#utility.yul\":2754:2796   */\n  0xffffffffffffffffffffffffffffffffffffffff\n    /* \"#utility.yul\":2747:2752   */\n  dup3\n    /* \"#utility.yul\":2743:2797   */\n  and\n    /* \"#utility.yul\":2732:2797   */\n  swap1\n  pop\n    /* \"#utility.yul\":2677:2803   */\n  swap2\n  swap1\n  pop\n  jump\t// out\n    /* \"#utility.yul\":2809:2905   */\ntag_92:\n    /* \"#utility.yul\":2846:2853   */\n  0x00\n    /* \"#utility.yul\":2875:2899   */\n  tag_162\n    /* \"#utility.yul\":2893:2898   */\n  dup3\n    /* \"#utility.yul\":2875:2899   */\n  tag_91\n  jump\t// in\ntag_162:\n    /* \"#utility.yul\":2864:2899   */\n  swap1\n  pop\n    /* \"#utility.yul\":2809:2905   */\n  swap2\n  swap1\n  pop\n  jump\t// out\n    /* \"#utility.yul\":2911:3033   */\ntag_93:\n    /* \"#utility.yul\":2984:3008   */\n  tag_164\n    /* \"#utility.yul\":3002:3007   */\n  dup2\n    /* \"#utility.yul\":2984:3008   */\n  tag_92\n  jump\t// in\ntag_164:\n    /* \"#utility.yul\":2977:2982   */\n  dup2\n    /* \"#utility.yul\":2974:3009   */\n  eq\n    /* \"#utility.yul\":2964:3027   */\n  tag_165\n  jumpi\n    /* \"#utility.yul\":3023:3024   */\n  0x00\n    /* \"#utility.yul\":3020:3021   */\n  dup1\n    /* \"#utility.yul\":3013:3025   */\n  revert\n    /* \"#utility.yul\":2964:3027   */\ntag_165:\n    /* \"#utility.yul\":2911:3033   */\n  pop\n  jump\t// out\n    /* \"#utility.yul\":3039:3182   */\ntag_94:\n    /* \"#utility.yul\":3096:3101   */\n  0x00\n    /* \"#utility.yul\":3127:3133   */\n  dup2\n    /* \"#utility.yul\":3121:3134   */\n  mload\n    /* \"#utility.yul\":3112:3134   */\n  swap1\n  pop\n    /* \"#utility.yul\":3143:3176   */\n  tag_167\n    /* \"#utility.yul\":3170:3175   */\n  dup2\n    /* \"#utility.yul\":3143:3176   */\n  tag_93\n  jump\t// in\ntag_167:\n    /* \"#utility.yul\":3039:3182   */\n  swap3\n  swap2\n  pop\n  pop\n  jump\t// out\n    /* \"#utility.yul\":3188:3265   */\ntag_95:\n    /* \"#utility.yul\":3225:3232   */\n  0x00\n    /* \"#utility.yul\":3254:3259   */\n  dup2\n    /* \"#utility.yul\":3243:3259   */\n  swap1\n  pop\n    /* \"#utility.yul\":3188:3265   */\n  swap2\n  swap1\n  pop\n  jump\t// out\n    /* \"#utility.yul\":3271:3393   */\ntag_96:\n    /* \"#utility.yul\":3344:3368   */\n  tag_170\n    /* \"#utility.yul\":3362:3367   */\n  dup2\n    /* \"#utility.yul\":3344:3368   */\n  tag_95\n  jump\t// in\ntag_170:\n    /* \"#utility.yul\":3337:3342   */\n  dup2\n    /* \"#utility.yul\":3334:3369   */\n  eq\n    /* \"#utility.yul\":3324:3387   */\n  tag_171\n  jumpi\n    /* \"#utility.yul\":3383:3384   */\n  0x00\n    /* \"#utility.yul\":3380:3381   */\n  dup1\n    /* \"#utility.yul\":3373:3385   */\n  revert\n    /* \"#utility.yul\":3324:3387   */\ntag_171:\n    /* \"#utility.yul\":3271:3393   */\n  pop\n  jump\t// out\n    /* \"#utility.yul\":3399:3542   */\ntag_97:\n    /* \"#utility.yul\":3456:3461   */\n  0x00\n    /* \"#utility.yul\":3487:3493   */\n  dup2\n    /* \"#utility.yul\":3481:3494   */\n  mload\n    /* \"#utility.yul\":3472:3494   */\n  swap1\n  pop\n    /* \"#utility.yul\":3503:3536   */\n  tag_173\n    /* \"#utility.yul\":3530:3535   */\n  dup2\n    /* \"#utility.yul\":3503:3536   */\n  tag_96\n  jump\t// in\ntag_173:\n    /* \"#utility.yul\":3399:3542   */\n  swap3\n  swap2\n  pop\n  pop\n  jump\t// out\n    /* \"#utility.yul\":3548:4871   */\ntag_3:\n    /* \"#utility.yul\":3674:3680   */\n  0x00\n    /* \"#utility.yul\":3682:3688   */\n  dup1\n    /* \"#utility.yul\":3690:3696   */\n  0x00\n    /* \"#utility.yul\":3698:3704   */\n  dup1\n    /* \"#utility.yul\":3706:3712   */\n  0x00\n    /* \"#utility.yul\":3755:3758   */\n  0xa0\n    /* \"#utility.yul\":3743:3752   */\n  dup7\n    /* \"#utility.yul\":3734:3741   */\n  dup9\n    /* \"#utility.yul\":3730:3753   */\n  sub\n    /* \"#utility.yul\":3726:3759   */\n  slt\n    /* \"#utility.yul\":3723:3843   */\n  iszero\n  tag_175\n  jumpi\n    /* \"#utility.yul\":3762:3841   */\n  tag_176\n  tag_79\n  jump\t// in\ntag_176:\n    /* \"#utility.yul\":3723:3843   */\ntag_175:\n    /* \"#utility.yul\":3903:3904   */\n  0x00\n    /* \"#utility.yul\":3892:3901   */\n  dup7\n    /* \"#utility.yul\":3888:3905   */\n  add\n    /* \"#utility.yul\":3882:3906   */\n  mload\n    /* \"#utility.yul\":3933:3951   */\n  0xffffffffffffffff\n    /* \"#utility.yul\":3925:3931   */\n  dup2\n    /* \"#utility.yul\":3922:3952   */\n  gt\n    /* \"#utility.yul\":3919:4036   */\n  iszero\n  tag_177\n  jumpi\n    /* \"#utility.yul\":3955:4034   */\n  tag_178\n  tag_80\n  jump\t// in\ntag_178:\n    /* \"#utility.yul\":3919:4036   */\ntag_177:\n    /* \"#utility.yul\":4060:4134   */\n  tag_179\n    /* \"#utility.yul\":4126:4133   */\n  dup9\n    /* \"#utility.yul\":4117:4123   */\n  dup3\n    /* \"#utility.yul\":4106:4115   */\n  dup10\n    /* \"#utility.yul\":4102:4124   */\n  add\n    /* \"#utility.yul\":4060:4134   */\n  tag_90\n  jump\t// in\ntag_179:\n    /* \"#utility.yul\":4050:4134   */\n  swap6\n  pop\n    /* \"#utility.yul\":3853:4144   */\n  pop\n    /* \"#utility.yul\":4204:4206   */\n  0x20\n    /* \"#utility.yul\":4193:4202   */\n  dup7\n    /* \"#utility.yul\":4189:4207   */\n  add\n    /* \"#utility.yul\":4183:4208   */\n  mload\n    /* \"#utility.yul\":4235:4253   */\n  0xffffffffffffffff\n    /* \"#utility.yul\":4227:4233   */\n  dup2\n    /* \"#utility.yul\":4224:4254   */\n  gt\n    /* \"#utility.yul\":4221:4338   */\n  iszero\n  tag_180\n  jumpi\n    /* \"#utility.yul\":4257:4336   */\n  tag_181\n  tag_80\n  jump\t// in\ntag_181:\n    /* \"#utility.yul\":4221:4338   */\ntag_180:\n    /* \"#utility.yul\":4362:4436   */\n  tag_182\n    /* \"#utility.yul\":4428:4435   */\n  dup9\n    /* \"#utility.yul\":4419:4425   */\n  dup3\n    /* \"#utility.yul\":4408:4417   */\n  dup10\n    /* \"#utility.yul\":4404:4426   */\n  add\n    /* \"#utility.yul\":4362:4436   */\n  tag_90\n  jump\t// in\ntag_182:\n    /* \"#utility.yul\":4352:4436   */\n  swap5\n  pop\n    /* \"#utility.yul\":4154:4446   */\n  pop\n    /* \"#utility.yul\":4485:4487   */\n  0x40\n    /* \"#utility.yul\":4511:4575   */\n  tag_183\n    /* \"#utility.yul\":4567:4574   */\n  dup9\n    /* \"#utility.yul\":4558:4564   */\n  dup3\n    /* \"#utility.yul\":4547:4556   */\n  dup10\n    /* \"#utility.yul\":4543:4565   */\n  add\n    /* \"#utility.yul\":4511:4575   */\n  tag_94\n  jump\t// in\ntag_183:\n    /* \"#utility.yul\":4501:4575   */\n  swap4\n  pop\n    /* \"#utility.yul\":4456:4585   */\n  pop\n    /* \"#utility.yul\":4624:4626   */\n  0x60\n    /* \"#utility.yul\":4650:4714   */\n  tag_184\n    /* \"#utility.yul\":4706:4713   */\n  dup9\n    /* \"#utility.yul\":4697:4703   */\n  dup3\n    /* \"#utility.yul\":4686:4695   */\n  dup10\n    /* \"#utility.yul\":4682:4704   */\n  add\n    /* \"#utility.yul\":4650:4714   */\n  tag_97\n  jump\t// in\ntag_184:\n    /* \"#utility.yul\":4640:4714   */\n  swap3\n  pop\n    /* \"#utility.yul\":4595:4724   */\n  pop\n    /* \"#utility.yul\":4763:4766   */\n  0x80\n    /* \"#utility.yul\":4790:4854   */\n  tag_185\n    /* \"#utility.yul\":4846:4853   */\n  dup9\n    /* \"#utility.yul\":4837:4843   */\n  dup3\n    /* \"#utility.yul\":4826:4835   */\n  dup10\n    /* \"#utility.yul\":4822:4844   */\n  add\n    /* \"#utility.yul\":4790:4854   */\n  tag_94\n  jump\t// in\ntag_185:\n    /* \"#utility.yul\":4780:4854   */\n  swap2\n  pop\n    /* \"#utility.yul\":4734:4864   */\n  pop\n    /* \"#utility.yul\":3548:4871   */\n  swap3\n  swap6\n  pop\n  swap3\n  swap6\n  swap1\n  swap4\n  pop\n  jump\t// out\n    /* \"#utility.yul\":4877:4976   */\ntag_98:\n    /* \"#utility.yul\":4929:4935   */\n  0x00\n    /* \"#utility.yul\":4963:4968   */\n  dup2\n    /* \"#utility.yul\":4957:4969   */\n  mload\n    /* \"#utility.yul\":4947:4969   */\n  swap1\n  pop\n    /* \"#utility.yul\":4877:4976   */\n  swap2\n  swap1\n  pop\n  jump\t// out\n    /* \"#utility.yul\":4982:5162   */\ntag_99:\n    /* \"#utility.yul\":5030:5107   */\n  0x4e487b7100000000000000000000000000000000000000000000000000000000\n    /* \"#utility.yul\":5027:5028   */\n  0x00\n    /* \"#utility.yul\":5020:5108   */\n  mstore\n    /* \"#utility.yul\":5127:5131   */\n  0x22\n    /* \"#utility.yul\":5124:5125   */\n  0x04\n    /* \"#utility.yul\":5117:5132   */\n  mstore\n    /* \"#utility.yul\":5151:5155   */\n  0x24\n    /* \"#utility.yul\":5148:5149   */\n  0x00\n    /* \"#utility.yul\":5141:5156   */\n  revert\n    /* \"#utility.yul\":5168:5488   */\ntag_100:\n    /* \"#utility.yul\":5212:5218   */\n  0x00\n    /* \"#utility.yul\":5249:5250   */\n  0x02\n    /* \"#utility.yul\":5243:5247   */\n  dup3\n    /* \"#utility.yul\":5239:5251   */\n  div\n    /* \"#utility.yul\":5229:5251   */\n  swap1\n  pop\n    /* \"#utility.yul\":5296:5297   */\n  0x01\n    /* \"#utility.yul\":5290:5294   */\n  dup3\n    /* \"#utility.yul\":5286:5298   */\n  and\n    /* \"#utility.yul\":5317:5335   */\n  dup1\n    /* \"#utility.yul\":5307:5388   */\n  tag_189\n  jumpi\n    /* \"#utility.yul\":5373:5377   */\n  0x7f\n    /* \"#utility.yul\":5365:5371   */\n  dup3\n    /* \"#utility.yul\":5361:5378   */\n  and\n    /* \"#utility.yul\":5351:5378   */\n  swap2\n  pop\n    /* \"#utility.yul\":5307:5388   */\ntag_189:\n    /* \"#utility.yul\":5435:5437   */\n  0x20\n    /* \"#utility.yul\":5427:5433   */\n  dup3\n    /* \"#utility.yul\":5424:5438   */\n  lt\n    /* \"#utility.yul\":5404:5422   */\n  dup2\n    /* \"#utility.yul\":5401:5439   */\n  sub\n    /* \"#utility.yul\":5398:5482   */\n  tag_190\n  jumpi\n    /* \"#utility.yul\":5454:5472   */\n  tag_191\n  tag_99\n  jump\t// in\ntag_191:\n    /* \"#utility.yul\":5398:5482   */\ntag_190:\n    /* \"#utility.yul\":5219:5488   */\n  pop\n    /* \"#utility.yul\":5168:5488   */\n  swap2\n  swap1\n  pop\n  jump\t// out\n    /* \"#utility.yul\":5494:5635   */\ntag_101:\n    /* \"#utility.yul\":5543:5547   */\n  0x00\n    /* \"#utility.yul\":5566:5569   */\n  dup2\n    /* \"#utility.yul\":5558:5569   */\n  swap1\n  pop\n    /* \"#utility.yul\":5589:5592   */\n  dup2\n    /* \"#utility.yul\":5586:5587   */\n  0x00\n    /* \"#utility.yul\":5579:5593   */\n  mstore\n    /* \"#utility.yul\":5623:5627   */\n  0x20\n    /* \"#utility.yul\":5620:5621   */\n  0x00\n    /* \"#utility.yul\":5610:5628   */\n  keccak256\n    /* \"#utility.yul\":5602:5628   */\n  swap1\n  pop\n    /* \"#utility.yul\":5494:5635   */\n  swap2\n  swap1\n  pop\n  jump\t// out\n    /* \"#utility.yul\":5641:5734   */\ntag_102:\n    /* \"#utility.yul\":5678:5684   */\n  0x00\n    /* \"#utility.yul\":5725:5727   */\n  0x20\n    /* \"#utility.yul\":5720:5722   */\n  0x1f\n    /* \"#utility.yul\":5713:5718   */\n  dup4\n    /* \"#utility.yul\":5709:5723   */\n  add\n    /* \"#utility.yul\":5705:5728   */\n  div\n    /* \"#utility.yul\":5695:5728   */\n  swap1\n  pop\n    /* \"#utility.yul\":5641:5734   */\n  swap2\n  swap1\n  pop\n  jump\t// out\n    /* \"#utility.yul\":5740:5847   */\ntag_103:\n    /* \"#utility.yul\":5784:5792   */\n  0x00\n    /* \"#utility.yul\":5834:5839   */\n  dup3\n    /* \"#utility.yul\":5828:5832   */\n  dup3\n    /* \"#utility.yul\":5824:5840   */\n  shl\n    /* \"#utility.yul\":5803:5840   */\n  swap1\n  pop\n    /* \"#utility.yul\":5740:5847   */\n  swap3\n  swap2\n  pop\n  pop\n  jump\t// out\n    /* \"#utility.yul\":5853:6246   */\ntag_104:\n    /* \"#utility.yul\":5922:5928   */\n  0x00\n    /* \"#utility.yul\":5972:5973   */\n  0x08\n    /* \"#utility.yul\":5960:5970   */\n  dup4\n    /* \"#utility.yul\":5956:5974   */\n  mul\n    /* \"#utility.yul\":5995:6092   */\n  tag_196\n    /* \"#utility.yul\":6025:6091   */\n  0xffffffffffffffffffffffffffffffffffffffffffffffffffffffffffffffff\n    /* \"#utility.yul\":6014:6023   */\n  dup3\n    /* \"#utility.yul\":5995:6092   */\n  tag_103\n  jump\t// in\ntag_196:\n    /* \"#utility.yul\":6113:6152   */\n  tag_197\n    /* \"#utility.yul\":6143:6151   */\n  dup7\n    /* \"#utility.yul\":6132:6141   */\n  dup4\n    /* \"#utility.yul\":6113:6152   */\n  tag_103\n  jump\t// in\ntag_197:\n    /* \"#utility.yul\":6101:6152   */\n  swap6\n  pop\n    /* \"#utility.yul\":6185:6189   */\n  dup1\n    /* \"#utility.yul\":6181:6190   */\n  not\n    /* \"#utility.yul\":6174:6179   */\n  dup5\n    /* \"#utility.yul\":6170:6191   */\n  and\n    /* \"#utility.yul\":6161:6191   */\n  swap4\n  pop\n    /* \"#utility.yul\":6234:6238   */\n  dup1\n    /* \"#utility.yul\":6224:6232   */\n  dup7\n    /* \"#utility.yul\":6220:6239   */\n  and\n    /* \"#utility.yul\":6213:6218   */\n  dup5\n    /* \"#utility.yul\":6210:6240   */\n  or\n    /* \"#utility.yul\":6200:6240   */\n  swap3\n  pop\n    /* \"#utility.yul\":5929:6246   */\n  pop\n  pop\n    /* \"#utility.yul\":5853:6246   */\n  swap4\n  swap3\n  pop\n  pop\n  pop\n  jump\t// out\n    /* \"#utility.yul\":6252:6312   */\ntag_105:\n    /* \"#utility.yul\":6280:6283   */\n  0x00\n    /* \"#utility.yul\":6301:6306   */\n  dup2\n    /* \"#utility.yul\":6294:6306   */\n  swap1\n  pop\n    /* \"#utility.yul\":6252:6312   */\n  swap2\n  swap1\n  pop\n  jump\t// out\n    /* \"#utility.yul\":6318:6460   */\ntag_106:\n    /* \"#utility.yul\":6368:6377   */\n  0x00\n    /* \"#utility.yul\":6401:6454   */\n  tag_200\n    /* \"#utility.yul\":6419:6453   */\n  tag_201\n    /* \"#utility.yul\":6428:6452   */\n  tag_202\n    /* \"#utility.yul\":6446:6451   */\n  dup5\n    /* \"#utility.yul\":6428:6452   */\n  tag_95\n  jump\t// in\ntag_202:\n    /* \"#utility.yul\":6419:6453   */\n  tag_105\n  jump\t// in\ntag_201:\n    /* \"#utility.yul\":6401:6454   */\n  tag_95\n  jump\t// in\ntag_200:\n    /* \"#utility.yul\":6388:6454   */\n  swap1\n  pop\n    /* \"#utility.yul\":6318:6460   */\n  swap2\n  swap1\n  pop\n  jump\t// out\n    /* \"#utility.yul\":6466:6541   */\ntag_107:\n    /* \"#utility.yul\":6509:6512   */\n  0x00\n    /* \"#utility.yul\":6530:6535   */\n  dup2\n    /* \"#utility.yul\":6523:6535   */\n  swap1\n  pop\n    /* \"#utility.yul\":6466:6541   */\n  swap2\n  swap1\n  pop\n  jump\t// out\n    /* \"#utility.yul\":6547:6816   */\ntag_108:\n    /* \"#utility.yul\":6657:6696   */\n  tag_205\n    /* \"#utility.yul\":6688:6695   */\n  dup4\n    /* \"#utility.yul\":6657:6696   */\n  tag_106\n  jump\t// in\ntag_205:\n    /* \"#utility.yul\":6718:6809   */\n  tag_206\n    /* \"#utility.yul\":6767:6808   */\n  tag_207\n    /* \"#utility.yul\":6791:6807   */\n  dup3\n    /* \"#utility.yul\":6767:6808   */\n  tag_107\n  jump\t// in\ntag_207:\n    /* \"#utility.yul\":6759:6765   */\n  dup5\n    /* \"#utility.yul\":6752:6756   */\n  dup5\n    /* \"#utility.yul\":6746:6757   */\n  sload\n    /* \"#utility.yul\":6718:6809   */\n  tag_104\n  jump\t// in\ntag_206:\n    /* \"#utility.yul\":6712:6716   */\n  dup3\n    /* \"#utility.yul\":6705:6810   */\n  sstore\n    /* \"#utility.yul\":6623:6816   */\n  pop\n    /* \"#utility.yul\":6547:6816   */\n  pop\n  pop\n  pop\n  jump\t// out\n    /* \"#utility.yul\":6822:6895   */\ntag_109:\n    /* \"#utility.yul\":6867:6870   */\n  0x00\n    /* \"#utility.yul\":6822:6895   */\n  swap1\n  jump\t// out\n    /* \"#utility.yul\":6901:7090   */\ntag_110:\n    /* \"#utility.yul\":6978:7010   */\n  tag_210\n  tag_109\n  jump\t// in\ntag_210:\n    /* \"#utility.yul\":7019:7084   */\n  tag_211\n    /* \"#utility.yul\":7077:7083   */\n  dup2\n    /* \"#utility.yul\":7069:7075   */\n  dup5\n    /* \"#utility.yul\":7063:7067   */\n  dup5\n    /* \"#utility.yul\":7019:7084   */\n  tag_108\n  jump\t// in\ntag_211:\n    /* \"#utility.yul\":6954:7090   */\n  pop\n    /* \"#utility.yul\":6901:7090   */\n  pop\n  pop\n  jump\t// out\n    /* \"#utility.yul\":7096:7282   */\ntag_111:\n    /* \"#utility.yul\":7156:7276   */\ntag_213:\n    /* \"#utility.yul\":7173:7176   */\n  dup2\n    /* \"#utility.yul\":7166:7171   */\n  dup2\n    /* \"#utility.yul\":7163:7177   */\n  lt\n    /* \"#utility.yul\":7156:7276   */\n  iszero\n  tag_215\n  jumpi\n    /* \"#utility.yul\":7227:7266   */\n  tag_216\n    /* \"#utility.yul\":7264:7265   */\n  0x00\n    /* \"#utility.yul\":7257:7262   */\n  dup3\n    /* \"#utility.yul\":7227:7266   */\n  tag_110\n  jump\t// in\ntag_216:\n    /* \"#utility.yul\":7200:7201   */\n  0x01\n    /* \"#utility.yul\":7193:7198   */\n  dup2\n    /* \"#utility.yul\":7189:7202   */\n  add\n    /* \"#utility.yul\":7180:7202   */\n  swap1\n  pop\n    /* \"#utility.yul\":7156:7276   */\n  jump(tag_213)\ntag_215:\n    /* \"#utility.yul\":7096:7282   */\n  pop\n  pop\n  jump\t// out\n    /* \"#utility.yul\":7288:7831   */\ntag_112:\n    /* \"#utility.yul\":7389:7391   */\n  0x1f\n    /* \"#utility.yul\":7384:7387   */\n  dup3\n    /* \"#utility.yul\":7381:7392   */\n  gt\n    /* \"#utility.yul\":7378:7824   */\n  iszero\n  tag_218\n  jumpi\n    /* \"#utility.yul\":7423:7461   */\n  tag_219\n    /* \"#utility.yul\":7455:7460   */\n  dup2\n    /* \"#utility.yul\":7423:7461   */\n  tag_101\n  jump\t// in\ntag_219:\n    /* \"#utility.yul\":7507:7536   */\n  tag_220\n    /* \"#utility.yul\":7525:7535   */\n  dup5\n    /* \"#utility.yul\":7507:7536   */\n  tag_102\n  jump\t// in\ntag_220:\n    /* \"#utility.yul\":7497:7505   */\n  dup2\n    /* \"#utility.yul\":7493:7537   */\n  add\n    /* \"#utility.yul\":7690:7692   */\n  0x20\n    /* \"#utility.yul\":7678:7688   */\n  dup6\n    /* \"#utility.yul\":7675:7693   */\n  lt\n    /* \"#utility.yul\":7672:7721   */\n  iszero\n  tag_221\n  jumpi\n    /* \"#utility.yul\":7711:7719   */\n  dup2\n    /* \"#utility.yul\":7696:7719   */\n  swap1\n  pop\n    /* \"#utility.yul\":7672:7721   */\ntag_221:\n    /* \"#utility.yul\":7734:7814   */\n  tag_222\n    /* \"#utility.yul\":7790:7812   */\n  tag_223\n    /* \"#utility.yul\":7808:7811   */\n  dup6\n    /* \"#utility.yul\":7790:7812   */\n  tag_102\n  jump\t// in\ntag_223:\n    /* \"#utility.yul\":7780:7788   */\n  dup4\n    /* \"#utility.yul\":7776:7813   */\n  add\n    /* \"#utility.yul\":7763:7774   */\n  dup3\n    /* \"#utility.yul\":7734:7814   */\n  tag_111\n  jump\t// in\ntag_222:\n    /* \"#utility.yul\":7393:7824   */\n  pop\n  pop\n    /* \"#utility.yul\":7378:7824   */\ntag_218:\n    /* \"#utility.yul\":7288:7831   */\n  pop\n  pop\n  pop\n  jump\t// out\n    /* \"#utility.yul\":7837:7954   */\ntag_113:\n    /* \"#utility.yul\":7891:7899   */\n  0x00\n    /* \"#utility.yul\":7941:7946   */\n  dup3\n    /* \"#utility.yul\":7935:7939   */\n  dup3\n    /* \"#utility.yul\":7931:7947   */\n  shr\n    /* \"#utility.yul\":7910:7947   */\n  swap1\n  pop\n    /* \"#utility.yul\":7837:7954   */\n  swap3\n  swap2\n  pop\n  pop\n  jump\t// out\n    /* \"#utility.yul\":7960:8129   */\ntag_114:\n    /* \"#utility.yul\":8004:8010   */\n  0x00\n    /* \"#utility.yul\":8037:8088   */\n  tag_226\n    /* \"#utility.yul\":8085:8086   */\n  0x00\n    /* \"#utility.yul\":8081:8087   */\n  not\n    /* \"#utility.yul\":8073:8078   */\n  dup5\n    /* \"#utility.yul\":8070:8071   */\n  0x08\n    /* \"#utility.yul\":8066:8079   */\n  mul\n    /* \"#utility.yul\":8037:8088   */\n  tag_113\n  jump\t// in\ntag_226:\n    /* \"#utility.yul\":8033:8089   */\n  not\n    /* \"#utility.yul\":8118:8122   */\n  dup1\n    /* \"#utility.yul\":8112:8116   */\n  dup4\n    /* \"#utility.yul\":8108:8123   */\n  and\n    /* \"#utility.yul\":8098:8123   */\n  swap2\n  pop\n    /* \"#utility.yul\":8011:8129   */\n  pop\n    /* \"#utility.yul\":7960:8129   */\n  swap3\n  swap2\n  pop\n  pop\n  jump\t// out\n    /* \"#utility.yul\":8134:8429   */\ntag_115:\n    /* \"#utility.yul\":8210:8214   */\n  0x00\n    /* \"#utility.yul\":8356:8385   */\n  tag_228\n    /* \"#utility.yul\":8381:8384   */\n  dup4\n    /* \"#utility.yul\":8375:8379   */\n  dup4\n    /* \"#utility.yul\":8356:8385   */\n  tag_114\n  jump\t// in\ntag_228:\n    /* \"#utility.yul\":8348:8385   */\n  swap2\n  pop\n    /* \"#utility.yul\":8418:8421   */\n  dup3\n    /* \"#utility.yul\":8415:8416   */\n  0x02\n    /* \"#utility.yul\":8411:8422   */\n  mul\n    /* \"#utility.yul\":8405:8409   */\n  dup3\n    /* \"#utility.yul\":8402:8423   */\n  or\n    /* \"#utility.yul\":8394:8423   */\n  swap1\n  pop\n    /* \"#utility.yul\":8134:8429   */\n  swap3\n  swap2\n  pop\n  pop\n  jump\t// out\n    /* \"#utility.yul\":8434:9829   */\ntag_10:\n    /* \"#utility.yul\":8551:8588   */\n  tag_230\n    /* \"#utility.yul\":8584:8587   */\n  dup3\n    /* \"#utility.yul\":8551:8588   */\n  tag_98\n  jump\t// in\ntag_230:\n    /* \"#utility.yul\":8653:8671   */\n  0xffffffffffffffff\n    /* \"#utility.yul\":8645:8651   */\n  dup2\n    /* \"#utility.yul\":8642:8672   */\n  gt\n    /* \"#utility.yul\":8639:8695   */\n  iszero\n  tag_231\n  jumpi\n    /* \"#utility.yul\":8675:8693   */\n  tag_232\n  tag_84\n  jump\t// in\ntag_232:\n    /* \"#utility.yul\":8639:8695   */\ntag_231:\n    /* \"#utility.yul\":8719:8757   */\n  tag_233\n    /* \"#utility.yul\":8751:8755   */\n  dup3\n    /* \"#utility.yul\":8745:8756   */\n  sload\n    /* \"#utility.yul\":8719:8757   */\n  tag_100\n  jump\t// in\ntag_233:\n    /* \"#utility.yul\":8804:8871   */\n  tag_234\n    /* \"#utility.yul\":8864:8870   */\n  dup3\n    /* \"#utility.yul\":8856:8862   */\n  dup3\n    /* \"#utility.yul\":8850:8854   */\n  dup6\n    /* \"#utility.yul\":8804:8871   */\n  tag_112\n  jump\t// in\ntag_234:\n    /* \"#utility.yul\":8898:8899   */\n  0x00\n    /* \"#utility.yul\":8922:8926   */\n  0x20\n    /* \"#utility.yul\":8909:8926   */\n  swap1\n  pop\n    /* \"#utility.yul\":8954:8956   */\n  0x1f\n    /* \"#utility.yul\":8946:8952   */\n  dup4\n    /* \"#utility.yul\":8943:8957   */\n  gt\n    /* \"#utility.yul\":8971:8972   */\n  0x01\n    /* \"#utility.yul\":8966:9584   */\n  dup2\n  eq\n  tag_236\n  jumpi\n    /* \"#utility.yul\":9628:9629   */\n  0x00\n    /* \"#utility.yul\":9645:9651   */\n  dup5\n    /* \"#utility.yul\":9642:9719   */\n  iszero\n  tag_237\n  jumpi\n    /* \"#utility.yul\":9694:9703   */\n  dup3\n    /* \"#utility.yul\":9689:9692   */\n  dup8\n    /* \"#utility.yul\":9685:9704   */\n  add\n    /* \"#utility.yul\":9679:9705   */\n  mload\n    /* \"#utility.yul\":9670:9705   */\n  swap1\n  pop\n    /* \"#utility.yul\":9642:9719   */\ntag_237:\n    /* \"#utility.yul\":9745:9812   */\n  tag_238\n    /* \"#utility.yul\":9805:9811   */\n  dup6\n    /* \"#utility.yul\":9798:9803   */\n  dup3\n    /* \"#utility.yul\":9745:9812   */\n  tag_115\n  jump\t// in\ntag_238:\n    /* \"#utility.yul\":9739:9743   */\n  dup7\n    /* \"#utility.yul\":9732:9813   */\n  sstore\n    /* \"#utility.yul\":9601:9823   */\n  pop\n    /* \"#utility.yul\":8936:9823   */\n  jump(tag_235)\n    /* \"#utility.yul\":8966:9584   */\ntag_236:\n    /* \"#utility.yul\":9018:9022   */\n  0x1f\n    /* \"#utility.yul\":9014:9023   */\n  not\n    /* \"#utility.yul\":9006:9012   */\n  dup5\n    /* \"#utility.yul\":9002:9024   */\n  and\n    /* \"#utility.yul\":9052:9089   */\n  tag_239\n    /* \"#utility.yul\":9084:9088   */\n  dup7\n    /* \"#utility.yul\":9052:9089   */\n  tag_101\n  jump\t// in\ntag_239:\n    /* \"#utility.yul\":9111:9112   */\n  0x00\n    /* \"#utility.yul\":9125:9333   */\ntag_240:\n    /* \"#utility.yul\":9139:9146   */\n  dup3\n    /* \"#utility.yul\":9136:9137   */\n  dup2\n    /* \"#utility.yul\":9133:9147   */\n  lt\n    /* \"#utility.yul\":9125:9333   */\n  iszero\n  tag_242\n  jumpi\n    /* \"#utility.yul\":9218:9227   */\n  dup5\n    /* \"#utility.yul\":9213:9216   */\n  dup10\n    /* \"#utility.yul\":9209:9228   */\n  add\n    /* \"#utility.yul\":9203:9229   */\n  mload\n    /* \"#utility.yul\":9195:9201   */\n  dup3\n    /* \"#utility.yul\":9188:9230   */\n  sstore\n    /* \"#utility.yul\":9269:9270   */\n  0x01\n    /* \"#utility.yul\":9261:9267   */\n  dup3\n    /* \"#utility.yul\":9257:9271   */\n  add\n    /* \"#utility.yul\":9247:9271   */\n  swap2\n  pop\n    /* \"#utility.yul\":9316:9318   */\n  0x20\n    /* \"#utility.yul\":9305:9314   */\n  dup6\n    /* \"#utility.yul\":9301:9319   */\n  add\n    /* \"#utility.yul\":9288:9319   */\n  swap5\n  pop\n    /* \"#utility.yul\":9162:9166   */\n  0x20\n    /* \"#utility.yul\":9159:9160   */\n  dup2\n    /* \"#utility.yul\":9155:9167   */\n  add\n    /* \"#utility.yul\":9150:9167   */\n  swap1\n  pop\n    /* \"#utility.yul\":9125:9333   */\n  jump(tag_240)\ntag_242:\n    /* \"#utility.yul\":9361:9367   */\n  dup7\n    /* \"#utility.yul\":9352:9359   */\n  dup4\n    /* \"#utility.yul\":9349:9368   */\n  lt\n    /* \"#utility.yul\":9346:9525   */\n  iszero\n  tag_243\n  jumpi\n    /* \"#utility.yul\":9419:9428   */\n  dup5\n    /* \"#utility.yul\":9414:9417   */\n  dup10\n    /* \"#utility.yul\":9410:9429   */\n  add\n    /* \"#utility.yul\":9404:9430   */\n  mload\n    /* \"#utility.yul\":9462:9510   */\n  tag_244\n    /* \"#utility.yul\":9504:9508   */\n  0x1f\n    /* \"#utility.yul\":9496:9502   */\n  dup10\n    /* \"#utility.yul\":9492:9509   */\n  and\n    /* \"#utility.yul\":9481:9490   */\n  dup3\n    /* \"#utility.yul\":9462:9510   */\n  tag_114\n  jump\t// in\ntag_244:\n    /* \"#utility.yul\":9454:9460   */\n  dup4\n    /* \"#utility.yul\":9447:9511   */\n  sstore\n    /* \"#utility.yul\":9369:9525   */\n  pop\n    /* \"#utility.yul\":9346:9525   */\ntag_243:\n    /* \"#utility.yul\":9571:9572   */\n  0x01\n    /* \"#utility.yul\":9567:9568   */\n  0x02\n    /* \"#utility.yul\":9559:9565   */\n  dup9\n    /* \"#utility.yul\":9555:9569   */\n  mul\n    /* \"#utility.yul\":9551:9573   */\n  add\n    /* \"#utility.yul\":9545:9549   */\n  dup9\n    /* \"#utility.yul\":9538:9574   */\n  sstore\n    /* \"#utility.yul\":8973:9584   */\n  pop\n  pop\n  pop\n    /* \"#utility.yul\":8936:9823   */\ntag_235:\n  pop\n    /* \"#utility.yul\":8526:9829   */\n  pop\n  pop\n  pop\n    /* \"#utility.yul\":8434:9829   */\n  pop\n  pop\n  jump\t// out\n    /* \"#utility.yul\":9835:9953   */\ntag_116:\n    /* \"#utility.yul\":9922:9946   */\n  tag_246\n    /* \"#utility.yul\":9940:9945   */\n  dup2\n    /* \"#utility.yul\":9922:9946   */\n  tag_92\n  jump\t// in\ntag_246:\n    /* \"#utility.yul\":9917:9920   */\n  dup3\n    /* \"#utility.yul\":9910:9947   */\n  mstore\n    /* \"#utility.yul\":9835:9953   */\n  pop\n  pop\n  jump\t// out\n    /* \"#utility.yul\":9959:10181   */\ntag_15:\n    /* \"#utility.yul\":10052:10056   */\n  0x00\n    /* \"#utility.yul\":10090:10092   */\n  0x20\n    /* \"#utility.yul\":10079:10088   */\n  dup3\n    /* \"#utility.yul\":10075:10093   */\n  add\n    /* \"#utility.yul\":10067:10093   */\n  swap1\n  pop\n    /* \"#utility.yul\":10103:10174   */\n  tag_248\n    /* \"#utility.yul\":10171:10172   */\n  0x00\n    /* \"#utility.yul\":10160:10169   */\n  dup4\n    /* \"#utility.yul\":10156:10173   */\n  add\n    /* \"#utility.yul\":10147:10153   */\n  dup5\n    /* \"#utility.yul\":10103:10174   */\n  tag_116\n  jump\t// in\ntag_248:\n    /* \"#utility.yul\":9959:10181   */\n  swap3\n  swap2\n  pop\n  pop\n  jump\t// out\n    /* \"#utility.yul\":10187:10367   */\ntag_117:\n    /* \"#utility.yul\":10235:10312   */\n  0x4e487b7100000000000000000000000000000000000000000000000000000000\n    /* \"#utility.yul\":10232:10233   */\n  0x00\n    /* \"#utility.yul\":10225:10313   */\n  mstore\n    /* \"#utility.yul\":10332:10336   */\n  0x11\n    /* \"#utility.yul\":10329:10330   */\n  0x04\n    /* \"#utility.yul\":10322:10337   */\n  mstore\n    /* \"#utility.yul\":10356:10360   */\n  0x24\n    /* \"#utility.yul\":10353:10354   */\n  0x00\n    /* \"#utility.yul\":10346:10361   */\n  revert\n    /* \"#utility.yul\":10373:10475   */\ntag_118:\n    /* \"#utility.yul\":10415:10423   */\n  0x00\n    /* \"#utility.yul\":10462:10467   */\n  dup2\n    /* \"#utility.yul\":10459:10460   */\n  0x01\n    /* \"#utility.yul\":10455:10468   */\n  shr\n    /* \"#utility.yul\":10434:10468   */\n  swap1\n  pop\n    /* \"#utility.yul\":10373:10475   */\n  swap2\n  swap1\n  pop\n  jump\t// out\n    /* \"#utility.yul\":10481:11329   */\ntag_119:\n    /* \"#utility.yul\":10542:10547   */\n  0x00\n    /* \"#utility.yul\":10549:10553   */\n  dup1\n    /* \"#utility.yul\":10573:10579   */\n  dup3\n    /* \"#utility.yul\":10564:10579   */\n  swap2\n  pop\n    /* \"#utility.yul\":10597:10602   */\n  dup4\n    /* \"#utility.yul\":10588:10602   */\n  swap1\n  pop\n    /* \"#utility.yul\":10611:11323   */\ntag_252:\n    /* \"#utility.yul\":10632:10633   */\n  0x01\n    /* \"#utility.yul\":10622:10630   */\n  dup6\n    /* \"#utility.yul\":10619:10634   */\n  gt\n    /* \"#utility.yul\":10611:11323   */\n  iszero\n  tag_254\n  jumpi\n    /* \"#utility.yul\":10727:10731   */\n  dup1\n    /* \"#utility.yul\":10722:10725   */\n  dup7\n    /* \"#utility.yul\":10718:10732   */\n  div\n    /* \"#utility.yul\":10712:10716   */\n  dup2\n    /* \"#utility.yul\":10709:10733   */\n  gt\n    /* \"#utility.yul\":10706:10756   */\n  iszero\n  tag_255\n  jumpi\n    /* \"#utility.yul\":10736:10754   */\n  tag_256\n  tag_117\n  jump\t// in\ntag_256:\n    /* \"#utility.yul\":10706:10756   */\ntag_255:\n    /* \"#utility.yul\":10786:10787   */\n  0x01\n    /* \"#utility.yul\":10776:10784   */\n  dup6\n    /* \"#utility.yul\":10772:10788   */\n  and\n    /* \"#utility.yul\":10769:11220   */\n  iszero\n  tag_257\n  jumpi\n    /* \"#utility.yul\":11201:11205   */\n  dup1\n    /* \"#utility.yul\":11194:11199   */\n  dup3\n    /* \"#utility.yul\":11190:11206   */\n  mul\n    /* \"#utility.yul\":11181:11206   */\n  swap2\n  pop\n    /* \"#utility.yul\":10769:11220   */\ntag_257:\n    /* \"#utility.yul\":11251:11255   */\n  dup1\n    /* \"#utility.yul\":11245:11249   */\n  dup2\n    /* \"#utility.yul\":11241:11256   */\n  mul\n    /* \"#utility.yul\":11233:11256   */\n  swap1\n  pop\n    /* \"#utility.yul\":11281:11313   */\n  tag_258\n    /* \"#utility.yul\":11304:11312   */\n  dup6\n    /* \"#utility.yul\":11281:11313   */\n  tag_118\n  jump\t// in\ntag_258:\n    /* \"#utility.yul\":11269:11313   */\n  swap5\n  pop\n    /* \"#utility.yul\":10611:11323   */\n  jump(tag_252)\ntag_254:\n    /* \"#utility.yul\":10481:11329   */\n  swap5\n  pop\n  swap5\n  swap3\n  pop\n  pop\n  pop\n  jump\t// out\n    /* \"#utility.yul\":11335:12408   */\ntag_120:\n    /* \"#utility.yul\":11389:11394   */\n  0x00\n    /* \"#utility.yul\":11580:11588   */\n  dup3\n    /* \"#utility.yul\":11570:11610   */\n  tag_260\n  jumpi\n    /* \"#utility.yul\":11601:11602   */\n  0x01\n    /* \"#utility.yul\":11592:11602   */\n  swap1\n  pop\n    /* \"#utility.yul\":11603:11608   */\n  jump(tag_259)\n    /* \"#utility.yul\":11570:11610   */\ntag_260:\n    /* \"#utility.yul\":11629:11633   */\n  dup2\n    /* \"#utility.yul\":11619:11655   */\n  tag_261\n  jumpi\n    /* \"#utility.yul\":11646:11647   */\n  0x00\n    /* \"#utility.yul\":11637:11647   */\n  swap1\n  pop\n    /* \"#utility.yul\":11648:11653   */\n  jump(tag_259)\n    /* \"#utility.yul\":11619:11655   */\ntag_261:\n    /* \"#utility.yul\":11715:11719   */\n  dup2\n    /* \"#utility.yul\":11763:11764   */\n  0x01\n    /* \"#utility.yul\":11758:11785   */\n  dup2\n  eq\n  tag_263\n  jumpi\n    /* \"#utility.yul\":11799:11800   */\n  0x02\n    /* \"#utility.yul\":11794:11985   */\n  dup2\n  eq\n  tag_264\n  jumpi\n    /* \"#utility.yul\":11708:11985   */\n  jump(tag_262)\n    /* \"#utility.yul\":11758:11785   */\ntag_263:\n    /* \"#utility.yul\":11776:11777   */\n  0x01\n    /* \"#utility.yul\":11767:11777   */\n  swap2\n  pop\n    /* \"#utility.yul\":11778:11783   */\n  pop\n  jump(tag_259)\n    /* \"#utility.yul\":11794:11985   */\ntag_264:\n    /* \"#utility.yul\":11839:11842   */\n  0xff\n    /* \"#utility.yul\":11829:11837   */\n  dup5\n    /* \"#utility.yul\":11826:11843   */\n  gt\n    /* \"#utility.yul\":11823:11866   */\n  iszero\n  tag_265\n  jumpi\n    /* \"#utility.yul\":11846:11864   */\n  tag_266\n  tag_117\n  jump\t// in\ntag_266:\n    /* \"#utility.yul\":11823:11866   */\ntag_265:\n    /* \"#utility.yul\":11895:11903   */\n  dup4\n    /* \"#utility.yul\":11892:11893   */\n  0x02\n    /* \"#utility.yul\":11888:11904   */\n  exp\n    /* \"#utility.yul\":11879:11904   */\n  swap2\n  pop\n    /* \"#utility.yul\":11930:11933   */\n  dup5\n    /* \"#utility.yul\":11923:11928   */\n  dup3\n    /* \"#utility.yul\":11920:11934   */\n  gt\n    /* \"#utility.yul\":11917:11957   */\n  iszero\n  tag_267\n  jumpi\n    /* \"#utility.yul\":11937:11955   */\n  tag_268\n  tag_117\n  jump\t// in\ntag_268:\n    /* \"#utility.yul\":11917:11957   */\ntag_267:\n    /* \"#utility.yul\":11970:11975   */\n  pop\n  jump(tag_259)\n    /* \"#utility.yul\":11708:11985   */\ntag_262:\n  pop\n    /* \"#utility.yul\":12094:12096   */\n  0x20\n    /* \"#utility.yul\":12084:12092   */\n  dup4\n    /* \"#utility.yul\":12081:12097   */\n  lt\n    /* \"#utility.yul\":12075:12078   */\n  0x0133\n    /* \"#utility.yul\":12069:12073   */\n  dup4\n    /* \"#utility.yul\":12066:12079   */\n  lt\n    /* \"#utility.yul\":12062:12098   */\n  and\n    /* \"#utility.yul\":12044:12046   */\n  0x4e\n    /* \"#utility.yul\":12034:12042   */\n  dup5\n    /* \"#utility.yul\":12031:12047   */\n  lt\n    /* \"#utility.yul\":12026:12028   */\n  0x0b\n    /* \"#utility.yul\":12020:12024   */\n  dup5\n    /* \"#utility.yul\":12017:12029   */\n  lt\n    /* \"#utility.yul\":12013:12048   */\n  and\n    /* \"#utility.yul\":11997:12108   */\n  or\n    /* \"#utility.yul\":11994:12240   */\n  iszero\n  tag_269\n  jumpi\n    /* \"#utility.yul\":12150:12158   */\n  dup3\n    /* \"#utility.yul\":12144:12148   */\n  dup3\n    /* \"#utility.yul\":12140:12159   */\n  exp\n    /* \"#utility.yul\":12131:12159   */\n  swap1\n  pop\n    /* \"#utility.yul\":12185:12188   */\n  dup4\n    /* \"#utility.yul\":12178:12183   */\n  dup2\n    /* \"#utility.yul\":12175:12189   */\n  gt\n    /* \"#utility.yul\":12172:12212   */\n  iszero\n  tag_270\n  jumpi\n    /* \"#utility.yul\":12192:12210   */\n  tag_271\n  tag_117\n  jump\t// in\ntag_271:\n    /* \"#utility.yul\":12172:12212   */\ntag_270:\n    /* \"#utility.yul\":12225:12230   */\n  jump(tag_259)\n    /* \"#utility.yul\":11994:12240   */\ntag_269:\n    /* \"#utility.yul\":12265:12307   */\n  tag_272\n    /* \"#utility.yul\":12303:12306   */\n  dup5\n    /* \"#utility.yul\":12293:12301   */\n  dup5\n    /* \"#utility.yul\":12287:12291   */\n  dup5\n    /* \"#utility.yul\":12284:12285   */\n  0x01\n    /* \"#utility.yul\":12265:12307   */\n  tag_119\n  jump\t// in\ntag_272:\n    /* \"#utility.yul\":12250:12307   */\n  swap3\n  pop\n  swap1\n  pop\n    /* \"#utility.yul\":12339:12343   */\n  dup2\n    /* \"#utility.yul\":12334:12337   */\n  dup5\n    /* \"#utility.yul\":12330:12344   */\n  div\n    /* \"#utility.yul\":12323:12328   */\n  dup2\n    /* \"#utility.yul\":12320:12345   */\n  gt\n    /* \"#utility.yul\":12317:12368   */\n  iszero\n  tag_273\n  jumpi\n    /* \"#utility.yul\":12348:12366   */\n  tag_274\n  tag_117\n  jump\t// in\ntag_274:\n    /* \"#utility.yul\":12317:12368   */\ntag_273:\n    /* \"#utility.yul\":12397:12401   */\n  dup2\n    /* \"#utility.yul\":12390:12395   */\n  dup2\n    /* \"#utility.yul\":12386:12402   */\n  mul\n    /* \"#utility.yul\":12377:12402   */\n  swap1\n  pop\n    /* \"#utility.yul\":11335:12408   */\ntag_259:\n  swap4\n  swap3\n  pop\n  pop\n  pop\n  jump\t// out\n    /* \"#utility.yul\":12414:12500   */\ntag_121:\n    /* \"#utility.yul\":12449:12456   */\n  0x00\n    /* \"#utility.yul\":12489:12493   */\n  0xff\n    /* \"#utility.yul\":12482:12487   */\n  dup3\n    /* \"#utility.yul\":12478:12494   */\n  and\n    /* \"#utility.yul\":12467:12494   */\n  swap1\n  pop\n    /* \"#utility.yul\":12414:12500   */\n  swap2\n  swap1\n  pop\n  jump\t// out\n    /* \"#utility.yul\":12506:12787   */\ntag_26:\n    /* \"#utility.yul\":12564:12569   */\n  0x00\n    /* \"#utility.yul\":12588:12611   */\n  tag_277\n    /* \"#utility.yul\":12606:12610   */\n  dup3\n    /* \"#utility.yul\":12588:12611   */\n  tag_95\n  jump\t// in\ntag_277:\n    /* \"#utility.yul\":12580:12611   */\n  swap2\n  pop\n    /* \"#utility.yul\":12632:12657   */\n  tag_278\n    /* \"#utility.yul\":12648:12656   */\n  dup4\n    /* \"#utility.yul\":12632:12657   */\n  tag_121\n  jump\t// in\ntag_278:\n    /* \"#utility.yul\":12620:12657   */\n  swap3\n  pop\n    /* \"#utility.yul\":12676:12780   */\n  tag_279\n    /* \"#utility.yul\":12713:12779   */\n  0xffffffffffffffffffffffffffffffffffffffffffffffffffffffffffffffff\n    /* \"#utility.yul\":12703:12711   */\n  dup5\n    /* \"#utility.yul\":12697:12701   */\n  dup5\n    /* \"#utility.yul\":12676:12780   */\n  tag_120\n  jump\t// in\ntag_279:\n    /* \"#utility.yul\":12667:12780   */\n  swap1\n  pop\n    /* \"#utility.yul\":12506:12787   */\n  swap3\n  swap2\n  pop\n  pop\n  jump\t// out\n    /* \"#utility.yul\":12793:13203   */\ntag_28:\n    /* \"#utility.yul\":12833:12840   */\n  0x00\n    /* \"#utility.yul\":12856:12876   */\n  tag_281\n    /* \"#utility.yul\":12874:12875   */\n  dup3\n    /* \"#utility.yul\":12856:12876   */\n  tag_95\n  jump\t// in\ntag_281:\n    /* \"#utility.yul\":12851:12876   */\n  swap2\n  pop\n    /* \"#utility.yul\":12890:12910   */\n  tag_282\n    /* \"#utility.yul\":12908:12909   */\n  dup4\n    /* \"#utility.yul\":12890:12910   */\n  tag_95\n  jump\t// in\ntag_282:\n    /* \"#utility.yul\":12885:12910   */\n  swap3\n  pop\n    /* \"#utility.yul\":12945:12946   */\n  dup3\n    /* \"#utility.yul\":12942:12943   */\n  dup3\n    /* \"#utility.yul\":12938:12947   */\n  mul\n    /* \"#utility.yul\":12967:12997   */\n  tag_283\n    /* \"#utility.yul\":12985:12996   */\n  dup2\n    /* \"#utility.yul\":12967:12997   */\n  tag_95\n  jump\t// in\ntag_283:\n    /* \"#utility.yul\":12956:12997   */\n  swap2\n  pop\n    /* \"#utility.yul\":13146:13147   */\n  dup3\n    /* \"#utility.yul\":13137:13144   */\n  dup3\n    /* \"#utility.yul\":13133:13148   */\n  div\n    /* \"#utility.yul\":13130:13131   */\n  dup5\n    /* \"#utility.yul\":13127:13149   */\n  eq\n    /* \"#utility.yul\":13107:13108   */\n  dup4\n    /* \"#utility.yul\":13100:13109   */\n  iszero\n    /* \"#utility.yul\":13080:13163   */\n  or\n    /* \"#utility.yul\":13057:13196   */\n  tag_284\n  jumpi\n    /* \"#utility.yul\":13176:13194   */\n  tag_285\n  tag_117\n  jump\t// in\ntag_285:\n    /* \"#utility.yul\":13057:13196   */\ntag_284:\n    /* \"#utility.yul\":12841:13203   */\n  pop\n    /* \"#utility.yul\":12793:13203   */\n  swap3\n  swap2\n  pop\n  pop\n  jump\t// out\n    /* \"#utility.yul\":13209:13389   */\ntag_122:\n    /* \"#utility.yul\":13257:13334   */\n  0x4e487b7100000000000000000000000000000000000000000000000000000000\n    /* \"#utility.yul\":13254:13255   */\n  0x00\n    /* \"#utility.yul\":13247:13335   */\n  mstore\n    /* \"#utility.yul\":13354:13358   */\n  0x12\n    /* \"#utility.yul\":13351:13352   */\n  0x04\n    /* \"#utility.yul\":13344:13359   */\n  mstore\n    /* \"#utility.yul\":13378:13382   */\n  0x24\n    /* \"#utility.yul\":13375:13376   */\n  0x00\n    /* \"#utility.yul\":13368:13383   */\n  revert\n    /* \"#utility.yul\":13395:13580   */\ntag_51:\n    /* \"#utility.yul\":13435:13436   */\n  0x00\n    /* \"#utility.yul\":13452:13472   */\n  tag_288\n    /* \"#utility.yul\":13470:13471   */\n  dup3\n    /* \"#utility.yul\":13452:13472   */\n  tag_95\n  jump\t// in\ntag_288:\n    /* \"#utility.yul\":13447:13472   */\n  swap2\n  pop\n    /* \"#utility.yul\":13486:13506   */\n  tag_289\n    /* \"#utility.yul\":13504:13505   */\n  dup4\n    /* \"#utility.yul\":13486:13506   */\n  tag_95\n  jump\t// in\ntag_289:\n    /* \"#utility.yul\":13481:13506   */\n  swap3\n  pop\n    /* \"#utility.yul\":13525:13526   */\n  dup3\n    /* \"#utility.yul\":13515:13550   */\n  tag_290\n  jumpi\n    /* \"#utility.yul\":13530:13548   */\n  tag_291\n  tag_122\n  jump\t// in\ntag_291:\n    /* \"#utility.yul\":13515:13550   */\ntag_290:\n    /* \"#utility.yul\":13572:13573   */\n  dup3\n    /* \"#utility.yul\":13569:13570   */\n  dup3\n    /* \"#utility.yul\":13565:13574   */\n  div\n    /* \"#utility.yul\":13560:13574   */\n  swap1\n  pop\n    /* \"#utility.yul\":13395:13580   */\n  swap3\n  swap2\n  pop\n  pop\n  jump\t// out\n    /* \"#utility.yul\":13586:13780   */\ntag_53:\n    /* \"#utility.yul\":13626:13630   */\n  0x00\n    /* \"#utility.yul\":13646:13666   */\n  tag_293\n    /* \"#utility.yul\":13664:13665   */\n  dup3\n    /* \"#utility.yul\":13646:13666   */\n  tag_95\n  jump\t// in\ntag_293:\n    /* \"#utility.yul\":13641:13666   */\n  swap2\n  pop\n    /* \"#utility.yul\":13680:13700   */\n  tag_294\n    /* \"#utility.yul\":13698:13699   */\n  dup4\n    /* \"#utility.yul\":13680:13700   */\n  tag_95\n  jump\t// in\ntag_294:\n    /* \"#utility.yul\":13675:13700   */\n  swap3\n  pop\n    /* \"#utility.yul\":13724:13725   */\n  dup3\n    /* \"#utility.yul\":13721:13722   */\n  dup3\n    /* \"#utility.yul\":13717:13726   */\n  sub\n    /* \"#utility.yul\":13709:13726   */\n  swap1\n  pop\n    /* \"#utility.yul\":13748:13749   */\n  dup2\n    /* \"#utility.yul\":13742:13746   */\n  dup2\n    /* \"#utility.yul\":13739:13750   */\n  gt\n    /* \"#utility.yul\":13736:13773   */\n  iszero\n  tag_295\n  jumpi\n    /* \"#utility.yul\":13753:13771   */\n  tag_296\n  tag_117\n  jump\t// in\ntag_296:\n    /* \"#utility.yul\":13736:13773   */\ntag_295:\n    /* \"#utility.yul\":13586:13780   */\n  swap3\n  swap2\n  pop\n  pop\n  jump\t// out\n    /* \"#utility.yul\":13786:13904   */\ntag_123:\n    /* \"#utility.yul\":13873:13897   */\n  tag_298\n    /* \"#utility.yul\":13891:13896   */\n  dup2\n    /* \"#utility.yul\":13873:13897   */\n  tag_95\n  jump\t// in\ntag_298:\n    /* \"#utility.yul\":13868:13871   */\n  dup3\n    /* \"#utility.yul\":13861:13898   */\n  mstore\n    /* \"#utility.yul\":13786:13904   */\n  pop\n  pop\n  jump\t// out\n    /* \"#utility.yul\":13910:14242   */\ntag_58:\n    /* \"#utility.yul\":14031:14035   */\n  0x00\n    /* \"#utility.yul\":14069:14071   */\n  0x40\n    /* \"#utility.yul\":14058:14067   */\n  dup3\n    /* \"#utility.yul\":14054:14072   */\n  add\n    /* \"#utility.yul\":14046:14072   */\n  swap1\n  pop\n    /* \"#utility.yul\":14082:14153   */\n  tag_300\n    /* \"#utility.yul\":14150:14151   */\n  0x00\n    /* \"#utility.yul\":14139:14148   */\n  dup4\n    /* \"#utility.yul\":14135:14152   */\n  add\n    /* \"#utility.yul\":14126:14132   */\n  dup6\n    /* \"#utility.yul\":14082:14153   */\n  tag_123\n  jump\t// in\ntag_300:\n    /* \"#utility.yul\":14163:14235   */\n  tag_301\n    /* \"#utility.yul\":14231:14233   */\n  0x20\n    /* \"#utility.yul\":14220:14229   */\n  dup4\n    /* \"#utility.yul\":14216:14234   */\n  add\n    /* \"#utility.yul\":14207:14213   */\n  dup5\n    /* \"#utility.yul\":14163:14235   */\n  tag_123\n  jump\t// in\ntag_301:\n    /* \"#utility.yul\":13910:14242   */\n  swap4\n  swap3\n  pop\n  pop\n  pop\n  jump\t// out\n    /* \"#utility.yul\":14248:14417   */\ntag_124:\n    /* \"#utility.yul\":14332:14343   */\n  0x00\n    /* \"#utility.yul\":14366:14372   */\n  dup3\n    /* \"#utility.yul\":14361:14364   */\n  dup3\n    /* \"#utility.yul\":14354:14373   */\n  mstore\n    /* \"#utility.yul\":14406:14410   */\n  0x20\n    /* \"#utility.yul\":14401:14404   */\n  dup3\n    /* \"#utility.yul\":14397:14411   */\n  add\n    /* \"#utility.yul\":14382:14411   */\n  swap1\n  pop\n    /* \"#utility.yul\":14248:14417   */\n  swap3\n  swap2\n  pop\n  pop\n  jump\t// out\n    /* \"#utility.yul\":14423:14589   */\ntag_125:\n    /* \"#utility.yul\":14563:14581   */\n  0x5061757361626c653a2070617573656400000000000000000000000000000000\n    /* \"#utility.yul\":14559:14560   */\n  0x00\n    /* \"#utility.yul\":14551:14557   */\n  dup3\n    /* \"#utility.yul\":14547:14561   */\n  add\n    /* \"#utility.yul\":14540:14582   */\n  mstore\n    /* \"#utility.yul\":14423:14589   */\n  pop\n  jump\t// out\n    /* \"#utility.yul\":14595:14961   */\ntag_126:\n    /* \"#utility.yul\":14737:14740   */\n  0x00\n    /* \"#utility.yul\":14758:14825   */\n  tag_305\n    /* \"#utility.yul\":14822:14824   */\n  0x10\n    /* \"#utility.yul\":14817:14820   */\n  dup4\n    /* \"#utility.yul\":14758:14825   */\n  tag_124\n  jump\t// in\ntag_305:\n    /* \"#utility.yul\":14751:14825   */\n  swap2\n  pop\n    /* \"#utility.yul\":14834:14927   */\n  tag_306\n    /* \"#utility.yul\":14923:14926   */\n  dup3\n    /* \"#utility.yul\":14834:14927   */\n  tag_125\n  jump\t// in\ntag_306:\n    /* \"#utility.yul\":14952:14954   */\n  0x20\n    /* \"#utility.yul\":14947:14950   */\n  dup3\n    /* \"#utility.yul\":14943:14955   */\n  add\n    /* \"#utility.yul\":14936:14955   */\n  swap1\n  pop\n    /* \"#utility.yul\":14595:14961   */\n  swap2\n  swap1\n  pop\n  jump\t// out\n    /* \"#utility.yul\":14967:15386   */\ntag_64:\n    /* \"#utility.yul\":15133:15137   */\n  0x00\n    /* \"#utility.yul\":15171:15173   */\n  0x20\n    /* \"#utility.yul\":15160:15169   */\n  dup3\n    /* \"#utility.yul\":15156:15174   */\n  add\n    /* \"#utility.yul\":15148:15174   */\n  swap1\n  pop\n    /* \"#utility.yul\":15220:15229   */\n  dup2\n    /* \"#utility.yul\":15214:15218   */\n  dup2\n    /* \"#utility.yul\":15210:15230   */\n  sub\n    /* \"#utility.yul\":15206:15207   */\n  0x00\n    /* \"#utility.yul\":15195:15204   */\n  dup4\n    /* \"#utility.yul\":15191:15208   */\n  add\n    /* \"#utility.yul\":15184:15231   */\n  mstore\n    /* \"#utility.yul\":15248:15379   */\n  tag_308\n    /* \"#utility.yul\":15374:15378   */\n  dup2\n    /* \"#utility.yul\":15248:15379   */\n  tag_126\n  jump\t// in\ntag_308:\n    /* \"#utility.yul\":15240:15379   */\n  swap1\n  pop\n    /* \"#utility.yul\":14967:15386   */\n  swap2\n  swap1\n  pop\n  jump\t// out\n    /* \"#utility.yul\":15392:15583   */\ntag_68:\n    /* \"#utility.yul\":15432:15435   */\n  0x00\n    /* \"#utility.yul\":15451:15471   */\n  tag_310\n    /* \"#utility.yul\":15469:15470   */\n  dup3\n    /* \"#utility.yul\":15451:15471   */\n  tag_95\n  jump\t// in\ntag_310:\n    /* \"#utility.yul\":15446:15471   */\n  swap2\n  pop\n    /* \"#utility.yul\":15485:15505   */\n  tag_311\n    /* \"#utility.yul\":15503:15504   */\n  dup4\n    /* \"#utility.yul\":15485:15505   */\n  tag_95\n  jump\t// in\ntag_311:\n    /* \"#utility.yul\":15480:15505   */\n  swap3\n  pop\n    /* \"#utility.yul\":15528:15529   */\n  dup3\n    /* \"#utility.yul\":15525:15526   */\n  dup3\n    /* \"#utility.yul\":15521:15530   */\n  add\n    /* \"#utility.yul\":15514:15530   */\n  swap1\n  pop\n    /* \"#utility.yul\":15549:15552   */\n  dup1\n    /* \"#utility.yul\":15546:15547   */\n  dup3\n    /* \"#utility.yul\":15543:15553   */\n  gt\n    /* \"#utility.yul\":15540:15576   */\n  iszero\n  tag_312\n  jumpi\n    /* \"#utility.yul\":15556:15574   */\n  tag_313\n  tag_117\n  jump\t// in\ntag_313:\n    /* \"#utility.yul\":15540:15576   */\ntag_312:\n    /* \"#utility.yul\":15392:15583   */\n  swap3\n  swap2\n  pop\n  pop\n  jump\t// out\n    /* \"#utility.yul\":15589:16031   */\ntag_72:\n    /* \"#utility.yul\":15738:15742   */\n  0x00\n    /* \"#utility.yul\":15776:15778   */\n  0x60\n    /* \"#utility.yul\":15765:15774   */\n  dup3\n    /* \"#utility.yul\":15761:15779   */\n  add\n    /* \"#utility.yul\":15753:15779   */\n  swap1\n  pop\n    /* \"#utility.yul\":15789:15860   */\n  tag_315\n    /* \"#utility.yul\":15857:15858   */\n  0x00\n    /* \"#utility.yul\":15846:15855   */\n  dup4\n    /* \"#utility.yul\":15842:15859   */\n  add\n    /* \"#utility.yul\":15833:15839   */\n  dup7\n    /* \"#utility.yul\":15789:15860   */\n  tag_116\n  jump\t// in\ntag_315:\n    /* \"#utility.yul\":15870:15942   */\n  tag_316\n    /* \"#utility.yul\":15938:15940   */\n  0x20\n    /* \"#utility.yul\":15927:15936   */\n  dup4\n    /* \"#utility.yul\":15923:15941   */\n  add\n    /* \"#utility.yul\":15914:15920   */\n  dup6\n    /* \"#utility.yul\":15870:15942   */\n  tag_123\n  jump\t// in\ntag_316:\n    /* \"#utility.yul\":15952:16024   */\n  tag_317\n    /* \"#utility.yul\":16020:16022   */\n  0x40\n    /* \"#utility.yul\":16009:16018   */\n  dup4\n    /* \"#utility.yul\":16005:16023   */\n  add\n    /* \"#utility.yul\":15996:16002   */\n  dup5\n    /* \"#utility.yul\":15952:16024   */\n  tag_123\n  jump\t// in\ntag_317:\n    /* \"#utility.yul\":15589:16031   */\n  swap5\n  swap4\n  pop\n  pop\n  pop\n  pop\n  jump\t// out\n    /* \"#utility.yul\":16037:16259   */\ntag_76:\n    /* \"#utility.yul\":16130:16134   */\n  0x00\n    /* \"#utility.yul\":16168:16170   */\n  0x20\n    /* \"#utility.yul\":16157:16166   */\n  dup3\n    /* \"#utility.yul\":16153:16171   */\n  add\n    /* \"#utility.yul\":16145:16171   */\n  swap1\n  pop\n    /* \"#utility.yul\":16181:16252   */\n  tag_319\n    /* \"#utility.yul\":16249:16250   */\n  0x00\n    /* \"#utility.yul\":16238:16247   */\n  dup4\n    /* \"#utility.yul\":16234:16251   */\n  add\n    /* \"#utility.yul\":16225:16231   */\n  dup5\n    /* \"#utility.yul\":16181:16252   */\n  tag_123\n  jump\t// in\ntag_319:\n    /* \"#utility.yul\":16037:16259   */\n  swap3\n  swap2\n  pop\n  pop\n  jump\t// out\n    /* \"main.sol\":328:5415  contract TaxableToken is ERC20, Ownable, Pausable {... */\ntag_30:\n  dataSize(sub_0)\n  dup1\n  dataOffset(sub_0)\n  0x00\n  codecopy\n  0x00\n  return\nstop\n\nsub_0: assembly {\n        /* \"main.sol\":328:5415  contract TaxableToken is ERC20, Ownable, Pausable {... */\n      mstore(0x40, 0x80)\n      callvalue\n      dup1\n      iszero\n      tag_1\n      jumpi\n      0x00\n      dup1\n      revert\n    tag_1:\n      pop\n      jumpi(tag_2, lt(calldatasize, 0x04))\n      shr(0xe0, calldataload(0x00))\n      dup1\n      0x70a08231\n      gt\n      tag_26\n      jumpi\n      dup1\n      0xa071dcf4\n      gt\n      tag_27\n      jumpi\n      dup1\n      0xa071dcf4\n      eq\n      tag_20\n      jumpi\n      dup1\n      0xa9059cbb\n      eq\n      tag_21\n      jumpi\n      dup1\n      0xc4081a4c\n      eq\n      tag_22\n      jumpi\n      dup1\n      0xdd62ed3e\n      eq\n      tag_23\n      jumpi\n      dup1\n      0xf0f44260\n      eq\n      tag_24\n      jumpi\n      dup1\n      0xf2fde38b\n      eq\n      tag_25\n      jumpi\n      jump(tag_2)\n    tag_27:\n      dup1\n      0x70a08231\n      eq\n      tag_14\n      jumpi\n      dup1\n      0x715018a6\n      eq\n      tag_15\n      jumpi\n      dup1\n      0x8456cb59\n      eq\n      tag_16\n      jumpi\n      dup1\n      0x8da5cb5b\n      eq\n      tag_17\n      jumpi\n      dup1\n      0x8ebfc796\n      eq\n      tag_18\n      jumpi\n      dup1\n      0x95d89b41\n      eq\n      tag_19\n      jumpi\n      jump(tag_2)\n    tag_26:\n      dup1\n      0x313ce567\n      gt\n      tag_28\n      jumpi\n      dup1\n      0x313ce567\n      eq\n      tag_8\n      jumpi\n      dup1\n      0x3f4218e0\n      eq\n      tag_9\n      jumpi\n      dup1\n      0x3f4ba83a\n      eq\n      tag_10\n      jumpi\n      dup1\n      0x483a9310\n      eq\n      tag_11\n      jumpi\n      dup1\n      0x5c975abb\n      eq\n      tag_12\n      jumpi\n      dup1\n      0x61d027b3\n      eq\n      tag_13\n      jumpi\n      jump(tag_2)\n    tag_28:\n      dup1\n      0x06fdde03\n      eq\n      tag_3\n      jumpi\n      dup1\n      0x095ea7b3\n      eq\n      tag_4\n      jumpi\n      dup1\n      0x10fdad70\n      eq\n      tag_5\n      jumpi\n      dup1\n      0x18160ddd\n      eq\n      tag_6\n      jumpi\n      dup1\n      0x23b872dd\n      eq\n      tag_7\n      jumpi\n    tag_2:\n      0x00\n      dup1\n      revert\n        /* \"@openzeppelin/contracts/token/ERC20/ERC20.sol\":1760:1849  function name() public view virtual returns (string memory) {... */\n    tag_3:\n      tag_29\n      tag_30\n      jump\t// in\n    tag_29:\n      mload(0x40)\n      tag_31\n      swap2\n      swap1\n      tag_32\n      jump\t// in\n    tag_31:\n      mload(0x40)\n      dup1\n      swap2\n      sub\n      swap1\n      return\n        /* \"@openzeppelin/contracts/token/ERC20/ERC20.sol\":3902:4088  function approve(address spender, uint256 value) public virtual returns (bool) {... */\n    tag_4:\n      tag_33\n      0x04\n      dup1\n      calldatasize\n      sub\n      dup2\n      add\n      swap1\n      tag_34\n      swap2\n      swap1\n      tag_35\n      jump\t// in\n    tag_34:\n      tag_36\n      jump\t// in\n    tag_33:\n      mload(0x40)\n      tag_37\n      swap2\n      swap1\n      tag_38\n      jump\t// in\n    tag_37:\n      mload(0x40)\n      dup1\n      swap2\n      sub\n      swap1\n      return\n        /* \"main.sol\":4962:5079  function isAddressExempt(address account) external view returns (bool) {... */\n    tag_5:\n      tag_39\n      0x04\n      dup1\n      calldatasize\n      sub\n      dup2\n      add\n      swap1\n      tag_40\n      swap2\n      swap1\n      tag_41\n      jump\t// in\n    tag_40:\n      tag_42\n      jump\t// in\n    tag_39:\n      mload(0x40)\n      tag_43\n      swap2\n      swap1\n      tag_38\n      jump\t// in\n    tag_43:\n      mload(0x40)\n      dup1\n      swap2\n      sub\n      swap1\n      return\n        /* \"@openzeppelin/contracts/token/ERC20/ERC20.sol\":2803:2900  function totalSupply() public view virtual returns (uint256) {... */\n    tag_6:\n      tag_44\n      tag_45\n      jump\t// in\n    tag_44:\n      mload(0x40)\n      tag_46\n      swap2\n      swap1\n      tag_47\n      jump\t// in\n    tag_46:\n      mload(0x40)\n      dup1\n      swap2\n      sub\n      swap1\n      return\n        /* \"@openzeppelin/contracts/token/ERC20/ERC20.sol\":4680:4924  function transferFrom(address from, address to, uint256 value) public virtual returns (bool) {... */\n    tag_7:\n      tag_48\n      0x04\n      dup1\n      calldatasize\n      sub\n      dup2\n      add\n      swap1\n      tag_49\n      swap2\n      swap1\n      tag_50\n      jump\t// in\n    tag_49:\n      tag_51\n      jump\t// in\n    tag_48:\n      mload(0x40)\n      tag_52\n      swap2\n      swap1\n      tag_38\n      jump\t// in\n    tag_52:\n      mload(0x40)\n      dup1\n      swap2\n      sub\n      swap1\n      return\n        /* \"@openzeppelin/contracts/token/ERC20/ERC20.sol\":2688:2770  function decimals() public view virtual returns (uint8) {... */\n    tag_8:\n      tag_53\n      tag_54\n      jump\t// in\n    tag_53:\n      mload(0x40)\n      tag_55\n      swap2\n      swap1\n      tag_56\n      jump\t// in\n    tag_55:\n      mload(0x40)\n      dup1\n      swap2\n      sub\n      swap1\n      return\n        /* \"main.sol\":566:609  mapping(address => bool) public isFeeExempt */\n    tag_9:\n      tag_57\n      0x04\n      dup1\n      calldatasize\n      sub\n      dup2\n      add\n      swap1\n      tag_58\n      swap2\n      swap1\n      tag_41\n      jump\t// in\n    tag_58:\n      tag_59\n      jump\t// in\n    tag_57:\n      mload(0x40)\n      tag_60\n      swap2\n      swap1\n      tag_38\n      jump\t// in\n    tag_60:\n      mload(0x40)\n      dup1\n      swap2\n      sub\n      swap1\n      return\n        /* \"main.sol\":3764:3831  function unpause() external onlyOwner {... */\n    tag_10:\n      tag_61\n      tag_62\n      jump\t// in\n    tag_61:\n      stop\n        /* \"main.sol\":5178:5412  function calculateTax(uint256 amount) external view returns (uint256 taxAmount, uint256 netAmount) {... */\n    tag_11:\n      tag_63\n      0x04\n      dup1\n      calldatasize\n      sub\n      dup2\n      add\n      swap1\n      tag_64\n      swap2\n      swap1\n      tag_65\n      jump\t// in\n    tag_64:\n      tag_66\n      jump\t// in\n    tag_63:\n      mload(0x40)\n      tag_67\n      swap3\n      swap2\n      swap1\n      tag_68\n      jump\t// in\n    tag_67:\n      mload(0x40)\n      dup1\n      swap2\n      sub\n      swap1\n      return\n        /* \"@openzeppelin/contracts/security/Pausable.sol\":1615:1699  function paused() public view virtual returns (bool) {... */\n    tag_12:\n      tag_69\n      tag_70\n      jump\t// in\n    tag_69:\n      mload(0x40)\n      tag_71\n      swap2\n      swap1\n      tag_38\n      jump\t// in\n    tag_71:\n      mload(0x40)\n      dup1\n      swap2\n      sub\n      swap1\n      return\n        /* \"main.sol\":419:442  address public treasury */\n    tag_13:\n      tag_72\n      tag_73\n      jump\t// in\n    tag_72:\n      mload(0x40)\n      tag_74\n      swap2\n      swap1\n      tag_75\n      jump\t// in\n    tag_74:\n      mload(0x40)\n      dup1\n      swap2\n      sub\n      swap1\n      return\n        /* \"@openzeppelin/contracts/token/ERC20/ERC20.sol\":2933:3049  function balanceOf(address account) public view virtual returns (uint256) {... */\n    tag_14:\n      tag_76\n      0x04\n      dup1\n      calldatasize\n      sub\n      dup2\n      add\n      swap1\n      tag_77\n      swap2\n      swap1\n      tag_41\n      jump\t// in\n    tag_77:\n      tag_78\n      jump\t// in\n    tag_76:\n      mload(0x40)\n      tag_79\n      swap2\n      swap1\n      tag_47\n      jump\t// in\n    tag_79:\n      mload(0x40)\n      dup1\n      swap2\n      sub\n      swap1\n      return\n        /* \"@openzeppelin/contracts/access/Ownable.sol\":2293:2394  function renounceOwnership() public virtual onlyOwner {... */\n    tag_15:\n      tag_80\n      tag_81\n      jump\t// in\n    tag_80:\n      stop\n        /* \"main.sol\":3631:3694  function pause() external onlyOwner {... */\n    tag_16:\n      tag_82\n      tag_83\n      jump\t// in\n    tag_82:\n      stop\n        /* \"@openzeppelin/contracts/access/Ownable.sol\":1638:1723  function owner() public view virtual returns (address) {... */\n    tag_17:\n      tag_84\n      tag_85\n      jump\t// in\n    tag_84:\n      mload(0x40)\n      tag_86\n      swap2\n      swap1\n      tag_75\n      jump\t// in\n    tag_86:\n      mload(0x40)\n      dup1\n      swap2\n      sub\n      swap1\n      return\n        /* \"main.sol\":3390:3557  function setFeeExempt(address account, bool exempt) external onlyOwner {... */\n    tag_18:\n      tag_87\n      0x04\n      dup1\n      calldatasize\n      sub\n      dup2\n      add\n      swap1\n      tag_88\n      swap2\n      swap1\n      tag_89\n      jump\t// in\n    tag_88:\n      tag_90\n      jump\t// in\n    tag_87:\n      stop\n        /* \"@openzeppelin/contracts/token/ERC20/ERC20.sol\":1962:2055  function symbol() public view virtual returns (string memory) {... */\n    tag_19:\n      tag_91\n      tag_92\n      jump\t// in\n    tag_91:\n      mload(0x40)\n      tag_93\n      swap2\n      swap1\n      tag_32\n      jump\t// in\n    tag_93:\n      mload(0x40)\n      dup1\n      swap2\n      sub\n      swap1\n      return\n        /* \"main.sol\":449:470  uint256 public taxFee */\n    tag_20:\n      tag_94\n      tag_95\n      jump\t// in\n    tag_94:\n      mload(0x40)\n      tag_96\n      swap2\n      swap1\n      tag_47\n      jump\t// in\n    tag_96:\n      mload(0x40)\n      dup1\n      swap2\n      sub\n      swap1\n      return\n        /* \"@openzeppelin/contracts/token/ERC20/ERC20.sol\":3244:3422  function transfer(address to, uint256 value) public virtual returns (bool) {... */\n    tag_21:\n      tag_97\n      0x04\n      dup1\n      calldatasize\n      sub\n      dup2\n      add\n      swap1\n      tag_98\n      swap2\n      swap1\n      tag_35\n      jump\t// in\n    tag_98:\n      tag_99\n      jump\t// in\n    tag_97:\n      mload(0x40)\n      tag_100\n      swap2\n      swap1\n      tag_38\n      jump\t// in\n    tag_100:\n      mload(0x40)\n      dup1\n      swap2\n      sub\n      swap1\n      return\n        /* \"main.sol\":2895:3175  function setTaxFee(uint256 _newTaxFee) external onlyOwner {... */\n    tag_22:\n      tag_101\n      0x04\n      dup1\n      calldatasize\n      sub\n      dup2\n      add\n      swap1\n      tag_102\n      swap2\n      swap1\n      tag_65\n      jump\t// in\n    tag_102:\n      tag_103\n      jump\t// in\n    tag_101:\n      stop\n        /* \"@openzeppelin/contracts/token/ERC20/ERC20.sol\":3455:3595  function allowance(address owner, address spender) public view virtual returns (uint256) {... */\n    tag_23:\n      tag_104\n      0x04\n      dup1\n      calldatasize\n      sub\n      dup2\n      add\n      swap1\n      tag_105\n      swap2\n      swap1\n      tag_106\n      jump\t// in\n    tag_105:\n      tag_107\n      jump\t// in\n    tag_104:\n      mload(0x40)\n      tag_108\n      swap2\n      swap1\n      tag_47\n      jump\t// in\n    tag_108:\n      mload(0x40)\n      dup1\n      swap2\n      sub\n      swap1\n      return\n        /* \"main.sol\":2327:2765  function setTreasury(address _newTreasury) external onlyOwner {... */\n    tag_24:\n      tag_109\n      0x04\n      dup1\n      calldatasize\n      sub\n      dup2\n      add\n      swap1\n      tag_110\n      swap2\n      swap1\n      tag_41\n      jump\t// in\n    tag_110:\n      tag_111\n      jump\t// in\n    tag_109:\n      stop\n        /* \"@openzeppelin/contracts/access/Ownable.sol\":2543:2758  function transferOwnership(address newOwner) public virtual onlyOwner {... */\n    tag_25:\n      tag_112\n      0x04\n      dup1\n      calldatasize\n      sub\n      dup2\n      add\n      swap1\n      tag_113\n      swap2\n      swap1\n      tag_41\n      jump\t// in\n    tag_113:\n      tag_114\n      jump\t// in\n    tag_112:\n      stop\n        /* \"@openzeppelin/contracts/token/ERC20/ERC20.sol\":1760:1849  function name() public view virtual returns (string memory) {... */\n    tag_30:\n        /* \"@openzeppelin/contracts/token/ERC20/ERC20.sol\":1805:1818  string memory */\n      0x60\n        /* \"@openzeppelin/contracts/token/ERC20/ERC20.sol\":1837:1842  _name */\n      0x03\n        /* \"@openzeppelin/contracts/token/ERC20/ERC20.sol\":1830:1842  return _name */\n      dup1\n      sload\n      tag_116\n      swap1\n      tag_117\n      jump\t// in\n    tag_116:\n      dup1\n      0x1f\n      add\n      0x20\n      dup1\n      swap2\n      div\n      mul\n      0x20\n      add\n      mload(0x40)\n      swap1\n      dup2\n      add\n      0x40\n      mstore\n      dup1\n      swap3\n      swap2\n      swap1\n      dup2\n      dup2\n      mstore\n      0x20\n      add\n      dup3\n      dup1\n      sload\n      tag_118\n      swap1\n      tag_117\n      jump\t// in\n    tag_118:\n      dup1\n      iszero\n      tag_119\n      jumpi\n      dup1\n      0x1f\n      lt\n      tag_120\n      jumpi\n      0x0100\n      dup1\n      dup4\n      sload\n      div\n      mul\n      dup4\n      mstore\n      swap2\n      0x20\n      add\n      swap2\n      jump(tag_119)\n    tag_120:\n      dup3\n      add\n      swap2\n      swap1\n      0x00\n      mstore\n      keccak256(0x00, 0x20)\n      swap1\n    tag_121:\n      dup2\n      sload\n      dup2\n      mstore\n      swap1\n      0x01\n      add\n      swap1\n      0x20\n      add\n      dup1\n      dup4\n      gt\n      tag_121\n      jumpi\n      dup3\n      swap1\n      sub\n      0x1f\n      and\n      dup3\n      add\n      swap2\n    tag_119:\n      pop\n      pop\n      pop\n      pop\n      pop\n      swap1\n      pop\n        /* \"@openzeppelin/contracts/token/ERC20/ERC20.sol\":1760:1849  function name() public view virtual returns (string memory) {... */\n      swap1\n      jump\t// out\n        /* \"@openzeppelin/contracts/token/ERC20/ERC20.sol\":3902:4088  function approve(address spender, uint256 value) public virtual returns (bool) {... */\n    tag_36:\n        /* \"@openzeppelin/contracts/token/ERC20/ERC20.sol\":3975:3979  bool */\n      0x00\n        /* \"@openzeppelin/contracts/token/ERC20/ERC20.sol\":3991:4004  address owner */\n      dup1\n        /* \"@openzeppelin/contracts/token/ERC20/ERC20.sol\":4007:4019  _msgSender() */\n      tag_123\n        /* \"@openzeppelin/contracts/token/ERC20/ERC20.sol\":4007:4017  _msgSender */\n      tag_124\n        /* \"@openzeppelin/contracts/token/ERC20/ERC20.sol\":4007:4019  _msgSender() */\n      jump\t// in\n    tag_123:\n        /* \"@openzeppelin/contracts/token/ERC20/ERC20.sol\":3991:4019  address owner = _msgSender() */\n      swap1\n      pop\n        /* \"@openzeppelin/contracts/token/ERC20/ERC20.sol\":4029:4060  _approve(owner, spender, value) */\n      tag_125\n        /* \"@openzeppelin/contracts/token/ERC20/ERC20.sol\":4038:4043  owner */\n      dup2\n        /* \"@openzeppelin/contracts/token/ERC20/ERC20.sol\":4045:4052  spender */\n      dup6\n        /* \"@openzeppelin/contracts/token/ERC20/ERC20.sol\":4054:4059  value */\n      dup6\n        /* \"@openzeppelin/contracts/token/ERC20/ERC20.sol\":4029:4037  _approve */\n      tag_126\n        /* \"@openzeppelin/contracts/token/ERC20/ERC20.sol\":4029:4060  _approve(owner, spender, value) */\n      jump\t// in\n    tag_125:\n        /* \"@openzeppelin/contracts/token/ERC20/ERC20.sol\":4077:4081  true */\n      0x01\n        /* \"@openzeppelin/contracts/token/ERC20/ERC20.sol\":4070:4081  return true */\n      swap2\n      pop\n      pop\n        /* \"@openzeppelin/contracts/token/ERC20/ERC20.sol\":3902:4088  function approve(address spender, uint256 value) public virtual returns (bool) {... */\n      swap3\n      swap2\n      pop\n      pop\n      jump\t// out\n        /* \"main.sol\":4962:5079  function isAddressExempt(address account) external view returns (bool) {... */\n    tag_42:\n        /* \"main.sol\":5027:5031  bool */\n      0x00\n        /* \"main.sol\":5051:5062  isFeeExempt */\n      0x08\n        /* \"main.sol\":5051:5071  isFeeExempt[account] */\n      0x00\n        /* \"main.sol\":5063:5070  account */\n      dup4\n        /* \"main.sol\":5051:5071  isFeeExempt[account] */\n      0xffffffffffffffffffffffffffffffffffffffff\n      and\n      0xffffffffffffffffffffffffffffffffffffffff\n      and\n      dup2\n      mstore\n      0x20\n      add\n      swap1\n      dup2\n      mstore\n      0x20\n      add\n      0x00\n      keccak256\n      0x00\n      swap1\n      sload\n      swap1\n      0x0100\n      exp\n      swap1\n      div\n      0xff\n      and\n        /* \"main.sol\":5044:5071  return isFeeExempt[account] */\n      swap1\n      pop\n        /* \"main.sol\":4962:5079  function isAddressExempt(address account) external view returns (bool) {... */\n      swap2\n      swap1\n      pop\n      jump\t// out\n        /* \"@openzeppelin/contracts/token/ERC20/ERC20.sol\":2803:2900  function totalSupply() public view virtual returns (uint256) {... */\n    tag_45:\n        /* \"@openzeppelin/contracts/token/ERC20/ERC20.sol\":2855:2862  uint256 */\n      0x00\n        /* \"@openzeppelin/contracts/token/ERC20/ERC20.sol\":2881:2893  _totalSupply */\n      sload(0x02)\n        /* \"@openzeppelin/contracts/token/ERC20/ERC20.sol\":2874:2893  return _totalSupply */\n      swap1\n      pop\n        /* \"@openzeppelin/contracts/token/ERC20/ERC20.sol\":2803:2900  function totalSupply() public view virtual returns (uint256) {... */\n      swap1\n      jump\t// out\n        /* \"@openzeppelin/contracts/token/ERC20/ERC20.sol\":4680:4924  function transferFrom(address from, address to, uint256 value) public virtual returns (bool) {... */\n    tag_51:\n        /* \"@openzeppelin/contracts/token/ERC20/ERC20.sol\":4767:4771  bool */\n      0x00\n        /* \"@openzeppelin/contracts/token/ERC20/ERC20.sol\":4783:4798  address spender */\n      dup1\n        /* \"@openzeppelin/contracts/token/ERC20/ERC20.sol\":4801:4813  _msgSender() */\n      tag_130\n        /* \"@openzeppelin/contracts/token/ERC20/ERC20.sol\":4801:4811  _msgSender */\n      tag_124\n        /* \"@openzeppelin/contracts/token/ERC20/ERC20.sol\":4801:4813  _msgSender() */\n      jump\t// in\n    tag_130:\n        /* \"@openzeppelin/contracts/token/ERC20/ERC20.sol\":4783:4813  address spender = _msgSender() */\n      swap1\n      pop\n        /* \"@openzeppelin/contracts/token/ERC20/ERC20.sol\":4823:4860  _spendAllowance(from, spender, value) */\n      tag_131\n        /* \"@openzeppelin/contracts/token/ERC20/ERC20.sol\":4839:4843  from */\n      dup6\n        /* \"@openzeppelin/contracts/token/ERC20/ERC20.sol\":4845:4852  spender */\n      dup3\n        /* \"@openzeppelin/contracts/token/ERC20/ERC20.sol\":4854:4859  value */\n      dup6\n        /* \"@openzeppelin/contracts/token/ERC20/ERC20.sol\":4823:4838  _spendAllowance */\n      tag_132\n        /* \"@openzeppelin/contracts/token/ERC20/ERC20.sol\":4823:4860  _spendAllowance(from, spender, value) */\n      jump\t// in\n    tag_131:\n        /* \"@openzeppelin/contracts/token/ERC20/ERC20.sol\":4870:4896  _transfer(from, to, value) */\n      tag_133\n        /* \"@openzeppelin/contracts/token/ERC20/ERC20.sol\":4880:4884  from */\n      dup6\n        /* \"@openzeppelin/contracts/token/ERC20/ERC20.sol\":4886:4888  to */\n      dup6\n        /* \"@openzeppelin/contracts/token/ERC20/ERC20.sol\":4890:4895  value */\n      dup6\n        /* \"@openzeppelin/contracts/token/ERC20/ERC20.sol\":4870:4879  _transfer */\n      tag_134\n        /* \"@openzeppelin/contracts/token/ERC20/ERC20.sol\":4870:4896  _transfer(from, to, value) */\n      jump\t// in\n    tag_133:\n        /* \"@openzeppelin/contracts/token/ERC20/ERC20.sol\":4913:4917  true */\n      0x01\n        /* \"@openzeppelin/contracts/token/ERC20/ERC20.sol\":4906:4917  return true */\n      swap2\n      pop\n      pop\n        /* \"@openzeppelin/contracts/token/ERC20/ERC20.sol\":4680:4924  function transferFrom(address from, address to, uint256 value) public virtual returns (bool) {... */\n      swap4\n      swap3\n      pop\n      pop\n      pop\n      jump\t// out\n        /* \"@openzeppelin/contracts/token/ERC20/ERC20.sol\":2688:2770  function decimals() public view virtual returns (uint8) {... */\n    tag_54:\n        /* \"@openzeppelin/contracts/token/ERC20/ERC20.sol\":2737:2742  uint8 */\n      0x00\n        /* \"@openzeppelin/contracts/token/ERC20/ERC20.sol\":2761:2763  18 */\n      0x12\n        /* \"@openzeppelin/contracts/token/ERC20/ERC20.sol\":2754:2763  return 18 */\n      swap1\n      pop\n        /* \"@openzeppelin/contracts/token/ERC20/ERC20.sol\":2688:2770  function decimals() public view virtual returns (uint8) {... */\n      swap1\n      jump\t// out\n        /* \"main.sol\":566:609  mapping(address => bool) public isFeeExempt */\n    tag_59:\n      mstore(0x20, 0x08)\n      dup1\n      0x00\n      mstore\n      keccak256(0x00, 0x40)\n      0x00\n      swap2\n      pop\n      sload\n      swap1\n      0x0100\n      exp\n      swap1\n      div\n      0xff\n      and\n      dup2\n      jump\t// out\n        /* \"main.sol\":3764:3831  function unpause() external onlyOwner {... */\n    tag_62:\n        /* \"@openzeppelin/contracts/access/Ownable.sol\":1531:1544  _checkOwner() */\n      tag_137\n        /* \"@openzeppelin/contracts/access/Ownable.sol\":1531:1542  _checkOwner */\n      tag_138\n        /* \"@openzeppelin/contracts/access/Ownable.sol\":1531:1544  _checkOwner() */\n      jump\t// in\n    tag_137:\n        /* \"main.sol\":3813:3823  _unpause() */\n      tag_140\n        /* \"main.sol\":3813:3821  _unpause */\n      tag_141\n        /* \"main.sol\":3813:3823  _unpause() */\n      jump\t// in\n    tag_140:\n        /* \"main.sol\":3764:3831  function unpause() external onlyOwner {... */\n      jump\t// out\n        /* \"main.sol\":5178:5412  function calculateTax(uint256 amount) external view returns (uint256 taxAmount, uint256 netAmount) {... */\n    tag_66:\n        /* \"main.sol\":5239:5256  uint256 taxAmount */\n      0x00\n        /* \"main.sol\":5258:5275  uint256 netAmount */\n      dup1\n        /* \"main.sol\":5320:5323  100 */\n      0x64\n        /* \"main.sol\":5310:5316  taxFee */\n      sload(0x07)\n        /* \"main.sol\":5301:5307  amount */\n      dup5\n        /* \"main.sol\":5301:5316  amount * taxFee */\n      tag_143\n      swap2\n      swap1\n      tag_144\n      jump\t// in\n    tag_143:\n        /* \"main.sol\":5300:5323  (amount * taxFee) / 100 */\n      tag_145\n      swap2\n      swap1\n      tag_146\n      jump\t// in\n    tag_145:\n        /* \"main.sol\":5288:5323  taxAmount = (amount * taxFee) / 100 */\n      swap2\n      pop\n        /* \"main.sol\":5355:5364  taxAmount */\n      dup2\n        /* \"main.sol\":5346:5352  amount */\n      dup4\n        /* \"main.sol\":5346:5364  amount - taxAmount */\n      tag_147\n      swap2\n      swap1\n      tag_148\n      jump\t// in\n    tag_147:\n        /* \"main.sol\":5334:5364  netAmount = amount - taxAmount */\n      swap1\n      pop\n        /* \"main.sol\":5178:5412  function calculateTax(uint256 amount) external view returns (uint256 taxAmount, uint256 netAmount) {... */\n      swap2\n      pop\n      swap2\n      jump\t// out\n        /* \"@openzeppelin/contracts/security/Pausable.sol\":1615:1699  function paused() public view virtual returns (bool) {... */\n    tag_70:\n        /* \"@openzeppelin/contracts/security/Pausable.sol\":1662:1666  bool */\n      0x00\n        /* \"@openzeppelin/contracts/security/Pausable.sol\":1685:1692  _paused */\n      0x05\n      0x14\n      swap1\n      sload\n      swap1\n      0x0100\n      exp\n      swap1\n      div\n      0xff\n      and\n        /* \"@openzeppelin/contracts/security/Pausable.sol\":1678:1692  return _paused */\n      swap1\n      pop\n        /* \"@openzeppelin/contracts/security/Pausable.sol\":1615:1699  function paused() public view virtual returns (bool) {... */\n      swap1\n      jump\t// out\n        /* \"main.sol\":419:442  address public treasury */\n    tag_73:\n      0x06\n      0x00\n      swap1\n      sload\n      swap1\n      0x0100\n      exp\n      swap1\n      div\n      0xffffffffffffffffffffffffffffffffffffffff\n      and\n      dup2\n      jump\t// out\n        /* \"@openzeppelin/contracts/token/ERC20/ERC20.sol\":2933:3049  function balanceOf(address account) public view virtual returns (uint256) {... */\n    tag_78:\n        /* \"@openzeppelin/contracts/token/ERC20/ERC20.sol\":2998:3005  uint256 */\n      0x00\n        /* \"@openzeppelin/contracts/token/ERC20/ERC20.sol\":3024:3033  _balances */\n      dup1\n        /* \"@openzeppelin/contracts/token/ERC20/ERC20.sol\":3024:3042  _balances[account] */\n      0x00\n        /* \"@openzeppelin/contracts/token/ERC20/ERC20.sol\":3034:3041  account */\n      dup4\n        /* \"@openzeppelin/contracts/token/ERC20/ERC20.sol\":3024:3042  _balances[account] */\n      0xffffffffffffffffffffffffffffffffffffffff\n      and\n      0xffffffffffffffffffffffffffffffffffffffff\n      and\n      dup2\n      mstore\n      0x20\n      add\n      swap1\n      dup2\n      mstore\n      0x20\n      add\n      0x00\n      keccak256\n      sload\n        /* \"@openzeppelin/contracts/token/ERC20/ERC20.sol\":3017:3042  return _balances[account] */\n      swap1\n      pop\n        /* \"@openzeppelin/contracts/token/ERC20/ERC20.sol\":2933:3049  function balanceOf(address account) public view virtual returns (uint256) {... */\n      swap2\n      swap1\n      pop\n      jump\t// out\n        /* \"@openzeppelin/contracts/access/Ownable.sol\":2293:2394  function renounceOwnership() public virtual onlyOwner {... */\n    tag_81:\n        /* \"@openzeppelin/contracts/access/Ownable.sol\":1531:1544  _checkOwner() */\n      tag_152\n        /* \"@openzeppelin/contracts/access/Ownable.sol\":1531:1542  _checkOwner */\n      tag_138\n        /* \"@openzeppelin/contracts/access/Ownable.sol\":1531:1544  _checkOwner() */\n      jump\t// in\n    tag_152:\n        /* \"@openzeppelin/contracts/access/Ownable.sol\":2357:2387  _transferOwnership(address(0)) */\n      tag_154\n        /* \"@openzeppelin/contracts/access/Ownable.sol\":2384:2385  0 */\n      0x00\n        /* \"@openzeppelin/contracts/access/Ownable.sol\":2357:2375  _transferOwnership */\n      tag_155\n        /* \"@openzeppelin/contracts/access/Ownable.sol\":2357:2387  _transferOwnership(address(0)) */\n      jump\t// in\n    tag_154:\n        /* \"@openzeppelin/contracts/access/Ownable.sol\":2293:2394  function renounceOwnership() public virtual onlyOwner {... */\n      jump\t// out\n        /* \"main.sol\":3631:3694  function pause() external onlyOwner {... */\n    tag_83:\n        /* \"@openzeppelin/contracts/access/Ownable.sol\":1531:1544  _checkOwner() */\n      tag_157\n        /* \"@openzeppelin/contracts/access/Ownable.sol\":1531:1542  _checkOwner */\n      tag_138\n        /* \"@openzeppelin/contracts/access/Ownable.sol\":1531:1544  _checkOwner() */\n      jump\t// in\n    tag_157:\n        /* \"main.sol\":3678:3686  _pause() */\n      tag_159\n        /* \"main.sol\":3678:3684  _pause */\n      tag_160\n        /* \"main.sol\":3678:3686  _pause() */\n      jump\t// in\n    tag_159:\n        /* \"main.sol\":3631:3694  function pause() external onlyOwner {... */\n      jump\t// out\n        /* \"@openzeppelin/contracts/access/Ownable.sol\":1638:1723  function owner() public view virtual returns (address) {... */\n    tag_85:\n        /* \"@openzeppelin/contracts/access/Ownable.sol\":1684:1691  address */\n      0x00\n        /* \"@openzeppelin/contracts/access/Ownable.sol\":1710:1716  _owner */\n      0x05\n      0x00\n      swap1\n      sload\n      swap1\n      0x0100\n      exp\n      swap1\n      div\n      0xffffffffffffffffffffffffffffffffffffffff\n      and\n        /* \"@openzeppelin/contracts/access/Ownable.sol\":1703:1716  return _owner */\n      swap1\n      pop\n        /* \"@openzeppelin/contracts/access/Ownable.sol\":1638:1723  function owner() public view virtual returns (address) {... */\n      swap1\n      jump\t// out\n        /* \"main.sol\":3390:3557  function setFeeExempt(address account, bool exempt) external onlyOwner {... */\n    tag_90:\n        /* \"@openzeppelin/contracts/access/Ownable.sol\":1531:1544  _checkOwner() */\n      tag_163\n        /* \"@openzeppelin/contracts/access/Ownable.sol\":1531:1542  _checkOwner */\n      tag_138\n        /* \"@openzeppelin/contracts/access/Ownable.sol\":1531:1544  _checkOwner() */\n      jump\t// in\n    tag_163:\n        /* \"main.sol\":3495:3501  exempt */\n      dup1\n        /* \"main.sol\":3472:3483  isFeeExempt */\n      0x08\n        /* \"main.sol\":3472:3492  isFeeExempt[account] */\n      0x00\n        /* \"main.sol\":3484:3491  account */\n      dup5\n        /* \"main.sol\":3472:3492  isFeeExempt[account] */\n      0xffffffffffffffffffffffffffffffffffffffff\n      and\n      0xffffffffffffffffffffffffffffffffffffffff\n      and\n      dup2\n      mstore\n      0x20\n      add\n      swap1\n      dup2\n      mstore\n      0x20\n      add\n      0x00\n      keccak256\n      0x00\n        /* \"main.sol\":3472:3501  isFeeExempt[account] = exempt */\n      0x0100\n      exp\n      dup2\n      sload\n      dup2\n      0xff\n      mul\n      not\n      and\n      swap1\n      dup4\n      iszero\n      iszero\n      mul\n      or\n      swap1\n      sstore\n      pop\n        /* \"main.sol\":3533:3540  account */\n      dup2\n        /* \"main.sol\":3517:3549  FeeExemptionSet(account, exempt) */\n      0xffffffffffffffffffffffffffffffffffffffff\n      and\n      0x210f2a4a589e25d95b24cbdb060d26ae79bbe123a564d0f973503d48badd00ca\n        /* \"main.sol\":3542:3548  exempt */\n      dup3\n        /* \"main.sol\":3517:3549  FeeExemptionSet(account, exempt) */\n      mload(0x40)\n      tag_165\n      swap2\n      swap1\n      tag_38\n      jump\t// in\n    tag_165:\n      mload(0x40)\n      dup1\n      swap2\n      sub\n      swap1\n      log2\n        /* \"main.sol\":3390:3557  function setFeeExempt(address account, bool exempt) external onlyOwner {... */\n      pop\n      pop\n      jump\t// out\n        /* \"@openzeppelin/contracts/token/ERC20/ERC20.sol\":1962:2055  function symbol() public view virtual returns (string memory) {... */\n    tag_92:\n        /* \"@openzeppelin/contracts/token/ERC20/ERC20.sol\":2009:2022  string memory */\n      0x60\n        /* \"@openzeppelin/contracts/token/ERC20/ERC20.sol\":2041:2048  _symbol */\n      0x04\n        /* \"@openzeppelin/contracts/token/ERC20/ERC20.sol\":2034:2048  return _symbol */\n      dup1\n      sload\n      tag_167\n      swap1\n      tag_117\n      jump\t// in\n    tag_167:\n      dup1\n      0x1f\n      add\n      0x20\n      dup1\n      swap2\n      div\n      mul\n      0x20\n      add\n      mload(0x40)\n      swap1\n      dup2\n      add\n      0x40\n      mstore\n      dup1\n      swap3\n      swap2\n      swap1\n      dup2\n      dup2\n      mstore\n      0x20\n      add\n      dup3\n      dup1\n      sload\n      tag_168\n      swap1\n      tag_117\n      jump\t// in\n    tag_168:\n      dup1\n      iszero\n      tag_169\n      jumpi\n      dup1\n      0x1f\n      lt\n      tag_170\n      jumpi\n      0x0100\n      dup1\n      dup4\n      sload\n      div\n      mul\n      dup4\n      mstore\n      swap2\n      0x20\n      add\n      swap2\n      jump(tag_169)\n    tag_170:\n      dup3\n      add\n      swap2\n      swap1\n      0x00\n      mstore\n      keccak256(0x00, 0x20)\n      swap1\n    tag_171:\n      dup2\n      sload\n      dup2\n      mstore\n      swap1\n      0x01\n      add\n      swap1\n      0x20\n      add\n      dup1\n      dup4\n      gt\n      tag_171\n      jumpi\n      dup3\n      swap1\n      sub\n      0x1f\n      and\n      dup3\n      add\n      swap2\n    tag_169:\n      pop\n      pop\n      pop\n      pop\n      pop\n      swap1\n      pop\n        /* \"@openzeppelin/contracts/token/ERC20/ERC20.sol\":1962:2055  function symbol() public view virtual returns (string memory) {... */\n      swap1\n      jump\t// out\n        /* \"main.sol\":449:470  uint256 public taxFee */\n    tag_95:\n      sload(0x07)\n      dup2\n      jump\t// out\n        /* \"@openzeppelin/contracts/token/ERC20/ERC20.sol\":3244:3422  function transfer(address to, uint256 value) public virtual returns (bool) {... */\n    tag_99:\n        /* \"@openzeppelin/contracts/token/ERC20/ERC20.sol\":3313:3317  bool */\n      0x00\n        /* \"@openzeppelin/contracts/token/ERC20/ERC20.sol\":3329:3342  address owner */\n      dup1\n        /* \"@openzeppelin/contracts/token/ERC20/ERC20.sol\":3345:3357  _msgSender() */\n      tag_173\n        /* \"@openzeppelin/contracts/token/ERC20/ERC20.sol\":3345:3355  _msgSender */\n      tag_124\n        /* \"@openzeppelin/contracts/token/ERC20/ERC20.sol\":3345:3357  _msgSender() */\n      jump\t// in\n    tag_173:\n        /* \"@openzeppelin/contracts/token/ERC20/ERC20.sol\":3329:3357  address owner = _msgSender() */\n      swap1\n      pop\n        /* \"@openzeppelin/contracts/token/ERC20/ERC20.sol\":3367:3394  _transfer(owner, to, value) */\n      tag_174\n        /* \"@openzeppelin/contracts/token/ERC20/ERC20.sol\":3377:3382  owner */\n      dup2\n        /* \"@openzeppelin/contracts/token/ERC20/ERC20.sol\":3384:3386  to */\n      dup6\n        /* \"@openzeppelin/contracts/token/ERC20/ERC20.sol\":3388:3393  value */\n      dup6\n        /* \"@openzeppelin/contracts/token/ERC20/ERC20.sol\":3367:3376  _transfer */\n      tag_134\n        /* \"@openzeppelin/contracts/token/ERC20/ERC20.sol\":3367:3394  _transfer(owner, to, value) */\n      jump\t// in\n    tag_174:\n        /* \"@openzeppelin/contracts/token/ERC20/ERC20.sol\":3411:3415  true */\n      0x01\n        /* \"@openzeppelin/contracts/token/ERC20/ERC20.sol\":3404:3415  return true */\n      swap2\n      pop\n      pop\n        /* \"@openzeppelin/contracts/token/ERC20/ERC20.sol\":3244:3422  function transfer(address to, uint256 value) public virtual returns (bool) {... */\n      swap3\n      swap2\n      pop\n      pop\n      jump\t// out\n        /* \"main.sol\":2895:3175  function setTaxFee(uint256 _newTaxFee) external onlyOwner {... */\n    tag_103:\n        /* \"@openzeppelin/contracts/access/Ownable.sol\":1531:1544  _checkOwner() */\n      tag_176\n        /* \"@openzeppelin/contracts/access/Ownable.sol\":1531:1542  _checkOwner */\n      tag_138\n        /* \"@openzeppelin/contracts/access/Ownable.sol\":1531:1544  _checkOwner() */\n      jump\t// in\n    tag_176:\n        /* \"main.sol\":2981:2984  100 */\n      0x64\n        /* \"main.sol\":2968:2978  _newTaxFee */\n      dup2\n        /* \"main.sol\":2968:2984  _newTaxFee > 100 */\n      gt\n        /* \"main.sol\":2964:3035  if (_newTaxFee > 100) {... */\n      iszero\n      tag_178\n      jumpi\n        /* \"main.sol\":3008:3023  InvalidTaxFee() */\n      mload(0x40)\n      0x5ba09ae000000000000000000000000000000000000000000000000000000000\n      dup2\n      mstore\n      0x04\n      add\n      mload(0x40)\n      dup1\n      swap2\n      sub\n      swap1\n      revert\n        /* \"main.sol\":2964:3035  if (_newTaxFee > 100) {... */\n    tag_178:\n        /* \"main.sol\":3055:3069  uint256 oldFee */\n      0x00\n        /* \"main.sol\":3072:3078  taxFee */\n      sload(0x07)\n        /* \"main.sol\":3055:3078  uint256 oldFee = taxFee */\n      swap1\n      pop\n        /* \"main.sol\":3098:3108  _newTaxFee */\n      dup2\n        /* \"main.sol\":3089:3095  taxFee */\n      0x07\n        /* \"main.sol\":3089:3108  taxFee = _newTaxFee */\n      dup2\n      swap1\n      sstore\n      pop\n        /* \"main.sol\":3134:3167  TaxFeeUpdated(oldFee, _newTaxFee) */\n      0x2211abb4bbc4d80b7505c31b54d01d15ac6e33a42c59540d309d89daf759063a\n        /* \"main.sol\":3148:3154  oldFee */\n      dup2\n        /* \"main.sol\":3156:3166  _newTaxFee */\n      dup4\n        /* \"main.sol\":3134:3167  TaxFeeUpdated(oldFee, _newTaxFee) */\n      mload(0x40)\n      tag_179\n      swap3\n      swap2\n      swap1\n      tag_68\n      jump\t// in\n    tag_179:\n      mload(0x40)\n      dup1\n      swap2\n      sub\n      swap1\n      log1\n        /* \"main.sol\":2953:3175  {... */\n      pop\n        /* \"main.sol\":2895:3175  function setTaxFee(uint256 _newTaxFee) external onlyOwner {... */\n      pop\n      jump\t// out\n        /* \"@openzeppelin/contracts/token/ERC20/ERC20.sol\":3455:3595  function allowance(address owner, address spender) public view virtual returns (uint256) {... */\n    tag_107:\n        /* \"@openzeppelin/contracts/token/ERC20/ERC20.sol\":3535:3542  uint256 */\n      0x00\n        /* \"@openzeppelin/contracts/token/ERC20/ERC20.sol\":3561:3572  _allowances */\n      0x01\n        /* \"@openzeppelin/contracts/token/ERC20/ERC20.sol\":3561:3579  _allowances[owner] */\n      0x00\n        /* \"@openzeppelin/contracts/token/ERC20/ERC20.sol\":3573:3578  owner */\n      dup5\n        /* \"@openzeppelin/contracts/token/ERC20/ERC20.sol\":3561:3579  _allowances[owner] */\n      0xffffffffffffffffffffffffffffffffffffffff\n      and\n      0xffffffffffffffffffffffffffffffffffffffff\n      and\n      dup2\n      mstore\n      0x20\n      add\n      swap1\n      dup2\n      mstore\n      0x20\n      add\n      0x00\n      keccak256\n        /* \"@openzeppelin/contracts/token/ERC20/ERC20.sol\":3561:3588  _allowances[owner][spender] */\n      0x00\n        /* \"@openzeppelin/contracts/token/ERC20/ERC20.sol\":3580:3587  spender */\n      dup4\n        /* \"@openzeppelin/contracts/token/ERC20/ERC20.sol\":3561:3588  _allowances[owner][spender] */\n      0xffffffffffffffffffffffffffffffffffffffff\n      and\n      0xffffffffffffffffffffffffffffffffffffffff\n      and\n      dup2\n      mstore\n      0x20\n      add\n      swap1\n      dup2\n      mstore\n      0x20\n      add\n      0x00\n      keccak256\n      sload\n        /* \"@openzeppelin/contracts/token/ERC20/ERC20.sol\":3554:3588  return _allowances[owner][spender] */\n      swap1\n      pop\n        /* \"@openzeppelin/contracts/token/ERC20/ERC20.sol\":3455:3595  function allowance(address owner, address spender) public view virtual returns (uint256) {... */\n      swap3\n      swap2\n      pop\n      pop\n      jump\t// out\n        /* \"main.sol\":2327:2765  function setTreasury(address _newTreasury) external onlyOwner {... */\n    tag_111:\n        /* \"@openzeppelin/contracts/access/Ownable.sol\":1531:1544  _checkOwner() */\n      tag_182\n        /* \"@openzeppelin/contracts/access/Ownable.sol\":1531:1542  _checkOwner */\n      tag_138\n        /* \"@openzeppelin/contracts/access/Ownable.sol\":1531:1544  _checkOwner() */\n      jump\t// in\n    tag_182:\n        /* \"main.sol\":2428:2429  0 */\n      0x00\n        /* \"main.sol\":2404:2430  _newTreasury == address(0) */\n      0xffffffffffffffffffffffffffffffffffffffff\n      and\n        /* \"main.sol\":2404:2416  _newTreasury */\n      dup2\n        /* \"main.sol\":2404:2430  _newTreasury == address(0) */\n      0xffffffffffffffffffffffffffffffffffffffff\n      and\n      sub\n        /* \"main.sol\":2400:2490  if (_newTreasury == address(0)) {... */\n      tag_184\n      jumpi\n        /* \"main.sol\":2454:2478  InvalidTreasuryAddress() */\n      mload(0x40)\n      0xcfe2ea6300000000000000000000000000000000000000000000000000000000\n      dup2\n      mstore\n      0x04\n      add\n      mload(0x40)\n      dup1\n      swap2\n      sub\n      swap1\n      revert\n        /* \"main.sol\":2400:2490  if (_newTreasury == address(0)) {... */\n    tag_184:\n        /* \"main.sol\":2510:2529  address oldTreasury */\n      0x00\n        /* \"main.sol\":2532:2540  treasury */\n      0x06\n      0x00\n      swap1\n      sload\n      swap1\n      0x0100\n      exp\n      swap1\n      div\n      0xffffffffffffffffffffffffffffffffffffffff\n      and\n        /* \"main.sol\":2510:2540  address oldTreasury = treasury */\n      swap1\n      pop\n        /* \"main.sol\":2562:2574  _newTreasury */\n      dup2\n        /* \"main.sol\":2551:2559  treasury */\n      0x06\n      0x00\n        /* \"main.sol\":2551:2574  treasury = _newTreasury */\n      0x0100\n      exp\n      dup2\n      sload\n      dup2\n      0xffffffffffffffffffffffffffffffffffffffff\n      mul\n      not\n      and\n      swap1\n      dup4\n      0xffffffffffffffffffffffffffffffffffffffff\n      and\n      mul\n      or\n      swap1\n      sstore\n      pop\n        /* \"main.sol\":2685:2689  true */\n      0x01\n        /* \"main.sol\":2657:2668  isFeeExempt */\n      0x08\n        /* \"main.sol\":2657:2682  isFeeExempt[_newTreasury] */\n      0x00\n        /* \"main.sol\":2669:2681  _newTreasury */\n      dup5\n        /* \"main.sol\":2657:2682  isFeeExempt[_newTreasury] */\n      0xffffffffffffffffffffffffffffffffffffffff\n      and\n      0xffffffffffffffffffffffffffffffffffffffff\n      and\n      dup2\n      mstore\n      0x20\n      add\n      swap1\n      dup2\n      mstore\n      0x20\n      add\n      0x00\n      keccak256\n      0x00\n        /* \"main.sol\":2657:2689  isFeeExempt[_newTreasury] = true */\n      0x0100\n      exp\n      dup2\n      sload\n      dup2\n      0xff\n      mul\n      not\n      and\n      swap1\n      dup4\n      iszero\n      iszero\n      mul\n      or\n      swap1\n      sstore\n      pop\n        /* \"main.sol\":2744:2756  _newTreasury */\n      dup2\n        /* \"main.sol\":2715:2757  TreasuryUpdated(oldTreasury, _newTreasury) */\n      0xffffffffffffffffffffffffffffffffffffffff\n      and\n        /* \"main.sol\":2731:2742  oldTreasury */\n      dup2\n        /* \"main.sol\":2715:2757  TreasuryUpdated(oldTreasury, _newTreasury) */\n      0xffffffffffffffffffffffffffffffffffffffff\n      and\n      0x4ab5be82436d353e61ca18726e984e561f5c1cc7c6d38b29d2553c790434705a\n      mload(0x40)\n      mload(0x40)\n      dup1\n      swap2\n      sub\n      swap1\n      log3\n        /* \"main.sol\":2389:2765  {... */\n      pop\n        /* \"main.sol\":2327:2765  function setTreasury(address _newTreasury) external onlyOwner {... */\n      pop\n      jump\t// out\n        /* \"@openzeppelin/contracts/access/Ownable.sol\":2543:2758  function transferOwnership(address newOwner) public virtual onlyOwner {... */\n    tag_114:\n        /* \"@openzeppelin/contracts/access/Ownable.sol\":1531:1544  _checkOwner() */\n      tag_186\n        /* \"@openzeppelin/contracts/access/Ownable.sol\":1531:1542  _checkOwner */\n      tag_138\n        /* \"@openzeppelin/contracts/access/Ownable.sol\":1531:1544  _checkOwner() */\n      jump\t// in\n    tag_186:\n        /* \"@openzeppelin/contracts/access/Ownable.sol\":2647:2648  0 */\n      0x00\n        /* \"@openzeppelin/contracts/access/Ownable.sol\":2627:2649  newOwner == address(0) */\n      0xffffffffffffffffffffffffffffffffffffffff\n      and\n        /* \"@openzeppelin/contracts/access/Ownable.sol\":2627:2635  newOwner */\n      dup2\n        /* \"@openzeppelin/contracts/access/Ownable.sol\":2627:2649  newOwner == address(0) */\n      0xffffffffffffffffffffffffffffffffffffffff\n      and\n      sub\n        /* \"@openzeppelin/contracts/access/Ownable.sol\":2623:2714  if (newOwner == address(0)) {... */\n      tag_188\n      jumpi\n        /* \"@openzeppelin/contracts/access/Ownable.sol\":2700:2701  0 */\n      0x00\n        /* \"@openzeppelin/contracts/access/Ownable.sol\":2672:2703  OwnableInvalidOwner(address(0)) */\n      mload(0x40)\n      0x1e4fbdf700000000000000000000000000000000000000000000000000000000\n      dup2\n      mstore\n      0x04\n      add\n      tag_189\n      swap2\n      swap1\n      tag_75\n      jump\t// in\n    tag_189:\n      mload(0x40)\n      dup1\n      swap2\n      sub\n      swap1\n      revert\n        /* \"@openzeppelin/contracts/access/Ownable.sol\":2623:2714  if (newOwner == address(0)) {... */\n    tag_188:\n        /* \"@openzeppelin/contracts/access/Ownable.sol\":2723:2751  _transferOwnership(newOwner) */\n      tag_190\n        /* \"@openzeppelin/contracts/access/Ownable.sol\":2742:2750  newOwner */\n      dup2\n        /* \"@openzeppelin/contracts/access/Ownable.sol\":2723:2741  _transferOwnership */\n      tag_155\n        /* \"@openzeppelin/contracts/access/Ownable.sol\":2723:2751  _transferOwnership(newOwner) */\n      jump\t// in\n    tag_190:\n        /* \"@openzeppelin/contracts/access/Ownable.sol\":2543:2758  function transferOwnership(address newOwner) public virtual onlyOwner {... */\n      pop\n      jump\t// out\n        /* \"@openzeppelin/contracts/utils/Context.sol\":656:752  function _msgSender() internal view virtual returns (address) {... */\n    tag_124:\n        /* \"@openzeppelin/contracts/utils/Context.sol\":709:716  address */\n      0x00\n        /* \"@openzeppelin/contracts/utils/Context.sol\":735:745  msg.sender */\n      caller\n        /* \"@openzeppelin/contracts/utils/Context.sol\":728:745  return msg.sender */\n      swap1\n      pop\n        /* \"@openzeppelin/contracts/utils/Context.sol\":656:752  function _msgSender() internal view virtual returns (address) {... */\n      swap1\n      jump\t// out\n        /* \"@openzeppelin/contracts/token/ERC20/ERC20.sol\":8630:8758  function _approve(address owner, address spender, uint256 value) internal {... */\n    tag_126:\n        /* \"@openzeppelin/contracts/token/ERC20/ERC20.sol\":8714:8751  _approve(owner, spender, value, true) */\n      tag_193\n        /* \"@openzeppelin/contracts/token/ERC20/ERC20.sol\":8723:8728  owner */\n      dup4\n        /* \"@openzeppelin/contracts/token/ERC20/ERC20.sol\":8730:8737  spender */\n      dup4\n        /* \"@openzeppelin/contracts/token/ERC20/ERC20.sol\":8739:8744  value */\n      dup4\n        /* \"@openzeppelin/contracts/token/ERC20/ERC20.sol\":8746:8750  true */\n      0x01\n        /* \"@openzeppelin/contracts/token/ERC20/ERC20.sol\":8714:8722  _approve */\n      tag_194\n        /* \"@openzeppelin/contracts/token/ERC20/ERC20.sol\":8714:8751  _approve(owner, spender, value, true) */\n      jump\t// in\n    tag_193:\n        /* \"@openzeppelin/contracts/token/ERC20/ERC20.sol\":8630:8758  function _approve(address owner, address spender, uint256 value) internal {... */\n      pop\n      pop\n      pop\n      jump\t// out\n        /* \"@openzeppelin/contracts/token/ERC20/ERC20.sol\":10319:10795  function _spendAllowance(address owner, address spender, uint256 value) internal virtual {... */\n    tag_132:\n        /* \"@openzeppelin/contracts/token/ERC20/ERC20.sol\":10418:10442  uint256 currentAllowance */\n      0x00\n        /* \"@openzeppelin/contracts/token/ERC20/ERC20.sol\":10445:10470  allowance(owner, spender) */\n      tag_196\n        /* \"@openzeppelin/contracts/token/ERC20/ERC20.sol\":10455:10460  owner */\n      dup5\n        /* \"@openzeppelin/contracts/token/ERC20/ERC20.sol\":10462:10469  spender */\n      dup5\n        /* \"@openzeppelin/contracts/token/ERC20/ERC20.sol\":10445:10454  allowance */\n      tag_107\n        /* \"@openzeppelin/contracts/token/ERC20/ERC20.sol\":10445:10470  allowance(owner, spender) */\n      jump\t// in\n    tag_196:\n        /* \"@openzeppelin/contracts/token/ERC20/ERC20.sol\":10418:10470  uint256 currentAllowance = allowance(owner, spender) */\n      swap1\n      pop\n        /* \"@openzeppelin/contracts/token/ERC20/ERC20.sol\":10503:10520  type(uint256).max */\n      0xffffffffffffffffffffffffffffffffffffffffffffffffffffffffffffffff\n        /* \"@openzeppelin/contracts/token/ERC20/ERC20.sol\":10484:10500  currentAllowance */\n      dup2\n        /* \"@openzeppelin/contracts/token/ERC20/ERC20.sol\":10484:10520  currentAllowance < type(uint256).max */\n      lt\n        /* \"@openzeppelin/contracts/token/ERC20/ERC20.sol\":10480:10789  if (currentAllowance < type(uint256).max) {... */\n      iszero\n      tag_197\n      jumpi\n        /* \"@openzeppelin/contracts/token/ERC20/ERC20.sol\":10559:10564  value */\n      dup2\n        /* \"@openzeppelin/contracts/token/ERC20/ERC20.sol\":10540:10556  currentAllowance */\n      dup2\n        /* \"@openzeppelin/contracts/token/ERC20/ERC20.sol\":10540:10564  currentAllowance < value */\n      lt\n        /* \"@openzeppelin/contracts/token/ERC20/ERC20.sol\":10536:10666  if (currentAllowance < value) {... */\n      iszero\n      tag_198\n      jumpi\n        /* \"@openzeppelin/contracts/token/ERC20/ERC20.sol\":10618:10625  spender */\n      dup3\n        /* \"@openzeppelin/contracts/token/ERC20/ERC20.sol\":10627:10643  currentAllowance */\n      dup2\n        /* \"@openzeppelin/contracts/token/ERC20/ERC20.sol\":10645:10650  value */\n      dup4\n        /* \"@openzeppelin/contracts/token/ERC20/ERC20.sol\":10591:10651  ERC20InsufficientAllowance(spender, currentAllowance, value) */\n      mload(0x40)\n      0xfb8f41b200000000000000000000000000000000000000000000000000000000\n      dup2\n      mstore\n      0x04\n      add\n      tag_199\n      swap4\n      swap3\n      swap2\n      swap1\n      tag_200\n      jump\t// in\n    tag_199:\n      mload(0x40)\n      dup1\n      swap2\n      sub\n      swap1\n      revert\n        /* \"@openzeppelin/contracts/token/ERC20/ERC20.sol\":10536:10666  if (currentAllowance < value) {... */\n    tag_198:\n        /* \"@openzeppelin/contracts/token/ERC20/ERC20.sol\":10707:10764  _approve(owner, spender, currentAllowance - value, false) */\n      tag_201\n        /* \"@openzeppelin/contracts/token/ERC20/ERC20.sol\":10716:10721  owner */\n      dup5\n        /* \"@openzeppelin/contracts/token/ERC20/ERC20.sol\":10723:10730  spender */\n      dup5\n        /* \"@openzeppelin/contracts/token/ERC20/ERC20.sol\":10751:10756  value */\n      dup5\n        /* \"@openzeppelin/contracts/token/ERC20/ERC20.sol\":10732:10748  currentAllowance */\n      dup5\n        /* \"@openzeppelin/contracts/token/ERC20/ERC20.sol\":10732:10756  currentAllowance - value */\n      sub\n        /* \"@openzeppelin/contracts/token/ERC20/ERC20.sol\":10758:10763  false */\n      0x00\n        /* \"@openzeppelin/contracts/token/ERC20/ERC20.sol\":10707:10715  _approve */\n      tag_194\n        /* \"@openzeppelin/contracts/token/ERC20/ERC20.sol\":10707:10764  _approve(owner, spender, currentAllowance - value, false) */\n      jump\t// in\n    tag_201:\n        /* \"@openzeppelin/contracts/token/ERC20/ERC20.sol\":10480:10789  if (currentAllowance < type(uint256).max) {... */\n    tag_197:\n        /* \"@openzeppelin/contracts/token/ERC20/ERC20.sol\":10408:10795  {... */\n      pop\n        /* \"@openzeppelin/contracts/token/ERC20/ERC20.sol\":10319:10795  function _spendAllowance(address owner, address spender, uint256 value) internal virtual {... */\n      pop\n      pop\n      pop\n      jump\t// out\n        /* \"@openzeppelin/contracts/token/ERC20/ERC20.sol\":5297:5597  function _transfer(address from, address to, uint256 value) internal {... */\n    tag_134:\n        /* \"@openzeppelin/contracts/token/ERC20/ERC20.sol\":5396:5397  0 */\n      0x00\n        /* \"@openzeppelin/contracts/token/ERC20/ERC20.sol\":5380:5398  from == address(0) */\n      0xffffffffffffffffffffffffffffffffffffffff\n      and\n        /* \"@openzeppelin/contracts/token/ERC20/ERC20.sol\":5380:5384  from */\n      dup4\n        /* \"@openzeppelin/contracts/token/ERC20/ERC20.sol\":5380:5398  from == address(0) */\n      0xffffffffffffffffffffffffffffffffffffffff\n      and\n      sub\n        /* \"@openzeppelin/contracts/token/ERC20/ERC20.sol\":5376:5462  if (from == address(0)) {... */\n      tag_203\n      jumpi\n        /* \"@openzeppelin/contracts/token/ERC20/ERC20.sol\":5448:5449  0 */\n      0x00\n        /* \"@openzeppelin/contracts/token/ERC20/ERC20.sol\":5421:5451  ERC20InvalidSender(address(0)) */\n      mload(0x40)\n      0x96c6fd1e00000000000000000000000000000000000000000000000000000000\n      dup2\n      mstore\n      0x04\n      add\n      tag_204\n      swap2\n      swap1\n      tag_75\n      jump\t// in\n    tag_204:\n      mload(0x40)\n      dup1\n      swap2\n      sub\n      swap1\n      revert\n        /* \"@openzeppelin/contracts/token/ERC20/ERC20.sol\":5376:5462  if (from == address(0)) {... */\n    tag_203:\n        /* \"@openzeppelin/contracts/token/ERC20/ERC20.sol\":5489:5490  0 */\n      0x00\n        /* \"@openzeppelin/contracts/token/ERC20/ERC20.sol\":5475:5491  to == address(0) */\n      0xffffffffffffffffffffffffffffffffffffffff\n      and\n        /* \"@openzeppelin/contracts/token/ERC20/ERC20.sol\":5475:5477  to */\n      dup3\n        /* \"@openzeppelin/contracts/token/ERC20/ERC20.sol\":5475:5491  to == address(0) */\n      0xffffffffffffffffffffffffffffffffffffffff\n      and\n      sub\n        /* \"@openzeppelin/contracts/token/ERC20/ERC20.sol\":5471:5557  if (to == address(0)) {... */\n      tag_205\n      jumpi\n        /* \"@openzeppelin/contracts/token/ERC20/ERC20.sol\":5543:5544  0 */\n      0x00\n        /* \"@openzeppelin/contracts/token/ERC20/ERC20.sol\":5514:5546  ERC20InvalidReceiver(address(0)) */\n      mload(0x40)\n      0xec442f0500000000000000000000000000000000000000000000000000000000\n      dup2\n      mstore\n      0x04\n      add\n      tag_206\n      swap2\n      swap1\n      tag_75\n      jump\t// in\n    tag_206:\n      mload(0x40)\n      dup1\n      swap2\n      sub\n      swap1\n      revert\n        /* \"@openzeppelin/contracts/token/ERC20/ERC20.sol\":5471:5557  if (to == address(0)) {... */\n    tag_205:\n        /* \"@openzeppelin/contracts/token/ERC20/ERC20.sol\":5566:5590  _update(from, to, value) */\n      tag_207\n        /* \"@openzeppelin/contracts/token/ERC20/ERC20.sol\":5574:5578  from */\n      dup4\n        /* \"@openzeppelin/contracts/token/ERC20/ERC20.sol\":5580:5582  to */\n      dup4\n        /* \"@openzeppelin/contracts/token/ERC20/ERC20.sol\":5584:5589  value */\n      dup4\n        /* \"@openzeppelin/contracts/token/ERC20/ERC20.sol\":5566:5573  _update */\n      tag_208\n        /* \"@openzeppelin/contracts/token/ERC20/ERC20.sol\":5566:5590  _update(from, to, value) */\n      jump\t// in\n    tag_207:\n        /* \"@openzeppelin/contracts/token/ERC20/ERC20.sol\":5297:5597  function _transfer(address from, address to, uint256 value) internal {... */\n      pop\n      pop\n      pop\n      jump\t// out\n        /* \"@openzeppelin/contracts/access/Ownable.sol\":1796:1958  function _checkOwner() internal view virtual {... */\n    tag_138:\n        /* \"@openzeppelin/contracts/access/Ownable.sol\":1866:1878  _msgSender() */\n      tag_210\n        /* \"@openzeppelin/contracts/access/Ownable.sol\":1866:1876  _msgSender */\n      tag_124\n        /* \"@openzeppelin/contracts/access/Ownable.sol\":1866:1878  _msgSender() */\n      jump\t// in\n    tag_210:\n        /* \"@openzeppelin/contracts/access/Ownable.sol\":1855:1878  owner() != _msgSender() */\n      0xffffffffffffffffffffffffffffffffffffffff\n      and\n        /* \"@openzeppelin/contracts/access/Ownable.sol\":1855:1862  owner() */\n      tag_211\n        /* \"@openzeppelin/contracts/access/Ownable.sol\":1855:1860  owner */\n      tag_85\n        /* \"@openzeppelin/contracts/access/Ownable.sol\":1855:1862  owner() */\n      jump\t// in\n    tag_211:\n        /* \"@openzeppelin/contracts/access/Ownable.sol\":1855:1878  owner() != _msgSender() */\n      0xffffffffffffffffffffffffffffffffffffffff\n      and\n      eq\n        /* \"@openzeppelin/contracts/access/Ownable.sol\":1851:1952  if (owner() != _msgSender()) {... */\n      tag_212\n      jumpi\n        /* \"@openzeppelin/contracts/access/Ownable.sol\":1928:1940  _msgSender() */\n      tag_213\n        /* \"@openzeppelin/contracts/access/Ownable.sol\":1928:1938  _msgSender */\n      tag_124\n        /* \"@openzeppelin/contracts/access/Ownable.sol\":1928:1940  _msgSender() */\n      jump\t// in\n    tag_213:\n        /* \"@openzeppelin/contracts/access/Ownable.sol\":1901:1941  OwnableUnauthorizedAccount(_msgSender()) */\n      mload(0x40)\n      0x118cdaa700000000000000000000000000000000000000000000000000000000\n      dup2\n      mstore\n      0x04\n      add\n      tag_214\n      swap2\n      swap1\n      tag_75\n      jump\t// in\n    tag_214:\n      mload(0x40)\n      dup1\n      swap2\n      sub\n      swap1\n      revert\n        /* \"@openzeppelin/contracts/access/Ownable.sol\":1851:1952  if (owner() != _msgSender()) {... */\n    tag_212:\n        /* \"@openzeppelin/contracts/access/Ownable.sol\":1796:1958  function _checkOwner() internal view virtual {... */\n      jump\t// out\n        /* \"@openzeppelin/contracts/security/Pausable.sol\":2433:2550  function _unpause() internal virtual whenPaused {... */\n    tag_141:\n        /* \"@openzeppelin/contracts/security/Pausable.sol\":1486:1502  _requirePaused() */\n      tag_216\n        /* \"@openzeppelin/contracts/security/Pausable.sol\":1486:1500  _requirePaused */\n      tag_217\n        /* \"@openzeppelin/contracts/security/Pausable.sol\":1486:1502  _requirePaused() */\n      jump\t// in\n    tag_216:\n        /* \"@openzeppelin/contracts/security/Pausable.sol\":2501:2506  false */\n      0x00\n        /* \"@openzeppelin/contracts/security/Pausable.sol\":2491:2498  _paused */\n      0x05\n      0x14\n        /* \"@openzeppelin/contracts/security/Pausable.sol\":2491:2506  _paused = false */\n      0x0100\n      exp\n      dup2\n      sload\n      dup2\n      0xff\n      mul\n      not\n      and\n      swap1\n      dup4\n      iszero\n      iszero\n      mul\n      or\n      swap1\n      sstore\n      pop\n        /* \"@openzeppelin/contracts/security/Pausable.sol\":2521:2543  Unpaused(_msgSender()) */\n      0x5db9ee0a495bf2e6ff9c91a7834c1ba4fdd244a5e8aa4e537bd38aeae4b073aa\n        /* \"@openzeppelin/contracts/security/Pausable.sol\":2530:2542  _msgSender() */\n      tag_219\n        /* \"@openzeppelin/contracts/security/Pausable.sol\":2530:2540  _msgSender */\n      tag_124\n        /* \"@openzeppelin/contracts/security/Pausable.sol\":2530:2542  _msgSender() */\n      jump\t// in\n    tag_219:\n        /* \"@openzeppelin/contracts/security/Pausable.sol\":2521:2543  Unpaused(_msgSender()) */\n      mload(0x40)\n      tag_220\n      swap2\n      swap1\n      tag_75\n      jump\t// in\n    tag_220:\n      mload(0x40)\n      dup1\n      swap2\n      sub\n      swap1\n      log1\n        /* \"@openzeppelin/contracts/security/Pausable.sol\":2433:2550  function _unpause() internal virtual whenPaused {... */\n      jump\t// out\n        /* \"@openzeppelin/contracts/access/Ownable.sol\":2912:3099  function _transferOwnership(address newOwner) internal virtual {... */\n    tag_155:\n        /* \"@openzeppelin/contracts/access/Ownable.sol\":2985:3001  address oldOwner */\n      0x00\n        /* \"@openzeppelin/contracts/access/Ownable.sol\":3004:3010  _owner */\n      0x05\n      0x00\n      swap1\n      sload\n      swap1\n      0x0100\n      exp\n      swap1\n      div\n      0xffffffffffffffffffffffffffffffffffffffff\n      and\n        /* \"@openzeppelin/contracts/access/Ownable.sol\":2985:3010  address oldOwner = _owner */\n      swap1\n      pop\n        /* \"@openzeppelin/contracts/access/Ownable.sol\":3029:3037  newOwner */\n      dup2\n        /* \"@openzeppelin/contracts/access/Ownable.sol\":3020:3026  _owner */\n      0x05\n      0x00\n        /* \"@openzeppelin/contracts/access/Ownable.sol\":3020:3037  _owner = newOwner */\n      0x0100\n      exp\n      dup2\n      sload\n      dup2\n      0xffffffffffffffffffffffffffffffffffffffff\n      mul\n      not\n      and\n      swap1\n      dup4\n      0xffffffffffffffffffffffffffffffffffffffff\n      and\n      mul\n      or\n      swap1\n      sstore\n      pop\n        /* \"@openzeppelin/contracts/access/Ownable.sol\":3083:3091  newOwner */\n      dup2\n        /* \"@openzeppelin/contracts/access/Ownable.sol\":3052:3092  OwnershipTransferred(oldOwner, newOwner) */\n      0xffffffffffffffffffffffffffffffffffffffff\n      and\n        /* \"@openzeppelin/contracts/access/Ownable.sol\":3073:3081  oldOwner */\n      dup2\n        /* \"@openzeppelin/contracts/access/Ownable.sol\":3052:3092  OwnershipTransferred(oldOwner, newOwner) */\n      0xffffffffffffffffffffffffffffffffffffffff\n      and\n      0x8be0079c531659141344cd1fd0a4f28419497f9722a3daafe3b4186f6b6457e0\n      mload(0x40)\n      mload(0x40)\n      dup1\n      swap2\n      sub\n      swap1\n      log3\n        /* \"@openzeppelin/contracts/access/Ownable.sol\":2975:3099  {... */\n      pop\n        /* \"@openzeppelin/contracts/access/Ownable.sol\":2912:3099  function _transferOwnership(address newOwner) internal virtual {... */\n      pop\n      jump\t// out\n        /* \"@openzeppelin/contracts/security/Pausable.sol\":2186:2301  function _pause() internal virtual whenNotPaused {... */\n    tag_160:\n        /* \"@openzeppelin/contracts/security/Pausable.sol\":1239:1258  _requireNotPaused() */\n      tag_223\n        /* \"@openzeppelin/contracts/security/Pausable.sol\":1239:1256  _requireNotPaused */\n      tag_224\n        /* \"@openzeppelin/contracts/security/Pausable.sol\":1239:1258  _requireNotPaused() */\n      jump\t// in\n    tag_223:\n        /* \"@openzeppelin/contracts/security/Pausable.sol\":2255:2259  true */\n      0x01\n        /* \"@openzeppelin/contracts/security/Pausable.sol\":2245:2252  _paused */\n      0x05\n      0x14\n        /* \"@openzeppelin/contracts/security/Pausable.sol\":2245:2259  _paused = true */\n      0x0100\n      exp\n      dup2\n      sload\n      dup2\n      0xff\n      mul\n      not\n      and\n      swap1\n      dup4\n      iszero\n      iszero\n      mul\n      or\n      swap1\n      sstore\n      pop\n        /* \"@openzeppelin/contracts/security/Pausable.sol\":2274:2294  Paused(_msgSender()) */\n      0x62e78cea01bee320cd4e420270b5ea74000d11b0c9f74754ebdbfc544b05a258\n        /* \"@openzeppelin/contracts/security/Pausable.sol\":2281:2293  _msgSender() */\n      tag_226\n        /* \"@openzeppelin/contracts/security/Pausable.sol\":2281:2291  _msgSender */\n      tag_124\n        /* \"@openzeppelin/contracts/security/Pausable.sol\":2281:2293  _msgSender() */\n      jump\t// in\n    tag_226:\n        /* \"@openzeppelin/contracts/security/Pausable.sol\":2274:2294  Paused(_msgSender()) */\n      mload(0x40)\n      tag_227\n      swap2\n      swap1\n      tag_75\n      jump\t// in\n    tag_227:\n      mload(0x40)\n      dup1\n      swap2\n      sub\n      swap1\n      log1\n        /* \"@openzeppelin/contracts/security/Pausable.sol\":2186:2301  function _pause() internal virtual whenNotPaused {... */\n      jump\t// out\n        /* \"@openzeppelin/contracts/token/ERC20/ERC20.sol\":9605:10037  function _approve(address owner, address spender, uint256 value, bool emitEvent) internal virtual {... */\n    tag_194:\n        /* \"@openzeppelin/contracts/token/ERC20/ERC20.sol\":9734:9735  0 */\n      0x00\n        /* \"@openzeppelin/contracts/token/ERC20/ERC20.sol\":9717:9736  owner == address(0) */\n      0xffffffffffffffffffffffffffffffffffffffff\n      and\n        /* \"@openzeppelin/contracts/token/ERC20/ERC20.sol\":9717:9722  owner */\n      dup5\n        /* \"@openzeppelin/contracts/token/ERC20/ERC20.sol\":9717:9736  owner == address(0) */\n      0xffffffffffffffffffffffffffffffffffffffff\n      and\n      sub\n        /* \"@openzeppelin/contracts/token/ERC20/ERC20.sol\":9713:9802  if (owner == address(0)) {... */\n      tag_229\n      jumpi\n        /* \"@openzeppelin/contracts/token/ERC20/ERC20.sol\":9788:9789  0 */\n      0x00\n        /* \"@openzeppelin/contracts/token/ERC20/ERC20.sol\":9759:9791  ERC20InvalidApprover(address(0)) */\n      mload(0x40)\n      0xe602df0500000000000000000000000000000000000000000000000000000000\n      dup2\n      mstore\n      0x04\n      add\n      tag_230\n      swap2\n      swap1\n      tag_75\n      jump\t// in\n    tag_230:\n      mload(0x40)\n      dup1\n      swap2\n      sub\n      swap1\n      revert\n        /* \"@openzeppelin/contracts/token/ERC20/ERC20.sol\":9713:9802  if (owner == address(0)) {... */\n    tag_229:\n        /* \"@openzeppelin/contracts/token/ERC20/ERC20.sol\":9834:9835  0 */\n      0x00\n        /* \"@openzeppelin/contracts/token/ERC20/ERC20.sol\":9815:9836  spender == address(0) */\n      0xffffffffffffffffffffffffffffffffffffffff\n      and\n        /* \"@openzeppelin/contracts/token/ERC20/ERC20.sol\":9815:9822  spender */\n      dup4\n        /* \"@openzeppelin/contracts/token/ERC20/ERC20.sol\":9815:9836  spender == address(0) */\n      0xffffffffffffffffffffffffffffffffffffffff\n      and\n      sub\n        /* \"@openzeppelin/contracts/token/ERC20/ERC20.sol\":9811:9901  if (spender == address(0)) {... */\n      tag_231\n      jumpi\n        /* \"@openzeppelin/contracts/token/ERC20/ERC20.sol\":9887:9888  0 */\n      0x00\n        /* \"@openzeppelin/contracts/token/ERC20/ERC20.sol\":9859:9890  ERC20InvalidSpender(address(0)) */\n      mload(0x40)\n      0x94280d6200000000000000000000000000000000000000000000000000000000\n      dup2\n      mstore\n      0x04\n      add\n      tag_232\n      swap2\n      swap1\n      tag_75\n      jump\t// in\n    tag_232:\n      mload(0x40)\n      dup1\n      swap2\n      sub\n      swap1\n      revert\n        /* \"@openzeppelin/contracts/token/ERC20/ERC20.sol\":9811:9901  if (spender == address(0)) {... */\n    tag_231:\n        /* \"@openzeppelin/contracts/token/ERC20/ERC20.sol\":9940:9945  value */\n      dup2\n        /* \"@openzeppelin/contracts/token/ERC20/ERC20.sol\":9910:9921  _allowances */\n      0x01\n        /* \"@openzeppelin/contracts/token/ERC20/ERC20.sol\":9910:9928  _allowances[owner] */\n      0x00\n        /* \"@openzeppelin/contracts/token/ERC20/ERC20.sol\":9922:9927  owner */\n      dup7\n        /* \"@openzeppelin/contracts/token/ERC20/ERC20.sol\":9910:9928  _allowances[owner] */\n      0xffffffffffffffffffffffffffffffffffffffff\n      and\n      0xffffffffffffffffffffffffffffffffffffffff\n      and\n      dup2\n      mstore\n      0x20\n      add\n      swap1\n      dup2\n      mstore\n      0x20\n      add\n      0x00\n      keccak256\n        /* \"@openzeppelin/contracts/token/ERC20/ERC20.sol\":9910:9937  _allowances[owner][spender] */\n      0x00\n        /* \"@openzeppelin/contracts/token/ERC20/ERC20.sol\":9929:9936  spender */\n      dup6\n        /* \"@openzeppelin/contracts/token/ERC20/ERC20.sol\":9910:9937  _allowances[owner][spender] */\n      0xffffffffffffffffffffffffffffffffffffffff\n      and\n      0xffffffffffffffffffffffffffffffffffffffff\n      and\n      dup2\n      mstore\n      0x20\n      add\n      swap1\n      dup2\n      mstore\n      0x20\n      add\n      0x00\n      keccak256\n        /* \"@openzeppelin/contracts/token/ERC20/ERC20.sol\":9910:9945  _allowances[owner][spender] = value */\n      dup2\n      swap1\n      sstore\n      pop\n        /* \"@openzeppelin/contracts/token/ERC20/ERC20.sol\":9959:9968  emitEvent */\n      dup1\n        /* \"@openzeppelin/contracts/token/ERC20/ERC20.sol\":9955:10031  if (emitEvent) {... */\n      iszero\n      tag_233\n      jumpi\n        /* \"@openzeppelin/contracts/token/ERC20/ERC20.sol\":10005:10012  spender */\n      dup3\n        /* \"@openzeppelin/contracts/token/ERC20/ERC20.sol\":9989:10020  Approval(owner, spender, value) */\n      0xffffffffffffffffffffffffffffffffffffffff\n      and\n        /* \"@openzeppelin/contracts/token/ERC20/ERC20.sol\":9998:10003  owner */\n      dup5\n        /* \"@openzeppelin/contracts/token/ERC20/ERC20.sol\":9989:10020  Approval(owner, spender, value) */\n      0xffffffffffffffffffffffffffffffffffffffff\n      and\n      0x8c5be1e5ebec7d5bd14f71427d1e84f3dd0314c0f7b2291e5b200ac8c7c3b925\n        /* \"@openzeppelin/contracts/token/ERC20/ERC20.sol\":10014:10019  value */\n      dup5\n        /* \"@openzeppelin/contracts/token/ERC20/ERC20.sol\":9989:10020  Approval(owner, spender, value) */\n      mload(0x40)\n      tag_234\n      swap2\n      swap1\n      tag_47\n      jump\t// in\n    tag_234:\n      mload(0x40)\n      dup1\n      swap2\n      sub\n      swap1\n      log3\n        /* \"@openzeppelin/contracts/token/ERC20/ERC20.sol\":9955:10031  if (emitEvent) {... */\n    tag_233:\n        /* \"@openzeppelin/contracts/token/ERC20/ERC20.sol\":9605:10037  function _approve(address owner, address spender, uint256 value, bool emitEvent) internal virtual {... */\n      pop\n      pop\n      pop\n      pop\n      jump\t// out\n        /* \"main.sol\":3935:4852  function _update(... */\n    tag_208:\n        /* \"@openzeppelin/contracts/security/Pausable.sol\":1239:1258  _requireNotPaused() */\n      tag_236\n        /* \"@openzeppelin/contracts/security/Pausable.sol\":1239:1256  _requireNotPaused */\n      tag_224\n        /* \"@openzeppelin/contracts/security/Pausable.sol\":1239:1258  _requireNotPaused() */\n      jump\t// in\n    tag_236:\n        /* \"main.sol\":4182:4183  0 */\n      0x00\n        /* \"main.sol\":4166:4184  from == address(0) */\n      0xffffffffffffffffffffffffffffffffffffffff\n      and\n        /* \"main.sol\":4166:4170  from */\n      dup4\n        /* \"main.sol\":4166:4184  from == address(0) */\n      0xffffffffffffffffffffffffffffffffffffffff\n      and\n      eq\n        /* \"main.sol\":4166:4204  from == address(0) || to == address(0) */\n      dup1\n      tag_238\n      jumpi\n      pop\n        /* \"main.sol\":4202:4203  0 */\n      0x00\n        /* \"main.sol\":4188:4204  to == address(0) */\n      0xffffffffffffffffffffffffffffffffffffffff\n      and\n        /* \"main.sol\":4188:4190  to */\n      dup3\n        /* \"main.sol\":4188:4204  to == address(0) */\n      0xffffffffffffffffffffffffffffffffffffffff\n      and\n      eq\n        /* \"main.sol\":4166:4204  from == address(0) || to == address(0) */\n    tag_238:\n        /* \"main.sol\":4166:4239  from == address(0) || to == address(0) || ... */\n      dup1\n      tag_239\n      jumpi\n      pop\n        /* \"main.sol\":4222:4233  isFeeExempt */\n      0x08\n        /* \"main.sol\":4222:4239  isFeeExempt[from] */\n      0x00\n        /* \"main.sol\":4234:4238  from */\n      dup5\n        /* \"main.sol\":4222:4239  isFeeExempt[from] */\n      0xffffffffffffffffffffffffffffffffffffffff\n      and\n      0xffffffffffffffffffffffffffffffffffffffff\n      and\n      dup2\n      mstore\n      0x20\n      add\n      swap1\n      dup2\n      mstore\n      0x20\n      add\n      0x00\n      keccak256\n      0x00\n      swap1\n      sload\n      swap1\n      0x0100\n      exp\n      swap1\n      div\n      0xff\n      and\n        /* \"main.sol\":4166:4239  from == address(0) || to == address(0) || ... */\n    tag_239:\n        /* \"main.sol\":4166:4258  from == address(0) || to == address(0) || ... */\n      dup1\n      tag_240\n      jumpi\n      pop\n        /* \"main.sol\":4243:4254  isFeeExempt */\n      0x08\n        /* \"main.sol\":4243:4258  isFeeExempt[to] */\n      0x00\n        /* \"main.sol\":4255:4257  to */\n      dup4\n        /* \"main.sol\":4243:4258  isFeeExempt[to] */\n      0xffffffffffffffffffffffffffffffffffffffff\n      and\n      0xffffffffffffffffffffffffffffffffffffffff\n      and\n      dup2\n      mstore\n      0x20\n      add\n      swap1\n      dup2\n      mstore\n      0x20\n      add\n      0x00\n      keccak256\n      0x00\n      swap1\n      sload\n      swap1\n      0x0100\n      exp\n      swap1\n      div\n      0xff\n      and\n        /* \"main.sol\":4166:4258  from == address(0) || to == address(0) || ... */\n    tag_240:\n        /* \"main.sol\":4166:4287  from == address(0) || to == address(0) || ... */\n      dup1\n      tag_241\n      jumpi\n      pop\n        /* \"main.sol\":4286:4287  0 */\n      0x00\n        /* \"main.sol\":4276:4282  taxFee */\n      sload(0x07)\n        /* \"main.sol\":4276:4287  taxFee == 0 */\n      eq\n        /* \"main.sol\":4166:4287  from == address(0) || to == address(0) || ... */\n    tag_241:\n        /* \"main.sol\":4162:4368  if (from == address(0) || to == address(0) || ... */\n      iszero\n      tag_242\n      jumpi\n        /* \"main.sol\":4304:4335  super._update(from, to, amount) */\n      tag_243\n        /* \"main.sol\":4318:4322  from */\n      dup4\n        /* \"main.sol\":4324:4326  to */\n      dup4\n        /* \"main.sol\":4328:4334  amount */\n      dup4\n        /* \"main.sol\":4304:4317  super._update */\n      tag_244\n        /* \"main.sol\":4304:4335  super._update(from, to, amount) */\n      jump\t// in\n    tag_243:\n        /* \"main.sol\":4350:4357  return; */\n      jump(tag_237)\n        /* \"main.sol\":4162:4368  if (from == address(0) || to == address(0) || ... */\n    tag_242:\n        /* \"main.sol\":4421:4438  uint256 taxAmount */\n      0x00\n        /* \"main.sol\":4461:4464  100 */\n      0x64\n        /* \"main.sol\":4451:4457  taxFee */\n      sload(0x07)\n        /* \"main.sol\":4442:4448  amount */\n      dup4\n        /* \"main.sol\":4442:4457  amount * taxFee */\n      tag_245\n      swap2\n      swap1\n      tag_144\n      jump\t// in\n    tag_245:\n        /* \"main.sol\":4441:4464  (amount * taxFee) / 100 */\n      tag_246\n      swap2\n      swap1\n      tag_146\n      jump\t// in\n    tag_246:\n        /* \"main.sol\":4421:4464  uint256 taxAmount = (amount * taxFee) / 100 */\n      swap1\n      pop\n        /* \"main.sol\":4475:4492  uint256 netAmount */\n      0x00\n        /* \"main.sol\":4504:4513  taxAmount */\n      dup2\n        /* \"main.sol\":4495:4501  amount */\n      dup4\n        /* \"main.sol\":4495:4513  amount - taxAmount */\n      tag_247\n      swap2\n      swap1\n      tag_148\n      jump\t// in\n    tag_247:\n        /* \"main.sol\":4475:4513  uint256 netAmount = amount - taxAmount */\n      swap1\n      pop\n        /* \"main.sol\":4601:4602  0 */\n      0x00\n        /* \"main.sol\":4589:4598  taxAmount */\n      dup3\n        /* \"main.sol\":4589:4602  taxAmount > 0 */\n      gt\n        /* \"main.sol\":4585:4671  if (taxAmount > 0) {... */\n      iszero\n      tag_248\n      jumpi\n        /* \"main.sol\":4619:4659  super._update(from, treasury, taxAmount) */\n      tag_249\n        /* \"main.sol\":4633:4637  from */\n      dup6\n        /* \"main.sol\":4639:4647  treasury */\n      0x06\n      0x00\n      swap1\n      sload\n      swap1\n      0x0100\n      exp\n      swap1\n      div\n      0xffffffffffffffffffffffffffffffffffffffff\n      and\n        /* \"main.sol\":4649:4658  taxAmount */\n      dup5\n        /* \"main.sol\":4619:4632  super._update */\n      tag_244\n        /* \"main.sol\":4619:4659  super._update(from, treasury, taxAmount) */\n      jump\t// in\n    tag_249:\n        /* \"main.sol\":4585:4671  if (taxAmount > 0) {... */\n    tag_248:\n        /* \"main.sol\":4740:4774  super._update(from, to, netAmount) */\n      tag_250\n        /* \"main.sol\":4754:4758  from */\n      dup6\n        /* \"main.sol\":4760:4762  to */\n      dup6\n        /* \"main.sol\":4764:4773  netAmount */\n      dup4\n        /* \"main.sol\":4740:4753  super._update */\n      tag_244\n        /* \"main.sol\":4740:4774  super._update(from, to, netAmount) */\n      jump\t// in\n    tag_250:\n        /* \"main.sol\":4819:4821  to */\n      dup4\n        /* \"main.sol\":4800:4844  TaxCollected(from, to, taxAmount, netAmount) */\n      0xffffffffffffffffffffffffffffffffffffffff\n      and\n        /* \"main.sol\":4813:4817  from */\n      dup6\n        /* \"main.sol\":4800:4844  TaxCollected(from, to, taxAmount, netAmount) */\n      0xffffffffffffffffffffffffffffffffffffffff\n      and\n      0xddb30886d90db45adc1b2edcbabe12227896c25143cd155d3bf62ec8eff67856\n        /* \"main.sol\":4823:4832  taxAmount */\n      dup5\n        /* \"main.sol\":4834:4843  netAmount */\n      dup5\n        /* \"main.sol\":4800:4844  TaxCollected(from, to, taxAmount, netAmount) */\n      mload(0x40)\n      tag_251\n      swap3\n      swap2\n      swap1\n      tag_68\n      jump\t// in\n    tag_251:\n      mload(0x40)\n      dup1\n      swap2\n      sub\n      swap1\n      log3\n        /* \"main.sol\":4068:4852  {... */\n      pop\n      pop\n        /* \"@openzeppelin/contracts/security/Pausable.sol\":1268:1269  _ */\n    tag_237:\n        /* \"main.sol\":3935:4852  function _update(... */\n      pop\n      pop\n      pop\n      jump\t// out\n        /* \"@openzeppelin/contracts/security/Pausable.sol\":1945:2051  function _requirePaused() internal view virtual {... */\n    tag_217:\n        /* \"@openzeppelin/contracts/security/Pausable.sol\":2011:2019  paused() */\n      tag_253\n        /* \"@openzeppelin/contracts/security/Pausable.sol\":2011:2017  paused */\n      tag_70\n        /* \"@openzeppelin/contracts/security/Pausable.sol\":2011:2019  paused() */\n      jump\t// in\n    tag_253:\n        /* \"@openzeppelin/contracts/security/Pausable.sol\":2003:2044  require(paused(), \"Pausable: not paused\") */\n      tag_254\n      jumpi\n      mload(0x40)\n      0x08c379a000000000000000000000000000000000000000000000000000000000\n      dup2\n      mstore\n      0x04\n      add\n      tag_255\n      swap1\n      tag_256\n      jump\t// in\n    tag_255:\n      mload(0x40)\n      dup1\n      swap2\n      sub\n      swap1\n      revert\n    tag_254:\n        /* \"@openzeppelin/contracts/security/Pausable.sol\":1945:2051  function _requirePaused() internal view virtual {... */\n      jump\t// out\n        /* \"@openzeppelin/contracts/security/Pausable.sol\":1767:1873  function _requireNotPaused() internal view virtual {... */\n    tag_224:\n        /* \"@openzeppelin/contracts/security/Pausable.sol\":1837:1845  paused() */\n      tag_258\n        /* \"@openzeppelin/contracts/security/Pausable.sol\":1837:1843  paused */\n      tag_70\n        /* \"@openzeppelin/contracts/security/Pausable.sol\":1837:1845  paused() */\n      jump\t// in\n    tag_258:\n        /* \"@openzeppelin/contracts/security/Pausable.sol\":1836:1845  !paused() */\n      iszero\n        /* \"@openzeppelin/contracts/security/Pausable.sol\":1828:1866  require(!paused(), \"Pausable: paused\") */\n      tag_259\n      jumpi\n      mload(0x40)\n      0x08c379a000000000000000000000000000000000000000000000000000000000\n      dup2\n      mstore\n      0x04\n      add\n      tag_260\n      swap1\n      tag_261\n      jump\t// in\n    tag_260:\n      mload(0x40)\n      dup1\n      swap2\n      sub\n      swap1\n      revert\n    tag_259:\n        /* \"@openzeppelin/contracts/security/Pausable.sol\":1767:1873  function _requireNotPaused() internal view virtual {... */\n      jump\t// out\n        /* \"@openzeppelin/contracts/token/ERC20/ERC20.sol\":5912:7019  function _update(address from, address to, uint256 value) internal virtual {... */\n    tag_244:\n        /* \"@openzeppelin/contracts/token/ERC20/ERC20.sol\":6017:6018  0 */\n      0x00\n        /* \"@openzeppelin/contracts/token/ERC20/ERC20.sol\":6001:6019  from == address(0) */\n      0xffffffffffffffffffffffffffffffffffffffff\n      and\n        /* \"@openzeppelin/contracts/token/ERC20/ERC20.sol\":6001:6005  from */\n      dup4\n        /* \"@openzeppelin/contracts/token/ERC20/ERC20.sol\":6001:6019  from == address(0) */\n      0xffffffffffffffffffffffffffffffffffffffff\n      and\n      sub\n        /* \"@openzeppelin/contracts/token/ERC20/ERC20.sol\":5997:6537  if (from == address(0)) {... */\n      tag_263\n      jumpi\n        /* \"@openzeppelin/contracts/token/ERC20/ERC20.sol\":6153:6158  value */\n      dup1\n        /* \"@openzeppelin/contracts/token/ERC20/ERC20.sol\":6137:6149  _totalSupply */\n      0x02\n      0x00\n        /* \"@openzeppelin/contracts/token/ERC20/ERC20.sol\":6137:6158  _totalSupply += value */\n      dup3\n      dup3\n      sload\n      tag_264\n      swap2\n      swap1\n      tag_265\n      jump\t// in\n    tag_264:\n      swap3\n      pop\n      pop\n      dup2\n      swap1\n      sstore\n      pop\n        /* \"@openzeppelin/contracts/token/ERC20/ERC20.sol\":5997:6537  if (from == address(0)) {... */\n      jump(tag_266)\n    tag_263:\n        /* \"@openzeppelin/contracts/token/ERC20/ERC20.sol\":6189:6208  uint256 fromBalance */\n      0x00\n        /* \"@openzeppelin/contracts/token/ERC20/ERC20.sol\":6211:6220  _balances */\n      dup1\n        /* \"@openzeppelin/contracts/token/ERC20/ERC20.sol\":6211:6226  _balances[from] */\n      0x00\n        /* \"@openzeppelin/contracts/token/ERC20/ERC20.sol\":6221:6225  from */\n      dup6\n        /* \"@openzeppelin/contracts/token/ERC20/ERC20.sol\":6211:6226  _balances[from] */\n      0xffffffffffffffffffffffffffffffffffffffff\n      and\n      0xffffffffffffffffffffffffffffffffffffffff\n      and\n      dup2\n      mstore\n      0x20\n      add\n      swap1\n      dup2\n      mstore\n      0x20\n      add\n      0x00\n      keccak256\n      sload\n        /* \"@openzeppelin/contracts/token/ERC20/ERC20.sol\":6189:6226  uint256 fromBalance = _balances[from] */\n      swap1\n      pop\n        /* \"@openzeppelin/contracts/token/ERC20/ERC20.sol\":6258:6263  value */\n      dup2\n        /* \"@openzeppelin/contracts/token/ERC20/ERC20.sol\":6244:6255  fromBalance */\n      dup2\n        /* \"@openzeppelin/contracts/token/ERC20/ERC20.sol\":6244:6263  fromBalance < value */\n      lt\n        /* \"@openzeppelin/contracts/token/ERC20/ERC20.sol\":6240:6355  if (fromBalance < value) {... */\n      iszero\n      tag_267\n      jumpi\n        /* \"@openzeppelin/contracts/token/ERC20/ERC20.sol\":6315:6319  from */\n      dup4\n        /* \"@openzeppelin/contracts/token/ERC20/ERC20.sol\":6321:6332  fromBalance */\n      dup2\n        /* \"@openzeppelin/contracts/token/ERC20/ERC20.sol\":6334:6339  value */\n      dup4\n        /* \"@openzeppelin/contracts/token/ERC20/ERC20.sol\":6290:6340  ERC20InsufficientBalance(from, fromBalance, value) */\n      mload(0x40)\n      0xe450d38c00000000000000000000000000000000000000000000000000000000\n      dup2\n      mstore\n      0x04\n      add\n      tag_268\n      swap4\n      swap3\n      swap2\n      swap1\n      tag_200\n      jump\t// in\n    tag_268:\n      mload(0x40)\n      dup1\n      swap2\n      sub\n      swap1\n      revert\n        /* \"@openzeppelin/contracts/token/ERC20/ERC20.sol\":6240:6355  if (fromBalance < value) {... */\n    tag_267:\n        /* \"@openzeppelin/contracts/token/ERC20/ERC20.sol\":6507:6512  value */\n      dup2\n        /* \"@openzeppelin/contracts/token/ERC20/ERC20.sol\":6493:6504  fromBalance */\n      dup2\n        /* \"@openzeppelin/contracts/token/ERC20/ERC20.sol\":6493:6512  fromBalance - value */\n      sub\n        /* \"@openzeppelin/contracts/token/ERC20/ERC20.sol\":6475:6484  _balances */\n      0x00\n        /* \"@openzeppelin/contracts/token/ERC20/ERC20.sol\":6475:6490  _balances[from] */\n      dup1\n        /* \"@openzeppelin/contracts/token/ERC20/ERC20.sol\":6485:6489  from */\n      dup7\n        /* \"@openzeppelin/contracts/token/ERC20/ERC20.sol\":6475:6490  _balances[from] */\n      0xffffffffffffffffffffffffffffffffffffffff\n      and\n      0xffffffffffffffffffffffffffffffffffffffff\n      and\n      dup2\n      mstore\n      0x20\n      add\n      swap1\n      dup2\n      mstore\n      0x20\n      add\n      0x00\n      keccak256\n        /* \"@openzeppelin/contracts/token/ERC20/ERC20.sol\":6475:6512  _balances[from] = fromBalance - value */\n      dup2\n      swap1\n      sstore\n      pop\n        /* \"@openzeppelin/contracts/token/ERC20/ERC20.sol\":6175:6537  {... */\n      pop\n        /* \"@openzeppelin/contracts/token/ERC20/ERC20.sol\":5997:6537  if (from == address(0)) {... */\n    tag_266:\n        /* \"@openzeppelin/contracts/token/ERC20/ERC20.sol\":6565:6566  0 */\n      0x00\n        /* \"@openzeppelin/contracts/token/ERC20/ERC20.sol\":6551:6567  to == address(0) */\n      0xffffffffffffffffffffffffffffffffffffffff\n      and\n        /* \"@openzeppelin/contracts/token/ERC20/ERC20.sol\":6551:6553  to */\n      dup3\n        /* \"@openzeppelin/contracts/token/ERC20/ERC20.sol\":6551:6567  to == address(0) */\n      0xffffffffffffffffffffffffffffffffffffffff\n      and\n      sub\n        /* \"@openzeppelin/contracts/token/ERC20/ERC20.sol\":6547:6972  if (to == address(0)) {... */\n      tag_269\n      jumpi\n        /* \"@openzeppelin/contracts/token/ERC20/ERC20.sol\":6730:6735  value */\n      dup1\n        /* \"@openzeppelin/contracts/token/ERC20/ERC20.sol\":6714:6726  _totalSupply */\n      0x02\n      0x00\n        /* \"@openzeppelin/contracts/token/ERC20/ERC20.sol\":6714:6735  _totalSupply -= value */\n      dup3\n      dup3\n      sload\n      sub\n      swap3\n      pop\n      pop\n      dup2\n      swap1\n      sstore\n      pop\n        /* \"@openzeppelin/contracts/token/ERC20/ERC20.sol\":6547:6972  if (to == address(0)) {... */\n      jump(tag_270)\n    tag_269:\n        /* \"@openzeppelin/contracts/token/ERC20/ERC20.sol\":6942:6947  value */\n      dup1\n        /* \"@openzeppelin/contracts/token/ERC20/ERC20.sol\":6925:6934  _balances */\n      0x00\n        /* \"@openzeppelin/contracts/token/ERC20/ERC20.sol\":6925:6938  _balances[to] */\n      dup1\n        /* \"@openzeppelin/contracts/token/ERC20/ERC20.sol\":6935:6937  to */\n      dup5\n        /* \"@openzeppelin/contracts/token/ERC20/ERC20.sol\":6925:6938  _balances[to] */\n      0xffffffffffffffffffffffffffffffffffffffff\n      and\n      0xffffffffffffffffffffffffffffffffffffffff\n      and\n      dup2\n      mstore\n      0x20\n      add\n      swap1\n      dup2\n      mstore\n      0x20\n      add\n      0x00\n      keccak256\n      0x00\n        /* \"@openzeppelin/contracts/token/ERC20/ERC20.sol\":6925:6947  _balances[to] += value */\n      dup3\n      dup3\n      sload\n      add\n      swap3\n      pop\n      pop\n      dup2\n      swap1\n      sstore\n      pop\n        /* \"@openzeppelin/contracts/token/ERC20/ERC20.sol\":6547:6972  if (to == address(0)) {... */\n    tag_270:\n        /* \"@openzeppelin/contracts/token/ERC20/ERC20.sol\":7002:7004  to */\n      dup2\n        /* \"@openzeppelin/contracts/token/ERC20/ERC20.sol\":6987:7012  Transfer(from, to, value) */\n      0xffffffffffffffffffffffffffffffffffffffff\n      and\n        /* \"@openzeppelin/contracts/token/ERC20/ERC20.sol\":6996:7000  from */\n      dup4\n        /* \"@openzeppelin/contracts/token/ERC20/ERC20.sol\":6987:7012  Transfer(from, to, value) */\n      0xffffffffffffffffffffffffffffffffffffffff\n      and\n      0xddf252ad1be2c89b69c2b068fc378daa952ba7f163c4a11628f55a4df523b3ef\n        /* \"@openzeppelin/contracts/token/ERC20/ERC20.sol\":7006:7011  value */\n      dup4\n        /* \"@openzeppelin/contracts/token/ERC20/ERC20.sol\":6987:7012  Transfer(from, to, value) */\n      mload(0x40)\n      tag_271\n      swap2\n      swap1\n      tag_47\n      jump\t// in\n    tag_271:\n      mload(0x40)\n      dup1\n      swap2\n      sub\n      swap1\n      log3\n        /* \"@openzeppelin/contracts/token/ERC20/ERC20.sol\":5912:7019  function _update(address from, address to, uint256 value) internal virtual {... */\n      pop\n      pop\n      pop\n      jump\t// out\n        /* \"#utility.yul\":7:106   */\n    tag_272:\n        /* \"#utility.yul\":59:65   */\n      0x00\n        /* \"#utility.yul\":93:98   */\n      dup2\n        /* \"#utility.yul\":87:99   */\n      mload\n        /* \"#utility.yul\":77:99   */\n      swap1\n      pop\n        /* \"#utility.yul\":7:106   */\n      swap2\n      swap1\n      pop\n      jump\t// out\n        /* \"#utility.yul\":112:281   */\n    tag_273:\n        /* \"#utility.yul\":196:207   */\n      0x00\n        /* \"#utility.yul\":230:236   */\n      dup3\n        /* \"#utility.yul\":225:228   */\n      dup3\n        /* \"#utility.yul\":218:237   */\n      mstore\n        /* \"#utility.yul\":270:274   */\n      0x20\n        /* \"#utility.yul\":265:268   */\n      dup3\n        /* \"#utility.yul\":261:275   */\n      add\n        /* \"#utility.yul\":246:275   */\n      swap1\n      pop\n        /* \"#utility.yul\":112:281   */\n      swap3\n      swap2\n      pop\n      pop\n      jump\t// out\n        /* \"#utility.yul\":287:533   */\n    tag_274:\n        /* \"#utility.yul\":368:369   */\n      0x00\n        /* \"#utility.yul\":378:491   */\n    tag_306:\n        /* \"#utility.yul\":392:398   */\n      dup4\n        /* \"#utility.yul\":389:390   */\n      dup2\n        /* \"#utility.yul\":386:399   */\n      lt\n        /* \"#utility.yul\":378:491   */\n      iszero\n      tag_308\n      jumpi\n        /* \"#utility.yul\":477:478   */\n      dup1\n        /* \"#utility.yul\":472:475   */\n      dup3\n        /* \"#utility.yul\":468:479   */\n      add\n        /* \"#utility.yul\":462:480   */\n      mload\n        /* \"#utility.yul\":458:459   */\n      dup2\n        /* \"#utility.yul\":453:456   */\n      dup5\n        /* \"#utility.yul\":449:460   */\n      add\n        /* \"#utility.yul\":442:481   */\n      mstore\n        /* \"#utility.yul\":414:416   */\n      0x20\n        /* \"#utility.yul\":411:412   */\n      dup2\n        /* \"#utility.yul\":407:417   */\n      add\n        /* \"#utility.yul\":402:417   */\n      swap1\n      pop\n        /* \"#utility.yul\":378:491   */\n      jump(tag_306)\n    tag_308:\n        /* \"#utility.yul\":525:526   */\n      0x00\n        /* \"#utility.yul\":516:522   */\n      dup5\n        /* \"#utility.yul\":511:514   */\n      dup5\n        /* \"#utility.yul\":507:523   */\n      add\n        /* \"#utility.yul\":500:527   */\n      mstore\n        /* \"#utility.yul\":349:533   */\n      pop\n        /* \"#utility.yul\":287:533   */\n      pop\n      pop\n      pop\n      jump\t// out\n        /* \"#utility.yul\":539:641   */\n    tag_275:\n        /* \"#utility.yul\":580:586   */\n      0x00\n        /* \"#utility.yul\":631:633   */\n      0x1f\n        /* \"#utility.yul\":627:634   */\n      not\n        /* \"#utility.yul\":622:624   */\n      0x1f\n        /* \"#utility.yul\":615:620   */\n      dup4\n        /* \"#utility.yul\":611:625   */\n      add\n        /* \"#utility.yul\":607:635   */\n      and\n        /* \"#utility.yul\":597:635   */\n      swap1\n      pop\n        /* \"#utility.yul\":539:641   */\n      swap2\n      swap1\n      pop\n      jump\t// out\n        /* \"#utility.yul\":647:1024   */\n    tag_276:\n        /* \"#utility.yul\":735:738   */\n      0x00\n        /* \"#utility.yul\":763:802   */\n      tag_311\n        /* \"#utility.yul\":796:801   */\n      dup3\n        /* \"#utility.yul\":763:802   */\n      tag_272\n      jump\t// in\n    tag_311:\n        /* \"#utility.yul\":818:889   */\n      tag_312\n        /* \"#utility.yul\":882:888   */\n      dup2\n        /* \"#utility.yul\":877:880   */\n      dup6\n        /* \"#utility.yul\":818:889   */\n      tag_273\n      jump\t// in\n    tag_312:\n        /* \"#utility.yul\":811:889   */\n      swap4\n      pop\n        /* \"#utility.yul\":898:963   */\n      tag_313\n        /* \"#utility.yul\":956:962   */\n      dup2\n        /* \"#utility.yul\":951:954   */\n      dup6\n        /* \"#utility.yul\":944:948   */\n      0x20\n        /* \"#utility.yul\":937:942   */\n      dup7\n        /* \"#utility.yul\":933:949   */\n      add\n        /* \"#utility.yul\":898:963   */\n      tag_274\n      jump\t// in\n    tag_313:\n        /* \"#utility.yul\":988:1017   */\n      tag_314\n        /* \"#utility.yul\":1010:1016   */\n      dup2\n        /* \"#utility.yul\":988:1017   */\n      tag_275\n      jump\t// in\n    tag_314:\n        /* \"#utility.yul\":983:986   */\n      dup5\n        /* \"#utility.yul\":979:1018   */\n      add\n        /* \"#utility.yul\":972:1018   */\n      swap2\n      pop\n        /* \"#utility.yul\":739:1024   */\n      pop\n        /* \"#utility.yul\":647:1024   */\n      swap3\n      swap2\n      pop\n      pop\n      jump\t// out\n        /* \"#utility.yul\":1030:1343   */\n    tag_32:\n        /* \"#utility.yul\":1143:1147   */\n      0x00\n        /* \"#utility.yul\":1181:1183   */\n      0x20\n        /* \"#utility.yul\":1170:1179   */\n      dup3\n        /* \"#utility.yul\":1166:1184   */\n      add\n        /* \"#utility.yul\":1158:1184   */\n      swap1\n      pop\n        /* \"#utility.yul\":1230:1239   */\n      dup2\n        /* \"#utility.yul\":1224:1228   */\n      dup2\n        /* \"#utility.yul\":1220:1240   */\n      sub\n        /* \"#utility.yul\":1216:1217   */\n      0x00\n        /* \"#utility.yul\":1205:1214   */\n      dup4\n        /* \"#utility.yul\":1201:1218   */\n      add\n        /* \"#utility.yul\":1194:1241   */\n      mstore\n        /* \"#utility.yul\":1258:1336   */\n      tag_316\n        /* \"#utility.yul\":1331:1335   */\n      dup2\n        /* \"#utility.yul\":1322:1328   */\n      dup5\n        /* \"#utility.yul\":1258:1336   */\n      tag_276\n      jump\t// in\n    tag_316:\n        /* \"#utility.yul\":1250:1336   */\n      swap1\n      pop\n        /* \"#utility.yul\":1030:1343   */\n      swap3\n      swap2\n      pop\n      pop\n      jump\t// out\n        /* \"#utility.yul\":1430:1547   */\n    tag_278:\n        /* \"#utility.yul\":1539:1540   */\n      0x00\n        /* \"#utility.yul\":1536:1537   */\n      dup1\n        /* \"#utility.yul\":1529:1541   */\n      revert\n        /* \"#utility.yul\":1676:1802   */\n    tag_280:\n        /* \"#utility.yul\":1713:1720   */\n      0x00\n        /* \"#utility.yul\":1753:1795   */\n      0xffffffffffffffffffffffffffffffffffffffff\n        /* \"#utility.yul\":1746:1751   */\n      dup3\n        /* \"#utility.yul\":1742:1796   */\n      and\n        /* \"#utility.yul\":1731:1796   */\n      swap1\n      pop\n        /* \"#utility.yul\":1676:1802   */\n      swap2\n      swap1\n      pop\n      jump\t// out\n        /* \"#utility.yul\":1808:1904   */\n    tag_281:\n        /* \"#utility.yul\":1845:1852   */\n      0x00\n        /* \"#utility.yul\":1874:1898   */\n      tag_322\n        /* \"#utility.yul\":1892:1897   */\n      dup3\n        /* \"#utility.yul\":1874:1898   */\n      tag_280\n      jump\t// in\n    tag_322:\n        /* \"#utility.yul\":1863:1898   */\n      swap1\n      pop\n        /* \"#utility.yul\":1808:1904   */\n      swap2\n      swap1\n      pop\n      jump\t// out\n        /* \"#utility.yul\":1910:2032   */\n    tag_282:\n        /* \"#utility.yul\":1983:2007   */\n      tag_324\n        /* \"#utility.yul\":2001:2006   */\n      dup2\n        /* \"#utility.yul\":1983:2007   */\n      tag_281\n      jump\t// in\n    tag_324:\n        /* \"#utility.yul\":1976:1981   */\n      dup2\n        /* \"#utility.yul\":1973:2008   */\n      eq\n        /* \"#utility.yul\":1963:2026   */\n      tag_325\n      jumpi\n        /* \"#utility.yul\":2022:2023   */\n      0x00\n        /* \"#utility.yul\":2019:2020   */\n      dup1\n        /* \"#utility.yul\":2012:2024   */\n      revert\n        /* \"#utility.yul\":1963:2026   */\n    tag_325:\n        /* \"#utility.yul\":1910:2032   */\n      pop\n      jump\t// out\n        /* \"#utility.yul\":2038:2177   */\n    tag_283:\n        /* \"#utility.yul\":2084:2089   */\n      0x00\n        /* \"#utility.yul\":2122:2128   */\n      dup2\n        /* \"#utility.yul\":2109:2129   */\n      calldataload\n        /* \"#utility.yul\":2100:2129   */\n      swap1\n      pop\n        /* \"#utility.yul\":2138:2171   */\n      tag_327\n        /* \"#utility.yul\":2165:2170   */\n      dup2\n        /* \"#utility.yul\":2138:2171   */\n      tag_282\n      jump\t// in\n    tag_327:\n        /* \"#utility.yul\":2038:2177   */\n      swap3\n      swap2\n      pop\n      pop\n      jump\t// out\n        /* \"#utility.yul\":2183:2260   */\n    tag_284:\n        /* \"#utility.yul\":2220:2227   */\n      0x00\n        /* \"#utility.yul\":2249:2254   */\n      dup2\n        /* \"#utility.yul\":2238:2254   */\n      swap1\n      pop\n        /* \"#utility.yul\":2183:2260   */\n      swap2\n      swap1\n      pop\n      jump\t// out\n        /* \"#utility.yul\":2266:2388   */\n    tag_285:\n        /* \"#utility.yul\":2339:2363   */\n      tag_330\n        /* \"#utility.yul\":2357:2362   */\n      dup2\n        /* \"#utility.yul\":2339:2363   */\n      tag_284\n      jump\t// in\n    tag_330:\n        /* \"#utility.yul\":2332:2337   */\n      dup2\n        /* \"#utility.yul\":2329:2364   */\n      eq\n        /* \"#utility.yul\":2319:2382   */\n      tag_331\n      jumpi\n        /* \"#utility.yul\":2378:2379   */\n      0x00\n        /* \"#utility.yul\":2375:2376   */\n      dup1\n        /* \"#utility.yul\":2368:2380   */\n      revert\n        /* \"#utility.yul\":2319:2382   */\n    tag_331:\n        /* \"#utility.yul\":2266:2388   */\n      pop\n      jump\t// out\n        /* \"#utility.yul\":2394:2533   */\n    tag_286:\n        /* \"#utility.yul\":2440:2445   */\n      0x00\n        /* \"#utility.yul\":2478:2484   */\n      dup2\n        /* \"#utility.yul\":2465:2485   */\n      calldataload\n        /* \"#utility.yul\":2456:2485   */\n      swap1\n      pop\n        /* \"#utility.yul\":2494:2527   */\n      tag_333\n        /* \"#utility.yul\":2521:2526   */\n      dup2\n        /* \"#utility.yul\":2494:2527   */\n      tag_285\n      jump\t// in\n    tag_333:\n        /* \"#utility.yul\":2394:2533   */\n      swap3\n      swap2\n      pop\n      pop\n      jump\t// out\n        /* \"#utility.yul\":2539:3013   */\n    tag_35:\n        /* \"#utility.yul\":2607:2613   */\n      0x00\n        /* \"#utility.yul\":2615:2621   */\n      dup1\n        /* \"#utility.yul\":2664:2666   */\n      0x40\n        /* \"#utility.yul\":2652:2661   */\n      dup4\n        /* \"#utility.yul\":2643:2650   */\n      dup6\n        /* \"#utility.yul\":2639:2662   */\n      sub\n        /* \"#utility.yul\":2635:2667   */\n      slt\n        /* \"#utility.yul\":2632:2751   */\n      iszero\n      tag_335\n      jumpi\n        /* \"#utility.yul\":2670:2749   */\n      tag_336\n      tag_278\n      jump\t// in\n    tag_336:\n        /* \"#utility.yul\":2632:2751   */\n    tag_335:\n        /* \"#utility.yul\":2790:2791   */\n      0x00\n        /* \"#utility.yul\":2815:2868   */\n      tag_337\n        /* \"#utility.yul\":2860:2867   */\n      dup6\n        /* \"#utility.yul\":2851:2857   */\n      dup3\n        /* \"#utility.yul\":2840:2849   */\n      dup7\n        /* \"#utility.yul\":2836:2858   */\n      add\n        /* \"#utility.yul\":2815:2868   */\n      tag_283\n      jump\t// in\n    tag_337:\n        /* \"#utility.yul\":2805:2868   */\n      swap3\n      pop\n        /* \"#utility.yul\":2761:2878   */\n      pop\n        /* \"#utility.yul\":2917:2919   */\n      0x20\n        /* \"#utility.yul\":2943:2996   */\n      tag_338\n        /* \"#utility.yul\":2988:2995   */\n      dup6\n        /* \"#utility.yul\":2979:2985   */\n      dup3\n        /* \"#utility.yul\":2968:2977   */\n      dup7\n        /* \"#utility.yul\":2964:2986   */\n      add\n        /* \"#utility.yul\":2943:2996   */\n      tag_286\n      jump\t// in\n    tag_338:\n        /* \"#utility.yul\":2933:2996   */\n      swap2\n      pop\n        /* \"#utility.yul\":2888:3006   */\n      pop\n        /* \"#utility.yul\":2539:3013   */\n      swap3\n      pop\n      swap3\n      swap1\n      pop\n      jump\t// out\n        /* \"#utility.yul\":3019:3109   */\n    tag_287:\n        /* \"#utility.yul\":3053:3060   */\n      0x00\n        /* \"#utility.yul\":3096:3101   */\n      dup2\n        /* \"#utility.yul\":3089:3102   */\n      iszero\n        /* \"#utility.yul\":3082:3103   */\n      iszero\n        /* \"#utility.yul\":3071:3103   */\n      swap1\n      pop\n        /* \"#utility.yul\":3019:3109   */\n      swap2\n      swap1\n      pop\n      jump\t// out\n        /* \"#utility.yul\":3115:3224   */\n    tag_288:\n        /* \"#utility.yul\":3196:3217   */\n      tag_341\n        /* \"#utility.yul\":3211:3216   */\n      dup2\n        /* \"#utility.yul\":3196:3217   */\n      tag_287\n      jump\t// in\n    tag_341:\n        /* \"#utility.yul\":3191:3194   */\n      dup3\n        /* \"#utility.yul\":3184:3218   */\n      mstore\n        /* \"#utility.yul\":3115:3224   */\n      pop\n      pop\n      jump\t// out\n        /* \"#utility.yul\":3230:3440   */\n    tag_38:\n        /* \"#utility.yul\":3317:3321   */\n      0x00\n        /* \"#utility.yul\":3355:3357   */\n      0x20\n        /* \"#utility.yul\":3344:3353   */\n      dup3\n        /* \"#utility.yul\":3340:3358   */\n      add\n        /* \"#utility.yul\":3332:3358   */\n      swap1\n      pop\n        /* \"#utility.yul\":3368:3433   */\n      tag_343\n        /* \"#utility.yul\":3430:3431   */\n      0x00\n        /* \"#utility.yul\":3419:3428   */\n      dup4\n        /* \"#utility.yul\":3415:3432   */\n      add\n        /* \"#utility.yul\":3406:3412   */\n      dup5\n        /* \"#utility.yul\":3368:3433   */\n      tag_288\n      jump\t// in\n    tag_343:\n        /* \"#utility.yul\":3230:3440   */\n      swap3\n      swap2\n      pop\n      pop\n      jump\t// out\n        /* \"#utility.yul\":3446:3775   */\n    tag_41:\n        /* \"#utility.yul\":3505:3511   */\n      0x00\n        /* \"#utility.yul\":3554:3556   */\n      0x20\n        /* \"#utility.yul\":3542:3551   */\n      dup3\n        /* \"#utility.yul\":3533:3540   */\n      dup5\n        /* \"#utility.yul\":3529:3552   */\n      sub\n        /* \"#utility.yul\":3525:3557   */\n      slt\n        /* \"#utility.yul\":3522:3641   */\n      iszero\n      tag_345\n      jumpi\n        /* \"#utility.yul\":3560:3639   */\n      tag_346\n      tag_278\n      jump\t// in\n    tag_346:\n        /* \"#utility.yul\":3522:3641   */\n    tag_345:\n        /* \"#utility.yul\":3680:3681   */\n      0x00\n        /* \"#utility.yul\":3705:3758   */\n      tag_347\n        /* \"#utility.yul\":3750:3757   */\n      dup5\n        /* \"#utility.yul\":3741:3747   */\n      dup3\n        /* \"#utility.yul\":3730:3739   */\n      dup6\n        /* \"#utility.yul\":3726:3748   */\n      add\n        /* \"#utility.yul\":3705:3758   */\n      tag_283\n      jump\t// in\n    tag_347:\n        /* \"#utility.yul\":3695:3758   */\n      swap2\n      pop\n        /* \"#utility.yul\":3651:3768   */\n      pop\n        /* \"#utility.yul\":3446:3775   */\n      swap3\n      swap2\n      pop\n      pop\n      jump\t// out\n        /* \"#utility.yul\":3781:3899   */\n    tag_289:\n        /* \"#utility.yul\":3868:3892   */\n      tag_349\n        /* \"#utility.yul\":3886:3891   */\n      dup2\n        /* \"#utility.yul\":3868:3892   */\n      tag_284\n      jump\t// in\n    tag_349:\n        /* \"#utility.yul\":3863:3866   */\n      dup3\n        /* \"#utility.yul\":3856:3893   */\n      mstore\n        /* \"#utility.yul\":3781:3899   */\n      pop\n      pop\n      jump\t// out\n        /* \"#utility.yul\":3905:4127   */\n    tag_47:\n        /* \"#utility.yul\":3998:4002   */\n      0x00\n        /* \"#utility.yul\":4036:4038   */\n      0x20\n        /* \"#utility.yul\":4025:4034   */\n      dup3\n        /* \"#utility.yul\":4021:4039   */\n      add\n        /* \"#utility.yul\":4013:4039   */\n      swap1\n      pop\n        /* \"#utility.yul\":4049:4120   */\n      tag_351\n        /* \"#utility.yul\":4117:4118   */\n      0x00\n        /* \"#utility.yul\":4106:4115   */\n      dup4\n        /* \"#utility.yul\":4102:4119   */\n      add\n        /* \"#utility.yul\":4093:4099   */\n      dup5\n        /* \"#utility.yul\":4049:4120   */\n      tag_289\n      jump\t// in\n    tag_351:\n        /* \"#utility.yul\":3905:4127   */\n      swap3\n      swap2\n      pop\n      pop\n      jump\t// out\n        /* \"#utility.yul\":4133:4752   */\n    tag_50:\n        /* \"#utility.yul\":4210:4216   */\n      0x00\n        /* \"#utility.yul\":4218:4224   */\n      dup1\n        /* \"#utility.yul\":4226:4232   */\n      0x00\n        /* \"#utility.yul\":4275:4277   */\n      0x60\n        /* \"#utility.yul\":4263:4272   */\n      dup5\n        /* \"#utility.yul\":4254:4261   */\n      dup7\n        /* \"#utility.yul\":4250:4273   */\n      sub\n        /* \"#utility.yul\":4246:4278   */\n      slt\n        /* \"#utility.yul\":4243:4362   */\n      iszero\n      tag_353\n      jumpi\n        /* \"#utility.yul\":4281:4360   */\n      tag_354\n      tag_278\n      jump\t// in\n    tag_354:\n        /* \"#utility.yul\":4243:4362   */\n    tag_353:\n        /* \"#utility.yul\":4401:4402   */\n      0x00\n        /* \"#utility.yul\":4426:4479   */\n      tag_355\n        /* \"#utility.yul\":4471:4478   */\n      dup7\n        /* \"#utility.yul\":4462:4468   */\n      dup3\n        /* \"#utility.yul\":4451:4460   */\n      dup8\n        /* \"#utility.yul\":4447:4469   */\n      add\n        /* \"#utility.yul\":4426:4479   */\n      tag_283\n      jump\t// in\n    tag_355:\n        /* \"#utility.yul\":4416:4479   */\n      swap4\n      pop\n        /* \"#utility.yul\":4372:4489   */\n      pop\n        /* \"#utility.yul\":4528:4530   */\n      0x20\n        /* \"#utility.yul\":4554:4607   */\n      tag_356\n        /* \"#utility.yul\":4599:4606   */\n      dup7\n        /* \"#utility.yul\":4590:4596   */\n      dup3\n        /* \"#utility.yul\":4579:4588   */\n      dup8\n        /* \"#utility.yul\":4575:4597   */\n      add\n        /* \"#utility.yul\":4554:4607   */\n      tag_283\n      jump\t// in\n    tag_356:\n        /* \"#utility.yul\":4544:4607   */\n      swap3\n      pop\n        /* \"#utility.yul\":4499:4617   */\n      pop\n        /* \"#utility.yul\":4656:4658   */\n      0x40\n        /* \"#utility.yul\":4682:4735   */\n      tag_357\n        /* \"#utility.yul\":4727:4734   */\n      dup7\n        /* \"#utility.yul\":4718:4724   */\n      dup3\n        /* \"#utility.yul\":4707:4716   */\n      dup8\n        /* \"#utility.yul\":4703:4725   */\n      add\n        /* \"#utility.yul\":4682:4735   */\n      tag_286\n      jump\t// in\n    tag_357:\n        /* \"#utility.yul\":4672:4735   */\n      swap2\n      pop\n        /* \"#utility.yul\":4627:4745   */\n      pop\n        /* \"#utility.yul\":4133:4752   */\n      swap3\n      pop\n      swap3\n      pop\n      swap3\n      jump\t// out\n        /* \"#utility.yul\":4758:4844   */\n    tag_290:\n        /* \"#utility.yul\":4793:4800   */\n      0x00\n        /* \"#utility.yul\":4833:4837   */\n      0xff\n        /* \"#utility.yul\":4826:4831   */\n      dup3\n        /* \"#utility.yul\":4822:4838   */\n      and\n        /* \"#utility.yul\":4811:4838   */\n      swap1\n      pop\n        /* \"#utility.yul\":4758:4844   */\n      swap2\n      swap1\n      pop\n      jump\t// out\n        /* \"#utility.yul\":4850:4962   */\n    tag_291:\n        /* \"#utility.yul\":4933:4955   */\n      tag_360\n        /* \"#utility.yul\":4949:4954   */\n      dup2\n        /* \"#utility.yul\":4933:4955   */\n      tag_290\n      jump\t// in\n    tag_360:\n        /* \"#utility.yul\":4928:4931   */\n      dup3\n        /* \"#utility.yul\":4921:4956   */\n      mstore\n        /* \"#utility.yul\":4850:4962   */\n      pop\n      pop\n      jump\t// out\n        /* \"#utility.yul\":4968:5182   */\n    tag_56:\n        /* \"#utility.yul\":5057:5061   */\n      0x00\n        /* \"#utility.yul\":5095:5097   */\n      0x20\n        /* \"#utility.yul\":5084:5093   */\n      dup3\n        /* \"#utility.yul\":5080:5098   */\n      add\n        /* \"#utility.yul\":5072:5098   */\n      swap1\n      pop\n        /* \"#utility.yul\":5108:5175   */\n      tag_362\n        /* \"#utility.yul\":5172:5173   */\n      0x00\n        /* \"#utility.yul\":5161:5170   */\n      dup4\n        /* \"#utility.yul\":5157:5174   */\n      add\n        /* \"#utility.yul\":5148:5154   */\n      dup5\n        /* \"#utility.yul\":5108:5175   */\n      tag_291\n      jump\t// in\n    tag_362:\n        /* \"#utility.yul\":4968:5182   */\n      swap3\n      swap2\n      pop\n      pop\n      jump\t// out\n        /* \"#utility.yul\":5188:5517   */\n    tag_65:\n        /* \"#utility.yul\":5247:5253   */\n      0x00\n        /* \"#utility.yul\":5296:5298   */\n      0x20\n        /* \"#utility.yul\":5284:5293   */\n      dup3\n        /* \"#utility.yul\":5275:5282   */\n      dup5\n        /* \"#utility.yul\":5271:5294   */\n      sub\n        /* \"#utility.yul\":5267:5299   */\n      slt\n        /* \"#utility.yul\":5264:5383   */\n      iszero\n      tag_364\n      jumpi\n        /* \"#utility.yul\":5302:5381   */\n      tag_365\n      tag_278\n      jump\t// in\n    tag_365:\n        /* \"#utility.yul\":5264:5383   */\n    tag_364:\n        /* \"#utility.yul\":5422:5423   */\n      0x00\n        /* \"#utility.yul\":5447:5500   */\n      tag_366\n        /* \"#utility.yul\":5492:5499   */\n      dup5\n        /* \"#utility.yul\":5483:5489   */\n      dup3\n        /* \"#utility.yul\":5472:5481   */\n      dup6\n        /* \"#utility.yul\":5468:5490   */\n      add\n        /* \"#utility.yul\":5447:5500   */\n      tag_286\n      jump\t// in\n    tag_366:\n        /* \"#utility.yul\":5437:5500   */\n      swap2\n      pop\n        /* \"#utility.yul\":5393:5510   */\n      pop\n        /* \"#utility.yul\":5188:5517   */\n      swap3\n      swap2\n      pop\n      pop\n      jump\t// out\n        /* \"#utility.yul\":5523:5855   */\n    tag_68:\n        /* \"#utility.yul\":5644:5648   */\n      0x00\n        /* \"#utility.yul\":5682:5684   */\n      0x40\n        /* \"#utility.yul\":5671:5680   */\n      dup3\n        /* \"#utility.yul\":5667:5685   */\n      add\n        /* \"#utility.yul\":5659:5685   */\n      swap1\n      pop\n        /* \"#utility.yul\":5695:5766   */\n      tag_368\n        /* \"#utility.yul\":5763:5764   */\n      0x00\n        /* \"#utility.yul\":5752:5761   */\n      dup4\n        /* \"#utility.yul\":5748:5765   */\n      add\n        /* \"#utility.yul\":5739:5745   */\n      dup6\n        /* \"#utility.yul\":5695:5766   */\n      tag_289\n      jump\t// in\n    tag_368:\n        /* \"#utility.yul\":5776:5848   */\n      tag_369\n        /* \"#utility.yul\":5844:5846   */\n      0x20\n        /* \"#utility.yul\":5833:5842   */\n      dup4\n        /* \"#utility.yul\":5829:5847   */\n      add\n        /* \"#utility.yul\":5820:5826   */\n      dup5\n        /* \"#utility.yul\":5776:5848   */\n      tag_289\n      jump\t// in\n    tag_369:\n        /* \"#utility.yul\":5523:5855   */\n      swap4\n      swap3\n      pop\n      pop\n      pop\n      jump\t// out\n        /* \"#utility.yul\":5861:5979   */\n    tag_292:\n        /* \"#utility.yul\":5948:5972   */\n      tag_371\n        /* \"#utility.yul\":5966:5971   */\n      dup2\n        /* \"#utility.yul\":5948:5972   */\n      tag_281\n      jump\t// in\n    tag_371:\n        /* \"#utility.yul\":5943:5946   */\n      dup3\n        /* \"#utility.yul\":5936:5973   */\n      mstore\n        /* \"#utility.yul\":5861:5979   */\n      pop\n      pop\n      jump\t// out\n        /* \"#utility.yul\":5985:6207   */\n    tag_75:\n        /* \"#utility.yul\":6078:6082   */\n      0x00\n        /* \"#utility.yul\":6116:6118   */\n      0x20\n        /* \"#utility.yul\":6105:6114   */\n      dup3\n        /* \"#utility.yul\":6101:6119   */\n      add\n        /* \"#utility.yul\":6093:6119   */\n      swap1\n      pop\n        /* \"#utility.yul\":6129:6200   */\n      tag_373\n        /* \"#utility.yul\":6197:6198   */\n      0x00\n        /* \"#utility.yul\":6186:6195   */\n      dup4\n        /* \"#utility.yul\":6182:6199   */\n      add\n        /* \"#utility.yul\":6173:6179   */\n      dup5\n        /* \"#utility.yul\":6129:6200   */\n      tag_292\n      jump\t// in\n    tag_373:\n        /* \"#utility.yul\":5985:6207   */\n      swap3\n      swap2\n      pop\n      pop\n      jump\t// out\n        /* \"#utility.yul\":6213:6329   */\n    tag_293:\n        /* \"#utility.yul\":6283:6304   */\n      tag_375\n        /* \"#utility.yul\":6298:6303   */\n      dup2\n        /* \"#utility.yul\":6283:6304   */\n      tag_287\n      jump\t// in\n    tag_375:\n        /* \"#utility.yul\":6276:6281   */\n      dup2\n        /* \"#utility.yul\":6273:6305   */\n      eq\n        /* \"#utility.yul\":6263:6323   */\n      tag_376\n      jumpi\n        /* \"#utility.yul\":6319:6320   */\n      0x00\n        /* \"#utility.yul\":6316:6317   */\n      dup1\n        /* \"#utility.yul\":6309:6321   */\n      revert\n        /* \"#utility.yul\":6263:6323   */\n    tag_376:\n        /* \"#utility.yul\":6213:6329   */\n      pop\n      jump\t// out\n        /* \"#utility.yul\":6335:6468   */\n    tag_294:\n        /* \"#utility.yul\":6378:6383   */\n      0x00\n        /* \"#utility.yul\":6416:6422   */\n      dup2\n        /* \"#utility.yul\":6403:6423   */\n      calldataload\n        /* \"#utility.yul\":6394:6423   */\n      swap1\n      pop\n        /* \"#utility.yul\":6432:6462   */\n      tag_378\n        /* \"#utility.yul\":6456:6461   */\n      dup2\n        /* \"#utility.yul\":6432:6462   */\n      tag_293\n      jump\t// in\n    tag_378:\n        /* \"#utility.yul\":6335:6468   */\n      swap3\n      swap2\n      pop\n      pop\n      jump\t// out\n        /* \"#utility.yul\":6474:6942   */\n    tag_89:\n        /* \"#utility.yul\":6539:6545   */\n      0x00\n        /* \"#utility.yul\":6547:6553   */\n      dup1\n        /* \"#utility.yul\":6596:6598   */\n      0x40\n        /* \"#utility.yul\":6584:6593   */\n      dup4\n        /* \"#utility.yul\":6575:6582   */\n      dup6\n        /* \"#utility.yul\":6571:6594   */\n      sub\n        /* \"#utility.yul\":6567:6599   */\n      slt\n        /* \"#utility.yul\":6564:6683   */\n      iszero\n      tag_380\n      jumpi\n        /* \"#utility.yul\":6602:6681   */\n      tag_381\n      tag_278\n      jump\t// in\n    tag_381:\n        /* \"#utility.yul\":6564:6683   */\n    tag_380:\n        /* \"#utility.yul\":6722:6723   */\n      0x00\n        /* \"#utility.yul\":6747:6800   */\n      tag_382\n        /* \"#utility.yul\":6792:6799   */\n      dup6\n        /* \"#utility.yul\":6783:6789   */\n      dup3\n        /* \"#utility.yul\":6772:6781   */\n      dup7\n        /* \"#utility.yul\":6768:6790   */\n      add\n        /* \"#utility.yul\":6747:6800   */\n      tag_283\n      jump\t// in\n    tag_382:\n        /* \"#utility.yul\":6737:6800   */\n      swap3\n      pop\n        /* \"#utility.yul\":6693:6810   */\n      pop\n        /* \"#utility.yul\":6849:6851   */\n      0x20\n        /* \"#utility.yul\":6875:6925   */\n      tag_383\n        /* \"#utility.yul\":6917:6924   */\n      dup6\n        /* \"#utility.yul\":6908:6914   */\n      dup3\n        /* \"#utility.yul\":6897:6906   */\n      dup7\n        /* \"#utility.yul\":6893:6915   */\n      add\n        /* \"#utility.yul\":6875:6925   */\n      tag_294\n      jump\t// in\n    tag_383:\n        /* \"#utility.yul\":6865:6925   */\n      swap2\n      pop\n        /* \"#utility.yul\":6820:6935   */\n      pop\n        /* \"#utility.yul\":6474:6942   */\n      swap3\n      pop\n      swap3\n      swap1\n      pop\n      jump\t// out\n        /* \"#utility.yul\":6948:7422   */\n    tag_106:\n        /* \"#utility.yul\":7016:7022   */\n      0x00\n        /* \"#utility.yul\":7024:7030   */\n      dup1\n        /* \"#utility.yul\":7073:7075   */\n      0x40\n        /* \"#utility.yul\":7061:7070   */\n      dup4\n        /* \"#utility.yul\":7052:7059   */\n      dup6\n        /* \"#utility.yul\":7048:7071   */\n      sub\n        /* \"#utility.yul\":7044:7076   */\n      slt\n        /* \"#utility.yul\":7041:7160   */\n      iszero\n      tag_385\n      jumpi\n        /* \"#utility.yul\":7079:7158   */\n      tag_386\n      tag_278\n      jump\t// in\n    tag_386:\n        /* \"#utility.yul\":7041:7160   */\n    tag_385:\n        /* \"#utility.yul\":7199:7200   */\n      0x00\n        /* \"#utility.yul\":7224:7277   */\n      tag_387\n        /* \"#utility.yul\":7269:7276   */\n      dup6\n        /* \"#utility.yul\":7260:7266   */\n      dup3\n        /* \"#utility.yul\":7249:7258   */\n      dup7\n        /* \"#utility.yul\":7245:7267   */\n      add\n        /* \"#utility.yul\":7224:7277   */\n      tag_283\n      jump\t// in\n    tag_387:\n        /* \"#utility.yul\":7214:7277   */\n      swap3\n      pop\n        /* \"#utility.yul\":7170:7287   */\n      pop\n        /* \"#utility.yul\":7326:7328   */\n      0x20\n        /* \"#utility.yul\":7352:7405   */\n      tag_388\n        /* \"#utility.yul\":7397:7404   */\n      dup6\n        /* \"#utility.yul\":7388:7394   */\n      dup3\n        /* \"#utility.yul\":7377:7386   */\n      dup7\n        /* \"#utility.yul\":7373:7395   */\n      add\n        /* \"#utility.yul\":7352:7405   */\n      tag_283\n      jump\t// in\n    tag_388:\n        /* \"#utility.yul\":7342:7405   */\n      swap2\n      pop\n        /* \"#utility.yul\":7297:7415   */\n      pop\n        /* \"#utility.yul\":6948:7422   */\n      swap3\n      pop\n      swap3\n      swap1\n      pop\n      jump\t// out\n        /* \"#utility.yul\":7428:7608   */\n    tag_295:\n        /* \"#utility.yul\":7476:7553   */\n      0x4e487b7100000000000000000000000000000000000000000000000000000000\n        /* \"#utility.yul\":7473:7474   */\n      0x00\n        /* \"#utility.yul\":7466:7554   */\n      mstore\n        /* \"#utility.yul\":7573:7577   */\n      0x22\n        /* \"#utility.yul\":7570:7571   */\n      0x04\n        /* \"#utility.yul\":7563:7578   */\n      mstore\n        /* \"#utility.yul\":7597:7601   */\n      0x24\n        /* \"#utility.yul\":7594:7595   */\n      0x00\n        /* \"#utility.yul\":7587:7602   */\n      revert\n        /* \"#utility.yul\":7614:7934   */\n    tag_117:\n        /* \"#utility.yul\":7658:7664   */\n      0x00\n        /* \"#utility.yul\":7695:7696   */\n      0x02\n        /* \"#utility.yul\":7689:7693   */\n      dup3\n        /* \"#utility.yul\":7685:7697   */\n      div\n        /* \"#utility.yul\":7675:7697   */\n      swap1\n      pop\n        /* \"#utility.yul\":7742:7743   */\n      0x01\n        /* \"#utility.yul\":7736:7740   */\n      dup3\n        /* \"#utility.yul\":7732:7744   */\n      and\n        /* \"#utility.yul\":7763:7781   */\n      dup1\n        /* \"#utility.yul\":7753:7834   */\n      tag_391\n      jumpi\n        /* \"#utility.yul\":7819:7823   */\n      0x7f\n        /* \"#utility.yul\":7811:7817   */\n      dup3\n        /* \"#utility.yul\":7807:7824   */\n      and\n        /* \"#utility.yul\":7797:7824   */\n      swap2\n      pop\n        /* \"#utility.yul\":7753:7834   */\n    tag_391:\n        /* \"#utility.yul\":7881:7883   */\n      0x20\n        /* \"#utility.yul\":7873:7879   */\n      dup3\n        /* \"#utility.yul\":7870:7884   */\n      lt\n        /* \"#utility.yul\":7850:7868   */\n      dup2\n        /* \"#utility.yul\":7847:7885   */\n      sub\n        /* \"#utility.yul\":7844:7928   */\n      tag_392\n      jumpi\n        /* \"#utility.yul\":7900:7918   */\n      tag_393\n      tag_295\n      jump\t// in\n    tag_393:\n        /* \"#utility.yul\":7844:7928   */\n    tag_392:\n        /* \"#utility.yul\":7665:7934   */\n      pop\n        /* \"#utility.yul\":7614:7934   */\n      swap2\n      swap1\n      pop\n      jump\t// out\n        /* \"#utility.yul\":7940:8120   */\n    tag_296:\n        /* \"#utility.yul\":7988:8065   */\n      0x4e487b7100000000000000000000000000000000000000000000000000000000\n        /* \"#utility.yul\":7985:7986   */\n      0x00\n        /* \"#utility.yul\":7978:8066   */\n      mstore\n        /* \"#utility.yul\":8085:8089   */\n      0x11\n        /* \"#utility.yul\":8082:8083   */\n      0x04\n        /* \"#utility.yul\":8075:8090   */\n      mstore\n        /* \"#utility.yul\":8109:8113   */\n      0x24\n        /* \"#utility.yul\":8106:8107   */\n      0x00\n        /* \"#utility.yul\":8099:8114   */\n      revert\n        /* \"#utility.yul\":8126:8536   */\n    tag_144:\n        /* \"#utility.yul\":8166:8173   */\n      0x00\n        /* \"#utility.yul\":8189:8209   */\n      tag_396\n        /* \"#utility.yul\":8207:8208   */\n      dup3\n        /* \"#utility.yul\":8189:8209   */\n      tag_284\n      jump\t// in\n    tag_396:\n        /* \"#utility.yul\":8184:8209   */\n      swap2\n      pop\n        /* \"#utility.yul\":8223:8243   */\n      tag_397\n        /* \"#utility.yul\":8241:8242   */\n      dup4\n        /* \"#utility.yul\":8223:8243   */\n      tag_284\n      jump\t// in\n    tag_397:\n        /* \"#utility.yul\":8218:8243   */\n      swap3\n      pop\n        /* \"#utility.yul\":8278:8279   */\n      dup3\n        /* \"#utility.yul\":8275:8276   */\n      dup3\n        /* \"#utility.yul\":8271:8280   */\n      mul\n        /* \"#utility.yul\":8300:8330   */\n      tag_398\n        /* \"#utility.yul\":8318:8329   */\n      dup2\n        /* \"#utility.yul\":8300:8330   */\n      tag_284\n      jump\t// in\n    tag_398:\n        /* \"#utility.yul\":8289:8330   */\n      swap2\n      pop\n        /* \"#utility.yul\":8479:8480   */\n      dup3\n        /* \"#utility.yul\":8470:8477   */\n      dup3\n        /* \"#utility.yul\":8466:8481   */\n      div\n        /* \"#utility.yul\":8463:8464   */\n      dup5\n        /* \"#utility.yul\":8460:8482   */\n      eq\n        /* \"#utility.yul\":8440:8441   */\n      dup4\n        /* \"#utility.yul\":8433:8442   */\n      iszero\n        /* \"#utility.yul\":8413:8496   */\n      or\n        /* \"#utility.yul\":8390:8529   */\n      tag_399\n      jumpi\n        /* \"#utility.yul\":8509:8527   */\n      tag_400\n      tag_296\n      jump\t// in\n    tag_400:\n        /* \"#utility.yul\":8390:8529   */\n    tag_399:\n        /* \"#utility.yul\":8174:8536   */\n      pop\n        /* \"#utility.yul\":8126:8536   */\n      swap3\n      swap2\n      pop\n      pop\n      jump\t// out\n        /* \"#utility.yul\":8542:8722   */\n    tag_297:\n        /* \"#utility.yul\":8590:8667   */\n      0x4e487b7100000000000000000000000000000000000000000000000000000000\n        /* \"#utility.yul\":8587:8588   */\n      0x00\n        /* \"#utility.yul\":8580:8668   */\n      mstore\n        /* \"#utility.yul\":8687:8691   */\n      0x12\n        /* \"#utility.yul\":8684:8685   */\n      0x04\n        /* \"#utility.yul\":8677:8692   */\n      mstore\n        /* \"#utility.yul\":8711:8715   */\n      0x24\n        /* \"#utility.yul\":8708:8709   */\n      0x00\n        /* \"#utility.yul\":8701:8716   */\n      revert\n        /* \"#utility.yul\":8728:8913   */\n    tag_146:\n        /* \"#utility.yul\":8768:8769   */\n      0x00\n        /* \"#utility.yul\":8785:8805   */\n      tag_403\n        /* \"#utility.yul\":8803:8804   */\n      dup3\n        /* \"#utility.yul\":8785:8805   */\n      tag_284\n      jump\t// in\n    tag_403:\n        /* \"#utility.yul\":8780:8805   */\n      swap2\n      pop\n        /* \"#utility.yul\":8819:8839   */\n      tag_404\n        /* \"#utility.yul\":8837:8838   */\n      dup4\n        /* \"#utility.yul\":8819:8839   */\n      tag_284\n      jump\t// in\n    tag_404:\n        /* \"#utility.yul\":8814:8839   */\n      swap3\n      pop\n        /* \"#utility.yul\":8858:8859   */\n      dup3\n        /* \"#utility.yul\":8848:8883   */\n      tag_405\n      jumpi\n        /* \"#utility.yul\":8863:8881   */\n      tag_406\n      tag_297\n      jump\t// in\n    tag_406:\n        /* \"#utility.yul\":8848:8883   */\n    tag_405:\n        /* \"#utility.yul\":8905:8906   */\n      dup3\n        /* \"#utility.yul\":8902:8903   */\n      dup3\n        /* \"#utility.yul\":8898:8907   */\n      div\n        /* \"#utility.yul\":8893:8907   */\n      swap1\n      pop\n        /* \"#utility.yul\":8728:8913   */\n      swap3\n      swap2\n      pop\n      pop\n      jump\t// out\n        /* \"#utility.yul\":8919:9113   */\n    tag_148:\n        /* \"#utility.yul\":8959:8963   */\n      0x00\n        /* \"#utility.yul\":8979:8999   */\n      tag_408\n        /* \"#utility.yul\":8997:8998   */\n      dup3\n        /* \"#utility.yul\":8979:8999   */\n      tag_284\n      jump\t// in\n    tag_408:\n        /* \"#utility.yul\":8974:8999   */\n      swap2\n      pop\n        /* \"#utility.yul\":9013:9033   */\n      tag_409\n        /* \"#utility.yul\":9031:9032   */\n      dup4\n        /* \"#utility.yul\":9013:9033   */\n      tag_284\n      jump\t// in\n    tag_409:\n        /* \"#utility.yul\":9008:9033   */\n      swap3\n      pop\n        /* \"#utility.yul\":9057:9058   */\n      dup3\n        /* \"#utility.yul\":9054:9055   */\n      dup3\n        /* \"#utility.yul\":9050:9059   */\n      sub\n        /* \"#utility.yul\":9042:9059   */\n      swap1\n      pop\n        /* \"#utility.yul\":9081:9082   */\n      dup2\n        /* \"#utility.yul\":9075:9079   */\n      dup2\n        /* \"#utility.yul\":9072:9083   */\n      gt\n        /* \"#utility.yul\":9069:9106   */\n      iszero\n      tag_410\n      jumpi\n        /* \"#utility.yul\":9086:9104   */\n      tag_411\n      tag_296\n      jump\t// in\n    tag_411:\n        /* \"#utility.yul\":9069:9106   */\n    tag_410:\n        /* \"#utility.yul\":8919:9113   */\n      swap3\n      swap2\n      pop\n      pop\n      jump\t// out\n        /* \"#utility.yul\":9119:9561   */\n    tag_200:\n        /* \"#utility.yul\":9268:9272   */\n      0x00\n        /* \"#utility.yul\":9306:9308   */\n      0x60\n        /* \"#utility.yul\":9295:9304   */\n      dup3\n        /* \"#utility.yul\":9291:9309   */\n      add\n        /* \"#utility.yul\":9283:9309   */\n      swap1\n      pop\n        /* \"#utility.yul\":9319:9390   */\n      tag_413\n        /* \"#utility.yul\":9387:9388   */\n      0x00\n        /* \"#utility.yul\":9376:9385   */\n      dup4\n        /* \"#utility.yul\":9372:9389   */\n      add\n        /* \"#utility.yul\":9363:9369   */\n      dup7\n        /* \"#utility.yul\":9319:9390   */\n      tag_292\n      jump\t// in\n    tag_413:\n        /* \"#utility.yul\":9400:9472   */\n      tag_414\n        /* \"#utility.yul\":9468:9470   */\n      0x20\n        /* \"#utility.yul\":9457:9466   */\n      dup4\n        /* \"#utility.yul\":9453:9471   */\n      add\n        /* \"#utility.yul\":9444:9450   */\n      dup6\n        /* \"#utility.yul\":9400:9472   */\n      tag_289\n      jump\t// in\n    tag_414:\n        /* \"#utility.yul\":9482:9554   */\n      tag_415\n        /* \"#utility.yul\":9550:9552   */\n      0x40\n        /* \"#utility.yul\":9539:9548   */\n      dup4\n        /* \"#utility.yul\":9535:9553   */\n      add\n        /* \"#utility.yul\":9526:9532   */\n      dup5\n        /* \"#utility.yul\":9482:9554   */\n      tag_289\n      jump\t// in\n    tag_415:\n        /* \"#utility.yul\":9119:9561   */\n      swap5\n      swap4\n      pop\n      pop\n      pop\n      pop\n      jump\t// out\n        /* \"#utility.yul\":9567:9737   */\n    tag_298:\n        /* \"#utility.yul\":9707:9729   */\n      0x5061757361626c653a206e6f7420706175736564000000000000000000000000\n        /* \"#utility.yul\":9703:9704   */\n      0x00\n        /* \"#utility.yul\":9695:9701   */\n      dup3\n        /* \"#utility.yul\":9691:9705   */\n      add\n        /* \"#utility.yul\":9684:9730   */\n      mstore\n        /* \"#utility.yul\":9567:9737   */\n      pop\n      jump\t// out\n        /* \"#utility.yul\":9743:10109   */\n    tag_299:\n        /* \"#utility.yul\":9885:9888   */\n      0x00\n        /* \"#utility.yul\":9906:9973   */\n      tag_418\n        /* \"#utility.yul\":9970:9972   */\n      0x14\n        /* \"#utility.yul\":9965:9968   */\n      dup4\n        /* \"#utility.yul\":9906:9973   */\n      tag_273\n      jump\t// in\n    tag_418:\n        /* \"#utility.yul\":9899:9973   */\n      swap2\n      pop\n        /* \"#utility.yul\":9982:10075   */\n      tag_419\n        /* \"#utility.yul\":10071:10074   */\n      dup3\n        /* \"#utility.yul\":9982:10075   */\n      tag_298\n      jump\t// in\n    tag_419:\n        /* \"#utility.yul\":10100:10102   */\n      0x20\n        /* \"#utility.yul\":10095:10098   */\n      dup3\n        /* \"#utility.yul\":10091:10103   */\n      add\n        /* \"#utility.yul\":10084:10103   */\n      swap1\n      pop\n        /* \"#utility.yul\":9743:10109   */\n      swap2\n      swap1\n      pop\n      jump\t// out\n        /* \"#utility.yul\":10115:10534   */\n    tag_256:\n        /* \"#utility.yul\":10281:10285   */\n      0x00\n        /* \"#utility.yul\":10319:10321   */\n      0x20\n        /* \"#utility.yul\":10308:10317   */\n      dup3\n        /* \"#utility.yul\":10304:10322   */\n      add\n        /* \"#utility.yul\":10296:10322   */\n      swap1\n      pop\n        /* \"#utility.yul\":10368:10377   */\n      dup2\n        /* \"#utility.yul\":10362:10366   */\n      dup2\n        /* \"#utility.yul\":10358:10378   */\n      sub\n        /* \"#utility.yul\":10354:10355   */\n      0x00\n        /* \"#utility.yul\":10343:10352   */\n      dup4\n        /* \"#utility.yul\":10339:10356   */\n      add\n        /* \"#utility.yul\":10332:10379   */\n      mstore\n        /* \"#utility.yul\":10396:10527   */\n      tag_421\n        /* \"#utility.yul\":10522:10526   */\n      dup2\n        /* \"#utility.yul\":10396:10527   */\n      tag_299\n      jump\t// in\n    tag_421:\n        /* \"#utility.yul\":10388:10527   */\n      swap1\n      pop\n        /* \"#utility.yul\":10115:10534   */\n      swap2\n      swap1\n      pop\n      jump\t// out\n        /* \"#utility.yul\":10540:10706   */\n    tag_300:\n        /* \"#utility.yul\":10680:10698   */\n      0x5061757361626c653a2070617573656400000000000000000000000000000000\n        /* \"#utility.yul\":10676:10677   */\n      0x00\n        /* \"#utility.yul\":10668:10674   */\n      dup3\n        /* \"#utility.yul\":10664:10678   */\n      add\n        /* \"#utility.yul\":10657:10699   */\n      mstore\n        /* \"#utility.yul\":10540:10706   */\n      pop\n      jump\t// out\n        /* \"#utility.yul\":10712:11078   */\n    tag_301:\n        /* \"#utility.yul\":10854:10857   */\n      0x00\n        /* \"#utility.yul\":10875:10942   */\n      tag_424\n        /* \"#utility.yul\":10939:10941   */\n      0x10\n        /* \"#utility.yul\":10934:10937   */\n      dup4\n        /* \"#utility.yul\":10875:10942   */\n      tag_273\n      jump\t// in\n    tag_424:\n        /* \"#utility.yul\":10868:10942   */\n      swap2\n      pop\n        /* \"#utility.yul\":10951:11044   */\n      tag_425\n        /* \"#utility.yul\":11040:11043   */\n      dup3\n        /* \"#utility.yul\":10951:11044   */\n      tag_300\n      jump\t// in\n    tag_425:\n        /* \"#utility.yul\":11069:11071   */\n      0x20\n        /* \"#utility.yul\":11064:11067   */\n      dup3\n        /* \"#utility.yul\":11060:11072   */\n      add\n        /* \"#utility.yul\":11053:11072   */\n      swap1\n      pop\n        /* \"#utility.yul\":10712:11078   */\n      swap2\n      swap1\n      pop\n      jump\t// out\n        /* \"#utility.yul\":11084:11503   */\n    tag_261:\n        /* \"#utility.yul\":11250:11254   */\n      0x00\n        /* \"#utility.yul\":11288:11290   */\n      0x20\n        /* \"#utility.yul\":11277:11286   */\n      dup3\n        /* \"#utility.yul\":11273:11291   */\n      add\n        /* \"#utility.yul\":11265:11291   */\n      swap1\n      pop\n        /* \"#utility.yul\":11337:11346   */\n      dup2\n        /* \"#utility.yul\":11331:11335   */\n      dup2\n        /* \"#utility.yul\":11327:11347   */\n      sub\n        /* \"#utility.yul\":11323:11324   */\n      0x00\n        /* \"#utility.yul\":11312:11321   */\n      dup4\n        /* \"#utility.yul\":11308:11325   */\n      add\n        /* \"#utility.yul\":11301:11348   */\n      mstore\n        /* \"#utility.yul\":11365:11496   */\n      tag_427\n        /* \"#utility.yul\":11491:11495   */\n      dup2\n        /* \"#utility.yul\":11365:11496   */\n      tag_301\n      jump\t// in\n    tag_427:\n        /* \"#utility.yul\":11357:11496   */\n      swap1\n      pop\n        /* \"#utility.yul\":11084:11503   */\n      swap2\n      swap1\n      pop\n      jump\t// out\n        /* \"#utility.yul\":11509:11700   */\n    tag_265:\n        /* \"#utility.yul\":11549:11552   */\n      0x00\n        /* \"#utility.yul\":11568:11588   */\n      tag_429\n        /* \"#utility.yul\":11586:11587   */\n      dup3\n        /* \"#utility.yul\":11568:11588   */\n      tag_284\n      jump\t// in\n    tag_429:\n        /* \"#utility.yul\":11563:11588   */\n      swap2\n      pop\n        /* \"#utility.yul\":11602:11622   */\n      tag_430\n        /* \"#utility.yul\":11620:11621   */\n      dup4\n        /* \"#utility.yul\":11602:11622   */\n      tag_284\n      jump\t// in\n    tag_430:\n        /* \"#utility.yul\":11597:11622   */\n      swap3\n      pop\n        /* \"#utility.yul\":11645:11646   */\n      dup3\n        /* \"#utility.yul\":11642:11643   */\n      dup3\n        /* \"#utility.yul\":11638:11647   */\n      add\n        /* \"#utility.yul\":11631:11647   */\n      swap1\n      pop\n        /* \"#utility.yul\":11666:11669   */\n      dup1\n        /* \"#utility.yul\":11663:11664   */\n      dup3\n        /* \"#utility.yul\":11660:11670   */\n      gt\n        /* \"#utility.yul\":11657:11693   */\n      iszero\n      tag_431\n      jumpi\n        /* \"#utility.yul\":11673:11691   */\n      tag_432\n      tag_296\n      jump\t// in\n    tag_432:\n        /* \"#utility.yul\":11657:11693   */\n    tag_431:\n        /* \"#utility.yul\":11509:11700   */\n      swap3\n      swap2\n      pop\n      pop\n      jump\t// out\n\n    auxdata: 0xa264697066735822122030bd0dafb83c3300e300f993d3291a7b5c52d803abedad8f2c27452dea9429c464736f6c63430008140033\n}\n",
				"bytecode": {
					"linkReferences": {},
					"object": "608060405234801562000010575f80fd5b5060405162002f5e38038062002f5e833981810160405281019062000036919062000b6c565b80858581600390816200004a919062000e5c565b5080600490816200005c919062000e5c565b5050505f73ffffffffffffffffffffffffffffffffffffffff168173ffffffffffffffffffffffffffffffffffffffff1603620000d2575f6040517f1e4fbdf7000000000000000000000000000000000000000000000000000000008152600401620000c9919062000f51565b60405180910390fd5b620000e3816200033060201b60201c565b505f600560146101000a81548160ff0219169083151502179055505f73ffffffffffffffffffffffffffffffffffffffff168373ffffffffffffffffffffffffffffffffffffffff160362000164576040517fcfe2ea6300000000000000000000000000000000000000000000000000000000815260040160405180910390fd5b6064821115620001a0576040517f5ba09ae000000000000000000000000000000000000000000000000000000000815260040160405180910390fd5b8260065f6101000a81548173ffffffffffffffffffffffffffffffffffffffff021916908373ffffffffffffffffffffffffffffffffffffffff16021790555081600781905550600160085f8373ffffffffffffffffffffffffffffffffffffffff1673ffffffffffffffffffffffffffffffffffffffff1681526020019081526020015f205f6101000a81548160ff021916908315150217905550600160085f8573ffffffffffffffffffffffffffffffffffffffff1673ffffffffffffffffffffffffffffffffffffffff1681526020019081526020015f205f6101000a81548160ff021916908315150217905550600160085f3073ffffffffffffffffffffffffffffffffffffffff1673ffffffffffffffffffffffffffffffffffffffff1681526020019081526020015f205f6101000a81548160ff0219169083151502179055506200032581620002fb620003f360201b60201c565b600a620003099190620010f5565b620f424062000319919062001145565b620003fb60201b60201c565b505050505062001377565b5f60055f9054906101000a900473ffffffffffffffffffffffffffffffffffffffff1690508160055f6101000a81548173ffffffffffffffffffffffffffffffffffffffff021916908373ffffffffffffffffffffffffffffffffffffffff1602179055508173ffffffffffffffffffffffffffffffffffffffff168173ffffffffffffffffffffffffffffffffffffffff167f8be0079c531659141344cd1fd0a4f28419497f9722a3daafe3b4186f6b6457e060405160405180910390a35050565b5f6012905090565b5f73ffffffffffffffffffffffffffffffffffffffff168273ffffffffffffffffffffffffffffffffffffffff16036200046e575f6040517fec442f0500000000000000000000000000000000000000000000000000000000815260040162000465919062000f51565b60405180910390fd5b620004815f83836200048560201b60201c565b5050565b62000495620006bf60201b60201c565b5f73ffffffffffffffffffffffffffffffffffffffff168373ffffffffffffffffffffffffffffffffffffffff161480620004fb57505f73ffffffffffffffffffffffffffffffffffffffff168273ffffffffffffffffffffffffffffffffffffffff16145b806200054d575060085f8473ffffffffffffffffffffffffffffffffffffffff1673ffffffffffffffffffffffffffffffffffffffff1681526020019081526020015f205f9054906101000a900460ff165b806200059f575060085f8373ffffffffffffffffffffffffffffffffffffffff1673ffffffffffffffffffffffffffffffffffffffff1681526020019081526020015f205f9054906101000a900460ff165b80620005ac57505f600754145b15620005cb57620005c58383836200071460201b60201c565b620006ba565b5f606460075483620005de919062001145565b620005ea9190620011bc565b90505f8183620005fb9190620011f3565b90505f8211156200063b576200063a8560065f9054906101000a900473ffffffffffffffffffffffffffffffffffffffff16846200071460201b60201c565b5b6200064e8585836200071460201b60201c565b8373ffffffffffffffffffffffffffffffffffffffff168573ffffffffffffffffffffffffffffffffffffffff167fddb30886d90db45adc1b2edcbabe12227896c25143cd155d3bf62ec8eff678568484604051620006af9291906200123e565b60405180910390a350505b505050565b620006cf6200093860201b60201c565b1562000712576040517f08c379a00000000000000000000000000000000000000000000000000000000081526004016200070990620012c7565b60405180910390fd5b565b5f73ffffffffffffffffffffffffffffffffffffffff168373ffffffffffffffffffffffffffffffffffffffff160362000768578060025f8282546200075b9190620012e7565b9250508190555062000839565b5f805f8573ffffffffffffffffffffffffffffffffffffffff1673ffffffffffffffffffffffffffffffffffffffff1681526020019081526020015f2054905081811015620007f4578381836040517fe450d38c000000000000000000000000000000000000000000000000000000008152600401620007eb9392919062001321565b60405180910390fd5b8181035f808673ffffffffffffffffffffffffffffffffffffffff1673ffffffffffffffffffffffffffffffffffffffff1681526020019081526020015f2081905550505b5f73ffffffffffffffffffffffffffffffffffffffff168273ffffffffffffffffffffffffffffffffffffffff160362000882578060025f8282540392505081905550620008cc565b805f808473ffffffffffffffffffffffffffffffffffffffff1673ffffffffffffffffffffffffffffffffffffffff1681526020019081526020015f205f82825401925050819055505b8173ffffffffffffffffffffffffffffffffffffffff168373ffffffffffffffffffffffffffffffffffffffff167fddf252ad1be2c89b69c2b068fc378daa952ba7f163c4a11628f55a4df523b3ef836040516200092b91906200135c565b60405180910390a3505050565b5f600560149054906101000a900460ff16905090565b5f604051905090565b5f80fd5b5f80fd5b5f80fd5b5f80fd5b5f601f19601f8301169050919050565b7f4e487b71000000000000000000000000000000000000000000000000000000005f52604160045260245ffd5b620009af8262000967565b810181811067ffffffffffffffff82111715620009d157620009d062000977565b5b80604052505050565b5f620009e56200094e565b9050620009f38282620009a4565b919050565b5f67ffffffffffffffff82111562000a155762000a1462000977565b5b62000a208262000967565b9050602081019050919050565b5f5b8381101562000a4c57808201518184015260208101905062000a2f565b5f8484015250505050565b5f62000a6d62000a6784620009f8565b620009da565b90508281526020810184848401111562000a8c5762000a8b62000963565b5b62000a9984828562000a2d565b509392505050565b5f82601f83011262000ab85762000ab76200095f565b5b815162000aca84826020860162000a57565b91505092915050565b5f73ffffffffffffffffffffffffffffffffffffffff82169050919050565b5f62000afe8262000ad3565b9050919050565b62000b108162000af2565b811462000b1b575f80fd5b50565b5f8151905062000b2e8162000b05565b92915050565b5f819050919050565b62000b488162000b34565b811462000b53575f80fd5b50565b5f8151905062000b668162000b3d565b92915050565b5f805f805f60a0868803121562000b885762000b8762000957565b5b5f86015167ffffffffffffffff81111562000ba85762000ba76200095b565b5b62000bb68882890162000aa1565b955050602086015167ffffffffffffffff81111562000bda5762000bd96200095b565b5b62000be88882890162000aa1565b945050604062000bfb8882890162000b1e565b935050606062000c0e8882890162000b56565b925050608062000c218882890162000b1e565b9150509295509295909350565b5f81519050919050565b7f4e487b71000000000000000000000000000000000000000000000000000000005f52602260045260245ffd5b5f600282049050600182168062000c7d57607f821691505b60208210810362000c935762000c9262000c38565b5b50919050565b5f819050815f5260205f209050919050565b5f6020601f8301049050919050565b5f82821b905092915050565b5f6008830262000cf77fffffffffffffffffffffffffffffffffffffffffffffffffffffffffffffffff8262000cba565b62000d03868362000cba565b95508019841693508086168417925050509392505050565b5f819050919050565b5f62000d4462000d3e62000d388462000b34565b62000d1b565b62000b34565b9050919050565b5f819050919050565b62000d5f8362000d24565b62000d7762000d6e8262000d4b565b84845462000cc6565b825550505050565b5f90565b62000d8d62000d7f565b62000d9a81848462000d54565b505050565b5b8181101562000dc15762000db55f8262000d83565b60018101905062000da0565b5050565b601f82111562000e105762000dda8162000c99565b62000de58462000cab565b8101602085101562000df5578190505b62000e0d62000e048562000cab565b83018262000d9f565b50505b505050565b5f82821c905092915050565b5f62000e325f198460080262000e15565b1980831691505092915050565b5f62000e4c838362000e21565b9150826002028217905092915050565b62000e678262000c2e565b67ffffffffffffffff81111562000e835762000e8262000977565b5b62000e8f825462000c65565b62000e9c82828562000dc5565b5f60209050601f83116001811462000ed2575f841562000ebd578287015190505b62000ec9858262000e3f565b86555062000f38565b601f19841662000ee28662000c99565b5f5b8281101562000f0b5784890151825560018201915060208501945060208101905062000ee4565b8683101562000f2b578489015162000f27601f89168262000e21565b8355505b6001600288020188555050505b505050505050565b62000f4b8162000af2565b82525050565b5f60208201905062000f665f83018462000f40565b92915050565b7f4e487b71000000000000000000000000000000000000000000000000000000005f52601160045260245ffd5b5f8160011c9050919050565b5f808291508390505b600185111562000ff65780860481111562000fce5762000fcd62000f6c565b5b600185161562000fde5780820291505b808102905062000fee8562000f99565b945062000fae565b94509492505050565b5f82620010105760019050620010e2565b816200101f575f9050620010e2565b8160018114620010385760028114620010435762001079565b6001915050620010e2565b60ff84111562001058576200105762000f6c565b5b8360020a91508482111562001072576200107162000f6c565b5b50620010e2565b5060208310610133831016604e8410600b8410161715620010b35782820a905083811115620010ad57620010ac62000f6c565b5b620010e2565b620010c2848484600162000fa5565b92509050818404811115620010dc57620010db62000f6c565b5b81810290505b9392505050565b5f60ff82169050919050565b5f620011018262000b34565b91506200110e83620010e9565b92506200113d7fffffffffffffffffffffffffffffffffffffffffffffffffffffffffffffffff848462000fff565b905092915050565b5f620011518262000b34565b91506200115e8362000b34565b92508282026200116e8162000b34565b9150828204841483151762001188576200118762000f6c565b5b5092915050565b7f4e487b71000000000000000000000000000000000000000000000000000000005f52601260045260245ffd5b5f620011c88262000b34565b9150620011d58362000b34565b925082620011e857620011e76200118f565b5b828204905092915050565b5f620011ff8262000b34565b91506200120c8362000b34565b925082820390508181111562001227576200122662000f6c565b5b92915050565b620012388162000b34565b82525050565b5f604082019050620012535f8301856200122d565b6200126260208301846200122d565b9392505050565b5f82825260208201905092915050565b7f5061757361626c653a20706175736564000000000000000000000000000000005f82015250565b5f620012af60108362001269565b9150620012bc8262001279565b602082019050919050565b5f6020820190508181035f830152620012e081620012a1565b9050919050565b5f620012f38262000b34565b9150620013008362000b34565b92508282019050808211156200131b576200131a62000f6c565b5b92915050565b5f606082019050620013365f83018662000f40565b6200134560208301856200122d565b6200135460408301846200122d565b949350505050565b5f602082019050620013715f8301846200122d565b92915050565b611bd980620013855f395ff3fe608060405234801561000f575f80fd5b506004361061014b575f3560e01c806370a08231116100c1578063a071dcf41161007a578063a071dcf41461037c578063a9059cbb1461039a578063c4081a4c146103ca578063dd62ed3e146103e6578063f0f4426014610416578063f2fde38b146104325761014b565b806370a08231146102e0578063715018a6146103105780638456cb591461031a5780638da5cb5b146103245780638ebfc7961461034257806395d89b411461035e5761014b565b8063313ce56711610113578063313ce5671461021b5780633f4218e0146102395780633f4ba83a14610269578063483a9310146102735780635c975abb146102a457806361d027b3146102c25761014b565b806306fdde031461014f578063095ea7b31461016d57806310fdad701461019d57806318160ddd146101cd57806323b872dd146101eb575b5f80fd5b61015761044e565b60405161016491906115f7565b60405180910390f35b610187600480360381019061018291906116a8565b6104de565b6040516101949190611700565b60405180910390f35b6101b760048036038101906101b29190611719565b610500565b6040516101c49190611700565b60405180910390f35b6101d5610552565b6040516101e29190611753565b60405180910390f35b6102056004803603810190610200919061176c565b61055b565b6040516102129190611700565b60405180910390f35b610223610589565b60405161023091906117d7565b60405180910390f35b610253600480360381019061024e9190611719565b610591565b6040516102609190611700565b60405180910390f35b6102716105ae565b005b61028d600480360381019061028891906117f0565b6105c0565b60405161029b92919061181b565b60405180910390f35b6102ac6105f1565b6040516102b99190611700565b60405180910390f35b6102ca610607565b6040516102d79190611851565b60405180910390f35b6102fa60048036038101906102f59190611719565b61062c565b6040516103079190611753565b60405180910390f35b610318610671565b005b610322610684565b005b61032c610696565b6040516103399190611851565b60405180910390f35b61035c60048036038101906103579190611894565b6106be565b005b61036661076c565b60405161037391906115f7565b60405180910390f35b6103846107fc565b6040516103919190611753565b60405180910390f35b6103b460048036038101906103af91906116a8565b610802565b6040516103c19190611700565b60405180910390f35b6103e460048036038101906103df91906117f0565b610824565b005b61040060048036038101906103fb91906118d2565b6108b1565b60405161040d9190611753565b60405180910390f35b610430600480360381019061042b9190611719565b610933565b005b61044c60048036038101906104479190611719565b610ab8565b005b60606003805461045d9061193d565b80601f01602080910402602001604051908101604052809291908181526020018280546104899061193d565b80156104d45780601f106104ab576101008083540402835291602001916104d4565b820191905f5260205f20905b8154815290600101906020018083116104b757829003601f168201915b5050505050905090565b5f806104e8610b3c565b90506104f5818585610b43565b600191505092915050565b5f60085f8373ffffffffffffffffffffffffffffffffffffffff1673ffffffffffffffffffffffffffffffffffffffff1681526020019081526020015f205f9054906101000a900460ff169050919050565b5f600254905090565b5f80610565610b3c565b9050610572858285610b55565b61057d858585610be8565b60019150509392505050565b5f6012905090565b6008602052805f5260405f205f915054906101000a900460ff1681565b6105b6610cd8565b6105be610d5f565b565b5f806064600754846105d2919061199a565b6105dc9190611a08565b915081836105ea9190611a38565b9050915091565b5f600560149054906101000a900460ff16905090565b60065f9054906101000a900473ffffffffffffffffffffffffffffffffffffffff1681565b5f805f8373ffffffffffffffffffffffffffffffffffffffff1673ffffffffffffffffffffffffffffffffffffffff1681526020019081526020015f20549050919050565b610679610cd8565b6106825f610dc1565b565b61068c610cd8565b610694610e84565b565b5f60055f9054906101000a900473ffffffffffffffffffffffffffffffffffffffff16905090565b6106c6610cd8565b8060085f8473ffffffffffffffffffffffffffffffffffffffff1673ffffffffffffffffffffffffffffffffffffffff1681526020019081526020015f205f6101000a81548160ff0219169083151502179055508173ffffffffffffffffffffffffffffffffffffffff167f210f2a4a589e25d95b24cbdb060d26ae79bbe123a564d0f973503d48badd00ca826040516107609190611700565b60405180910390a25050565b60606004805461077b9061193d565b80601f01602080910402602001604051908101604052809291908181526020018280546107a79061193d565b80156107f25780601f106107c9576101008083540402835291602001916107f2565b820191905f5260205f20905b8154815290600101906020018083116107d557829003601f168201915b5050505050905090565b60075481565b5f8061080c610b3c565b9050610819818585610be8565b600191505092915050565b61082c610cd8565b6064811115610867576040517f5ba09ae000000000000000000000000000000000000000000000000000000000815260040160405180910390fd5b5f6007549050816007819055507f2211abb4bbc4d80b7505c31b54d01d15ac6e33a42c59540d309d89daf759063a81836040516108a592919061181b565b60405180910390a15050565b5f60015f8473ffffffffffffffffffffffffffffffffffffffff1673ffffffffffffffffffffffffffffffffffffffff1681526020019081526020015f205f8373ffffffffffffffffffffffffffffffffffffffff1673ffffffffffffffffffffffffffffffffffffffff1681526020019081526020015f2054905092915050565b61093b610cd8565b5f73ffffffffffffffffffffffffffffffffffffffff168173ffffffffffffffffffffffffffffffffffffffff16036109a0576040517fcfe2ea6300000000000000000000000000000000000000000000000000000000815260040160405180910390fd5b5f60065f9054906101000a900473ffffffffffffffffffffffffffffffffffffffff1690508160065f6101000a81548173ffffffffffffffffffffffffffffffffffffffff021916908373ffffffffffffffffffffffffffffffffffffffff160217905550600160085f8473ffffffffffffffffffffffffffffffffffffffff1673ffffffffffffffffffffffffffffffffffffffff1681526020019081526020015f205f6101000a81548160ff0219169083151502179055508173ffffffffffffffffffffffffffffffffffffffff168173ffffffffffffffffffffffffffffffffffffffff167f4ab5be82436d353e61ca18726e984e561f5c1cc7c6d38b29d2553c790434705a60405160405180910390a35050565b610ac0610cd8565b5f73ffffffffffffffffffffffffffffffffffffffff168173ffffffffffffffffffffffffffffffffffffffff1603610b30575f6040517f1e4fbdf7000000000000000000000000000000000000000000000000000000008152600401610b279190611851565b60405180910390fd5b610b3981610dc1565b50565b5f33905090565b610b508383836001610ee7565b505050565b5f610b6084846108b1565b90507fffffffffffffffffffffffffffffffffffffffffffffffffffffffffffffffff811015610be25781811015610bd3578281836040517ffb8f41b2000000000000000000000000000000000000000000000000000000008152600401610bca93929190611a6b565b60405180910390fd5b610be184848484035f610ee7565b5b50505050565b5f73ffffffffffffffffffffffffffffffffffffffff168373ffffffffffffffffffffffffffffffffffffffff1603610c58575f6040517f96c6fd1e000000000000000000000000000000000000000000000000000000008152600401610c4f9190611851565b60405180910390fd5b5f73ffffffffffffffffffffffffffffffffffffffff168273ffffffffffffffffffffffffffffffffffffffff1603610cc8575f6040517fec442f05000000000000000000000000000000000000000000000000000000008152600401610cbf9190611851565b60405180910390fd5b610cd38383836110b6565b505050565b610ce0610b3c565b73ffffffffffffffffffffffffffffffffffffffff16610cfe610696565b73ffffffffffffffffffffffffffffffffffffffff1614610d5d57610d21610b3c565b6040517f118cdaa7000000000000000000000000000000000000000000000000000000008152600401610d549190611851565b60405180910390fd5b565b610d676112c1565b5f600560146101000a81548160ff0219169083151502179055507f5db9ee0a495bf2e6ff9c91a7834c1ba4fdd244a5e8aa4e537bd38aeae4b073aa610daa610b3c565b604051610db79190611851565b60405180910390a1565b5f60055f9054906101000a900473ffffffffffffffffffffffffffffffffffffffff1690508160055f6101000a81548173ffffffffffffffffffffffffffffffffffffffff021916908373ffffffffffffffffffffffffffffffffffffffff1602179055508173ffffffffffffffffffffffffffffffffffffffff168173ffffffffffffffffffffffffffffffffffffffff167f8be0079c531659141344cd1fd0a4f28419497f9722a3daafe3b4186f6b6457e060405160405180910390a35050565b610e8c61130a565b6001600560146101000a81548160ff0219169083151502179055507f62e78cea01bee320cd4e420270b5ea74000d11b0c9f74754ebdbfc544b05a258610ed0610b3c565b604051610edd9190611851565b60405180910390a1565b5f73ffffffffffffffffffffffffffffffffffffffff168473ffffffffffffffffffffffffffffffffffffffff1603610f57575f6040517fe602df05000000000000000000000000000000000000000000000000000000008152600401610f4e9190611851565b60405180910390fd5b5f73ffffffffffffffffffffffffffffffffffffffff168373ffffffffffffffffffffffffffffffffffffffff1603610fc7575f6040517f94280d62000000000000000000000000000000000000000000000000000000008152600401610fbe9190611851565b60405180910390fd5b8160015f8673ffffffffffffffffffffffffffffffffffffffff1673ffffffffffffffffffffffffffffffffffffffff1681526020019081526020015f205f8573ffffffffffffffffffffffffffffffffffffffff1673ffffffffffffffffffffffffffffffffffffffff1681526020019081526020015f208190555080156110b0578273ffffffffffffffffffffffffffffffffffffffff168473ffffffffffffffffffffffffffffffffffffffff167f8c5be1e5ebec7d5bd14f71427d1e84f3dd0314c0f7b2291e5b200ac8c7c3b925846040516110a79190611753565b60405180910390a35b50505050565b6110be61130a565b5f73ffffffffffffffffffffffffffffffffffffffff168373ffffffffffffffffffffffffffffffffffffffff16148061112357505f73ffffffffffffffffffffffffffffffffffffffff168273ffffffffffffffffffffffffffffffffffffffff16145b80611174575060085f8473ffffffffffffffffffffffffffffffffffffffff1673ffffffffffffffffffffffffffffffffffffffff1681526020019081526020015f205f9054906101000a900460ff165b806111c5575060085f8373ffffffffffffffffffffffffffffffffffffffff1673ffffffffffffffffffffffffffffffffffffffff1681526020019081526020015f205f9054906101000a900460ff165b806111d157505f600754145b156111e6576111e1838383611354565b6112bc565b5f6064600754836111f7919061199a565b6112019190611a08565b90505f81836112109190611a38565b90505f821115611247576112468560065f9054906101000a900473ffffffffffffffffffffffffffffffffffffffff1684611354565b5b611252858583611354565b8373ffffffffffffffffffffffffffffffffffffffff168573ffffffffffffffffffffffffffffffffffffffff167fddb30886d90db45adc1b2edcbabe12227896c25143cd155d3bf62ec8eff6785684846040516112b192919061181b565b60405180910390a350505b505050565b6112c96105f1565b611308576040517f08c379a00000000000000000000000000000000000000000000000000000000081526004016112ff90611aea565b60405180910390fd5b565b6113126105f1565b15611352576040517f08c379a000000000000000000000000000000000000000000000000000000000815260040161134990611b52565b60405180910390fd5b565b5f73ffffffffffffffffffffffffffffffffffffffff168373ffffffffffffffffffffffffffffffffffffffff16036113a4578060025f8282546113989190611b70565b92505081905550611472565b5f805f8573ffffffffffffffffffffffffffffffffffffffff1673ffffffffffffffffffffffffffffffffffffffff1681526020019081526020015f205490508181101561142d578381836040517fe450d38c00000000000000000000000000000000000000000000000000000000815260040161142493929190611a6b565b60405180910390fd5b8181035f808673ffffffffffffffffffffffffffffffffffffffff1673ffffffffffffffffffffffffffffffffffffffff1681526020019081526020015f2081905550505b5f73ffffffffffffffffffffffffffffffffffffffff168273ffffffffffffffffffffffffffffffffffffffff16036114b9578060025f8282540392505081905550611503565b805f808473ffffffffffffffffffffffffffffffffffffffff1673ffffffffffffffffffffffffffffffffffffffff1681526020019081526020015f205f82825401925050819055505b8173ffffffffffffffffffffffffffffffffffffffff168373ffffffffffffffffffffffffffffffffffffffff167fddf252ad1be2c89b69c2b068fc378daa952ba7f163c4a11628f55a4df523b3ef836040516115609190611753565b60405180910390a3505050565b5f81519050919050565b5f82825260208201905092915050565b5f5b838110156115a4578082015181840152602081019050611589565b5f8484015250505050565b5f601f19601f8301169050919050565b5f6115c98261156d565b6115d38185611577565b93506115e3818560208601611587565b6115ec816115af565b840191505092915050565b5f6020820190508181035f83015261160f81846115bf565b905092915050565b5f80fd5b5f73ffffffffffffffffffffffffffffffffffffffff82169050919050565b5f6116448261161b565b9050919050565b6116548161163a565b811461165e575f80fd5b50565b5f8135905061166f8161164b565b92915050565b5f819050919050565b61168781611675565b8114611691575f80fd5b50565b5f813590506116a28161167e565b92915050565b5f80604083850312156116be576116bd611617565b5b5f6116cb85828601611661565b92505060206116dc85828601611694565b9150509250929050565b5f8115159050919050565b6116fa816116e6565b82525050565b5f6020820190506117135f8301846116f1565b92915050565b5f6020828403121561172e5761172d611617565b5b5f61173b84828501611661565b91505092915050565b61174d81611675565b82525050565b5f6020820190506117665f830184611744565b92915050565b5f805f6060848603121561178357611782611617565b5b5f61179086828701611661565b93505060206117a186828701611661565b92505060406117b286828701611694565b9150509250925092565b5f60ff82169050919050565b6117d1816117bc565b82525050565b5f6020820190506117ea5f8301846117c8565b92915050565b5f6020828403121561180557611804611617565b5b5f61181284828501611694565b91505092915050565b5f60408201905061182e5f830185611744565b61183b6020830184611744565b9392505050565b61184b8161163a565b82525050565b5f6020820190506118645f830184611842565b92915050565b611873816116e6565b811461187d575f80fd5b50565b5f8135905061188e8161186a565b92915050565b5f80604083850312156118aa576118a9611617565b5b5f6118b785828601611661565b92505060206118c885828601611880565b9150509250929050565b5f80604083850312156118e8576118e7611617565b5b5f6118f585828601611661565b925050602061190685828601611661565b9150509250929050565b7f4e487b71000000000000000000000000000000000000000000000000000000005f52602260045260245ffd5b5f600282049050600182168061195457607f821691505b60208210810361196757611966611910565b5b50919050565b7f4e487b71000000000000000000000000000000000000000000000000000000005f52601160045260245ffd5b5f6119a482611675565b91506119af83611675565b92508282026119bd81611675565b915082820484148315176119d4576119d361196d565b5b5092915050565b7f4e487b71000000000000000000000000000000000000000000000000000000005f52601260045260245ffd5b5f611a1282611675565b9150611a1d83611675565b925082611a2d57611a2c6119db565b5b828204905092915050565b5f611a4282611675565b9150611a4d83611675565b9250828203905081811115611a6557611a6461196d565b5b92915050565b5f606082019050611a7e5f830186611842565b611a8b6020830185611744565b611a986040830184611744565b949350505050565b7f5061757361626c653a206e6f74207061757365640000000000000000000000005f82015250565b5f611ad4601483611577565b9150611adf82611aa0565b602082019050919050565b5f6020820190508181035f830152611b0181611ac8565b9050919050565b7f5061757361626c653a20706175736564000000000000000000000000000000005f82015250565b5f611b3c601083611577565b9150611b4782611b08565b602082019050919050565b5f6020820190508181035f830152611b6981611b30565b9050919050565b5f611b7a82611675565b9150611b8583611675565b9250828201905080821115611b9d57611b9c61196d565b5b9291505056fea264697066735822122030bd0dafb83c3300e300f993d3291a7b5c52d803abedad8f2c27452dea9429c464736f6c63430008140033",
					"opcodes": "PUSH1 0x80 PUSH1 0x40 MSTORE CALLVALUE DUP1 ISZERO PUSH3 0x10 JUMPI PUSH0 DUP1 REVERT JUMPDEST POP PUSH1 0x40 MLOAD PUSH3 0x2F5E CODESIZE SUB DUP1 PUSH3 0x2F5E DUP4 CODECOPY DUP2 DUP2 ADD PUSH1 0x40 MSTORE DUP2 ADD SWAP1 PUSH3 0x36 SWAP2 SWAP1 PUSH3 0xB6C JUMP JUMPDEST DUP1 DUP6 DUP6 DUP2 PUSH1 0x3 SWAP1 DUP2 PUSH3 0x4A SWAP2 SWAP1 PUSH3 0xE5C JUMP JUMPDEST POP DUP1 PUSH1 0x4 SWAP1 DUP2 PUSH3 0x5C SWAP2 SWAP1 PUSH3 0xE5C JUMP JUMPDEST POP POP POP PUSH0 PUSH20 0xFFFFFFFFFFFFFFFFFFFFFFFFFFFFFFFFFFFFFFFF AND DUP2 PUSH20 0xFFFFFFFFFFFFFFFFFFFFFFFFFFFFFFFFFFFFFFFF AND SUB PUSH3 0xD2 JUMPI PUSH0 PUSH1 0x40 MLOAD PUSH32 0x1E4FBDF700000000000000000000000000000000000000000000000000000000 DUP2 MSTORE PUSH1 0x4 ADD PUSH3 0xC9 SWAP2 SWAP1 PUSH3 0xF51 JUMP JUMPDEST PUSH1 0x40 MLOAD DUP1 SWAP2 SUB SWAP1 REVERT JUMPDEST PUSH3 0xE3 DUP2 PUSH3 0x330 PUSH1 0x20 SHL PUSH1 0x20 SHR JUMP JUMPDEST POP PUSH0 PUSH1 0x5 PUSH1 0x14 PUSH2 0x100 EXP DUP2 SLOAD DUP2 PUSH1 0xFF MUL NOT AND SWAP1 DUP4 ISZERO ISZERO MUL OR SWAP1 SSTORE POP PUSH0 PUSH20 0xFFFFFFFFFFFFFFFFFFFFFFFFFFFFFFFFFFFFFFFF AND DUP4 PUSH20 0xFFFFFFFFFFFFFFFFFFFFFFFFFFFFFFFFFFFFFFFF AND SUB PUSH3 0x164 JUMPI PUSH1 0x40 MLOAD PUSH32 0xCFE2EA6300000000000000000000000000000000000000000000000000000000 DUP2 MSTORE PUSH1 0x4 ADD PUSH1 0x40 MLOAD DUP1 SWAP2 SUB SWAP1 REVERT JUMPDEST PUSH1 0x64 DUP3 GT ISZERO PUSH3 0x1A0 JUMPI PUSH1 0x40 MLOAD PUSH32 0x5BA09AE000000000000000000000000000000000000000000000000000000000 DUP2 MSTORE PUSH1 0x4 ADD PUSH1 0x40 MLOAD DUP1 SWAP2 SUB SWAP1 REVERT JUMPDEST DUP3 PUSH1 0x6 PUSH0 PUSH2 0x100 EXP DUP2 SLOAD DUP2 PUSH20 0xFFFFFFFFFFFFFFFFFFFFFFFFFFFFFFFFFFFFFFFF MUL NOT AND SWAP1 DUP4 PUSH20 0xFFFFFFFFFFFFFFFFFFFFFFFFFFFFFFFFFFFFFFFF AND MUL OR SWAP1 SSTORE POP DUP2 PUSH1 0x7 DUP2 SWAP1 SSTORE POP PUSH1 0x1 PUSH1 0x8 PUSH0 DUP4 PUSH20 0xFFFFFFFFFFFFFFFFFFFFFFFFFFFFFFFFFFFFFFFF AND PUSH20 0xFFFFFFFFFFFFFFFFFFFFFFFFFFFFFFFFFFFFFFFF AND DUP2 MSTORE PUSH1 0x20 ADD SWAP1 DUP2 MSTORE PUSH1 0x20 ADD PUSH0 KECCAK256 PUSH0 PUSH2 0x100 EXP DUP2 SLOAD DUP2 PUSH1 0xFF MUL NOT AND SWAP1 DUP4 ISZERO ISZERO MUL OR SWAP1 SSTORE POP PUSH1 0x1 PUSH1 0x8 PUSH0 DUP6 PUSH20 0xFFFFFFFFFFFFFFFFFFFFFFFFFFFFFFFFFFFFFFFF AND PUSH20 0xFFFFFFFFFFFFFFFFFFFFFFFFFFFFFFFFFFFFFFFF AND DUP2 MSTORE PUSH1 0x20 ADD SWAP1 DUP2 MSTORE PUSH1 0x20 ADD PUSH0 KECCAK256 PUSH0 PUSH2 0x100 EXP DUP2 SLOAD DUP2 PUSH1 0xFF MUL NOT AND SWAP1 DUP4 ISZERO ISZERO MUL OR SWAP1 SSTORE POP PUSH1 0x1 PUSH1 0x8 PUSH0 ADDRESS PUSH20 0xFFFFFFFFFFFFFFFFFFFFFFFFFFFFFFFFFFFFFFFF AND PUSH20 0xFFFFFFFFFFFFFFFFFFFFFFFFFFFFFFFFFFFFFFFF AND DUP2 MSTORE PUSH1 0x20 ADD SWAP1 DUP2 MSTORE PUSH1 0x20 ADD PUSH0 KECCAK256 PUSH0 PUSH2 0x100 EXP DUP2 SLOAD DUP2 PUSH1 0xFF MUL NOT AND SWAP1 DUP4 ISZERO ISZERO MUL OR SWAP1 SSTORE POP PUSH3 0x325 DUP2 PUSH3 0x2FB PUSH3 0x3F3 PUSH1 0x20 SHL PUSH1 0x20 SHR JUMP JUMPDEST PUSH1 0xA PUSH3 0x309 SWAP2 SWAP1 PUSH3 0x10F5 JUMP JUMPDEST PUSH3 0xF4240 PUSH3 0x319 SWAP2 SWAP1 PUSH3 0x1145 JUMP JUMPDEST PUSH3 0x3FB PUSH1 0x20 SHL PUSH1 0x20 SHR JUMP JUMPDEST POP POP POP POP POP PUSH3 0x1377 JUMP JUMPDEST PUSH0 PUSH1 0x5 PUSH0 SWAP1 SLOAD SWAP1 PUSH2 0x100 EXP SWAP1 DIV PUSH20 0xFFFFFFFFFFFFFFFFFFFFFFFFFFFFFFFFFFFFFFFF AND SWAP1 POP DUP2 PUSH1 0x5 PUSH0 PUSH2 0x100 EXP DUP2 SLOAD DUP2 PUSH20 0xFFFFFFFFFFFFFFFFFFFFFFFFFFFFFFFFFFFFFFFF MUL NOT AND SWAP1 DUP4 PUSH20 0xFFFFFFFFFFFFFFFFFFFFFFFFFFFFFFFFFFFFFFFF AND MUL OR SWAP1 SSTORE POP DUP2 PUSH20 0xFFFFFFFFFFFFFFFFFFFFFFFFFFFFFFFFFFFFFFFF AND DUP2 PUSH20 0xFFFFFFFFFFFFFFFFFFFFFFFFFFFFFFFFFFFFFFFF AND PUSH32 0x8BE0079C531659141344CD1FD0A4F28419497F9722A3DAAFE3B4186F6B6457E0 PUSH1 0x40 MLOAD PUSH1 0x40 MLOAD DUP1 SWAP2 SUB SWAP1 LOG3 POP POP JUMP JUMPDEST PUSH0 PUSH1 0x12 SWAP1 POP SWAP1 JUMP JUMPDEST PUSH0 PUSH20 0xFFFFFFFFFFFFFFFFFFFFFFFFFFFFFFFFFFFFFFFF AND DUP3 PUSH20 0xFFFFFFFFFFFFFFFFFFFFFFFFFFFFFFFFFFFFFFFF AND SUB PUSH3 0x46E JUMPI PUSH0 PUSH1 0x40 MLOAD PUSH32 0xEC442F0500000000000000000000000000000000000000000000000000000000 DUP2 MSTORE PUSH1 0x4 ADD PUSH3 0x465 SWAP2 SWAP1 PUSH3 0xF51 JUMP JUMPDEST PUSH1 0x40 MLOAD DUP1 SWAP2 SUB SWAP1 REVERT JUMPDEST PUSH3 0x481 PUSH0 DUP4 DUP4 PUSH3 0x485 PUSH1 0x20 SHL PUSH1 0x20 SHR JUMP JUMPDEST POP POP JUMP JUMPDEST PUSH3 0x495 PUSH3 0x6BF PUSH1 0x20 SHL PUSH1 0x20 SHR JUMP JUMPDEST PUSH0 PUSH20 0xFFFFFFFFFFFFFFFFFFFFFFFFFFFFFFFFFFFFFFFF AND DUP4 PUSH20 0xFFFFFFFFFFFFFFFFFFFFFFFFFFFFFFFFFFFFFFFF AND EQ DUP1 PUSH3 0x4FB JUMPI POP PUSH0 PUSH20 0xFFFFFFFFFFFFFFFFFFFFFFFFFFFFFFFFFFFFFFFF AND DUP3 PUSH20 0xFFFFFFFFFFFFFFFFFFFFFFFFFFFFFFFFFFFFFFFF AND EQ JUMPDEST DUP1 PUSH3 0x54D JUMPI POP PUSH1 0x8 PUSH0 DUP5 PUSH20 0xFFFFFFFFFFFFFFFFFFFFFFFFFFFFFFFFFFFFFFFF AND PUSH20 0xFFFFFFFFFFFFFFFFFFFFFFFFFFFFFFFFFFFFFFFF AND DUP2 MSTORE PUSH1 0x20 ADD SWAP1 DUP2 MSTORE PUSH1 0x20 ADD PUSH0 KECCAK256 PUSH0 SWAP1 SLOAD SWAP1 PUSH2 0x100 EXP SWAP1 DIV PUSH1 0xFF AND JUMPDEST DUP1 PUSH3 0x59F JUMPI POP PUSH1 0x8 PUSH0 DUP4 PUSH20 0xFFFFFFFFFFFFFFFFFFFFFFFFFFFFFFFFFFFFFFFF AND PUSH20 0xFFFFFFFFFFFFFFFFFFFFFFFFFFFFFFFFFFFFFFFF AND DUP2 MSTORE PUSH1 0x20 ADD SWAP1 DUP2 MSTORE PUSH1 0x20 ADD PUSH0 KECCAK256 PUSH0 SWAP1 SLOAD SWAP1 PUSH2 0x100 EXP SWAP1 DIV PUSH1 0xFF AND JUMPDEST DUP1 PUSH3 0x5AC JUMPI POP PUSH0 PUSH1 0x7 SLOAD EQ JUMPDEST ISZERO PUSH3 0x5CB JUMPI PUSH3 0x5C5 DUP4 DUP4 DUP4 PUSH3 0x714 PUSH1 0x20 SHL PUSH1 0x20 SHR JUMP JUMPDEST PUSH3 0x6BA JUMP JUMPDEST PUSH0 PUSH1 0x64 PUSH1 0x7 SLOAD DUP4 PUSH3 0x5DE SWAP2 SWAP1 PUSH3 0x1145 JUMP JUMPDEST PUSH3 0x5EA SWAP2 SWAP1 PUSH3 0x11BC JUMP JUMPDEST SWAP1 POP PUSH0 DUP2 DUP4 PUSH3 0x5FB SWAP2 SWAP1 PUSH3 0x11F3 JUMP JUMPDEST SWAP1 POP PUSH0 DUP3 GT ISZERO PUSH3 0x63B JUMPI PUSH3 0x63A DUP6 PUSH1 0x6 PUSH0 SWAP1 SLOAD SWAP1 PUSH2 0x100 EXP SWAP1 DIV PUSH20 0xFFFFFFFFFFFFFFFFFFFFFFFFFFFFFFFFFFFFFFFF AND DUP5 PUSH3 0x714 PUSH1 0x20 SHL PUSH1 0x20 SHR JUMP JUMPDEST JUMPDEST PUSH3 0x64E DUP6 DUP6 DUP4 PUSH3 0x714 PUSH1 0x20 SHL PUSH1 0x20 SHR JUMP JUMPDEST DUP4 PUSH20 0xFFFFFFFFFFFFFFFFFFFFFFFFFFFFFFFFFFFFFFFF AND DUP6 PUSH20 0xFFFFFFFFFFFFFFFFFFFFFFFFFFFFFFFFFFFFFFFF AND PUSH32 0xDDB30886D90DB45ADC1B2EDCBABE12227896C25143CD155D3BF62EC8EFF67856 DUP5 DUP5 PUSH1 0x40 MLOAD PUSH3 0x6AF SWAP3 SWAP2 SWAP1 PUSH3 0x123E JUMP JUMPDEST PUSH1 0x40 MLOAD DUP1 SWAP2 SUB SWAP1 LOG3 POP POP JUMPDEST POP POP POP JUMP JUMPDEST PUSH3 0x6CF PUSH3 0x938 PUSH1 0x20 SHL PUSH1 0x20 SHR JUMP JUMPDEST ISZERO PUSH3 0x712 JUMPI PUSH1 0x40 MLOAD PUSH32 0x8C379A000000000000000000000000000000000000000000000000000000000 DUP2 MSTORE PUSH1 0x4 ADD PUSH3 0x709 SWAP1 PUSH3 0x12C7 JUMP JUMPDEST PUSH1 0x40 MLOAD DUP1 SWAP2 SUB SWAP1 REVERT JUMPDEST JUMP JUMPDEST PUSH0 PUSH20 0xFFFFFFFFFFFFFFFFFFFFFFFFFFFFFFFFFFFFFFFF AND DUP4 PUSH20 0xFFFFFFFFFFFFFFFFFFFFFFFFFFFFFFFFFFFFFFFF AND SUB PUSH3 0x768 JUMPI DUP1 PUSH1 0x2 PUSH0 DUP3 DUP3 SLOAD PUSH3 0x75B SWAP2 SWAP1 PUSH3 0x12E7 JUMP JUMPDEST SWAP3 POP POP DUP2 SWAP1 SSTORE POP PUSH3 0x839 JUMP JUMPDEST PUSH0 DUP1 PUSH0 DUP6 PUSH20 0xFFFFFFFFFFFFFFFFFFFFFFFFFFFFFFFFFFFFFFFF AND PUSH20 0xFFFFFFFFFFFFFFFFFFFFFFFFFFFFFFFFFFFFFFFF AND DUP2 MSTORE PUSH1 0x20 ADD SWAP1 DUP2 MSTORE PUSH1 0x20 ADD PUSH0 KECCAK256 SLOAD SWAP1 POP DUP2 DUP2 LT ISZERO PUSH3 0x7F4 JUMPI DUP4 DUP2 DUP4 PUSH1 0x40 MLOAD PUSH32 0xE450D38C00000000000000000000000000000000000000000000000000000000 DUP2 MSTORE PUSH1 0x4 ADD PUSH3 0x7EB SWAP4 SWAP3 SWAP2 SWAP1 PUSH3 0x1321 JUMP JUMPDEST PUSH1 0x40 MLOAD DUP1 SWAP2 SUB SWAP1 REVERT JUMPDEST DUP2 DUP2 SUB PUSH0 DUP1 DUP7 PUSH20 0xFFFFFFFFFFFFFFFFFFFFFFFFFFFFFFFFFFFFFFFF AND PUSH20 0xFFFFFFFFFFFFFFFFFFFFFFFFFFFFFFFFFFFFFFFF AND DUP2 MSTORE PUSH1 0x20 ADD SWAP1 DUP2 MSTORE PUSH1 0x20 ADD PUSH0 KECCAK256 DUP2 SWAP1 SSTORE POP POP JUMPDEST PUSH0 PUSH20 0xFFFFFFFFFFFFFFFFFFFFFFFFFFFFFFFFFFFFFFFF AND DUP3 PUSH20 0xFFFFFFFFFFFFFFFFFFFFFFFFFFFFFFFFFFFFFFFF AND SUB PUSH3 0x882 JUMPI DUP1 PUSH1 0x2 PUSH0 DUP3 DUP3 SLOAD SUB SWAP3 POP POP DUP2 SWAP1 SSTORE POP PUSH3 0x8CC JUMP JUMPDEST DUP1 PUSH0 DUP1 DUP5 PUSH20 0xFFFFFFFFFFFFFFFFFFFFFFFFFFFFFFFFFFFFFFFF AND PUSH20 0xFFFFFFFFFFFFFFFFFFFFFFFFFFFFFFFFFFFFFFFF AND DUP2 MSTORE PUSH1 0x20 ADD SWAP1 DUP2 MSTORE PUSH1 0x20 ADD PUSH0 KECCAK256 PUSH0 DUP3 DUP3 SLOAD ADD SWAP3 POP POP DUP2 SWAP1 SSTORE POP JUMPDEST DUP2 PUSH20 0xFFFFFFFFFFFFFFFFFFFFFFFFFFFFFFFFFFFFFFFF AND DUP4 PUSH20 0xFFFFFFFFFFFFFFFFFFFFFFFFFFFFFFFFFFFFFFFF AND PUSH32 0xDDF252AD1BE2C89B69C2B068FC378DAA952BA7F163C4A11628F55A4DF523B3EF DUP4 PUSH1 0x40 MLOAD PUSH3 0x92B SWAP2 SWAP1 PUSH3 0x135C JUMP JUMPDEST PUSH1 0x40 MLOAD DUP1 SWAP2 SUB SWAP1 LOG3 POP POP POP JUMP JUMPDEST PUSH0 PUSH1 0x5 PUSH1 0x14 SWAP1 SLOAD SWAP1 PUSH2 0x100 EXP SWAP1 DIV PUSH1 0xFF AND SWAP1 POP SWAP1 JUMP JUMPDEST PUSH0 PUSH1 0x40 MLOAD SWAP1 POP SWAP1 JUMP JUMPDEST PUSH0 DUP1 REVERT JUMPDEST PUSH0 DUP1 REVERT JUMPDEST PUSH0 DUP1 REVERT JUMPDEST PUSH0 DUP1 REVERT JUMPDEST PUSH0 PUSH1 0x1F NOT PUSH1 0x1F DUP4 ADD AND SWAP1 POP SWAP2 SWAP1 POP JUMP JUMPDEST PUSH32 0x4E487B7100000000000000000000000000000000000000000000000000000000 PUSH0 MSTORE PUSH1 0x41 PUSH1 0x4 MSTORE PUSH1 0x24 PUSH0 REVERT JUMPDEST PUSH3 0x9AF DUP3 PUSH3 0x967 JUMP JUMPDEST DUP2 ADD DUP2 DUP2 LT PUSH8 0xFFFFFFFFFFFFFFFF DUP3 GT OR ISZERO PUSH3 0x9D1 JUMPI PUSH3 0x9D0 PUSH3 0x977 JUMP JUMPDEST JUMPDEST DUP1 PUSH1 0x40 MSTORE POP POP POP JUMP JUMPDEST PUSH0 PUSH3 0x9E5 PUSH3 0x94E JUMP JUMPDEST SWAP1 POP PUSH3 0x9F3 DUP3 DUP3 PUSH3 0x9A4 JUMP JUMPDEST SWAP2 SWAP1 POP JUMP JUMPDEST PUSH0 PUSH8 0xFFFFFFFFFFFFFFFF DUP3 GT ISZERO PUSH3 0xA15 JUMPI PUSH3 0xA14 PUSH3 0x977 JUMP JUMPDEST JUMPDEST PUSH3 0xA20 DUP3 PUSH3 0x967 JUMP JUMPDEST SWAP1 POP PUSH1 0x20 DUP2 ADD SWAP1 POP SWAP2 SWAP1 POP JUMP JUMPDEST PUSH0 JUMPDEST DUP4 DUP2 LT ISZERO PUSH3 0xA4C JUMPI DUP1 DUP3 ADD MLOAD DUP2 DUP5 ADD MSTORE PUSH1 0x20 DUP2 ADD SWAP1 POP PUSH3 0xA2F JUMP JUMPDEST PUSH0 DUP5 DUP5 ADD MSTORE POP POP POP POP JUMP JUMPDEST PUSH0 PUSH3 0xA6D PUSH3 0xA67 DUP5 PUSH3 0x9F8 JUMP JUMPDEST PUSH3 0x9DA JUMP JUMPDEST SWAP1 POP DUP3 DUP2 MSTORE PUSH1 0x20 DUP2 ADD DUP5 DUP5 DUP5 ADD GT ISZERO PUSH3 0xA8C JUMPI PUSH3 0xA8B PUSH3 0x963 JUMP JUMPDEST JUMPDEST PUSH3 0xA99 DUP5 DUP3 DUP6 PUSH3 0xA2D JUMP JUMPDEST POP SWAP4 SWAP3 POP POP POP JUMP JUMPDEST PUSH0 DUP3 PUSH1 0x1F DUP4 ADD SLT PUSH3 0xAB8 JUMPI PUSH3 0xAB7 PUSH3 0x95F JUMP JUMPDEST JUMPDEST DUP2 MLOAD PUSH3 0xACA DUP5 DUP3 PUSH1 0x20 DUP7 ADD PUSH3 0xA57 JUMP JUMPDEST SWAP2 POP POP SWAP3 SWAP2 POP POP JUMP JUMPDEST PUSH0 PUSH20 0xFFFFFFFFFFFFFFFFFFFFFFFFFFFFFFFFFFFFFFFF DUP3 AND SWAP1 POP SWAP2 SWAP1 POP JUMP JUMPDEST PUSH0 PUSH3 0xAFE DUP3 PUSH3 0xAD3 JUMP JUMPDEST SWAP1 POP SWAP2 SWAP1 POP JUMP JUMPDEST PUSH3 0xB10 DUP2 PUSH3 0xAF2 JUMP JUMPDEST DUP2 EQ PUSH3 0xB1B JUMPI PUSH0 DUP1 REVERT JUMPDEST POP JUMP JUMPDEST PUSH0 DUP2 MLOAD SWAP1 POP PUSH3 0xB2E DUP2 PUSH3 0xB05 JUMP JUMPDEST SWAP3 SWAP2 POP POP JUMP JUMPDEST PUSH0 DUP2 SWAP1 POP SWAP2 SWAP1 POP JUMP JUMPDEST PUSH3 0xB48 DUP2 PUSH3 0xB34 JUMP JUMPDEST DUP2 EQ PUSH3 0xB53 JUMPI PUSH0 DUP1 REVERT JUMPDEST POP JUMP JUMPDEST PUSH0 DUP2 MLOAD SWAP1 POP PUSH3 0xB66 DUP2 PUSH3 0xB3D JUMP JUMPDEST SWAP3 SWAP2 POP POP JUMP JUMPDEST PUSH0 DUP1 PUSH0 DUP1 PUSH0 PUSH1 0xA0 DUP7 DUP9 SUB SLT ISZERO PUSH3 0xB88 JUMPI PUSH3 0xB87 PUSH3 0x957 JUMP JUMPDEST JUMPDEST PUSH0 DUP7 ADD MLOAD PUSH8 0xFFFFFFFFFFFFFFFF DUP2 GT ISZERO PUSH3 0xBA8 JUMPI PUSH3 0xBA7 PUSH3 0x95B JUMP JUMPDEST JUMPDEST PUSH3 0xBB6 DUP9 DUP3 DUP10 ADD PUSH3 0xAA1 JUMP JUMPDEST SWAP6 POP POP PUSH1 0x20 DUP7 ADD MLOAD PUSH8 0xFFFFFFFFFFFFFFFF DUP2 GT ISZERO PUSH3 0xBDA JUMPI PUSH3 0xBD9 PUSH3 0x95B JUMP JUMPDEST JUMPDEST PUSH3 0xBE8 DUP9 DUP3 DUP10 ADD PUSH3 0xAA1 JUMP JUMPDEST SWAP5 POP POP PUSH1 0x40 PUSH3 0xBFB DUP9 DUP3 DUP10 ADD PUSH3 0xB1E JUMP JUMPDEST SWAP4 POP POP PUSH1 0x60 PUSH3 0xC0E DUP9 DUP3 DUP10 ADD PUSH3 0xB56 JUMP JUMPDEST SWAP3 POP POP PUSH1 0x80 PUSH3 0xC21 DUP9 DUP3 DUP10 ADD PUSH3 0xB1E JUMP JUMPDEST SWAP2 POP POP SWAP3 SWAP6 POP SWAP3 SWAP6 SWAP1 SWAP4 POP JUMP JUMPDEST PUSH0 DUP2 MLOAD SWAP1 POP SWAP2 SWAP1 POP JUMP JUMPDEST PUSH32 0x4E487B7100000000000000000000000000000000000000000000000000000000 PUSH0 MSTORE PUSH1 0x22 PUSH1 0x4 MSTORE PUSH1 0x24 PUSH0 REVERT JUMPDEST PUSH0 PUSH1 0x2 DUP3 DIV SWAP1 POP PUSH1 0x1 DUP3 AND DUP1 PUSH3 0xC7D JUMPI PUSH1 0x7F DUP3 AND SWAP2 POP JUMPDEST PUSH1 0x20 DUP3 LT DUP2 SUB PUSH3 0xC93 JUMPI PUSH3 0xC92 PUSH3 0xC38 JUMP JUMPDEST JUMPDEST POP SWAP2 SWAP1 POP JUMP JUMPDEST PUSH0 DUP2 SWAP1 POP DUP2 PUSH0 MSTORE PUSH1 0x20 PUSH0 KECCAK256 SWAP1 POP SWAP2 SWAP1 POP JUMP JUMPDEST PUSH0 PUSH1 0x20 PUSH1 0x1F DUP4 ADD DIV SWAP1 POP SWAP2 SWAP1 POP JUMP JUMPDEST PUSH0 DUP3 DUP3 SHL SWAP1 POP SWAP3 SWAP2 POP POP JUMP JUMPDEST PUSH0 PUSH1 0x8 DUP4 MUL PUSH3 0xCF7 PUSH32 0xFFFFFFFFFFFFFFFFFFFFFFFFFFFFFFFFFFFFFFFFFFFFFFFFFFFFFFFFFFFFFFFF DUP3 PUSH3 0xCBA JUMP JUMPDEST PUSH3 0xD03 DUP7 DUP4 PUSH3 0xCBA JUMP JUMPDEST SWAP6 POP DUP1 NOT DUP5 AND SWAP4 POP DUP1 DUP7 AND DUP5 OR SWAP3 POP POP POP SWAP4 SWAP3 POP POP POP JUMP JUMPDEST PUSH0 DUP2 SWAP1 POP SWAP2 SWAP1 POP JUMP JUMPDEST PUSH0 PUSH3 0xD44 PUSH3 0xD3E PUSH3 0xD38 DUP5 PUSH3 0xB34 JUMP JUMPDEST PUSH3 0xD1B JUMP JUMPDEST PUSH3 0xB34 JUMP JUMPDEST SWAP1 POP SWAP2 SWAP1 POP JUMP JUMPDEST PUSH0 DUP2 SWAP1 POP SWAP2 SWAP1 POP JUMP JUMPDEST PUSH3 0xD5F DUP4 PUSH3 0xD24 JUMP JUMPDEST PUSH3 0xD77 PUSH3 0xD6E DUP3 PUSH3 0xD4B JUMP JUMPDEST DUP5 DUP5 SLOAD PUSH3 0xCC6 JUMP JUMPDEST DUP3 SSTORE POP POP POP POP JUMP JUMPDEST PUSH0 SWAP1 JUMP JUMPDEST PUSH3 0xD8D PUSH3 0xD7F JUMP JUMPDEST PUSH3 0xD9A DUP2 DUP5 DUP5 PUSH3 0xD54 JUMP JUMPDEST POP POP POP JUMP JUMPDEST JUMPDEST DUP2 DUP2 LT ISZERO PUSH3 0xDC1 JUMPI PUSH3 0xDB5 PUSH0 DUP3 PUSH3 0xD83 JUMP JUMPDEST PUSH1 0x1 DUP2 ADD SWAP1 POP PUSH3 0xDA0 JUMP JUMPDEST POP POP JUMP JUMPDEST PUSH1 0x1F DUP3 GT ISZERO PUSH3 0xE10 JUMPI PUSH3 0xDDA DUP2 PUSH3 0xC99 JUMP JUMPDEST PUSH3 0xDE5 DUP5 PUSH3 0xCAB JUMP JUMPDEST DUP2 ADD PUSH1 0x20 DUP6 LT ISZERO PUSH3 0xDF5 JUMPI DUP2 SWAP1 POP JUMPDEST PUSH3 0xE0D PUSH3 0xE04 DUP6 PUSH3 0xCAB JUMP JUMPDEST DUP4 ADD DUP3 PUSH3 0xD9F JUMP JUMPDEST POP POP JUMPDEST POP POP POP JUMP JUMPDEST PUSH0 DUP3 DUP3 SHR SWAP1 POP SWAP3 SWAP2 POP POP JUMP JUMPDEST PUSH0 PUSH3 0xE32 PUSH0 NOT DUP5 PUSH1 0x8 MUL PUSH3 0xE15 JUMP JUMPDEST NOT DUP1 DUP4 AND SWAP2 POP POP SWAP3 SWAP2 POP POP JUMP JUMPDEST PUSH0 PUSH3 0xE4C DUP4 DUP4 PUSH3 0xE21 JUMP JUMPDEST SWAP2 POP DUP3 PUSH1 0x2 MUL DUP3 OR SWAP1 POP SWAP3 SWAP2 POP POP JUMP JUMPDEST PUSH3 0xE67 DUP3 PUSH3 0xC2E JUMP JUMPDEST PUSH8 0xFFFFFFFFFFFFFFFF DUP2 GT ISZERO PUSH3 0xE83 JUMPI PUSH3 0xE82 PUSH3 0x977 JUMP JUMPDEST JUMPDEST PUSH3 0xE8F DUP3 SLOAD PUSH3 0xC65 JUMP JUMPDEST PUSH3 0xE9C DUP3 DUP3 DUP6 PUSH3 0xDC5 JUMP JUMPDEST PUSH0 PUSH1 0x20 SWAP1 POP PUSH1 0x1F DUP4 GT PUSH1 0x1 DUP2 EQ PUSH3 0xED2 JUMPI PUSH0 DUP5 ISZERO PUSH3 0xEBD JUMPI DUP3 DUP8 ADD MLOAD SWAP1 POP JUMPDEST PUSH3 0xEC9 DUP6 DUP3 PUSH3 0xE3F JUMP JUMPDEST DUP7 SSTORE POP PUSH3 0xF38 JUMP JUMPDEST PUSH1 0x1F NOT DUP5 AND PUSH3 0xEE2 DUP7 PUSH3 0xC99 JUMP JUMPDEST PUSH0 JUMPDEST DUP3 DUP2 LT ISZERO PUSH3 0xF0B JUMPI DUP5 DUP10 ADD MLOAD DUP3 SSTORE PUSH1 0x1 DUP3 ADD SWAP2 POP PUSH1 0x20 DUP6 ADD SWAP5 POP PUSH1 0x20 DUP2 ADD SWAP1 POP PUSH3 0xEE4 JUMP JUMPDEST DUP7 DUP4 LT ISZERO PUSH3 0xF2B JUMPI DUP5 DUP10 ADD MLOAD PUSH3 0xF27 PUSH1 0x1F DUP10 AND DUP3 PUSH3 0xE21 JUMP JUMPDEST DUP4 SSTORE POP JUMPDEST PUSH1 0x1 PUSH1 0x2 DUP9 MUL ADD DUP9 SSTORE POP POP POP JUMPDEST POP POP POP POP POP POP JUMP JUMPDEST PUSH3 0xF4B DUP2 PUSH3 0xAF2 JUMP JUMPDEST DUP3 MSTORE POP POP JUMP JUMPDEST PUSH0 PUSH1 0x20 DUP3 ADD SWAP1 POP PUSH3 0xF66 PUSH0 DUP4 ADD DUP5 PUSH3 0xF40 JUMP JUMPDEST SWAP3 SWAP2 POP POP JUMP JUMPDEST PUSH32 0x4E487B7100000000000000000000000000000000000000000000000000000000 PUSH0 MSTORE PUSH1 0x11 PUSH1 0x4 MSTORE PUSH1 0x24 PUSH0 REVERT JUMPDEST PUSH0 DUP2 PUSH1 0x1 SHR SWAP1 POP SWAP2 SWAP1 POP JUMP JUMPDEST PUSH0 DUP1 DUP3 SWAP2 POP DUP4 SWAP1 POP JUMPDEST PUSH1 0x1 DUP6 GT ISZERO PUSH3 0xFF6 JUMPI DUP1 DUP7 DIV DUP2 GT ISZERO PUSH3 0xFCE JUMPI PUSH3 0xFCD PUSH3 0xF6C JUMP JUMPDEST JUMPDEST PUSH1 0x1 DUP6 AND ISZERO PUSH3 0xFDE JUMPI DUP1 DUP3 MUL SWAP2 POP JUMPDEST DUP1 DUP2 MUL SWAP1 POP PUSH3 0xFEE DUP6 PUSH3 0xF99 JUMP JUMPDEST SWAP5 POP PUSH3 0xFAE JUMP JUMPDEST SWAP5 POP SWAP5 SWAP3 POP POP POP JUMP JUMPDEST PUSH0 DUP3 PUSH3 0x1010 JUMPI PUSH1 0x1 SWAP1 POP PUSH3 0x10E2 JUMP JUMPDEST DUP2 PUSH3 0x101F JUMPI PUSH0 SWAP1 POP PUSH3 0x10E2 JUMP JUMPDEST DUP2 PUSH1 0x1 DUP2 EQ PUSH3 0x1038 JUMPI PUSH1 0x2 DUP2 EQ PUSH3 0x1043 JUMPI PUSH3 0x1079 JUMP JUMPDEST PUSH1 0x1 SWAP2 POP POP PUSH3 0x10E2 JUMP JUMPDEST PUSH1 0xFF DUP5 GT ISZERO PUSH3 0x1058 JUMPI PUSH3 0x1057 PUSH3 0xF6C JUMP JUMPDEST JUMPDEST DUP4 PUSH1 0x2 EXP SWAP2 POP DUP5 DUP3 GT ISZERO PUSH3 0x1072 JUMPI PUSH3 0x1071 PUSH3 0xF6C JUMP JUMPDEST JUMPDEST POP PUSH3 0x10E2 JUMP JUMPDEST POP PUSH1 0x20 DUP4 LT PUSH2 0x133 DUP4 LT AND PUSH1 0x4E DUP5 LT PUSH1 0xB DUP5 LT AND OR ISZERO PUSH3 0x10B3 JUMPI DUP3 DUP3 EXP SWAP1 POP DUP4 DUP2 GT ISZERO PUSH3 0x10AD JUMPI PUSH3 0x10AC PUSH3 0xF6C JUMP JUMPDEST JUMPDEST PUSH3 0x10E2 JUMP JUMPDEST PUSH3 0x10C2 DUP5 DUP5 DUP5 PUSH1 0x1 PUSH3 0xFA5 JUMP JUMPDEST SWAP3 POP SWAP1 POP DUP2 DUP5 DIV DUP2 GT ISZERO PUSH3 0x10DC JUMPI PUSH3 0x10DB PUSH3 0xF6C JUMP JUMPDEST JUMPDEST DUP2 DUP2 MUL SWAP1 POP JUMPDEST SWAP4 SWAP3 POP POP POP JUMP JUMPDEST PUSH0 PUSH1 0xFF DUP3 AND SWAP1 POP SWAP2 SWAP1 POP JUMP JUMPDEST PUSH0 PUSH3 0x1101 DUP3 PUSH3 0xB34 JUMP JUMPDEST SWAP2 POP PUSH3 0x110E DUP4 PUSH3 0x10E9 JUMP JUMPDEST SWAP3 POP PUSH3 0x113D PUSH32 0xFFFFFFFFFFFFFFFFFFFFFFFFFFFFFFFFFFFFFFFFFFFFFFFFFFFFFFFFFFFFFFFF DUP5 DUP5 PUSH3 0xFFF JUMP JUMPDEST SWAP1 POP SWAP3 SWAP2 POP POP JUMP JUMPDEST PUSH0 PUSH3 0x1151 DUP3 PUSH3 0xB34 JUMP JUMPDEST SWAP2 POP PUSH3 0x115E DUP4 PUSH3 0xB34 JUMP JUMPDEST SWAP3 POP DUP3 DUP3 MUL PUSH3 0x116E DUP2 PUSH3 0xB34 JUMP JUMPDEST SWAP2 POP DUP3 DUP3 DIV DUP5 EQ DUP4 ISZERO OR PUSH3 0x1188 JUMPI PUSH3 0x1187 PUSH3 0xF6C JUMP JUMPDEST JUMPDEST POP SWAP3 SWAP2 POP POP JUMP JUMPDEST PUSH32 0x4E487B7100000000000000000000000000000000000000000000000000000000 PUSH0 MSTORE PUSH1 0x12 PUSH1 0x4 MSTORE PUSH1 0x24 PUSH0 REVERT JUMPDEST PUSH0 PUSH3 0x11C8 DUP3 PUSH3 0xB34 JUMP JUMPDEST SWAP2 POP PUSH3 0x11D5 DUP4 PUSH3 0xB34 JUMP JUMPDEST SWAP3 POP DUP3 PUSH3 0x11E8 JUMPI PUSH3 0x11E7 PUSH3 0x118F JUMP JUMPDEST JUMPDEST DUP3 DUP3 DIV SWAP1 POP SWAP3 SWAP2 POP POP JUMP JUMPDEST PUSH0 PUSH3 0x11FF DUP3 PUSH3 0xB34 JUMP JUMPDEST SWAP2 POP PUSH3 0x120C DUP4 PUSH3 0xB34 JUMP JUMPDEST SWAP3 POP DUP3 DUP3 SUB SWAP1 POP DUP2 DUP2 GT ISZERO PUSH3 0x1227 JUMPI PUSH3 0x1226 PUSH3 0xF6C JUMP JUMPDEST JUMPDEST SWAP3 SWAP2 POP POP JUMP JUMPDEST PUSH3 0x1238 DUP2 PUSH3 0xB34 JUMP JUMPDEST DUP3 MSTORE POP POP JUMP JUMPDEST PUSH0 PUSH1 0x40 DUP3 ADD SWAP1 POP PUSH3 0x1253 PUSH0 DUP4 ADD DUP6 PUSH3 0x122D JUMP JUMPDEST PUSH3 0x1262 PUSH1 0x20 DUP4 ADD DUP5 PUSH3 0x122D JUMP JUMPDEST SWAP4 SWAP3 POP POP POP JUMP JUMPDEST PUSH0 DUP3 DUP3 MSTORE PUSH1 0x20 DUP3 ADD SWAP1 POP SWAP3 SWAP2 POP POP JUMP JUMPDEST PUSH32 0x5061757361626C653A2070617573656400000000000000000000000000000000 PUSH0 DUP3 ADD MSTORE POP JUMP JUMPDEST PUSH0 PUSH3 0x12AF PUSH1 0x10 DUP4 PUSH3 0x1269 JUMP JUMPDEST SWAP2 POP PUSH3 0x12BC DUP3 PUSH3 0x1279 JUMP JUMPDEST PUSH1 0x20 DUP3 ADD SWAP1 POP SWAP2 SWAP1 POP JUMP JUMPDEST PUSH0 PUSH1 0x20 DUP3 ADD SWAP1 POP DUP2 DUP2 SUB PUSH0 DUP4 ADD MSTORE PUSH3 0x12E0 DUP2 PUSH3 0x12A1 JUMP JUMPDEST SWAP1 POP SWAP2 SWAP1 POP JUMP JUMPDEST PUSH0 PUSH3 0x12F3 DUP3 PUSH3 0xB34 JUMP JUMPDEST SWAP2 POP PUSH3 0x1300 DUP4 PUSH3 0xB34 JUMP JUMPDEST SWAP3 POP DUP3 DUP3 ADD SWAP1 POP DUP1 DUP3 GT ISZERO PUSH3 0x131B JUMPI PUSH3 0x131A PUSH3 0xF6C JUMP JUMPDEST JUMPDEST SWAP3 SWAP2 POP POP JUMP JUMPDEST PUSH0 PUSH1 0x60 DUP3 ADD SWAP1 POP PUSH3 0x1336 PUSH0 DUP4 ADD DUP7 PUSH3 0xF40 JUMP JUMPDEST PUSH3 0x1345 PUSH1 0x20 DUP4 ADD DUP6 PUSH3 0x122D JUMP JUMPDEST PUSH3 0x1354 PUSH1 0x40 DUP4 ADD DUP5 PUSH3 0x122D JUMP JUMPDEST SWAP5 SWAP4 POP POP POP POP JUMP JUMPDEST PUSH0 PUSH1 0x20 DUP3 ADD SWAP1 POP PUSH3 0x1371 PUSH0 DUP4 ADD DUP5 PUSH3 0x122D JUMP JUMPDEST SWAP3 SWAP2 POP POP JUMP JUMPDEST PUSH2 0x1BD9 DUP1 PUSH3 0x1385 PUSH0 CODECOPY PUSH0 RETURN INVALID PUSH1 0x80 PUSH1 0x40 MSTORE CALLVALUE DUP1 ISZERO PUSH2 0xF JUMPI PUSH0 DUP1 REVERT JUMPDEST POP PUSH1 0x4 CALLDATASIZE LT PUSH2 0x14B JUMPI PUSH0 CALLDATALOAD PUSH1 0xE0 SHR DUP1 PUSH4 0x70A08231 GT PUSH2 0xC1 JUMPI DUP1 PUSH4 0xA071DCF4 GT PUSH2 0x7A JUMPI DUP1 PUSH4 0xA071DCF4 EQ PUSH2 0x37C JUMPI DUP1 PUSH4 0xA9059CBB EQ PUSH2 0x39A JUMPI DUP1 PUSH4 0xC4081A4C EQ PUSH2 0x3CA JUMPI DUP1 PUSH4 0xDD62ED3E EQ PUSH2 0x3E6 JUMPI DUP1 PUSH4 0xF0F44260 EQ PUSH2 0x416 JUMPI DUP1 PUSH4 0xF2FDE38B EQ PUSH2 0x432 JUMPI PUSH2 0x14B JUMP JUMPDEST DUP1 PUSH4 0x70A08231 EQ PUSH2 0x2E0 JUMPI DUP1 PUSH4 0x715018A6 EQ PUSH2 0x310 JUMPI DUP1 PUSH4 0x8456CB59 EQ PUSH2 0x31A JUMPI DUP1 PUSH4 0x8DA5CB5B EQ PUSH2 0x324 JUMPI DUP1 PUSH4 0x8EBFC796 EQ PUSH2 0x342 JUMPI DUP1 PUSH4 0x95D89B41 EQ PUSH2 0x35E JUMPI PUSH2 0x14B JUMP JUMPDEST DUP1 PUSH4 0x313CE567 GT PUSH2 0x113 JUMPI DUP1 PUSH4 0x313CE567 EQ PUSH2 0x21B JUMPI DUP1 PUSH4 0x3F4218E0 EQ PUSH2 0x239 JUMPI DUP1 PUSH4 0x3F4BA83A EQ PUSH2 0x269 JUMPI DUP1 PUSH4 0x483A9310 EQ PUSH2 0x273 JUMPI DUP1 PUSH4 0x5C975ABB EQ PUSH2 0x2A4 JUMPI DUP1 PUSH4 0x61D027B3 EQ PUSH2 0x2C2 JUMPI PUSH2 0x14B JUMP JUMPDEST DUP1 PUSH4 0x6FDDE03 EQ PUSH2 0x14F JUMPI DUP1 PUSH4 0x95EA7B3 EQ PUSH2 0x16D JUMPI DUP1 PUSH4 0x10FDAD70 EQ PUSH2 0x19D JUMPI DUP1 PUSH4 0x18160DDD EQ PUSH2 0x1CD JUMPI DUP1 PUSH4 0x23B872DD EQ PUSH2 0x1EB JUMPI JUMPDEST PUSH0 DUP1 REVERT JUMPDEST PUSH2 0x157 PUSH2 0x44E JUMP JUMPDEST PUSH1 0x40 MLOAD PUSH2 0x164 SWAP2 SWAP1 PUSH2 0x15F7 JUMP JUMPDEST PUSH1 0x40 MLOAD DUP1 SWAP2 SUB SWAP1 RETURN JUMPDEST PUSH2 0x187 PUSH1 0x4 DUP1 CALLDATASIZE SUB DUP2 ADD SWAP1 PUSH2 0x182 SWAP2 SWAP1 PUSH2 0x16A8 JUMP JUMPDEST PUSH2 0x4DE JUMP JUMPDEST PUSH1 0x40 MLOAD PUSH2 0x194 SWAP2 SWAP1 PUSH2 0x1700 JUMP JUMPDEST PUSH1 0x40 MLOAD DUP1 SWAP2 SUB SWAP1 RETURN JUMPDEST PUSH2 0x1B7 PUSH1 0x4 DUP1 CALLDATASIZE SUB DUP2 ADD SWAP1 PUSH2 0x1B2 SWAP2 SWAP1 PUSH2 0x1719 JUMP JUMPDEST PUSH2 0x500 JUMP JUMPDEST PUSH1 0x40 MLOAD PUSH2 0x1C4 SWAP2 SWAP1 PUSH2 0x1700 JUMP JUMPDEST PUSH1 0x40 MLOAD DUP1 SWAP2 SUB SWAP1 RETURN JUMPDEST PUSH2 0x1D5 PUSH2 0x552 JUMP JUMPDEST PUSH1 0x40 MLOAD PUSH2 0x1E2 SWAP2 SWAP1 PUSH2 0x1753 JUMP JUMPDEST PUSH1 0x40 MLOAD DUP1 SWAP2 SUB SWAP1 RETURN JUMPDEST PUSH2 0x205 PUSH1 0x4 DUP1 CALLDATASIZE SUB DUP2 ADD SWAP1 PUSH2 0x200 SWAP2 SWAP1 PUSH2 0x176C JUMP JUMPDEST PUSH2 0x55B JUMP JUMPDEST PUSH1 0x40 MLOAD PUSH2 0x212 SWAP2 SWAP1 PUSH2 0x1700 JUMP JUMPDEST PUSH1 0x40 MLOAD DUP1 SWAP2 SUB SWAP1 RETURN JUMPDEST PUSH2 0x223 PUSH2 0x589 JUMP JUMPDEST PUSH1 0x40 MLOAD PUSH2 0x230 SWAP2 SWAP1 PUSH2 0x17D7 JUMP JUMPDEST PUSH1 0x40 MLOAD DUP1 SWAP2 SUB SWAP1 RETURN JUMPDEST PUSH2 0x253 PUSH1 0x4 DUP1 CALLDATASIZE SUB DUP2 ADD SWAP1 PUSH2 0x24E SWAP2 SWAP1 PUSH2 0x1719 JUMP JUMPDEST PUSH2 0x591 JUMP JUMPDEST PUSH1 0x40 MLOAD PUSH2 0x260 SWAP2 SWAP1 PUSH2 0x1700 JUMP JUMPDEST PUSH1 0x40 MLOAD DUP1 SWAP2 SUB SWAP1 RETURN JUMPDEST PUSH2 0x271 PUSH2 0x5AE JUMP JUMPDEST STOP JUMPDEST PUSH2 0x28D PUSH1 0x4 DUP1 CALLDATASIZE SUB DUP2 ADD SWAP1 PUSH2 0x288 SWAP2 SWAP1 PUSH2 0x17F0 JUMP JUMPDEST PUSH2 0x5C0 JUMP JUMPDEST PUSH1 0x40 MLOAD PUSH2 0x29B SWAP3 SWAP2 SWAP1 PUSH2 0x181B JUMP JUMPDEST PUSH1 0x40 MLOAD DUP1 SWAP2 SUB SWAP1 RETURN JUMPDEST PUSH2 0x2AC PUSH2 0x5F1 JUMP JUMPDEST PUSH1 0x40 MLOAD PUSH2 0x2B9 SWAP2 SWAP1 PUSH2 0x1700 JUMP JUMPDEST PUSH1 0x40 MLOAD DUP1 SWAP2 SUB SWAP1 RETURN JUMPDEST PUSH2 0x2CA PUSH2 0x607 JUMP JUMPDEST PUSH1 0x40 MLOAD PUSH2 0x2D7 SWAP2 SWAP1 PUSH2 0x1851 JUMP JUMPDEST PUSH1 0x40 MLOAD DUP1 SWAP2 SUB SWAP1 RETURN JUMPDEST PUSH2 0x2FA PUSH1 0x4 DUP1 CALLDATASIZE SUB DUP2 ADD SWAP1 PUSH2 0x2F5 SWAP2 SWAP1 PUSH2 0x1719 JUMP JUMPDEST PUSH2 0x62C JUMP JUMPDEST PUSH1 0x40 MLOAD PUSH2 0x307 SWAP2 SWAP1 PUSH2 0x1753 JUMP JUMPDEST PUSH1 0x40 MLOAD DUP1 SWAP2 SUB SWAP1 RETURN JUMPDEST PUSH2 0x318 PUSH2 0x671 JUMP JUMPDEST STOP JUMPDEST PUSH2 0x322 PUSH2 0x684 JUMP JUMPDEST STOP JUMPDEST PUSH2 0x32C PUSH2 0x696 JUMP JUMPDEST PUSH1 0x40 MLOAD PUSH2 0x339 SWAP2 SWAP1 PUSH2 0x1851 JUMP JUMPDEST PUSH1 0x40 MLOAD DUP1 SWAP2 SUB SWAP1 RETURN JUMPDEST PUSH2 0x35C PUSH1 0x4 DUP1 CALLDATASIZE SUB DUP2 ADD SWAP1 PUSH2 0x357 SWAP2 SWAP1 PUSH2 0x1894 JUMP JUMPDEST PUSH2 0x6BE JUMP JUMPDEST STOP JUMPDEST PUSH2 0x366 PUSH2 0x76C JUMP JUMPDEST PUSH1 0x40 MLOAD PUSH2 0x373 SWAP2 SWAP1 PUSH2 0x15F7 JUMP JUMPDEST PUSH1 0x40 MLOAD DUP1 SWAP2 SUB SWAP1 RETURN JUMPDEST PUSH2 0x384 PUSH2 0x7FC JUMP JUMPDEST PUSH1 0x40 MLOAD PUSH2 0x391 SWAP2 SWAP1 PUSH2 0x1753 JUMP JUMPDEST PUSH1 0x40 MLOAD DUP1 SWAP2 SUB SWAP1 RETURN JUMPDEST PUSH2 0x3B4 PUSH1 0x4 DUP1 CALLDATASIZE SUB DUP2 ADD SWAP1 PUSH2 0x3AF SWAP2 SWAP1 PUSH2 0x16A8 JUMP JUMPDEST PUSH2 0x802 JUMP JUMPDEST PUSH1 0x40 MLOAD PUSH2 0x3C1 SWAP2 SWAP1 PUSH2 0x1700 JUMP JUMPDEST PUSH1 0x40 MLOAD DUP1 SWAP2 SUB SWAP1 RETURN JUMPDEST PUSH2 0x3E4 PUSH1 0x4 DUP1 CALLDATASIZE SUB DUP2 ADD SWAP1 PUSH2 0x3DF SWAP2 SWAP1 PUSH2 0x17F0 JUMP JUMPDEST PUSH2 0x824 JUMP JUMPDEST STOP JUMPDEST PUSH2 0x400 PUSH1 0x4 DUP1 CALLDATASIZE SUB DUP2 ADD SWAP1 PUSH2 0x3FB SWAP2 SWAP1 PUSH2 0x18D2 JUMP JUMPDEST PUSH2 0x8B1 JUMP JUMPDEST PUSH1 0x40 MLOAD PUSH2 0x40D SWAP2 SWAP1 PUSH2 0x1753 JUMP JUMPDEST PUSH1 0x40 MLOAD DUP1 SWAP2 SUB SWAP1 RETURN JUMPDEST PUSH2 0x430 PUSH1 0x4 DUP1 CALLDATASIZE SUB DUP2 ADD SWAP1 PUSH2 0x42B SWAP2 SWAP1 PUSH2 0x1719 JUMP JUMPDEST PUSH2 0x933 JUMP JUMPDEST STOP JUMPDEST PUSH2 0x44C PUSH1 0x4 DUP1 CALLDATASIZE SUB DUP2 ADD SWAP1 PUSH2 0x447 SWAP2 SWAP1 PUSH2 0x1719 JUMP JUMPDEST PUSH2 0xAB8 JUMP JUMPDEST STOP JUMPDEST PUSH1 0x60 PUSH1 0x3 DUP1 SLOAD PUSH2 0x45D SWAP1 PUSH2 0x193D JUMP JUMPDEST DUP1 PUSH1 0x1F ADD PUSH1 0x20 DUP1 SWAP2 DIV MUL PUSH1 0x20 ADD PUSH1 0x40 MLOAD SWAP1 DUP2 ADD PUSH1 0x40 MSTORE DUP1 SWAP3 SWAP2 SWAP1 DUP2 DUP2 MSTORE PUSH1 0x20 ADD DUP3 DUP1 SLOAD PUSH2 0x489 SWAP1 PUSH2 0x193D JUMP JUMPDEST DUP1 ISZERO PUSH2 0x4D4 JUMPI DUP1 PUSH1 0x1F LT PUSH2 0x4AB JUMPI PUSH2 0x100 DUP1 DUP4 SLOAD DIV MUL DUP4 MSTORE SWAP2 PUSH1 0x20 ADD SWAP2 PUSH2 0x4D4 JUMP JUMPDEST DUP3 ADD SWAP2 SWAP1 PUSH0 MSTORE PUSH1 0x20 PUSH0 KECCAK256 SWAP1 JUMPDEST DUP2 SLOAD DUP2 MSTORE SWAP1 PUSH1 0x1 ADD SWAP1 PUSH1 0x20 ADD DUP1 DUP4 GT PUSH2 0x4B7 JUMPI DUP3 SWAP1 SUB PUSH1 0x1F AND DUP3 ADD SWAP2 JUMPDEST POP POP POP POP POP SWAP1 POP SWAP1 JUMP JUMPDEST PUSH0 DUP1 PUSH2 0x4E8 PUSH2 0xB3C JUMP JUMPDEST SWAP1 POP PUSH2 0x4F5 DUP2 DUP6 DUP6 PUSH2 0xB43 JUMP JUMPDEST PUSH1 0x1 SWAP2 POP POP SWAP3 SWAP2 POP POP JUMP JUMPDEST PUSH0 PUSH1 0x8 PUSH0 DUP4 PUSH20 0xFFFFFFFFFFFFFFFFFFFFFFFFFFFFFFFFFFFFFFFF AND PUSH20 0xFFFFFFFFFFFFFFFFFFFFFFFFFFFFFFFFFFFFFFFF AND DUP2 MSTORE PUSH1 0x20 ADD SWAP1 DUP2 MSTORE PUSH1 0x20 ADD PUSH0 KECCAK256 PUSH0 SWAP1 SLOAD SWAP1 PUSH2 0x100 EXP SWAP1 DIV PUSH1 0xFF AND SWAP1 POP SWAP2 SWAP1 POP JUMP JUMPDEST PUSH0 PUSH1 0x2 SLOAD SWAP1 POP SWAP1 JUMP JUMPDEST PUSH0 DUP1 PUSH2 0x565 PUSH2 0xB3C JUMP JUMPDEST SWAP1 POP PUSH2 0x572 DUP6 DUP3 DUP6 PUSH2 0xB55 JUMP JUMPDEST PUSH2 0x57D DUP6 DUP6 DUP6 PUSH2 0xBE8 JUMP JUMPDEST PUSH1 0x1 SWAP2 POP POP SWAP4 SWAP3 POP POP POP JUMP JUMPDEST PUSH0 PUSH1 0x12 SWAP1 POP SWAP1 JUMP JUMPDEST PUSH1 0x8 PUSH1 0x20 MSTORE DUP1 PUSH0 MSTORE PUSH1 0x40 PUSH0 KECCAK256 PUSH0 SWAP2 POP SLOAD SWAP1 PUSH2 0x100 EXP SWAP1 DIV PUSH1 0xFF AND DUP2 JUMP JUMPDEST PUSH2 0x5B6 PUSH2 0xCD8 JUMP JUMPDEST PUSH2 0x5BE PUSH2 0xD5F JUMP JUMPDEST JUMP JUMPDEST PUSH0 DUP1 PUSH1 0x64 PUSH1 0x7 SLOAD DUP5 PUSH2 0x5D2 SWAP2 SWAP1 PUSH2 0x199A JUMP JUMPDEST PUSH2 0x5DC SWAP2 SWAP1 PUSH2 0x1A08 JUMP JUMPDEST SWAP2 POP DUP2 DUP4 PUSH2 0x5EA SWAP2 SWAP1 PUSH2 0x1A38 JUMP JUMPDEST SWAP1 POP SWAP2 POP SWAP2 JUMP JUMPDEST PUSH0 PUSH1 0x5 PUSH1 0x14 SWAP1 SLOAD SWAP1 PUSH2 0x100 EXP SWAP1 DIV PUSH1 0xFF AND SWAP1 POP SWAP1 JUMP JUMPDEST PUSH1 0x6 PUSH0 SWAP1 SLOAD SWAP1 PUSH2 0x100 EXP SWAP1 DIV PUSH20 0xFFFFFFFFFFFFFFFFFFFFFFFFFFFFFFFFFFFFFFFF AND DUP2 JUMP JUMPDEST PUSH0 DUP1 PUSH0 DUP4 PUSH20 0xFFFFFFFFFFFFFFFFFFFFFFFFFFFFFFFFFFFFFFFF AND PUSH20 0xFFFFFFFFFFFFFFFFFFFFFFFFFFFFFFFFFFFFFFFF AND DUP2 MSTORE PUSH1 0x20 ADD SWAP1 DUP2 MSTORE PUSH1 0x20 ADD PUSH0 KECCAK256 SLOAD SWAP1 POP SWAP2 SWAP1 POP JUMP JUMPDEST PUSH2 0x679 PUSH2 0xCD8 JUMP JUMPDEST PUSH2 0x682 PUSH0 PUSH2 0xDC1 JUMP JUMPDEST JUMP JUMPDEST PUSH2 0x68C PUSH2 0xCD8 JUMP JUMPDEST PUSH2 0x694 PUSH2 0xE84 JUMP JUMPDEST JUMP JUMPDEST PUSH0 PUSH1 0x5 PUSH0 SWAP1 SLOAD SWAP1 PUSH2 0x100 EXP SWAP1 DIV PUSH20 0xFFFFFFFFFFFFFFFFFFFFFFFFFFFFFFFFFFFFFFFF AND SWAP1 POP SWAP1 JUMP JUMPDEST PUSH2 0x6C6 PUSH2 0xCD8 JUMP JUMPDEST DUP1 PUSH1 0x8 PUSH0 DUP5 PUSH20 0xFFFFFFFFFFFFFFFFFFFFFFFFFFFFFFFFFFFFFFFF AND PUSH20 0xFFFFFFFFFFFFFFFFFFFFFFFFFFFFFFFFFFFFFFFF AND DUP2 MSTORE PUSH1 0x20 ADD SWAP1 DUP2 MSTORE PUSH1 0x20 ADD PUSH0 KECCAK256 PUSH0 PUSH2 0x100 EXP DUP2 SLOAD DUP2 PUSH1 0xFF MUL NOT AND SWAP1 DUP4 ISZERO ISZERO MUL OR SWAP1 SSTORE POP DUP2 PUSH20 0xFFFFFFFFFFFFFFFFFFFFFFFFFFFFFFFFFFFFFFFF AND PUSH32 0x210F2A4A589E25D95B24CBDB060D26AE79BBE123A564D0F973503D48BADD00CA DUP3 PUSH1 0x40 MLOAD PUSH2 0x760 SWAP2 SWAP1 PUSH2 0x1700 JUMP JUMPDEST PUSH1 0x40 MLOAD DUP1 SWAP2 SUB SWAP1 LOG2 POP POP JUMP JUMPDEST PUSH1 0x60 PUSH1 0x4 DUP1 SLOAD PUSH2 0x77B SWAP1 PUSH2 0x193D JUMP JUMPDEST DUP1 PUSH1 0x1F ADD PUSH1 0x20 DUP1 SWAP2 DIV MUL PUSH1 0x20 ADD PUSH1 0x40 MLOAD SWAP1 DUP2 ADD PUSH1 0x40 MSTORE DUP1 SWAP3 SWAP2 SWAP1 DUP2 DUP2 MSTORE PUSH1 0x20 ADD DUP3 DUP1 SLOAD PUSH2 0x7A7 SWAP1 PUSH2 0x193D JUMP JUMPDEST DUP1 ISZERO PUSH2 0x7F2 JUMPI DUP1 PUSH1 0x1F LT PUSH2 0x7C9 JUMPI PUSH2 0x100 DUP1 DUP4 SLOAD DIV MUL DUP4 MSTORE SWAP2 PUSH1 0x20 ADD SWAP2 PUSH2 0x7F2 JUMP JUMPDEST DUP3 ADD SWAP2 SWAP1 PUSH0 MSTORE PUSH1 0x20 PUSH0 KECCAK256 SWAP1 JUMPDEST DUP2 SLOAD DUP2 MSTORE SWAP1 PUSH1 0x1 ADD SWAP1 PUSH1 0x20 ADD DUP1 DUP4 GT PUSH2 0x7D5 JUMPI DUP3 SWAP1 SUB PUSH1 0x1F AND DUP3 ADD SWAP2 JUMPDEST POP POP POP POP POP SWAP1 POP SWAP1 JUMP JUMPDEST PUSH1 0x7 SLOAD DUP2 JUMP JUMPDEST PUSH0 DUP1 PUSH2 0x80C PUSH2 0xB3C JUMP JUMPDEST SWAP1 POP PUSH2 0x819 DUP2 DUP6 DUP6 PUSH2 0xBE8 JUMP JUMPDEST PUSH1 0x1 SWAP2 POP POP SWAP3 SWAP2 POP POP JUMP JUMPDEST PUSH2 0x82C PUSH2 0xCD8 JUMP JUMPDEST PUSH1 0x64 DUP2 GT ISZERO PUSH2 0x867 JUMPI PUSH1 0x40 MLOAD PUSH32 0x5BA09AE000000000000000000000000000000000000000000000000000000000 DUP2 MSTORE PUSH1 0x4 ADD PUSH1 0x40 MLOAD DUP1 SWAP2 SUB SWAP1 REVERT JUMPDEST PUSH0 PUSH1 0x7 SLOAD SWAP1 POP DUP2 PUSH1 0x7 DUP2 SWAP1 SSTORE POP PUSH32 0x2211ABB4BBC4D80B7505C31B54D01D15AC6E33A42C59540D309D89DAF759063A DUP2 DUP4 PUSH1 0x40 MLOAD PUSH2 0x8A5 SWAP3 SWAP2 SWAP1 PUSH2 0x181B JUMP JUMPDEST PUSH1 0x40 MLOAD DUP1 SWAP2 SUB SWAP1 LOG1 POP POP JUMP JUMPDEST PUSH0 PUSH1 0x1 PUSH0 DUP5 PUSH20 0xFFFFFFFFFFFFFFFFFFFFFFFFFFFFFFFFFFFFFFFF AND PUSH20 0xFFFFFFFFFFFFFFFFFFFFFFFFFFFFFFFFFFFFFFFF AND DUP2 MSTORE PUSH1 0x20 ADD SWAP1 DUP2 MSTORE PUSH1 0x20 ADD PUSH0 KECCAK256 PUSH0 DUP4 PUSH20 0xFFFFFFFFFFFFFFFFFFFFFFFFFFFFFFFFFFFFFFFF AND PUSH20 0xFFFFFFFFFFFFFFFFFFFFFFFFFFFFFFFFFFFFFFFF AND DUP2 MSTORE PUSH1 0x20 ADD SWAP1 DUP2 MSTORE PUSH1 0x20 ADD PUSH0 KECCAK256 SLOAD SWAP1 POP SWAP3 SWAP2 POP POP JUMP JUMPDEST PUSH2 0x93B PUSH2 0xCD8 JUMP JUMPDEST PUSH0 PUSH20 0xFFFFFFFFFFFFFFFFFFFFFFFFFFFFFFFFFFFFFFFF AND DUP2 PUSH20 0xFFFFFFFFFFFFFFFFFFFFFFFFFFFFFFFFFFFFFFFF AND SUB PUSH2 0x9A0 JUMPI PUSH1 0x40 MLOAD PUSH32 0xCFE2EA6300000000000000000000000000000000000000000000000000000000 DUP2 MSTORE PUSH1 0x4 ADD PUSH1 0x40 MLOAD DUP1 SWAP2 SUB SWAP1 REVERT JUMPDEST PUSH0 PUSH1 0x6 PUSH0 SWAP1 SLOAD SWAP1 PUSH2 0x100 EXP SWAP1 DIV PUSH20 0xFFFFFFFFFFFFFFFFFFFFFFFFFFFFFFFFFFFFFFFF AND SWAP1 POP DUP2 PUSH1 0x6 PUSH0 PUSH2 0x100 EXP DUP2 SLOAD DUP2 PUSH20 0xFFFFFFFFFFFFFFFFFFFFFFFFFFFFFFFFFFFFFFFF MUL NOT AND SWAP1 DUP4 PUSH20 0xFFFFFFFFFFFFFFFFFFFFFFFFFFFFFFFFFFFFFFFF AND MUL OR SWAP1 SSTORE POP PUSH1 0x1 PUSH1 0x8 PUSH0 DUP5 PUSH20 0xFFFFFFFFFFFFFFFFFFFFFFFFFFFFFFFFFFFFFFFF AND PUSH20 0xFFFFFFFFFFFFFFFFFFFFFFFFFFFFFFFFFFFFFFFF AND DUP2 MSTORE PUSH1 0x20 ADD SWAP1 DUP2 MSTORE PUSH1 0x20 ADD PUSH0 KECCAK256 PUSH0 PUSH2 0x100 EXP DUP2 SLOAD DUP2 PUSH1 0xFF MUL NOT AND SWAP1 DUP4 ISZERO ISZERO MUL OR SWAP1 SSTORE POP DUP2 PUSH20 0xFFFFFFFFFFFFFFFFFFFFFFFFFFFFFFFFFFFFFFFF AND DUP2 PUSH20 0xFFFFFFFFFFFFFFFFFFFFFFFFFFFFFFFFFFFFFFFF AND PUSH32 0x4AB5BE82436D353E61CA18726E984E561F5C1CC7C6D38B29D2553C790434705A PUSH1 0x40 MLOAD PUSH1 0x40 MLOAD DUP1 SWAP2 SUB SWAP1 LOG3 POP POP JUMP JUMPDEST PUSH2 0xAC0 PUSH2 0xCD8 JUMP JUMPDEST PUSH0 PUSH20 0xFFFFFFFFFFFFFFFFFFFFFFFFFFFFFFFFFFFFFFFF AND DUP2 PUSH20 0xFFFFFFFFFFFFFFFFFFFFFFFFFFFFFFFFFFFFFFFF AND SUB PUSH2 0xB30 JUMPI PUSH0 PUSH1 0x40 MLOAD PUSH32 0x1E4FBDF700000000000000000000000000000000000000000000000000000000 DUP2 MSTORE PUSH1 0x4 ADD PUSH2 0xB27 SWAP2 SWAP1 PUSH2 0x1851 JUMP JUMPDEST PUSH1 0x40 MLOAD DUP1 SWAP2 SUB SWAP1 REVERT JUMPDEST PUSH2 0xB39 DUP2 PUSH2 0xDC1 JUMP JUMPDEST POP JUMP JUMPDEST PUSH0 CALLER SWAP1 POP SWAP1 JUMP JUMPDEST PUSH2 0xB50 DUP4 DUP4 DUP4 PUSH1 0x1 PUSH2 0xEE7 JUMP JUMPDEST POP POP POP JUMP JUMPDEST PUSH0 PUSH2 0xB60 DUP5 DUP5 PUSH2 0x8B1 JUMP JUMPDEST SWAP1 POP PUSH32 0xFFFFFFFFFFFFFFFFFFFFFFFFFFFFFFFFFFFFFFFFFFFFFFFFFFFFFFFFFFFFFFFF DUP2 LT ISZERO PUSH2 0xBE2 JUMPI DUP2 DUP2 LT ISZERO PUSH2 0xBD3 JUMPI DUP3 DUP2 DUP4 PUSH1 0x40 MLOAD PUSH32 0xFB8F41B200000000000000000000000000000000000000000000000000000000 DUP2 MSTORE PUSH1 0x4 ADD PUSH2 0xBCA SWAP4 SWAP3 SWAP2 SWAP1 PUSH2 0x1A6B JUMP JUMPDEST PUSH1 0x40 MLOAD DUP1 SWAP2 SUB SWAP1 REVERT JUMPDEST PUSH2 0xBE1 DUP5 DUP5 DUP5 DUP5 SUB PUSH0 PUSH2 0xEE7 JUMP JUMPDEST JUMPDEST POP POP POP POP JUMP JUMPDEST PUSH0 PUSH20 0xFFFFFFFFFFFFFFFFFFFFFFFFFFFFFFFFFFFFFFFF AND DUP4 PUSH20 0xFFFFFFFFFFFFFFFFFFFFFFFFFFFFFFFFFFFFFFFF AND SUB PUSH2 0xC58 JUMPI PUSH0 PUSH1 0x40 MLOAD PUSH32 0x96C6FD1E00000000000000000000000000000000000000000000000000000000 DUP2 MSTORE PUSH1 0x4 ADD PUSH2 0xC4F SWAP2 SWAP1 PUSH2 0x1851 JUMP JUMPDEST PUSH1 0x40 MLOAD DUP1 SWAP2 SUB SWAP1 REVERT JUMPDEST PUSH0 PUSH20 0xFFFFFFFFFFFFFFFFFFFFFFFFFFFFFFFFFFFFFFFF AND DUP3 PUSH20 0xFFFFFFFFFFFFFFFFFFFFFFFFFFFFFFFFFFFFFFFF AND SUB PUSH2 0xCC8 JUMPI PUSH0 PUSH1 0x40 MLOAD PUSH32 0xEC442F0500000000000000000000000000000000000000000000000000000000 DUP2 MSTORE PUSH1 0x4 ADD PUSH2 0xCBF SWAP2 SWAP1 PUSH2 0x1851 JUMP JUMPDEST PUSH1 0x40 MLOAD DUP1 SWAP2 SUB SWAP1 REVERT JUMPDEST PUSH2 0xCD3 DUP4 DUP4 DUP4 PUSH2 0x10B6 JUMP JUMPDEST POP POP POP JUMP JUMPDEST PUSH2 0xCE0 PUSH2 0xB3C JUMP JUMPDEST PUSH20 0xFFFFFFFFFFFFFFFFFFFFFFFFFFFFFFFFFFFFFFFF AND PUSH2 0xCFE PUSH2 0x696 JUMP JUMPDEST PUSH20 0xFFFFFFFFFFFFFFFFFFFFFFFFFFFFFFFFFFFFFFFF AND EQ PUSH2 0xD5D JUMPI PUSH2 0xD21 PUSH2 0xB3C JUMP JUMPDEST PUSH1 0x40 MLOAD PUSH32 0x118CDAA700000000000000000000000000000000000000000000000000000000 DUP2 MSTORE PUSH1 0x4 ADD PUSH2 0xD54 SWAP2 SWAP1 PUSH2 0x1851 JUMP JUMPDEST PUSH1 0x40 MLOAD DUP1 SWAP2 SUB SWAP1 REVERT JUMPDEST JUMP JUMPDEST PUSH2 0xD67 PUSH2 0x12C1 JUMP JUMPDEST PUSH0 PUSH1 0x5 PUSH1 0x14 PUSH2 0x100 EXP DUP2 SLOAD DUP2 PUSH1 0xFF MUL NOT AND SWAP1 DUP4 ISZERO ISZERO MUL OR SWAP1 SSTORE POP PUSH32 0x5DB9EE0A495BF2E6FF9C91A7834C1BA4FDD244A5E8AA4E537BD38AEAE4B073AA PUSH2 0xDAA PUSH2 0xB3C JUMP JUMPDEST PUSH1 0x40 MLOAD PUSH2 0xDB7 SWAP2 SWAP1 PUSH2 0x1851 JUMP JUMPDEST PUSH1 0x40 MLOAD DUP1 SWAP2 SUB SWAP1 LOG1 JUMP JUMPDEST PUSH0 PUSH1 0x5 PUSH0 SWAP1 SLOAD SWAP1 PUSH2 0x100 EXP SWAP1 DIV PUSH20 0xFFFFFFFFFFFFFFFFFFFFFFFFFFFFFFFFFFFFFFFF AND SWAP1 POP DUP2 PUSH1 0x5 PUSH0 PUSH2 0x100 EXP DUP2 SLOAD DUP2 PUSH20 0xFFFFFFFFFFFFFFFFFFFFFFFFFFFFFFFFFFFFFFFF MUL NOT AND SWAP1 DUP4 PUSH20 0xFFFFFFFFFFFFFFFFFFFFFFFFFFFFFFFFFFFFFFFF AND MUL OR SWAP1 SSTORE POP DUP2 PUSH20 0xFFFFFFFFFFFFFFFFFFFFFFFFFFFFFFFFFFFFFFFF AND DUP2 PUSH20 0xFFFFFFFFFFFFFFFFFFFFFFFFFFFFFFFFFFFFFFFF AND PUSH32 0x8BE0079C531659141344CD1FD0A4F28419497F9722A3DAAFE3B4186F6B6457E0 PUSH1 0x40 MLOAD PUSH1 0x40 MLOAD DUP1 SWAP2 SUB SWAP1 LOG3 POP POP JUMP JUMPDEST PUSH2 0xE8C PUSH2 0x130A JUMP JUMPDEST PUSH1 0x1 PUSH1 0x5 PUSH1 0x14 PUSH2 0x100 EXP DUP2 SLOAD DUP2 PUSH1 0xFF MUL NOT AND SWAP1 DUP4 ISZERO ISZERO MUL OR SWAP1 SSTORE POP PUSH32 0x62E78CEA01BEE320CD4E420270B5EA74000D11B0C9F74754EBDBFC544B05A258 PUSH2 0xED0 PUSH2 0xB3C JUMP JUMPDEST PUSH1 0x40 MLOAD PUSH2 0xEDD SWAP2 SWAP1 PUSH2 0x1851 JUMP JUMPDEST PUSH1 0x40 MLOAD DUP1 SWAP2 SUB SWAP1 LOG1 JUMP JUMPDEST PUSH0 PUSH20 0xFFFFFFFFFFFFFFFFFFFFFFFFFFFFFFFFFFFFFFFF AND DUP5 PUSH20 0xFFFFFFFFFFFFFFFFFFFFFFFFFFFFFFFFFFFFFFFF AND SUB PUSH2 0xF57 JUMPI PUSH0 PUSH1 0x40 MLOAD PUSH32 0xE602DF0500000000000000000000000000000000000000000000000000000000 DUP2 MSTORE PUSH1 0x4 ADD PUSH2 0xF4E SWAP2 SWAP1 PUSH2 0x1851 JUMP JUMPDEST PUSH1 0x40 MLOAD DUP1 SWAP2 SUB SWAP1 REVERT JUMPDEST PUSH0 PUSH20 0xFFFFFFFFFFFFFFFFFFFFFFFFFFFFFFFFFFFFFFFF AND DUP4 PUSH20 0xFFFFFFFFFFFFFFFFFFFFFFFFFFFFFFFFFFFFFFFF AND SUB PUSH2 0xFC7 JUMPI PUSH0 PUSH1 0x40 MLOAD PUSH32 0x94280D6200000000000000000000000000000000000000000000000000000000 DUP2 MSTORE PUSH1 0x4 ADD PUSH2 0xFBE SWAP2 SWAP1 PUSH2 0x1851 JUMP JUMPDEST PUSH1 0x40 MLOAD DUP1 SWAP2 SUB SWAP1 REVERT JUMPDEST DUP2 PUSH1 0x1 PUSH0 DUP7 PUSH20 0xFFFFFFFFFFFFFFFFFFFFFFFFFFFFFFFFFFFFFFFF AND PUSH20 0xFFFFFFFFFFFFFFFFFFFFFFFFFFFFFFFFFFFFFFFF AND DUP2 MSTORE PUSH1 0x20 ADD SWAP1 DUP2 MSTORE PUSH1 0x20 ADD PUSH0 KECCAK256 PUSH0 DUP6 PUSH20 0xFFFFFFFFFFFFFFFFFFFFFFFFFFFFFFFFFFFFFFFF AND PUSH20 0xFFFFFFFFFFFFFFFFFFFFFFFFFFFFFFFFFFFFFFFF AND DUP2 MSTORE PUSH1 0x20 ADD SWAP1 DUP2 MSTORE PUSH1 0x20 ADD PUSH0 KECCAK256 DUP2 SWAP1 SSTORE POP DUP1 ISZERO PUSH2 0x10B0 JUMPI DUP3 PUSH20 0xFFFFFFFFFFFFFFFFFFFFFFFFFFFFFFFFFFFFFFFF AND DUP5 PUSH20 0xFFFFFFFFFFFFFFFFFFFFFFFFFFFFFFFFFFFFFFFF AND PUSH32 0x8C5BE1E5EBEC7D5BD14F71427D1E84F3DD0314C0F7B2291E5B200AC8C7C3B925 DUP5 PUSH1 0x40 MLOAD PUSH2 0x10A7 SWAP2 SWAP1 PUSH2 0x1753 JUMP JUMPDEST PUSH1 0x40 MLOAD DUP1 SWAP2 SUB SWAP1 LOG3 JUMPDEST POP POP POP POP JUMP JUMPDEST PUSH2 0x10BE PUSH2 0x130A JUMP JUMPDEST PUSH0 PUSH20 0xFFFFFFFFFFFFFFFFFFFFFFFFFFFFFFFFFFFFFFFF AND DUP4 PUSH20 0xFFFFFFFFFFFFFFFFFFFFFFFFFFFFFFFFFFFFFFFF AND EQ DUP1 PUSH2 0x1123 JUMPI POP PUSH0 PUSH20 0xFFFFFFFFFFFFFFFFFFFFFFFFFFFFFFFFFFFFFFFF AND DUP3 PUSH20 0xFFFFFFFFFFFFFFFFFFFFFFFFFFFFFFFFFFFFFFFF AND EQ JUMPDEST DUP1 PUSH2 0x1174 JUMPI POP PUSH1 0x8 PUSH0 DUP5 PUSH20 0xFFFFFFFFFFFFFFFFFFFFFFFFFFFFFFFFFFFFFFFF AND PUSH20 0xFFFFFFFFFFFFFFFFFFFFFFFFFFFFFFFFFFFFFFFF AND DUP2 MSTORE PUSH1 0x20 ADD SWAP1 DUP2 MSTORE PUSH1 0x20 ADD PUSH0 KECCAK256 PUSH0 SWAP1 SLOAD SWAP1 PUSH2 0x100 EXP SWAP1 DIV PUSH1 0xFF AND JUMPDEST DUP1 PUSH2 0x11C5 JUMPI POP PUSH1 0x8 PUSH0 DUP4 PUSH20 0xFFFFFFFFFFFFFFFFFFFFFFFFFFFFFFFFFFFFFFFF AND PUSH20 0xFFFFFFFFFFFFFFFFFFFFFFFFFFFFFFFFFFFFFFFF AND DUP2 MSTORE PUSH1 0x20 ADD SWAP1 DUP2 MSTORE PUSH1 0x20 ADD PUSH0 KECCAK256 PUSH0 SWAP1 SLOAD SWAP1 PUSH2 0x100 EXP SWAP1 DIV PUSH1 0xFF AND JUMPDEST DUP1 PUSH2 0x11D1 JUMPI POP PUSH0 PUSH1 0x7 SLOAD EQ JUMPDEST ISZERO PUSH2 0x11E6 JUMPI PUSH2 0x11E1 DUP4 DUP4 DUP4 PUSH2 0x1354 JUMP JUMPDEST PUSH2 0x12BC JUMP JUMPDEST PUSH0 PUSH1 0x64 PUSH1 0x7 SLOAD DUP4 PUSH2 0x11F7 SWAP2 SWAP1 PUSH2 0x199A JUMP JUMPDEST PUSH2 0x1201 SWAP2 SWAP1 PUSH2 0x1A08 JUMP JUMPDEST SWAP1 POP PUSH0 DUP2 DUP4 PUSH2 0x1210 SWAP2 SWAP1 PUSH2 0x1A38 JUMP JUMPDEST SWAP1 POP PUSH0 DUP3 GT ISZERO PUSH2 0x1247 JUMPI PUSH2 0x1246 DUP6 PUSH1 0x6 PUSH0 SWAP1 SLOAD SWAP1 PUSH2 0x100 EXP SWAP1 DIV PUSH20 0xFFFFFFFFFFFFFFFFFFFFFFFFFFFFFFFFFFFFFFFF AND DUP5 PUSH2 0x1354 JUMP JUMPDEST JUMPDEST PUSH2 0x1252 DUP6 DUP6 DUP4 PUSH2 0x1354 JUMP JUMPDEST DUP4 PUSH20 0xFFFFFFFFFFFFFFFFFFFFFFFFFFFFFFFFFFFFFFFF AND DUP6 PUSH20 0xFFFFFFFFFFFFFFFFFFFFFFFFFFFFFFFFFFFFFFFF AND PUSH32 0xDDB30886D90DB45ADC1B2EDCBABE12227896C25143CD155D3BF62EC8EFF67856 DUP5 DUP5 PUSH1 0x40 MLOAD PUSH2 0x12B1 SWAP3 SWAP2 SWAP1 PUSH2 0x181B JUMP JUMPDEST PUSH1 0x40 MLOAD DUP1 SWAP2 SUB SWAP1 LOG3 POP POP JUMPDEST POP POP POP JUMP JUMPDEST PUSH2 0x12C9 PUSH2 0x5F1 JUMP JUMPDEST PUSH2 0x1308 JUMPI PUSH1 0x40 MLOAD PUSH32 0x8C379A000000000000000000000000000000000000000000000000000000000 DUP2 MSTORE PUSH1 0x4 ADD PUSH2 0x12FF SWAP1 PUSH2 0x1AEA JUMP JUMPDEST PUSH1 0x40 MLOAD DUP1 SWAP2 SUB SWAP1 REVERT JUMPDEST JUMP JUMPDEST PUSH2 0x1312 PUSH2 0x5F1 JUMP JUMPDEST ISZERO PUSH2 0x1352 JUMPI PUSH1 0x40 MLOAD PUSH32 0x8C379A000000000000000000000000000000000000000000000000000000000 DUP2 MSTORE PUSH1 0x4 ADD PUSH2 0x1349 SWAP1 PUSH2 0x1B52 JUMP JUMPDEST PUSH1 0x40 MLOAD DUP1 SWAP2 SUB SWAP1 REVERT JUMPDEST JUMP JUMPDEST PUSH0 PUSH20 0xFFFFFFFFFFFFFFFFFFFFFFFFFFFFFFFFFFFFFFFF AND DUP4 PUSH20 0xFFFFFFFFFFFFFFFFFFFFFFFFFFFFFFFFFFFFFFFF AND SUB PUSH2 0x13A4 JUMPI DUP1 PUSH1 0x2 PUSH0 DUP3 DUP3 SLOAD PUSH2 0x1398 SWAP2 SWAP1 PUSH2 0x1B70 JUMP JUMPDEST SWAP3 POP POP DUP2 SWAP1 SSTORE POP PUSH2 0x1472 JUMP JUMPDEST PUSH0 DUP1 PUSH0 DUP6 PUSH20 0xFFFFFFFFFFFFFFFFFFFFFFFFFFFFFFFFFFFFFFFF AND PUSH20 0xFFFFFFFFFFFFFFFFFFFFFFFFFFFFFFFFFFFFFFFF AND DUP2 MSTORE PUSH1 0x20 ADD SWAP1 DUP2 MSTORE PUSH1 0x20 ADD PUSH0 KECCAK256 SLOAD SWAP1 POP DUP2 DUP2 LT ISZERO PUSH2 0x142D JUMPI DUP4 DUP2 DUP4 PUSH1 0x40 MLOAD PUSH32 0xE450D38C00000000000000000000000000000000000000000000000000000000 DUP2 MSTORE PUSH1 0x4 ADD PUSH2 0x1424 SWAP4 SWAP3 SWAP2 SWAP1 PUSH2 0x1A6B JUMP JUMPDEST PUSH1 0x40 MLOAD DUP1 SWAP2 SUB SWAP1 REVERT JUMPDEST DUP2 DUP2 SUB PUSH0 DUP1 DUP7 PUSH20 0xFFFFFFFFFFFFFFFFFFFFFFFFFFFFFFFFFFFFFFFF AND PUSH20 0xFFFFFFFFFFFFFFFFFFFFFFFFFFFFFFFFFFFFFFFF AND DUP2 MSTORE PUSH1 0x20 ADD SWAP1 DUP2 MSTORE PUSH1 0x20 ADD PUSH0 KECCAK256 DUP2 SWAP1 SSTORE POP POP JUMPDEST PUSH0 PUSH20 0xFFFFFFFFFFFFFFFFFFFFFFFFFFFFFFFFFFFFFFFF AND DUP3 PUSH20 0xFFFFFFFFFFFFFFFFFFFFFFFFFFFFFFFFFFFFFFFF AND SUB PUSH2 0x14B9 JUMPI DUP1 PUSH1 0x2 PUSH0 DUP3 DUP3 SLOAD SUB SWAP3 POP POP DUP2 SWAP1 SSTORE POP PUSH2 0x1503 JUMP JUMPDEST DUP1 PUSH0 DUP1 DUP5 PUSH20 0xFFFFFFFFFFFFFFFFFFFFFFFFFFFFFFFFFFFFFFFF AND PUSH20 0xFFFFFFFFFFFFFFFFFFFFFFFFFFFFFFFFFFFFFFFF AND DUP2 MSTORE PUSH1 0x20 ADD SWAP1 DUP2 MSTORE PUSH1 0x20 ADD PUSH0 KECCAK256 PUSH0 DUP3 DUP3 SLOAD ADD SWAP3 POP POP DUP2 SWAP1 SSTORE POP JUMPDEST DUP2 PUSH20 0xFFFFFFFFFFFFFFFFFFFFFFFFFFFFFFFFFFFFFFFF AND DUP4 PUSH20 0xFFFFFFFFFFFFFFFFFFFFFFFFFFFFFFFFFFFFFFFF AND PUSH32 0xDDF252AD1BE2C89B69C2B068FC378DAA952BA7F163C4A11628F55A4DF523B3EF DUP4 PUSH1 0x40 MLOAD PUSH2 0x1560 SWAP2 SWAP1 PUSH2 0x1753 JUMP JUMPDEST PUSH1 0x40 MLOAD DUP1 SWAP2 SUB SWAP1 LOG3 POP POP POP JUMP JUMPDEST PUSH0 DUP2 MLOAD SWAP1 POP SWAP2 SWAP1 POP JUMP JUMPDEST PUSH0 DUP3 DUP3 MSTORE PUSH1 0x20 DUP3 ADD SWAP1 POP SWAP3 SWAP2 POP POP JUMP JUMPDEST PUSH0 JUMPDEST DUP4 DUP2 LT ISZERO PUSH2 0x15A4 JUMPI DUP1 DUP3 ADD MLOAD DUP2 DUP5 ADD MSTORE PUSH1 0x20 DUP2 ADD SWAP1 POP PUSH2 0x1589 JUMP JUMPDEST PUSH0 DUP5 DUP5 ADD MSTORE POP POP POP POP JUMP JUMPDEST PUSH0 PUSH1 0x1F NOT PUSH1 0x1F DUP4 ADD AND SWAP1 POP SWAP2 SWAP1 POP JUMP JUMPDEST PUSH0 PUSH2 0x15C9 DUP3 PUSH2 0x156D JUMP JUMPDEST PUSH2 0x15D3 DUP2 DUP6 PUSH2 0x1577 JUMP JUMPDEST SWAP4 POP PUSH2 0x15E3 DUP2 DUP6 PUSH1 0x20 DUP7 ADD PUSH2 0x1587 JUMP JUMPDEST PUSH2 0x15EC DUP2 PUSH2 0x15AF JUMP JUMPDEST DUP5 ADD SWAP2 POP POP SWAP3 SWAP2 POP POP JUMP JUMPDEST PUSH0 PUSH1 0x20 DUP3 ADD SWAP1 POP DUP2 DUP2 SUB PUSH0 DUP4 ADD MSTORE PUSH2 0x160F DUP2 DUP5 PUSH2 0x15BF JUMP JUMPDEST SWAP1 POP SWAP3 SWAP2 POP POP JUMP JUMPDEST PUSH0 DUP1 REVERT JUMPDEST PUSH0 PUSH20 0xFFFFFFFFFFFFFFFFFFFFFFFFFFFFFFFFFFFFFFFF DUP3 AND SWAP1 POP SWAP2 SWAP1 POP JUMP JUMPDEST PUSH0 PUSH2 0x1644 DUP3 PUSH2 0x161B JUMP JUMPDEST SWAP1 POP SWAP2 SWAP1 POP JUMP JUMPDEST PUSH2 0x1654 DUP2 PUSH2 0x163A JUMP JUMPDEST DUP2 EQ PUSH2 0x165E JUMPI PUSH0 DUP1 REVERT JUMPDEST POP JUMP JUMPDEST PUSH0 DUP2 CALLDATALOAD SWAP1 POP PUSH2 0x166F DUP2 PUSH2 0x164B JUMP JUMPDEST SWAP3 SWAP2 POP POP JUMP JUMPDEST PUSH0 DUP2 SWAP1 POP SWAP2 SWAP1 POP JUMP JUMPDEST PUSH2 0x1687 DUP2 PUSH2 0x1675 JUMP JUMPDEST DUP2 EQ PUSH2 0x1691 JUMPI PUSH0 DUP1 REVERT JUMPDEST POP JUMP JUMPDEST PUSH0 DUP2 CALLDATALOAD SWAP1 POP PUSH2 0x16A2 DUP2 PUSH2 0x167E JUMP JUMPDEST SWAP3 SWAP2 POP POP JUMP JUMPDEST PUSH0 DUP1 PUSH1 0x40 DUP4 DUP6 SUB SLT ISZERO PUSH2 0x16BE JUMPI PUSH2 0x16BD PUSH2 0x1617 JUMP JUMPDEST JUMPDEST PUSH0 PUSH2 0x16CB DUP6 DUP3 DUP7 ADD PUSH2 0x1661 JUMP JUMPDEST SWAP3 POP POP PUSH1 0x20 PUSH2 0x16DC DUP6 DUP3 DUP7 ADD PUSH2 0x1694 JUMP JUMPDEST SWAP2 POP POP SWAP3 POP SWAP3 SWAP1 POP JUMP JUMPDEST PUSH0 DUP2 ISZERO ISZERO SWAP1 POP SWAP2 SWAP1 POP JUMP JUMPDEST PUSH2 0x16FA DUP2 PUSH2 0x16E6 JUMP JUMPDEST DUP3 MSTORE POP POP JUMP JUMPDEST PUSH0 PUSH1 0x20 DUP3 ADD SWAP1 POP PUSH2 0x1713 PUSH0 DUP4 ADD DUP5 PUSH2 0x16F1 JUMP JUMPDEST SWAP3 SWAP2 POP POP JUMP JUMPDEST PUSH0 PUSH1 0x20 DUP3 DUP5 SUB SLT ISZERO PUSH2 0x172E JUMPI PUSH2 0x172D PUSH2 0x1617 JUMP JUMPDEST JUMPDEST PUSH0 PUSH2 0x173B DUP5 DUP3 DUP6 ADD PUSH2 0x1661 JUMP JUMPDEST SWAP2 POP POP SWAP3 SWAP2 POP POP JUMP JUMPDEST PUSH2 0x174D DUP2 PUSH2 0x1675 JUMP JUMPDEST DUP3 MSTORE POP POP JUMP JUMPDEST PUSH0 PUSH1 0x20 DUP3 ADD SWAP1 POP PUSH2 0x1766 PUSH0 DUP4 ADD DUP5 PUSH2 0x1744 JUMP JUMPDEST SWAP3 SWAP2 POP POP JUMP JUMPDEST PUSH0 DUP1 PUSH0 PUSH1 0x60 DUP5 DUP7 SUB SLT ISZERO PUSH2 0x1783 JUMPI PUSH2 0x1782 PUSH2 0x1617 JUMP JUMPDEST JUMPDEST PUSH0 PUSH2 0x1790 DUP7 DUP3 DUP8 ADD PUSH2 0x1661 JUMP JUMPDEST SWAP4 POP POP PUSH1 0x20 PUSH2 0x17A1 DUP7 DUP3 DUP8 ADD PUSH2 0x1661 JUMP JUMPDEST SWAP3 POP POP PUSH1 0x40 PUSH2 0x17B2 DUP7 DUP3 DUP8 ADD PUSH2 0x1694 JUMP JUMPDEST SWAP2 POP POP SWAP3 POP SWAP3 POP SWAP3 JUMP JUMPDEST PUSH0 PUSH1 0xFF DUP3 AND SWAP1 POP SWAP2 SWAP1 POP JUMP JUMPDEST PUSH2 0x17D1 DUP2 PUSH2 0x17BC JUMP JUMPDEST DUP3 MSTORE POP POP JUMP JUMPDEST PUSH0 PUSH1 0x20 DUP3 ADD SWAP1 POP PUSH2 0x17EA PUSH0 DUP4 ADD DUP5 PUSH2 0x17C8 JUMP JUMPDEST SWAP3 SWAP2 POP POP JUMP JUMPDEST PUSH0 PUSH1 0x20 DUP3 DUP5 SUB SLT ISZERO PUSH2 0x1805 JUMPI PUSH2 0x1804 PUSH2 0x1617 JUMP JUMPDEST JUMPDEST PUSH0 PUSH2 0x1812 DUP5 DUP3 DUP6 ADD PUSH2 0x1694 JUMP JUMPDEST SWAP2 POP POP SWAP3 SWAP2 POP POP JUMP JUMPDEST PUSH0 PUSH1 0x40 DUP3 ADD SWAP1 POP PUSH2 0x182E PUSH0 DUP4 ADD DUP6 PUSH2 0x1744 JUMP JUMPDEST PUSH2 0x183B PUSH1 0x20 DUP4 ADD DUP5 PUSH2 0x1744 JUMP JUMPDEST SWAP4 SWAP3 POP POP POP JUMP JUMPDEST PUSH2 0x184B DUP2 PUSH2 0x163A JUMP JUMPDEST DUP3 MSTORE POP POP JUMP JUMPDEST PUSH0 PUSH1 0x20 DUP3 ADD SWAP1 POP PUSH2 0x1864 PUSH0 DUP4 ADD DUP5 PUSH2 0x1842 JUMP JUMPDEST SWAP3 SWAP2 POP POP JUMP JUMPDEST PUSH2 0x1873 DUP2 PUSH2 0x16E6 JUMP JUMPDEST DUP2 EQ PUSH2 0x187D JUMPI PUSH0 DUP1 REVERT JUMPDEST POP JUMP JUMPDEST PUSH0 DUP2 CALLDATALOAD SWAP1 POP PUSH2 0x188E DUP2 PUSH2 0x186A JUMP JUMPDEST SWAP3 SWAP2 POP POP JUMP JUMPDEST PUSH0 DUP1 PUSH1 0x40 DUP4 DUP6 SUB SLT ISZERO PUSH2 0x18AA JUMPI PUSH2 0x18A9 PUSH2 0x1617 JUMP JUMPDEST JUMPDEST PUSH0 PUSH2 0x18B7 DUP6 DUP3 DUP7 ADD PUSH2 0x1661 JUMP JUMPDEST SWAP3 POP POP PUSH1 0x20 PUSH2 0x18C8 DUP6 DUP3 DUP7 ADD PUSH2 0x1880 JUMP JUMPDEST SWAP2 POP POP SWAP3 POP SWAP3 SWAP1 POP JUMP JUMPDEST PUSH0 DUP1 PUSH1 0x40 DUP4 DUP6 SUB SLT ISZERO PUSH2 0x18E8 JUMPI PUSH2 0x18E7 PUSH2 0x1617 JUMP JUMPDEST JUMPDEST PUSH0 PUSH2 0x18F5 DUP6 DUP3 DUP7 ADD PUSH2 0x1661 JUMP JUMPDEST SWAP3 POP POP PUSH1 0x20 PUSH2 0x1906 DUP6 DUP3 DUP7 ADD PUSH2 0x1661 JUMP JUMPDEST SWAP2 POP POP SWAP3 POP SWAP3 SWAP1 POP JUMP JUMPDEST PUSH32 0x4E487B7100000000000000000000000000000000000000000000000000000000 PUSH0 MSTORE PUSH1 0x22 PUSH1 0x4 MSTORE PUSH1 0x24 PUSH0 REVERT JUMPDEST PUSH0 PUSH1 0x2 DUP3 DIV SWAP1 POP PUSH1 0x1 DUP3 AND DUP1 PUSH2 0x1954 JUMPI PUSH1 0x7F DUP3 AND SWAP2 POP JUMPDEST PUSH1 0x20 DUP3 LT DUP2 SUB PUSH2 0x1967 JUMPI PUSH2 0x1966 PUSH2 0x1910 JUMP JUMPDEST JUMPDEST POP SWAP2 SWAP1 POP JUMP JUMPDEST PUSH32 0x4E487B7100000000000000000000000000000000000000000000000000000000 PUSH0 MSTORE PUSH1 0x11 PUSH1 0x4 MSTORE PUSH1 0x24 PUSH0 REVERT JUMPDEST PUSH0 PUSH2 0x19A4 DUP3 PUSH2 0x1675 JUMP JUMPDEST SWAP2 POP PUSH2 0x19AF DUP4 PUSH2 0x1675 JUMP JUMPDEST SWAP3 POP DUP3 DUP3 MUL PUSH2 0x19BD DUP2 PUSH2 0x1675 JUMP JUMPDEST SWAP2 POP DUP3 DUP3 DIV DUP5 EQ DUP4 ISZERO OR PUSH2 0x19D4 JUMPI PUSH2 0x19D3 PUSH2 0x196D JUMP JUMPDEST JUMPDEST POP SWAP3 SWAP2 POP POP JUMP JUMPDEST PUSH32 0x4E487B7100000000000000000000000000000000000000000000000000000000 PUSH0 MSTORE PUSH1 0x12 PUSH1 0x4 MSTORE PUSH1 0x24 PUSH0 REVERT JUMPDEST PUSH0 PUSH2 0x1A12 DUP3 PUSH2 0x1675 JUMP JUMPDEST SWAP2 POP PUSH2 0x1A1D DUP4 PUSH2 0x1675 JUMP JUMPDEST SWAP3 POP DUP3 PUSH2 0x1A2D JUMPI PUSH2 0x1A2C PUSH2 0x19DB JUMP JUMPDEST JUMPDEST DUP3 DUP3 DIV SWAP1 POP SWAP3 SWAP2 POP POP JUMP JUMPDEST PUSH0 PUSH2 0x1A42 DUP3 PUSH2 0x1675 JUMP JUMPDEST SWAP2 POP PUSH2 0x1A4D DUP4 PUSH2 0x1675 JUMP JUMPDEST SWAP3 POP DUP3 DUP3 SUB SWAP1 POP DUP2 DUP2 GT ISZERO PUSH2 0x1A65 JUMPI PUSH2 0x1A64 PUSH2 0x196D JUMP JUMPDEST JUMPDEST SWAP3 SWAP2 POP POP JUMP JUMPDEST PUSH0 PUSH1 0x60 DUP3 ADD SWAP1 POP PUSH2 0x1A7E PUSH0 DUP4 ADD DUP7 PUSH2 0x1842 JUMP JUMPDEST PUSH2 0x1A8B PUSH1 0x20 DUP4 ADD DUP6 PUSH2 0x1744 JUMP JUMPDEST PUSH2 0x1A98 PUSH1 0x40 DUP4 ADD DUP5 PUSH2 0x1744 JUMP JUMPDEST SWAP5 SWAP4 POP POP POP POP JUMP JUMPDEST PUSH32 0x5061757361626C653A206E6F7420706175736564000000000000000000000000 PUSH0 DUP3 ADD MSTORE POP JUMP JUMPDEST PUSH0 PUSH2 0x1AD4 PUSH1 0x14 DUP4 PUSH2 0x1577 JUMP JUMPDEST SWAP2 POP PUSH2 0x1ADF DUP3 PUSH2 0x1AA0 JUMP JUMPDEST PUSH1 0x20 DUP3 ADD SWAP1 POP SWAP2 SWAP1 POP JUMP JUMPDEST PUSH0 PUSH1 0x20 DUP3 ADD SWAP1 POP DUP2 DUP2 SUB PUSH0 DUP4 ADD MSTORE PUSH2 0x1B01 DUP2 PUSH2 0x1AC8 JUMP JUMPDEST SWAP1 POP SWAP2 SWAP1 POP JUMP JUMPDEST PUSH32 0x5061757361626C653A2070617573656400000000000000000000000000000000 PUSH0 DUP3 ADD MSTORE POP JUMP JUMPDEST PUSH0 PUSH2 0x1B3C PUSH1 0x10 DUP4 PUSH2 0x1577 JUMP JUMPDEST SWAP2 POP PUSH2 0x1B47 DUP3 PUSH2 0x1B08 JUMP JUMPDEST PUSH1 0x20 DUP3 ADD SWAP1 POP SWAP2 SWAP1 POP JUMP JUMPDEST PUSH0 PUSH1 0x20 DUP3 ADD SWAP1 POP DUP2 DUP2 SUB PUSH0 DUP4 ADD MSTORE PUSH2 0x1B69 DUP2 PUSH2 0x1B30 JUMP JUMPDEST SWAP1 POP SWAP2 SWAP1 POP JUMP JUMPDEST PUSH0 PUSH2 0x1B7A DUP3 PUSH2 0x1675 JUMP JUMPDEST SWAP2 POP PUSH2 0x1B85 DUP4 PUSH2 0x1675 JUMP JUMPDEST SWAP3 POP DUP3 DUP3 ADD SWAP1 POP DUP1 DUP3 GT ISZERO PUSH2 0x1B9D JUMPI PUSH2 0x1B9C PUSH2 0x196D JUMP JUMPDEST JUMPDEST SWAP3 SWAP2 POP POP JUMP INVALID LOG2 PUSH5 0x6970667358 0x22 SLT KECCAK256 ADDRESS 0xBD 0xD 0xAF 0xB8 EXTCODECOPY CALLER STOP 0xE3 STOP 0xF9 SWAP4 0xD3 0x29 BYTE PUSH28 0x5C52D803ABEDAD8F2C27452DEA9429C464736F6C6343000814003300 "
				},
				"gasEstimates": {
					"creation": {
						"codeDepositCost": "1425800",
						"executionCost": "infinite",
						"totalCost": "infinite"
					},
					"external": {
						"allowance(address,address)": "infinite",
						"approve(address,uint256)": "infinite",
						"balanceOf(address)": "2852",
						"calculateTax(uint256)": "infinite",
						"decimals()": "361",
						"isAddressExempt(address)": "2938",
						"isFeeExempt(address)": "2878",
						"name()": "infinite",
						"owner()": "2604",
						"pause()": "infinite",
						"paused()": "2635",
						"renounceOwnership()": "infinite",
						"setFeeExempt(address,bool)": "infinite",
						"setTaxFee(uint256)": "infinite",
						"setTreasury(address)": "infinite",
						"symbol()": "infinite",
						"taxFee()": "2447",
						"totalSupply()": "2522",
						"transfer(address,uint256)": "infinite",
						"transferFrom(address,address,uint256)": "infinite",
						"transferOwnership(address)": "infinite",
						"treasury()": "2641",
						"unpause()": "infinite"
					},
					"internal": {
						"_update(address,address,uint256)": "infinite"
					}
				},
				"methodIdentifiers": {
					"allowance(address,address)": "dd62ed3e",
					"approve(address,uint256)": "095ea7b3",
					"balanceOf(address)": "70a08231",
					"calculateTax(uint256)": "483a9310",
					"decimals()": "313ce567",
					"isAddressExempt(address)": "10fdad70",
					"isFeeExempt(address)": "3f4218e0",
					"name()": "06fdde03",
					"owner()": "8da5cb5b",
					"pause()": "8456cb59",
					"paused()": "5c975abb",
					"renounceOwnership()": "715018a6",
					"setFeeExempt(address,bool)": "8ebfc796",
					"setTaxFee(uint256)": "c4081a4c",
					"setTreasury(address)": "f0f44260",
					"symbol()": "95d89b41",
					"taxFee()": "a071dcf4",
					"totalSupply()": "18160ddd",
					"transfer(address,uint256)": "a9059cbb",
					"transferFrom(address,address,uint256)": "23b872dd",
					"transferOwnership(address)": "f2fde38b",
					"treasury()": "61d027b3",
					"unpause()": "3f4ba83a"
				}
			},
			"storageLayout": {
				"storage": [
					{
						"astId": 415,
						"contract": "main.sol:TaxableToken",
						"label": "_balances",
						"offset": 0,
						"slot": "0",
						"type": "t_mapping(t_address,t_uint256)"
					},
					{
						"astId": 421,
						"contract": "main.sol:TaxableToken",
						"label": "_allowances",
						"offset": 0,
						"slot": "1",
						"type": "t_mapping(t_address,t_mapping(t_address,t_uint256))"
					},
					{
						"astId": 423,
						"contract": "main.sol:TaxableToken",
						"label": "_totalSupply",
						"offset": 0,
						"slot": "2",
						"type": "t_uint256"
					},
					{
						"astId": 425,
						"contract": "main.sol:TaxableToken",
						"label": "_name",
						"offset": 0,
						"slot": "3",
						"type": "t_string_storage"
					},
					{
						"astId": 427,
						"contract": "main.sol:TaxableToken",
						"label": "_symbol",
						"offset": 0,
						"slot": "4",
						"type": "t_string_storage"
					},
					{
						"astId": 8,
						"contract": "main.sol:TaxableToken",
						"label": "_owner",
						"offset": 0,
						"slot": "5",
						"type": "t_address"
					},
					{
						"astId": 302,
						"contract": "main.sol:TaxableToken",
						"label": "_paused",
						"offset": 20,
						"slot": "5",
						"type": "t_bool"
					},
					{
						"astId": 1055,
						"contract": "main.sol:TaxableToken",
						"label": "treasury",
						"offset": 0,
						"slot": "6",
						"type": "t_address"
					},
					{
						"astId": 1057,
						"contract": "main.sol:TaxableToken",
						"label": "taxFee",
						"offset": 0,
						"slot": "7",
						"type": "t_uint256"
					},
					{
						"astId": 1061,
						"contract": "main.sol:TaxableToken",
						"label": "isFeeExempt",
						"offset": 0,
						"slot": "8",
						"type": "t_mapping(t_address,t_bool)"
					}
				],
				"types": {
					"t_address": {
						"encoding": "inplace",
						"label": "address",
						"numberOfBytes": "20"
					},
					"t_bool": {
						"encoding": "inplace",
						"label": "bool",
						"numberOfBytes": "1"
					},
					"t_mapping(t_address,t_bool)": {
						"encoding": "mapping",
						"key": "t_address",
						"label": "mapping(address => bool)",
						"numberOfBytes": "32",
						"value": "t_bool"
					},
					"t_mapping(t_address,t_mapping(t_address,t_uint256))": {
						"encoding": "mapping",
						"key": "t_address",
						"label": "mapping(address => mapping(address => uint256))",
						"numberOfBytes": "32",
						"value": "t_mapping(t_address,t_uint256)"
					},
					"t_mapping(t_address,t_uint256)": {
						"encoding": "mapping",
						"key": "t_address",
						"label": "mapping(address => uint256)",
						"numberOfBytes": "32",
						"value": "t_uint256"
					},
					"t_string_storage": {
						"encoding": "bytes",
						"label": "string",
						"numberOfBytes": "32"
					},
					"t_uint256": {
						"encoding": "inplace",
						"label": "uint256",
						"numberOfBytes": "32"
					}
				}
			},
			"userdoc": {
				"kind": "user",
				"methods": {},
				"version": 1
			}
		}
	}
}